:020000040000FA
:10000000001E0020D5000000EF000000350C0000AD
:1000100000000000000000000000000000000000E0
:10002000000000000000000000000000F3000000DD
:100030000000000000000000F5000000A30D00001B
:100040004D0D0000550D00005D0D0000690D000014
:100050004909000021120000711200007D12000009
:10006000770C00007F0C00007D0D0000850D000066
:10007000450C00004D0C0000091200001112000098
:10008000191200006B0C0000291200003112000050
:10009000391200003D0D00003F130000750D0000F7
:1000A00027070000450D00002B130000331300004C
:1000B0001F0D0000630C0000DD0900004109000075
:1000C0000348854600F094FA0048004719070000ED
:1000D000001E002009480A4A002100A1814200D9DF
:1000E0000244084802600848804708480047FEE785
:1000F000FEE7FEE7FEE7FEE7FEE700000000002067
:100100000000000008ED00E0BD110000C10000008B
:1001100030B50B46014600202022012409E00D469F
:10012000D5409D4205D31D469540491B2546954027
:1001300040191546521E002DF1DC30BD70B500246B
:100140002546002801DA01244042002901DA012570
:100150004942FFF7DDFFAC4200D04042002C00D006
:10016000494270BD03460B439B0703D009E008C911
:10017000121F08C0042AFAD203E00B780370401C57
:10018000491C521EF9D27047D2B201E00270401CE5
:10019000491EFBD270470022F6E710B513460A4607
:1001A00004461946FFF7F0FF204610BD10B50022A7
:1001B00000E0521C835C8C5CA34201D1002BF8D17F
:1001C000D8B2E1B2401A10BD30B504460020034653
:1001D00000E05B1C934203D2E05CCD5C401BF8D096
:1001E00030BDF0B51FB40646002082B0054640245D
:1001F000019100901BE0019922460F46304600F025
:1002000020F8049A059B801A994110D3104619468C
:10021000224600F0FFF9361A8F410197224601204D
:100220000021009F00F0F6F938184D41009020465B
:10023000641E0028DFDC019B00982946324607B087
:10024000F0BD10B5202A04DB0846203AD04000213A
:1002500010BD0B46D340D0402024A21A9140084341
:10026000194610BDF0B507460846584087B0C00F84
:10027000049048000E46590040084908BC1A8841BD
:1002800005D2384631461E4617460B4602465800F0
:10029000400810434CD0300D039040055900400DEC
:1002A000490D0590401A0290402872DA1803012186
:1002B000000B09050843019004980092002805D01E
:1002C00001995242002088410092019002984021F9
:1002D0000A1A0199009800F09DF905460C466B46F4
:1002E00007CB00F0A7F9C0197141039A0E0D002346
:1002F000D71756401A467A40164344D0049A002A2B
:100300002DD0029A012A039A15DC1205C01A9141D8
:1003100001263605001C7141D20F059ED2070093BD
:10032000019202962A46234600F0A4F907B0F0BDD8
:1003300038463146FAE71605224A0F46B218C01A67
:10034000B74101210905001C4F4100187F411146AA
:1003500018187941E20F10436D19644113E0E20768
:100360006D0815436408C2071443039A0126120559
:10037000C01A91413605001C7141CE074008304338
:100380004908C01851412A46234600F066F9CDE7D6
:10039000FFE7049801224000C117121A00238B4185
:1003A00004983146C417381AA141EEE730B401244D
:1003B000E407634030BC55E730B40124E4076140F2
:1003C00030BC4FE70000E0FFF0B51FB488B00B99D8
:1003D0000998002448400999C00F4900490809912B
:1003E000C0070B990090490049080B91099908989A
:1003F000A64608431CD00B990A98084318D00998C0
:1004000001244000420D4800410D099824050003D5
:10041000000B204309900B980003000B20430B9026
:1004200050181C494018002201901446104605E05F
:10043000002001460DB0F0BD032801DA034600E0BC
:1004400003239C46C11A0AAE0AE05F0008ADED5BCB
:100450004F00F75B7D430027AA187C41491C5B1EB7
:100460006145F2DD410004AB5A522104120C0A43EB
:10047000240C401C0828DFDB01980290009970468C
:1004800001910090059B049A0799069800F0F2F8F4
:10049000D0E700000DFCFFFFF0B50C465C4085B0D6
:1004A000E40FE40703944C000026640859009446C6
:1004B000490802460296224321D062460A431ED0D2
:1004C0006200570D4A000E032303550D0124024616
:1004D0002C492405781B1B0B360B4018234326435D
:1004E000614600901C46501AB44103D30098401C4A
:1004F000009002E0921800985B41002803DA002087
:10050000014605B0F0BD00200121090507468646D9
:1005100011E064461D46141BB54106D36546521BC7
:10052000B341744607430C43A646CD07400849082B
:10053000284392185B4105460D43EAD11046184303
:1005400013D06046194650407140084306D06046BB
:10055000101AB34106D20122002306E00022012333
:10056000DB0702E00122D2435310009874460105D4
:10057000381C6141029C039D0019694100F06DF82F
:10058000BFE70000FD0300004A0009030123090B37
:100590001B0519430A4B10B5520D9A4202DA00208E
:1005A000014610BD064B34339A4203DC9A1AFFF71A
:1005B00048FE10BD034BD21800F02CF810BD00000F
:1005C000FF030000CDFBFFFF10B5002904DB012471
:1005D000E40740428C412146002B04DB1C460123EA
:1005E000DB075242A341994200D1904210BD000066
:1005F000064C0125064E05E0E36807CC2B430C3C76
:1006000098471034B442F7D3FFF75EFD8036000000
:10061000A036000010B5202A04DB0146203A9140A4
:10062000002010BD914020239C1A0346E34019434B
:10063000904010BD10B5202A06DBCB170846203AA3
:100640001041C1170B4306E00B461341D040202454
:10065000A21A91400843194610BD10B5002B08DAC4
:100660000024401C614192185B411A4301D14008AB
:10067000400010BDF0B51FB482B005460C0003D099
:10068000084602F0B5FA02E002F0B2FA2030024663
:10069000009021462846FFF7BDFF049B059A0446BB
:1006A0000F4618431143084314D0184610431BD07B
:1006B000009840210A1A18460599FFF7C2FD054621
:1006C0000E46009A05990498FFF7A4FF084305D049
:1006D000012004E02046394607B0F0BD0020C117D4
:1006E00005430E432C43374300990E986305401A87
:1006F0007905E40A00220C43FD0A0A3002D50020E5
:100700000146E9E70105101969410C9C0D9D00198E
:100710006941FFF7A2FFDFE780B500F04FFD02F06F
:1007200075F8002080BD80B500F030F8C046C046A6
:1007300080BD00001F21090100010840334A1368F1
:100740008B430343136000207047C04602490A6888
:1007500082430A607047C046B42400400120C003B1
:100760002A490A6802430A607047C046034909687B
:1007700001400120002900D108467047B024004004
:10078000014800687047C046A024004080B50120A1
:10079000FFF7ECFF01280BD10120FFF7D7FFFFF790
:1007A000EFFF04490968002900D0884700F034F8B9
:1007B00080BDC046EC02002070B504460420002C29
:1007C00022D0124D01262E60022001F0E7FB606866
:1007D000E168014320690843A16801436069084357
:1007E000296801432960B0022168890201406A68D2
:1007F00082430A436A60A0698000042108406A6855
:100800008A4302436A60002070BDC0460424004051
:1008100003480121016070470148002101607047D1
:10082000C024004080B50448016801220A430260E8
:10083000022001F0B3FB80BD0024004001228A4069
:10084000D1430002014A815000207047140C00403F
:100850000002034A8258CA40012010407047C04637
:10086000100C004010B50002034A8358094C1C408C
:100870000C438450002010BD000C004010B5000255
:10088000034A8358034C1C400C438450002010BD85
:10089000040C00400000FFFF0002284942580123D9
:1008A000134343500020704700022449425801235B
:1008B0009B021343435000207047C04670B503228B
:1008C00013030A6814031C4000021C4A85589D4308
:1008D0002543855001235C024D686D0225408658F2
:1008E000A6432E4386500C7A85581E02B5431C4001
:1008F00023022B438350CB681B017024234085586F
:10090000A5431D4385500B7CDB00082423408558FC
:10091000A5431D4385504B699B0004242340855803
:10092000A5431D4385508969490002231940845815
:100930009C430C438450002070BDC0460C0C00400A
:1009400080B5C046C04680BD80B5C046C04680BDAB
:1009500070B5002805DB1F23034001249C401B4B7E
:100960001C60C30018241C408901CBB2A340FF21A6
:10097000A140CC431649002805DB03250646AE43BB
:10098000154D751906E00F250540083D0326B543B2
:10099000104EAD192E6826401E432E60012A07D145
:1009A000002811DB1F221040012282400A6070BD26
:1009B000002809DB1F2210400122824080200A50BB
:1009C000BFF34F8FBFF36F8F70BDC04680E200E072
:1009D00000E100E01CED00E000E400E080B5C0466E
:1009E000C046C046C04680BDF0B589B00D4604463D
:1009F000FF26089668462021FFF7CDFB04200C2C2B
:100A000032D801221146A140184B19422CD0500275
:100A100017490B6A83431540680218430862002097
:100A2000144A05E08300D55865436F46FD50401CCD
:100A30000828F7D10022134613E008969C00684668
:100A400005590AE0089F781E08900720002F0BD058
:100A50003C48C8623C48C8620D510859A842F1D1CF
:100A60005B1C072BE9D9104609B0F0BD56110000F8
:100A700000000240103600003149324ACA60324A52
:100A8000CA6080000C2210400B68934303430B6044
:100A900000207047FFB50091FF21019103914402AE
:100AA0000420610C4AD101980390254A1068102651
:100AB000304206D00399481E039009200029F4D142
:100AC0003CE0F649D160F64FD7600023D84310616F
:100AD0000291D160D7605061019803900DE00399B5
:100AE000481E03900920002928D00298D060D760C2
:100AF0001068A843012101431160106803252840B4
:100B00000128ECD1009D03E09800295821505B1C7E
:100B1000802BF9D1019803901068304206D00399D8
:100B2000481E039009200029F6D107E00299D16000
:100B3000D76000201061D160D760506104B0F0BD73
:100B4000200002405A5A0000A5A5000002460120DC
:100B500003468B4011681940002900D108467047B0
:100B600080B5034A8018012200F010F9002080BDF2
:100B7000140D0240FEB515460E4601901C4947185B
:100B800038460C300024314622460294194B9847CF
:100B9000B000019908181C494450384608302A789A
:100BA0003146144CA0472A7938463146A04738468A
:100BB0001C302A7A3146A047384620302A7B3146FD
:100BC000A047384624302A7C3146A0472C372A7D5E
:100BD00038463146A047A8690121C903064A13686F
:100BE0008B43C00380B218431060029803B0F0BD7D
:100BF000000D02408D0D0000080F024089004018D2
:100C00000149425000207047000C024080B5034A61
:100C10008018012200F0BAF8002080BD0C0D0240BF
:100C200080B5034A8018012200F0B0F8002080BD92
:100C3000100D024081B00020009000980028FCD0E8
:100C400001B0704780B5C046C04680BD80B5C04683
:100C5000C04680BD8168C068091A0020401A48411A
:100C6000704780B5C046C04680BD80B5C046C0460E
:100C7000C046C04680BD80B500F056F880BD80B546
:100C8000C046C04680BD10B514300024224600F096
:100C90007DF8204610BD80B5001D012200F076F8D9
:100CA000002080BD80B51030FFF750FF80BD0000F0
:100CB000F8B50546042400291FD000246C60CCC977
:100CC00008681E4306433E4316436E608023134369
:100CD0002E1D1039C02B10D1C009094A024009A0AD
:100CE000805A8A69824048691146FFF711FAA86163
:100CF00004210122304600F049F8204601B0F0BD41
:100D0000FCFFFF01040000000300000002000000DF
:100D10000268FF239A430A4302600020704780B5AF
:100D2000C046C04680BD000080B50348006800286A
:100D300000D0804780BDC046E005002080B5C04699
:100D4000C04680BD80B5C046C04680BD80B5C046A7
:100D5000C04680BD80B5C046C04680BD80B5C04697
:100D6000C046C046C04680BD80B5C046C046C046ED
:100D7000C04680BD80B5C046C04680BD80B5C04677
:100D8000C04680BD80B5C046C04680BD01238B40B3
:100D9000012A02D10168194301E001689943016009
:100DA000704780B5C046C04680BD000010B5024601
:100DB0009A4B9B4898609B4898600420042A6CD802
:100DC0007A4412795200974402142B3E56000120B7
:100DD0000029024600D10A461C68844314431C6063
:100DE0000020002959D0D9680122D2021142FAD03C
:100DF00053E02D480268032414430460186802225B
:100E000090430122002900D10A4652001043186085
:100E10000020002941D0196940221142FBD03CE05A
:100E20001868042290430122002900D10A4692004A
:100E300010431860002000292FD0596901221203A5
:100E40001142FAD029E003208003164A14680443B3
:100E500014601868082290430122002900D10A4634
:100E6000D200104318600020002916D09969402252
:100E70001142FBD011E01868102290430122002992
:100E800000D10A461201104318600020002904D046
:100E9000D96B012292041142FAD010BD5A5A0000B7
:100EA000A5A500008C0D02404C1D0240F0B58AB093
:100EB000B148018807914188069181880491C188D1
:100EC0000291058C0B20C143CA4A5058440907239C
:100ED0001C400120C603C948089036480090364897
:100EE00001903648039036480590364F7B48042CD5
:100EF000099124D87C4424796400A744025422290F
:100F00002B001068089908400799884238464AD053
:100F100010680899084006998842059843D01068DF
:100F2000089908400499884203983CD010680899B1
:100F3000084002998842019835D0009833E000209B
:100F400031E09068AA4901404B204002A9422AD0D2
:100F5000304628E0116B03240C40032C05461DD1BC
:100F6000106808990840079988423D4616D01068D5
:100F70000899084006998842059D0FD01068089985
:100F8000084004998842039D08D0106808990840D9
:100F900002998842019800D000980546106B4109DB
:100FA0000F200840684309995158090A1940C84060
:100FB0000AB0F0BD00093D0000127A000024F400E0
:100FC0004086510100366E0180B5FFF76FFF75490D
:100FD0000968C90A03220A40D04080BD7149724A9B
:100FE0008A60724A8A6007221202000210400B686F
:100FF000934303430B6000207047C04669496A4A27
:101000008A606A4A8A600322D202C00210400B68DA
:10101000934303430B6000207047C046002000400C
:101020005A5A0000A5A50000F0B5534A1188568809
:101030009588D38884686F4A032C23D117686F4C36
:1010400027408F4203D1C7680621022F44D8116878
:101050002140B14203D1C6680621022E3CD8116856
:101060002140A94203D1C5680621032D34D8116857
:10107000214004460C3499420DD123680621062BE9
:1010800009D929E0C168154B4B4304460C340621AD
:10109000134DAB4220D803214B0305686D031D405F
:1010A000166B9E432E43166343689B001C252B4002
:1010B000166BAE431E4316630F235B012468640165
:1010C0001C40156B9D432543156380680840136BD6
:1010D0008B430343136300210846F0BD0048E80139
:1010E000006CDC0270B50C460546A8060C4802D41C
:1010F000294622460FE020218D43061D3046294611
:101100002246FFF743FE0748032D01D1047004E097
:10111000027803213046FFF739FE002070BDC0463B
:1011200020200040EC05002040001349405A33497C
:10113000014030480268324B13400B4303600020EB
:101140007047C04603218902800208400B4A136899
:101150008B430343136000207047C046400006499C
:10116000405A2349014005480268234B13400B4372
:10117000036000207047C046000C1000142000409F
:1011800080B50849084A8A60084A8A600A68E023EC
:101190009A434001C0B21043086000F009F80020F3
:1011A00080BDC046002000405A5A0000A5A500009E
:1011B00080B5FFF77BFE1349086080BD10B50B4971
:1011C000488B0B4A02400B4883680B4C1C4014436D
:1011D00084600988094A0A400168094B0B4013439F
:1011E0000360FFF763FE0749086010BD080C10009C
:1011F000FF0300000C20004000FCFFFFFF07000081
:1012000000F8FFFF0800002080B500F019F880BD4D
:1012100080B5C046C04680BD80B5C046C04680BDD2
:1012200080B5C046C04680BD80B5C046C04680BDC2
:1012300080B5C046C04680BD80B5C046C04680BDB2
:1012400080B500200146FFF703FB01280AD10648BC
:101250000168491C01600548012101700020014618
:10126000FFF7ECFA80BDC046F0050020100000201A
:1012700080B500F009F8C046C04680BD80B5C046C4
:10128000C046C046C04680BD80B5034800680028FF
:1012900000D0804780BDC046E405002010B5143062
:1012A00000242246FFF772FD204610BD80B5001DC8
:1012B0000122FFF76BFD002080BD80B51030FFF7E5
:1012C00045FC80BD70B50546042400291ED00024CD
:1012D0006C604CC908681E43064316436E60802349
:1012E00013432E1D0C39C02B10D1C009084A0240EF
:1012F00008A0805A4A69824008691146FEF708FF33
:10130000A861042101223046FFF740FD204670BD50
:10131000FCFFFF0104000000030000000268FF233F
:101320009A430A4302600020704780B5C046C04619
:1013300080BD80B5C046C046C046C04680BD80B5B1
:10134000C046C04680BD000080B507480378591EDE
:101350001322002B00D111460170C8B20C2801D114
:1013600000F00CFC80BDC0460C00002080B500F0F1
:10137000C1FF80BD10B5044600F06EFF084801783B
:101380004A1C0270890041188C60D1B2022906D132
:10139000002101708168C26851184908416010BD80
:1013A000D0000020B0B504461C200B4D2146A847B4
:1013B00008202146A84700202146A84701202146B1
:1013C000A8471F202146A84710202146A8471B20D8
:1013D0002146A847B0BDC046E5100000BCB55C4C36
:1013E00001212046FFF75EFC002821D00121204684
:1013F000FFF749FC544DA86801F0B0FA297F012895
:1014000006D1032001432977E87F21216854BCBD20
:10141000FE2001402977A86801A901F045FA0128BA
:1014200006D101A800782168FF2291430143216081
:1014300000212046FFF736FC002812D0002120466C
:10144000FFF721FC216801A801703F4C6068C9B218
:1014500001F03EFAA07F20216054207FFB21014053
:101460002177BCBD7CB5384C207FC0072FD0212010
:10147000215C002904D0491E2154FF20014226D1BD
:101480002069FFF7E7FB002821D120692F4D29466D
:10149000224600F005FC012819D1002604E001785D
:1014A000A06801F015FA761CA81921688E42F6D3BF
:1014B000A06801A901F0F8F9012808D101A8017874
:1014C0002348FFF725FC207FFE2101402177207F64
:1014D0000221084207D0FD2108402077A169002998
:1014E00001D08847207F40071DD42020215C00299F
:1014F00004D0491E2154FF20014214D10025134E6F
:1015000005E0606801F0D0F9052803D06D1C711961
:101510007F2DF6DDE0680D492A4601F019F9207F9C
:10152000042101432177E068FFF794FB00280AD1EA
:10153000E0680649224600F0B3FB6269002A02D047
:101540002168024890477CBD20000020F002002066
:1015500000020040B0B50446CDB2294600F0C4FBFD
:10156000012803D02046294600F086FBB0BD704715
:1015700070470000B0B50446184D696818A02246AF
:1015800000F024FE7D20C0006968A14203D1022C36
:101590001ED1A860B0BD621E1449042A0FD8C046EF
:1015A0007A441279520097440211100E0E00012065
:1015B00068601920FF210E4A01F000FA07E0522C62
:1015C00001D0532C05D1A96001E06420A8606C60B3
:1015D000B0BD08A000F0FAFDB0BDC046C4000020B8
:1015E0000D0A445325642D2564000000E02E000000
:1015F000151600000D0A2A2A2A2A2A2A205F646565
:1016000076537461746553657420457272202A2A7A
:101610002A2A000010B5594C61681748022915D0D4
:1016200053290DD0042919D0522909D0032922D1D8
:1016300000F054FA00280DD0A068002819D111E05C
:10164000A268511E002A15D0084613E000F046FAA1
:1016500000280BD10420FFF78DFF10BD00F03EFAEB
:10166000012803D10220FFF785FF10BDA0680028E4
:1016700001D0401EA06010BDE02E000080B50349DF
:10168000FFF708FA0021091A484180BDEC0000204C
:10169000FEB556490868401C08600022544D1746A4
:1016A0001FE03378354610350027002B17D0B0687F
:1016B0004E490968081A0127002810D001930292A8
:1016C0007168FEF725FD002908D10198FF2801D097
:1016D000401E3070F068002800D08047029A2743EF
:1016E000521C3C462E46D0B21328DAD9200600D030
:1016F000FEBD00F051FF00F06FF8FEBD70B50D4665
:1017000004461E4E304601F0B4F9706805280DD02D
:10171000512808D3012D02D1532804D206E0102D00
:1017200004D1542802D32046FFF724FF70BDC046E1
:1017300010B50146114C204601F097F96068052864
:1017400000D110BD216800290CD00DA000F03EFD95
:1017500020680121084209D1C0060BD40FA000F077
:1017600035FD10BD0220FFF705FF10BD5220FFF729
:1017700001FF10BD5320FFF7FDFE10BDC400002087
:101780005F6F6E457272546F4F6B5F646576457222
:10179000724269743D25303858000000206F6E4554
:1017A0007272546F4F6B5F583100000070B514288F
:1017B0000FD804010E4D2E1971600C480068B060FE
:1017C0002A55F360002A04D0002802D1014800F015
:1017D000D9FE70BD9116000080B50448002101605B
:1017E00005208201024800F082F980BDE800002057
:1017F000A004002080B500F035FD03200121024A3D
:1018000001F0DCF880BDC0466D130000BCB50121BD
:101810008C072046FFF751FD002821D001212046EA
:10182000FFF73CFD554DA86801F098F8297F012885
:1018300006D1032001432977E87F21216854BCBDEC
:10184000FE2001402977A86801A901F02DF80128A0
:1018500006D101A800782168FF229143014321604D
:1018600000212046FFF729FD002812D00021204644
:10187000FFF714FD216801A80170404C6068C9B2EF
:1018800001F026F8A07F20216054207FFB21014039
:101890002177BCBD7CB5394C207FC00730D02120DA
:1018A000215C002904D0491E2154FF20014227D188
:1018B0002069FFF7CFF9002822D12069304D294651
:1018C000224600F0EDF901281AD1002604E0017843
:1018D000A06800F0FDFF761CA81921688E42F6D39F
:1018E000A06801A900F0E0FF012809D101A8017852
:1018F00001208007FFF712FD207FFE2101402177A4
:10190000207F0221084207D0FD2108402077A169ED
:10191000002901D08847207F40071DD42020215C6A
:10192000002904D0491E2154FF20014214D1002572
:10193000134E05E0606800F0B7FF052803D06D1C6A
:101940007119FF2DF6DDE0680D492A4600F000FF11
:10195000207F042101432177E068FFF77BF900280D
:101960000AD1E0680649224600F09AF96269002A25
:1019700002D02168024890477CBDC046500000203C
:101980007003002010B50446CAB203A0012321460B
:1019900000F044FC10BDC0467A72783A00000000A6
:1019A0007047704780B500F00FF880BD80B500F03B
:1019B00015F8012080BD80B500F026F880BD80B507
:1019C00000F026F880BD000080B5002804D08749CB
:1019D00018310C22FEF7C6FB80BDC046B0B50446E8
:1019E000002C10D0814D18350C2220462946FEF7D8
:1019F000EBFB002807D07C48012101700C2228460F
:101A00002146FEF7AFFBB0BD24207849085C704743
:101A100010B52421754A535C834203D0724B0124D4
:101A20001C70505410BDC04680B50748407801284E
:101A300002D106A000F0CAFB224800210160FE206E
:101A400000F02AF880BDC046F40500200D0A636648
:101A5000675061676549644465660000194800681D
:101A60007047C04680B500F00FF816480068000ABD
:101A700001D0FFF7D9FF80BD0146C4390120002203
:101A80003B2900D31046704780B5FF2000210D4A46
:101A9000012300F079FC80BD80B50146094A136836
:101AA00000208B420DD0116007484078012802D1F8
:101AB00006A000F08BFBFF200021024A012300F06A
:101AC0006FFC80BDE4000020F405002063666750D1
:101AD00061676549645365743D2564002620434968
:101AE000095C0020401A48417047C046FEE710B527
:101AF0005242002302E0C41A21705B1E9A42FAD1BE
:101B000010BD000039480168491C01D10021016065
:101B10000021416081603C22C26002614B22D20000
:101B20004261074A0262C2618261242281542522F5
:101B30008154262281542C48012101707047C046EF
:101B40005858585810B5FFF78DFF00F00DF8264C87
:101B50000020207025202549085C002803D0FFF7CD
:101B6000D1FF0120207010BD80B5FFF777FF002165
:101B70001E4A0C2300F008FC80BDC046B0B51A48D0
:101B8000017800292FD000210170184C2068401CDA
:101B90002060FFF763FF451E2846FFF76DFF002812
:101BA0000FD02068124988420BD301202060002109
:101BB0000C232846224600F0F3FB2846FFF76CFF73
:101BC000B0BD0C484078012806D1FFF747FF014619
:101BD000226809A000F0FAFAFFF740FF0021034A4B
:101BE0000C2300F0DDFBB0BDE100002074040020F8
:101BF000D17E0100F405002076617220777269744D
:101C00006520666C6173682C7061676549643D2569
:101C10006420636E743D25640000000080B500F010
:101C200003F800F0A9F980BDB0B586B001A9802005
:101C300008804880012460028880C88002200872E1
:101C4000487209480490094805900F4D281D00F07E
:101C5000DAFEFF21064A204600F0B0FE687705480C
:101C600000F0FCFC06B0B0BD551500006F1500007B
:101C700065140000DD13000080B50A4601460248E5
:101C8000006900F065FD80BD20000020002804D11F
:101C900005E000220270401C491E0029F9D170475E
:101CA000F8B516460C460546A968EA680020914238
:101CB00017D02868475C481C6968FEF729FAA960B4
:101CC00037600BE0A8682968085C20706968A8681C
:101CD000401CFEF71DFAA9607F1E641C0120002F26
:101CE000F0D101B0F0BD0000F8B50C460546002764
:101CF000032C3AD31E4903222846FEF765FA002832
:101D000033D1EE1C1B4908223046FEF75DFA00284D
:101D10000AD128460B302146F531C9B200F00AF944
:101D200001460120012921D0134903223046FEF744
:101D30004BFA002809D1A81D2146FA31C9B200F09A
:101D4000ABF801460120012910D00C49032230468E
:101D5000FEF73AFA002808D1A81DFA34E1B200F0E3
:101D60000FF801460120012900D0384601B0F0BD2E
:101D70007B3600006A360000663600003036000010
:101D8000BFB505460024062911D012291BD00A2907
:101D90002ED0092949D13F492846FEF707FA0028E5
:101DA00043D1FFF708FE002831D036A03AE02B4996
:101DB0002846FEF7FBF9002837D101AD2846FFF78A
:101DC000F1FD27A00DE01A4906222846FEF7FCF98E
:101DD00000282AD1AD1D2846FFF7E8FD002820D0B5
:101DE00014A00C2201242946234600F017FA1CE017
:101DF0001E492846FEF7DAF900280AD01C49284671
:101E0000FEF7D4F9002810D10020FFF7D8FD19A063
:101E100008E001242046FFF7D2FD1AA000F0D6F911
:101E200003E009A000F0D2F90124204604B0B0BDBF
:101E30003B3600000A6165736B6579736574206FCA
:101E40006B2C206B65793D000A6165736B65797356
:101E50006574204572726F72000000003436000015
:101E60000A6165736B65793A00000000573600001F
:101E70004C3600000A6165732073776974636820CB
:101E80006F6666000A616573207377697463682002
:101E90006F6E00004236000070B588B0002503293F
:101EA0002FD1194903242246FEF78EF9002828D1A4
:101EB000684616A11822FEF755F906A800F091FC15
:101EC00000281AD00020064605E006A9091A09785C
:101ED000F2B28E18401E01460831F6D16D462C43F1
:101EE00006A8214600F081FCF0B22946133100F02B
:101EF00049F800206875284600E00AA000F066F95D
:101F00000125284608B070BD623600007A6C40009A
:101F100000000000000000000000000000000000C1
:101F2000000000000D0A206D61632072656164206D
:101F30006572720010B50024072908D0012916D156
:101F40000078302813D100F0CDFA01240FE00949C0
:101F5000FEF72CF900280AD10720002100F058F8DC
:101F6000074801780124002901D10124047020468A
:101F700010BDC04673360000014800210170704753
:101F80007004002080B5024602A30846194600F0FE
:101F900005FE80BD2530325800000000F8B50E4C1B
:101FA0000E4D65600021A160052121600C4E0BE003
:101FB0000020A06030680B49FEF7AAF8691C081AD7
:101FC000A1688142FCD83846471E0028F0D120681D
:101FD000012188432060F8BD10E000E0FFFFFF0012
:101FE00008000020A086010080B500F0D1F800F0C4
:101FF000DFF81920FF21044A00F0E0FC0120034A29
:10200000014600F0F9FC80BD491300007115000085
:1020100010B50446792C0BD350A0214600F0D6F819
:102020007B2C16D07A2C18D10120FFF781FB10BD34
:10203000512C37D8482C14D339A0214600F0C6F8CB
:10204000492C16D0482C19D152200121FFF756FBFC
:1020500010BD1020FFF76CFB10BD44A000F0B6F8D7
:1020600010BD332C1ED8082C0AD0072C16D1052001
:1020700012E053201021FFF741FB10BD2EA0EDE729
:102080001E4800680121084203D1C00603D4022083
:1020900002E0522000E05320FFF76CFA1748406836
:1020A000502800D910BD04281AD8C04678440079B9
:1020B000400087440217081D1200012CF2D10120B4
:1020C000FFF758FA10BD042C0ED0092C12D0052CA5
:1020D000E8D10320FFF74EFA10BD052CE2D103E052
:1020E00007A0BBE7022CDDD10220FFF743FA10BDA9
:1020F000092CD7D10420FFF73DFA10BDC400002001
:102100000D0A2A2A2A2A2A2A205F6465764F6E45FC
:1021100076656E7420457272202A2A2A2A000000F1
:102120005F6F6E45727248696E744576656E745F56
:10213000653D2564000000000D0A2A2A2A2A2A2A61
:10214000205F6F6E45727248696E744576656E7475
:1021500020457272202A2A2A2A0000005F6F6E45ED
:102160007272546F4F6B5F653D2564000D0A2A2A19
:102170002A2A2A2A205F6F6E457272546F4F6B4570
:1021800076656E7420457272202A2A2A2A00000081
:1021900080B5064900200860FFF7ECF90120FFF741
:1021A00037FF0220FFF734FF80BDC046C400002087
:1021B00080B5044800F05CF83220FF21024A00F0AC
:1021C000FDFB80BD75130000F517000083B070B5EE
:1021D000A1B0044625A80EC001AD80262846314690
:1021E000FDF7D9FF25AB009328463146224600F083
:1021F000E9FC0146002901D001A801E004A00B215F
:10220000FFF73AFD21B070BC01BC03B00047C046E7
:102210006D795072696E7466204E4700F8B51C46A1
:1022200015460E46002801D0FFF7D0FF07A705E0AE
:1022300031783846FFF7CAFF761C6D1E002DF7D1A6
:10224000002C02D003A0FFF7C1FFF8BD20253032DB
:10225000580000000D0A000080B500200521FEF79F
:102260007FFC80BD80B500200521FEF7D9FC80BD34
:102270001F4908607047C046F0B589B002AD1C2602
:1022800028463146FFF702FD002403940594069486
:10229000FFF7E2FF052120462A46FEF76BFC0621E8
:1022A00001912046FEF7B2FC02AF38463146FFF7F7
:1022B000EDFCFEF7B7FA0294039403263003049072
:1022C000059406940125A803079008943846FEF764
:1022D00073FA0198FEF72EFAFEF740FA18203146FD
:1022E0002A46FEF735FB0248046009B0F0BDC0463F
:1022F000EC02002080B5FEF78BFA80BDF0B585B00A
:1023000000252846FEF76AFE2846FEF777FE1120D4
:10231000FEF724FF02263046FEF714FF0124144F77
:1023200030462146B8473046FEF72AFF042630469D
:10233000FEF7FAFE28462146B8470195029603208B
:1023400003900C20049001A8FEF76EFE2046FEF7D5
:1023500093FB30462146B8473046FEF711FFFEF7A3
:10236000A5FD044908602046FFF71CF805B0F0BD44
:10237000AD0D0000F805002080B50C200121FEF70E
:1023800033FB0028F9D180BD89004002401802E0EB
:1023900002C802C25B1E002BFAD101207047000068
:1023A000FEB5029205468800114C201801906E027D
:1023B00098000090042716E0FF2D13D8002003E0BA
:1023C000810072586250401C8028F9D1019802990E
:1023D000009AFDF7C7FE2846FFF750F90146012095
:1023E000002903D17F1E0020002FE5D103B0F0BDEE
:1023F000EC00002010B5FFF781FFFFF7BDFF00F0F4
:102400007FF80024204600F0CDF8204600F02CF99B
:1024100000F004F8FFF730FF10BD0000F0B58BB0FE
:1024200004AF1C2102912D4A3846904700F084F9F0
:102430000025059501200790044603940895402047
:1024400001900421264B3A46984700F075F904AFF5
:102450003846029E3146214A904700F067F90595BB
:10246000079408950B2128463A461D4B984700F0E3
:102470005DF904AF384631463446184A904700F0BB
:1024800061F905950398079008950321019E304650
:102490003A46134B984700F055F904AF38462146A9
:1024A0000E4A904700F03CF90595039C0794089567
:1024B000052130463A460A4FB84700F031F904AEDC
:1024C00030460299054A90470594079508950F21D3
:1024D00028463246B8470BB0F0BDC0468D1C000000
:1024E000750B0000BFF34F8F034804490160BFF331
:1024F0004F8F00BFFDE7C0460CED00E00400FA0579
:1025000070B58AB06E4628213046FFF7BFFB002425
:1025100000940594042003900125069534743472C8
:10252000019420463146FEF7C9F90E4E2046314649
:10253000FEF798F920463146FEF7A0F920462146DD
:10254000FEF77CF92046FEF7AFF90E2003212A465C
:10255000FEF7FEF90F48047003490C6044600AB0AE
:1025600070BDC04690E80000F005002010B5094C91
:102570002078012805D16068002800D0804700201D
:10258000207010BD80B5034948600020FEF784F933
:1025900080BDC0461000002080B50020FEF77CF909
:1025A00080BD0000F0B58BB0029004AD1C210191FC
:1025B0002846FFF76BFB002605964024204631464F
:1025C0002A46FEF7D7FA0322039220463146FEF749
:1025D00015FB0120009005900B27204639462A461E
:1025E000FEF7C8FA20463946039AFEF707FB04AD0A
:1025F00028460199FFF74AFB0220009F3946FEF763
:1026000071FD069605960796FEF7DEFC0990B80266
:102610000890E12040020A9004940F4C204629467D
:10262000FEF746FB20463146FEF72DFB2046394695
:10263000FEF729FB20463146FEF72DFB20463946A2
:10264000FEF729FB082003993A46FEF781F9054871
:10265000029901600BB0F0BD000200400149086022
:102660007047C046E0050020F0B58BB0039004AD84
:102670001C212846FFF70AFB00200190059040240A
:1026800006260296204631462A46FEF773FA0222B3
:10269000009220463146FEF7B1FA0127059707263A
:1026A000204631462A46FEF765FA20463146009A12
:1026B000FEF7A4FA04AD18212846FFF7E7FA0494C0
:1026C000019E06960596E120000209907802079087
:1026D000FEF77AFC0890BC0720462946FEF7F2FD7B
:1026E00020463146FEF7DAFD20463946FEF7D6FD94
:1026F00020463146FEF7DAFD20463946FEF7D6FD84
:10270000032102983A46FEF723F904480399016031
:102710000BB0F0BD014908607047C046E4050020D9
:1027200080B540200521FEF77BFA80BD80B50020F2
:102730000B21FEF775FA80BD80B540200421FEF71D
:102740006FFA80BD80B540200321FEF769FA80BD95
:1027500070B514460D46064600F01EF80146621C90
:102760000020914217D3F06831680C547168F0680A
:10277000401CFDF7CDFCF1600AE030682A78425435
:102780007168F068401CFDF7C3FCF160641E6D1CAD
:102790000120002CF1D170BD10B5041D1CCC98187F
:1027A000011B881A9C4200DB084610BD70B5054627
:1027B0002E461336304600F065FA0446002C0BD046
:1027C00020463146FDF7E7FC20461030002121C4A9
:1027D00021606160083C02E0FFF788F90024204690
:1027E00070BD80B500F0C0F980BD70B50C460546DF
:1027F000002606E0A81B00782146FFF7C3FBA41CB7
:10280000761E30460830F5D1012070BDF0B587B096
:10281000124800244470FFF7EDFD6D461C21284648
:10282000FFF734FA01940394012704970226204607
:102830003146FEF795F9204631462A46FEF79AF9C9
:1028400000F026F8FFF7D0FB00F0AAF804A0FFF78D
:10285000BDFC02484770FFF789FEFCE7F405002045
:102860007030335F7465726D696E616C5F63747232
:102870006C5F77617465722056302E315F32303272
:1028800030303631332066656E676875690D0A0031
:1028900080B500F08FF8FFF755F9FFF7BFF9FFF7A4
:1028A00080F800F015F980BD10B504460CCC052069
:1028B000083C9A420BD0002903D0E068805C087085
:1028C0002268501CA168FDF739FC2160012010BD71
:1028D00070B50D4604466668A168701CFDF72EFCB5
:1028E00022680420914208D0E0688555A16860689C
:1028F000401CFDF723FC6160012070BDF8B50C465B
:10290000411E490A04D00025002C24D0032021E0D8
:10291000461C102000F0B6F90546002D14D0002703
:102920002F606F60AE60304600F0ACF9E8600028C0
:1029300011D1284600F074F9FFF7D8F8002C01D027
:10294000022020603D4606E0FFF7D0F80025002C6D
:1029500001D002202060284601B0F0BD0168406827
:10296000091A0020401A484170470000B0B50A4DCE
:102970002C7805212046FDF7CBFB012907D0002943
:1029800007D10648052100F0E5F82C7801E0FF2486
:102990002C70601C2870B0BDFC05002008360000BB
:1029A00080B50520FF21024A00F026F880BDC04610
:1029B0006D29000080B5FEF70FFF80BD70B513468E
:1029C0000A460146FF24002912D0002A10D0002513
:1029D000084804E02E01865D002E03D06D1C132DE7
:1029E000F8DD05E0E8B2A04202D0FEF7DFFE2C469B
:1029F000E0B270BDA004002080B57D239B00584349
:102A0000FFF7DCFF80BDB0B50D46044628880021E5
:102A1000FFF774FF2060002824D068880021FFF7AA
:102A20006DFF606000281DD0A888FFF7BFFEA06082
:102A3000002817D0E888FFF7B9FEE060002811D021
:102A4000207EF8210140052008432076287AA076D0
:102A5000687AE076002020776077E868206128694E
:102A60006061B0BDFFF742F8B0BD02688A43026002
:102A7000704702680A43026070470000F0B50146E3
:102A8000454A53780020102423420BD117780120A7
:102A90003D460543FE263E40002900D135461570CF
:102AA00023435370F0BDC04610B53B4C0620207048
:102AB000064800210170A01C4221FDF76CFB22207A
:102AC00060700120FFF7DAFF10BDC046E000002073
:102AD00080B500F007F800F015F8FFF7E5FF00F00B
:102AE0000BF880BD80B5FFF727FEFFF71FFEFFF74D
:102AF00029FEFFF715FE80BD0148032101607047E4
:102B0000E8050020B0B586B00124200201A90880A4
:102B10004880A0028880C880022008724872094854
:102B20000490094805900F4D281DFFF76CFFFF2109
:102B3000064A2046FFF742FF68770548FFF7EAFD9F
:102B400006B0B0BD85190000A1190000951800005D
:102B50000D18000080B50A46014602480069FFF7DB
:102B6000F7FD80BD500000200B4A137800215B0662
:102B700010D5916AD26A02710170130EC371130CE1
:102B80008371120A42710A0EC2700A0C8270090A1D
:102B90004170012108467047800000200FB410B535
:102BA00004A9074B02AA039800F05AF9044602A9A7
:102BB000002000F0FCFC204610BC08BC04B0184704
:102BC000AF3500007CB51546024600201C460029A2
:102BD0000BD0491E00920191044B6A4621462846BB
:102BE00000F03EF9009A002111707CBD993500007B
:102BF0002021020C01D010211046020A01D01046FB
:102C00000839020901D01046091F820801D0104678
:102C1000891E420801D0881E7047081A70470000BC
:102C200030B5002805D0164C021F2068002301464D
:102C300005E0084630BD904203D8034640680028AE
:102C4000F9D1002B00D05968002B0AD01C68D51A86
:102C5000A54204D11268A4181A461C6002E05A600A
:102C600000E02260002807D01468851AA54203D12D
:102C700005686419146040685060184630BD000053
:102C800000000020F1B50E4C0F480C4E001B0D4FFC
:102C9000C508ED0000221146009800F08DFC0028C8
:102CA00003D13068002801D00020F8BD3C6000202E
:102CB0002560606001203060ECE700000400002027
:102CC0000406002000000020001A002002E008C8CE
:102CD000121F08C1002AFAD170477047002001E096
:102CE00001C1121F002AFBD170470000F0B51FB4CC
:102CF00086B00998089A030D0021024314D0514868
:102D0000514A1818504305141198012810981AD0E8
:102D1000281A401C00264D4F4D4900960191049001
:102D2000002812DA444211E01198012449A3012835
:102D300001D11098C1430698119A84600360C26063
:102D400041600BB0F0BD4042E4E70446210500209D
:102D50003F4A001C51410391029012E0E00707D066
:102D600032463B4601990098FDF72EFB01910090F9
:102D700032463B4610461946FDF726FB06460F46EF
:102D80006410002CEAD10498039B0028029A099948
:102D9000089806DAFDF718FB019B009AFDF714FB73
:102DA00005E0FDF779FB019B009AFDF775FB0446F2
:102DB0000E460022284BFDF707FC03D80020C04335
:102DC000014607E00022254B20463146FDF74AFA2E
:102DD000FDF7DAFB102409E0002C0ADB0A220023AD
:102DE000FDF7FFF9079B30321A55641E02460A436D
:102DF000F2D11122641C079B121B1C19119B012B81
:102E000003D0012308430ED10AE0084304D0112067
:102E100010900020119077E71098151A6D1E0BE0A6
:102E20001098824202DD00236D1C03E0824201DA29
:102E300000236D1E002BEED0069811998260C160B0
:102E400030C07EE701FCFFFF104D00000000144081
:102E50000000F03F300000000000F0430000E03FC1
:102E6000FFB597B00646002518E2252877D1002443
:102E70002746FD49049400E00443761C3278012083
:102E8000203A90400842F7D130782A280ED002220A
:102E9000307801463039092916D804990A23594354
:102EA000303940181443761C0490F1E7189802C892
:102EB00004911890002904DA012040030443484299
:102EC000049002200443761C30782E2814D104206C
:102ED00004437078761C2A2809D11898761C80C87B
:102EE000189009E00A214F43303FC719761C30780B
:102EF000014630390929F5D930786C2810D006DC24
:102F00004C281AD068280ED06A2817D104E07428FB
:102F100013D07A2812D110E00120400504430CE0C0
:102F20000121090501E0032109050C437178814263
:102F300003D1012000052418761C761C30781190EE
:102F400066280BD013DC58287DD009DC00287BD004
:102F50004528F6D04628F4D047281AD1A5E118E034
:102F6000632835D0642870D0652812D19DE170287F
:102F70006CD008DC6728F1D069287BD06E280DD092
:102F80006F2806D1BAE073282ED0752871D0782822
:102F900059D01A9A199990476D1C7EE16002400F32
:102FA000022809D003280DD00428189801680DD0F4
:102FB0000D60001D189070E11898EA1701680D6007
:102FC0004A60F6E7189801680D80F2E70D70F0E7A7
:102FD00018986A4601781172001D189000205072EE
:102FE00002A80090012005E0189802C8189000205F
:102FF0000091C04361070DD5002101E00199491CF2
:103000000191B94212DA8142F8DB009A515C002941
:10301000F4D10BE0002101E00199491C01918142AA
:10302000FADB019A0099895C0029F5D1019904988D
:103030001A9B471A21463846199A00F097FA0199C7
:10304000401945180BE04FE02CE113E04EE00098EA
:1030500000990078491C00911A9A19999047019893
:10306000401E0190401CF2D1214638461A9B199A05
:1030700010E137E00A200021009001916002410F29
:10308000022907D0189A01CA1892C2179446032938
:1030900008D00AE01898C01DC108C90005C91891D8
:1030A000944607E000B2C2179446042902D140B208
:1030B000C1178C4600226146944506DA0A46002173
:1030C000404291418C462D2102E0210504D52B215F
:1030D0006A461173012103E0E10701D02021F7E7DF
:1030E000029155E00A200AE0102008E0102000902C
:1030F0000021042004430191082703E00820002157
:10310000019100906002410F022907D0189A01CA6C
:10311000189200229446032908D008E01898C01D90
:10312000C108C90005C91891944603E080B204297A
:1031300000D1C0B200210291210729D5119970292F
:1031400006D0009A1021019B4A401A4305D00EE098
:1031500040216A461173012108E06146014306D00F
:1031600030216A4611731199517302210291009A1C
:103170000821019B4A401A430AD16146014301D10B
:10318000610705D530216A46117301217F1E029126
:103190001199582904D035A10E910DA90D910DE07A
:1031A00037A1F9E76146019B009AFDF71AF80E9BDB
:1031B0008C469B5C0D9A521E0D9213706146014322
:1031C000F0D10D9805A9081A20300190600703D5A9
:1031D00001200004844300E001270198874201DDBB
:1031E000381A00E00020019900904118029809184F
:1031F0000498401A0490E00306D421461A9B199AB9
:10320000049800F0B3F94519002706E003A81A9ABC
:10321000C05D199990476D1C7F1C02988742F5DBB1
:10322000E0030CD521461A9B199A049800F09EF9E8
:10323000451904E01A9A3020199990476D1C00999D
:10324000481E00900029F5DC08E00D980D990078E3
:10325000491C0D911A9A199990476D1C0199481EA5
:1032600001900029F1DC63E109280100303132339B
:1032700034353637383961626364656600000000B2
:10328000303132333435363738394142434445469C
:103290000000000000F05AF94519761C307800282B
:1032A00000D0E2E528461BB0F0BD600700D4062739
:1032B0001898C01DC108C90048680A680831C30FC2
:1032C000DB071891190001D09CA108E0210501D568
:1032D0009BA104E0E10701D09AA100E09AA143007C
:1032E00011985B08109165280CD006DC452809D0A0
:1032F00046281DD0472841D141E0662818D06728CC
:103300003CD13CE00021112F01DB112000E0781CB2
:103310000191009008A911A8FFF7E8FC1399059105
:103320000021119A15927F1C12980197009150E08C
:103330000120C00703900120019008A9009711A85F
:10334000FFF7D4FC139A149905920022119B009266
:1033500012981593059A0192002901D0104602E0B7
:10336000791C40180190381A01D5019804E04042B8
:10337000401E0090781C0190C01B029043E0012F7A
:1033800000DA01270021112F01DD112000E038466D
:103390000191009008A911A8FFF7A8FC13990591C5
:1033A000119A0021129815920091019721070CD4CF
:1033B0000599B94201DB019900E00191012904DD81
:1033C000159A491E515C302906D0B84201DA011D18
:1033D00005DA0121029115E00199491EEDE7002867
:1033E00005DC0099411800910199091A03E0019A3E
:1033F000411C914200DD01910099401A401C02904D
:103400000120C0070390200706D402990198814249
:1034100002DB0020C043029000206946C87707AF56
:10342000012103980337C907884224D00220119054
:103430002B201290039800280CDA404203902D2094
:10344000129007E00A210398FCF762FE30317F1EDC
:10345000039039701199481E11900029F2DC0398ED
:103460000028EFD1791E129808703078202108408A
:103470004530BF1E387006A8C01BC01D03901098B1
:103480000078002800D00120019941180298C01747
:103490000918039809180498401A401E0490E00384
:1034A00006D421461A9B199A049800F05FF8451932
:1034B00010980078002803D01A9A199990476D1C2B
:1034C000E00324D521461A9B199A049800F04EF87F
:1034D00045191CE00098002807DB009905988842F0
:1034E00003DD1598405C199901E0199930201A9A6A
:1034F000904700986D1C401C00900298401E02905E
:10350000002804D11A9A2E20199990476D1C019910
:10351000481E01900029DDDC05E038781A9A7F1CEE
:10352000199990476D1C0399481E03900029F4DCFB
:1035300021461A9B199A0498ACE600002D00000061
:103540002B0000002000000000000000F8B5044639
:1035500000251E461746880404D405E0394620207D
:10356000B0476D1C641EF9D52846F8BDFFB504466A
:10357000002581B01E46C80301D5302700E0202772
:10358000880404D505E038460399B0476D1C641ED5
:10359000F9D5284605B0F0BD4A68002A06D00A6869
:1035A000531C0B6010704868401E486070470A68E2
:1035B000531C0B6010707047F8B50B30C608F6004E
:1035C000104D19E02068B04215D3B0420BD96368A2
:1035D000871B201D0093FCF7C5FDA019009B076009
:1035E0004360286004E060682860201DFCF7BAFD95
:1035F000201D2660F8BD251D2C68002CE2D100207E
:10360000F8BD000000000020ABBCCDD1AA00000036
:1036100020000000170000001B00000050460000C2
:10362000E022020018000000F0000000E8030000A3
:10363000616573006B6579676574006B65797365A7
:10364000740073776974636867657400737769746D
:103650006368736574300073776974636873657445
:103660003100676574006D6163007561727470612B
:103670007373007A696762656531006668400000AF
:10368000A03600000000002010000000CC2C00003C
:10369000B036000010000020F01D0000DC2C0000FF
:1036A000000000000000000000093D0013000000C1
:04000005000000C136
:00000001FF
