:020000040000FA
:1000000068050020D5000000EF000000FD0300009F
:1000100000000000000000000000000000000000E0
:10002000000000000000000000000000F3000000DD
:100030000000000000000000F5000000AF04000018
:100040005904000061040000690400007504000008
:100050008902000019090000610900006D09000013
:1000600031040000390400008904000091040000FC
:100070000D0400001504000001090000090900003A
:1000800011090000250400002109000029090000D1
:1000900031090000490400008D09000081040000BE
:1000A0006F0100005104000079090000810900007F
:1000B000410400001D0400001D0300008102000037
:1000C0000348854600F03AF8004800476101000007
:1000D0006805002009480A4A002100A1814200D990
:1000E0000244084802600848804708480047FEE785
:1000F000FEE7FEE7FEE7FEE7FEE700000000002067
:100100000000000008ED00E0B5080000C10000009C
:1001100030B50B46014600202022012409E00D469F
:10012000D5409D4205D31D469540491B2546954027
:1001300040191546521E002DF1DC30BD064C01253C
:10014000064E05E0E36807CC2B430C3C984710347F
:10015000B442F7D3FFF7B8FFB40C0000D40C000092
:1001600080B500F0A7FB00F046FD002080BD80B503
:10017000C046C046C046C04680BD000001228A403D
:10018000D1430002014A815000207047140C004006
:100190000002034A8258CA40012010407047C046FE
:1001A000100C004010B50002034A8358094C1C4053
:1001B0000C438450002010BD000C004010B500021C
:1001C000034A8358034C1C400C438450002010BD4C
:1001D000040C00400000FFFF0002284942580123A0
:1001E0001343435000207047000224494258012322
:1001F0009B021343435000207047C04670B5032252
:1002000013030A6814031C4000021C4A85589D43CE
:100210002543855001235C024D686D0225408658B8
:10022000A6432E4386500C7A85581E02B5431C40C7
:1002300023022B438350CB681B0170242340855835
:10024000A5431D4385500B7CDB00082423408558C3
:10025000A5431D4385504B699B00042423408558CA
:10026000A5431D43855089694900022319408458DC
:100270009C430C438450002070BDC0460C0C0040D1
:1002800080B5C046C04680BD80B5C046C04680BD72
:1002900070B5002805DB1F23034001249C401B4B45
:1002A0001C60C30018241C408901CBB2A340FF216D
:1002B000A140CC431649002805DB03250646AE4382
:1002C000154D751906E00F250540083D0326B54379
:1002D000104EAD192E6826401E432E60012A07D10C
:1002E000002811DB1F221040012282400A6070BDED
:1002F000002809DB1F2210400122824080200A5082
:10030000BFF34F8FBFF36F8F70BDC04680E200E038
:1003100000E100E01CED00E000E400E080B5C04634
:10032000C046C046C04680BD0649F04ACA60F04A91
:10033000CA6080000C2210400B68934303430B609B
:10034000002070472000024080B5034A8018012237
:1003500000F0A2F8002080BD140D0240FEB5154645
:100360000E4601901C49471838460C30002431468F
:1003700022460294194B9847B00001990818184971
:100380004450384608302A783146144CA0472A7920
:1003900038463146A04738461C302A7A3146A047B5
:1003A000384620302A7B3146A047384624302A7C04
:1003B0003146A0472C372A7D38463146A047A869E8
:1003C0000121C903074A13688B43C00380B2184355
:1003D0001060029803B0F0BD000D024099040000C7
:1003E000000C0240080F024080B5034A8018012229
:1003F00000F052F8002080BD100D024081B00020B6
:10040000009000980028FCD001B0704780B5C0462D
:10041000C04680BD80B5C046C04680BD80B5C046E0
:10042000C04680BD80B5C046C046C046C04680BDFF
:1004300080B5C046C04680BD80B5C046C04680BDC0
:1004400080B5C046C04680BD80B5C046C04680BDB0
:1004500080B5C046C04680BD80B5C046C04680BDA0
:1004600080B5C046C04680BD80B5C046C046C046C7
:10047000C04680BD80B5C046C046C046C04680BDAF
:1004800080B5C046C04680BD80B5C046C04680BD70
:1004900080B5C046C04680BD01238B40012A02D1F1
:1004A0000168194301E0016899430160704780B514
:1004B000C046C04680BD000010B50246954B964828
:1004C0009860964898600420042A6CD87A4412797F
:1004D0005200974402142B3E560001200029024688
:1004E00000D10A461C68844314431C600020002984
:1004F00059D0D9680122D2021142FAD053E02B48D8
:100500000268032414430460186802229043012205
:10051000002900D10A46520010431860002000292B
:1005200041D0196940221142FBD03CE018680422F6
:1005300090430122002900D10A469200104318601E
:10054000002000292FD05969012212031142FAD04C
:1005500029E003208003144A1468044314601868D7
:10056000082290430122002900D10A46D2001043FC
:1005700018600020002916D0996940221142FBD052
:1005800011E01868102290430122002900D10A4688
:100590001201104318600020002904D0D96B0122F9
:1005A00092041142FAD010BD8C0D02404C1D024045
:1005B000F0B58AB0AE4801880791418806918188DC
:1005C0000491C1880291058C0B20C143C74A505841
:1005D000440907231C400120C603C648089036483A
:1005E0000090364801903648039036480590364FC3
:1005F0007848042C099124D87C4424796400A744C9
:10060000025422292B001068089908400799884253
:1006100038464AD0106808990840069988420598DB
:1006200043D01068089908400499884203983CD048
:1006300010680899084002998842019835D00098BE
:1006400033E0002031E09068A74901404B20400290
:10065000A9422AD0304628E0116B03240C40032C19
:1006600005461DD1106808990840079988423D4603
:1006700016D010680899084006998842059D0FD049
:1006800010680899084004998842039D08D01068B2
:100690000899084002998842019800D000980546C0
:1006A000106B41090F200840684309995158090A05
:1006B0001940C8400AB0F0BD00093D0000127A00A0
:1006C0000024F4004086510100366E017349744ADB
:1006D0008A60744A8A6007221202000210400B6886
:1006E000934303430B6000207047C0465A5A0000F2
:1006F000A5A5000069496A4A8A606A4A8A6003229D
:10070000D202C00210400B68934303430B600020E9
:100710007047C046002000405A5A0000A5A50000BE
:10072000F0B5534A118856889588D38884686F4AF3
:10073000032C23D117686F4C27408F4203D1C76821
:100740000621022F44D811682140B14203D1C66866
:100750000621022E3CD811682140A94203D1C56868
:100760000621032D34D81168214004460C349942E7
:100770000DD123680621062B09D929E0C168154B44
:100780004B4304460C340621134DAB4220D80321C1
:100790004B0305686D031D40166B9E432E43166385
:1007A00043689B001C252B40166BAE431E4316630B
:1007B0000F235B01246864011C40156B9D43254396
:1007C000156380680840136B8B4303431363002158
:1007D0000846F0BD0048E801006CDC0270B50C462C
:1007E0000546A8060C4802D4294622460FE02021DF
:1007F0008D43061D304629462246FFF74DFE074829
:10080000032D01D1047004E0027803213046FFF784
:1008100043FE002070BDC04620200040580100204B
:1008200040001349405A3349014030480268324B76
:1008300013400B43036000207047C0460321890228
:10084000800208400B4A13688B4303431360002067
:100850007047C04640000649405A234901400548B8
:100860000268234B13400B43036000207047C046CF
:10087000000C10001420004080B50849084A8A6026
:10088000084A8A600A68E0239A434001C0B21043D4
:10089000086000F009F8002080BDC046002000403C
:1008A0005A5A0000A5A5000080B5FFF781FE134944
:1008B000086080BD10B50B49488B0B4A02400B48BD
:1008C00083680B4C1C40144384600988094A0A4021
:1008D0000168094B0B4013430360FFF769FE0749AA
:1008E000086010BD080C1000FF0300000C20004041
:1008F00000FCFFFFFF07000000F8FFFF00000020E2
:1009000080B500F019F880BD80B5C046C04680BDF6
:1009100080B5C046C04680BD80B5C046C04680BDDB
:1009200080B5C046C04680BD80B5C046C04680BDCB
:1009300080B5C046C04680BD80B500200146FFF7A7
:1009400027FC01280AD19D480168491C0160A6487E
:100950000121017000200146FFF710FC80BDC04658
:1009600080B5C046C046C046C04680BD80B5C046C2
:10097000C046C046C04680BD80B5C046C04680BDAA
:1009800080B5C046C046C046C04680BD80B5C046A2
:10099000C04680BDB0B504461C200B4D2146A8477B
:1009A00008202146A84700202146A84701202146CB
:1009B000A8471F202146A8470F202146A8471020FE
:1009C0002146A847B0BDC046DD070000FEB534494A
:1009D0000868401C08600022AD4D17461FE03378C0
:1009E000354610350027002B17D0B0682C49096810
:1009F000081A0127002810D0019302927168FFF7AE
:100A000087FB002908D10198FF2801D0401E3070D3
:100A1000F068002800D08047029A2743521C3C46C9
:100A20002E46D0B21328DAD9200600D0FEBD00F041
:100A3000DDF800F02BF8FEBDB0B5084D2878002891
:100A400005D0002402212046FFF77EFC04E00020B0
:100A50000221FFF7C9FC01242C70B0BD1400002056
:100A600070B514280FD80401894D2E1971600C48F7
:100A70000068B0602A55F360002A04D0002802D133
:100A8000014800F0A9F870BDCD09000080B5044808
:100A900000210160052082017D4800F003F880BD3F
:100AA0001000002010B55242002302E0C41A217049
:100AB0005B1E9A42FAD110BD002804D105E0002245
:100AC0000270401C491E0029F9D17047F0B585B06D
:100AD00000252846FFF7FAFD2846FFF70BFE1120F8
:100AE000FFF7B8FE02263046FFF7A8FE0124144F98
:100AF00030462146B8473046FFF7BEFE0426304652
:100B0000FFF78EFE28462146B8470195029603203E
:100B100003900C20049001A8FFF702FE2046FFF787
:100B200003FC30462146B8473046FFF7A5FEFFF7E5
:100B30003FFD044908602046FFF72CFF05B0F0BDDB
:100B4000B90400006001002080B5FFF7BFFF00F08E
:100B500001F880BD70B58AB06E4628213046FFF797
:100B6000ABFF002400940594042003900125069512
:100B700034743472019420463146FFF73FFB0E4E29
:100B800020463146FFF70EFB20463146FFF716FBA5
:100B900020462146FFF7F2FA2046FFF725FB0E20FC
:100BA00003212A46FFF774FB0F48047003490C60C9
:100BB00044600AB070BDC04690E800005C010020AF
:100BC00010B5094C2078012805D16068002800D0B4
:100BD00080470020207010BD80B503494860002088
:100BE000FFF7FAFA80BDC0460800002080B500205B
:100BF000FFF7F2FA80BD70B588B0FFF7A5FF01AC32
:100C00001C212046FFF758FF00250295049501207E
:100C10000590022628463146FFF796FB28463146C6
:100C20002246FFF79BFB00F005F800F007F8FFF7FE
:100C3000C7FFFCE780B500F00BF880BD80B57D20D4
:100C40008000FF21014A00F007F880BD390A00004A
:100C500080B5FFF71BFF80BD70B513460A460146FD
:100C6000FF24002912D0002A10D00025084804E0F3
:100C70002E01865D002E03D06D1C132DF8DD05E0DE
:100C8000E8B2A04202D0FFF7EBFE2C46E0B270BD06
:100C90001800002002E008C8121F08C1002AFAD17B
:100CA00070477047002001E001C1121F002AFBD1EC
:100CB00070470000D80C0000000000200800000071
:100CC000940C0000E00C000008000020600500000B
:100CD000A40C00000000000000093D00000000001E
:04000005000000C136
:00000001FF
