:020000040000FA
:1000000068330020D5000000EF0000003D0F000025
:1000100000000000000000000000000000000000E0
:10002000000000000000000000000000F3000000DD
:100030000000000000000000F5000000B712000002
:100040007110000079100000811000008D10000078
:10005000A10B00002D1700007D170000891700007C
:100060007F0F0000870F000091120000991200001E
:100070004D0F0000550F0000151700001D17000060
:1000800025170000730F0000351700003D17000012
:1000900045170000611000004B1800009910000087
:1000A0002708000069100000371800003F18000002
:1000B000271000006B0F0000350C0000990B0000AA
:1000C0000348854600F014FB00480047190800006B
:1000D0006833002009480A4A002100A1814200D962
:1000E0000244084802600848804708480047FEE785
:1000F000FEE7FEE7FEE7FEE7FEE700000000002067
:100100000000000008ED00E0C9160000C10000007A
:1001100030B50B46014600202022012409E00D469F
:10012000D5409D4205D31D469540491B2546954027
:1001300040191546521E002DF1DC30BD70B500246B
:100140002546002801DA01244042002901DA012570
:100150004942FFF7DDFFAC4200D04042002C00D006
:10016000494270BD38B50446C0681821401E484356
:10017000A16840183C214843616840183C2148432D
:100180002168451860690C2148432169401869219C
:10019000C900401A3021FFF7D1FF114A50434219DC
:1001A000084600921A2902DB0E49511800910C21D1
:1001B000FFF7C4FF0C4A5043009A801800900B4888
:1001C00006E0491E425C074B5A43009BD21800923E
:1001D0000029F6DC2146684600F08AF8009838BD10
:1001E000801F8607805101008033E101F471000017
:1001F00003460B439B0703D009E008C9121F08C040
:10020000042AFAD203E00B780370401C491C521EEA
:10021000F9D27047D2B201E00270401C491EFBD2F5
:1002200070470022F6E710B513460A460446194601
:10023000FFF7F0FF204610BD10B5002200E0521C71
:10024000835C8C5CA34201D1002BF8D1D8B2E1B21F
:10025000401A10BD30B504460020034600E05B1C88
:10026000934203D2E05CCD5C401BF8D030BDF0B5CA
:100270001FB40646002082B005464024019100903C
:100280001BE0019922460F46304600F020F8049A00
:10029000059B801A994110D310461946224600F05A
:1002A00039FA361A8F410197224601200021009F1A
:1002B00000F030FA38184D4100902046641E0028A6
:1002C000DFDC019B00982946324607B0F0BD10B52F
:1002D000202A04DB0846203AD040002110BD0B46FE
:1002E000D340D0402024A21A91400843194610BDA3
:1002F00070B50C4600683C21FFF70AFF21603C21E5
:10030000FFF706FF61601821FFF702FF0546A160B5
:100310000721001DFFF7FCFEA1610F48A900081886
:100320000E49FFF7F5FE0246443288086261E0613B
:100330003B2802D3910700D0401C0021084B0A46FD
:100340002161995C814203D8401A521C2261F8E76E
:10035000401CE060204670BD6C0B0000B50500003D
:1003600000720000F0B507460846584087B0C00F3D
:10037000049048000E46590040084908BC1A8841BC
:1003800005D2384631461E4617460B4602465800EF
:10039000400810434CD0300D039040055900400DEB
:1003A000490D0590401A0290402872DA1803012185
:1003B000000B09050843019004980092002805D01D
:1003C00001995242002088410092019002984021F8
:1003D0000A1A0199009800F09DF905460C466B46F3
:1003E00007CB00F0A7F9C0197141039A0E0D002345
:1003F000D71756401A467A40164344D0049A002A2A
:100400002DD0029A012A039A15DC1205C01A9141D7
:1004100001263605001C7141D20F059ED2070093BC
:10042000019202962A46234600F0A4F907B0F0BDD7
:1004300038463146FAE71605224A0F46B218C01A66
:10044000B74101210905001C4F4100187F411146A9
:1004500018187941E20F10436D19644113E0E20767
:100460006D0815436408C2071443039A0126120558
:10047000C01A91413605001C7141CE074008304337
:100480004908C01851412A46234600F066F9CDE7D5
:10049000FFE7049801224000C117121A00238B4184
:1004A00004983146C417381AA141EEE730B401244C
:1004B000E407634030BC55E730B40124E4076140F1
:1004C00030BC4FE70000E0FFF0B51FB488B00B99D7
:1004D0000998002448400999C00F4900490809912A
:1004E000C0070B990090490049080B910999089899
:1004F000A64608431CD00B990A98084318D00998BF
:1005000001244000420D4800410D099824050003D4
:10051000000B204309900B980003000B20430B9025
:1005200050181C494018002201901446104605E05E
:10053000002001460DB0F0BD032801DA034600E0BB
:1005400003239C46C11A0AAE0AE05F0008ADED5BCA
:100550004F00F75B7D430027AA187C41491C5B1EB6
:100560006145F2DD410004AB5A522104120C0A43EA
:10057000240C401C0828DFDB01980290009970468B
:1005800001910090059B049A0799069800F0F2F8F3
:10059000D0E700000DFCFFFFF0B50C465C4085B0D5
:1005A000E40FE40703944C000026640859009446C5
:1005B000490802460296224321D062460A431ED0D1
:1005C0006200570D4A000E032303550D0124024615
:1005D0002C492405781B1B0B360B4018234326435C
:1005E000614600901C46501AB44103D30098401C49
:1005F000009002E0921800985B41002803DA002086
:10060000014605B0F0BD00200121090507468646D8
:1006100011E064461D46141BB54106D36546521BC6
:10062000B341744607430C43A646CD07400849082A
:10063000284392185B4105460D43EAD11046184302
:1006400013D06046194650407140084306D06046BA
:10065000101AB34106D20122002306E00022012332
:10066000DB0702E00122D2435310009874460105D3
:10067000381C6141029C039D0019694100F06DF82E
:10068000BFE70000FD0300004A0009030123090B36
:100690001B0519430A4B10B5520D9A4202DA00208D
:1006A000014610BD064B34339A4203DC9A1AFFF719
:1006B0000EFE10BD034BD21800F02CF810BD000048
:1006C000FF030000CDFBFFFF10B5002904DB012470
:1006D000E40740428C412146002B04DB1C460123E9
:1006E000DB075242A341994200D1904210BD000065
:1006F000064C0125064E05E0E36807CC2B430C3C75
:1007000098471034B442F7D3FFF7DEFCF8730000CB
:100710001874000010B5202A04DB0146203A9140ED
:10072000002010BD914020239C1A0346E34019434A
:10073000904010BD10B5202A06DBCB170846203AA2
:100740001041C1170B4306E00B461341D040202453
:10075000A21A91400843194610BD10B5002B08DAC3
:100760000024401C614192185B411A4301D14008AA
:10077000400010BDF0B51FB482B005460C0003D098
:10078000084606F02BF802E006F028F82030024672
:10079000009021462846FFF7BDFF049B059A0446BA
:1007A0000F4618431143084314D0184610431BD07A
:1007B000009840210A1A18460599FFF788FD05465A
:1007C0000E46009A05990498FFF7A4FF084305D048
:1007D000012004E02046394607B0F0BD0020C117D3
:1007E00005430E432C43374300990E986305401A86
:1007F0007905E40A00220C43FD0A0A3002D50020E4
:100800000146E9E70105101969410C9C0D9D00198D
:100810006941FFF7A2FFDFE780B500F055FF04F064
:1008200011FA002080BD80B500F0CEF8C046C04669
:1008300080BD000010B50421002846D0C168CA0060
:1008400018231A4049490C689C4314430C60826881
:1008500013680B6253684B6293688B62D368CB62F8
:10086000C368022B07D0012B11D113690B630B4610
:100870003433052408E013690B6353694B639369B0
:100880008B630B463C330724A40012591A6002689C
:1008900013680B6153684B6193688B61D268CA61BE
:1008A0000A68022313430B600B68012213430B6099
:1008B0000B681342FCD10A69406802604A694260D1
:1008C0008A698260C969C1600021084610BDC046BE
:1008D00010B50421002846D0C168CA0018231A4068
:1008E00022490C689C4314430C60826813680B62B5
:1008F00053684B6293688B62D368CB62C368022BE8
:1009000007D0012B11D113690B630B463433052437
:1009100008E013690B6353694B6393698B630B4660
:100920003C330724A40012591A60426813680B6113
:1009300053684B6193688B61D268CA610A6802236D
:100940009A430A600B68012213430B600B68134241
:10095000FCD10A69006802604A6942608A69826063
:10096000C969C1600021084610BDC046001402409C
:100970001F21090100010840334A13688B430343D8
:10098000136000207047C04602490A6882430A602B
:100990007047C046B42400400120C0032A490A68B9
:1009A00002430A607047C0460349096801400120BC
:1009B000002900D108467047B02400400148006873
:1009C0007047C046A024004080B50120FFF7ECFF2F
:1009D00001280BD10120FFF7D7FFFFF7EFFF0449F4
:1009E0000968002900D0884700F034F880BDC0466F
:1009F0004403002070B504460420002C22D0124D80
:100A000001262E60022003F093F96068E16801433B
:100A100020690843A16801436069084329680143CC
:100A20002960B0022168890201406A6882430A4352
:100A30006A60A0698000042108406A688A43024312
:100A40006A60002070BDC0460424004003480121B4
:100A5000016070470148002101607047C0240040D8
:100A60000748016802220A400260704780B50448C6
:100A7000016801220A430260022003F059F980BD97
:100A80000024004001228A40D1430002014A8150E3
:100A900000207047140C00400002034A8258CA40EC
:100AA000012010407047C046100C004010B50002F5
:100AB000034A8358094C1C400C438450002010BD4D
:100AC000000C004010B50002034A8358034C1C4040
:100AD0000C438450002010BD040C00400000FFFFB8
:100AE00000022C4942580123134343500020704711
:100AF00000022849425801239A434250002070477F
:100B000000022449425801239B0213434350002012
:100B10007047C04670B5032213030A6814031C40D3
:100B200000021C4A85589D432543855001235C02E1
:100B30004D686D0225408658A6432E4386500C7A98
:100B400085581E02B5431C4023022B438350CB68BB
:100B50001B01702423408558A5431D4385500B7C01
:100B6000DB00082423408558A5431D4385504B696D
:100B70009B00042423408558A5431D438550896963
:100B800049000223194084589C430C4384500020A0
:100B900070BDC0460C0C004080B5C046C04680BD4C
:100BA00080B5C046C04680BD70B5002805DB1F2358
:100BB000034001249C401B4B1C60C30018241C40B4
:100BC0008901CBB2A340FF21A140CC4316490028A4
:100BD00005DB03250646AE43154D751906E00F25C6
:100BE0000540083D0326B543104EAD192E6826403A
:100BF0001E432E60012A07D1002811DB1F2210405E
:100C0000012282400A6070BD002809DB1F221040CB
:100C10000122824080200A50BFF34F8FBFF36F8FB5
:100C200070BDC04680E200E000E100E01CED00E0A5
:100C300000E400E080B5C046C046C046C04680BD66
:100C4000F0B589B00D460446FF2608966846202177
:100C5000FFF7E7FA04200C2C32D801221146A140FC
:100C6000184B19422CD0500217490B6A8343154088
:100C70006802184308620020144A05E08300D55832
:100C800065436F46FD50401C0828F7D100221346EB
:100C900013E008969C00684605590AE0089F781EF4
:100CA00008900720002F0BD06448C8626448C862CF
:100CB0000D510859A842F1D15B1C072BE9D9104608
:100CC00009B0F0BD56110000000002406C73000036
:100CD000FFB5FF210291039104210190420C43D101
:100CE00002980390544A11681024214206D0039AB6
:100CF000511E03910921002AF4D135E04F4DD560F2
:100D00004F4ED66000200090C1431161D560D6607F
:100D10005161029803900CE0039B591E0391092135
:100D2000002B21D0D560D6601168B94302230B4354
:100D300013601168032739400229EDD10198009909
:100D40000170029803901068204206D00398411E5B
:100D5000039109210028F6D106E0D560D6600099FC
:100D60001161D560D6605161084604B0F0BDC0463F
:100D70003149324ACA60324ACA6080000C221040AF
:100D80000B68934303430B6000207047FFB500914D
:100D9000FF210191039144020420610C4AD1019882
:100DA0000390254A10681026304206D00399481E49
:100DB000039009200029F4D13CE02049D160204F64
:100DC000D7600023D84310610291D160D760506191
:100DD000019803900DE00399481E03900920002913
:100DE00028D00298D060D7601068A8430121014341
:100DF00011601068032528400128ECD1009D03E014
:100E00009800295821505B1C802BF9D10198039040
:100E10001068304206D00399481E0390092000292B
:100E2000F6D107E00299D160D76000201061D1604F
:100E3000D760506104B0F0BD200002405A5A000053
:100E4000A5A500000246012003468B401168194009
:100E5000002900D10846704780B5034A8018012256
:100E600000F01EFA002080BD140D0240FEB51546AC
:100E70000E4601901C49471838460C300024314674
:100E800022460294194B9847B0000199081820494E
:100E90004450384608302A783146144CA0472A7905
:100EA00038463146A04738461C302A7A3146A0479A
:100EB000384620302A7B3146A047384624302A7CE9
:100EC0003146A0472C372A7D38463146A047A869CD
:100ED0000121C903064A13688B43C00380B218433B
:100EE0001060029803B0F0BD000D0240A112000096
:100EF000080F024080B5024A8018FFF7A3FF80BDAB
:100F0000080D0240890040180149425000207047F6
:100F1000000C024080B5034A8018012200F0C0F99D
:100F2000002080BD0C0D024080B5034A80180122CC
:100F300000F0B6F9002080BD100D024081B0002005
:100F4000009000980028FCD001B0704780B5C046E2
:100F5000C04680BD80B5C046C04680BD8168C068BF
:100F6000091A0020401A4841704780B5C046C04663
:100F700080BD80B5C046C046C046C04680BD80B575
:100F800000F056F880BD80B5C046C04680BD10B5A3
:100F900014300024224600F083F9204610BD80B5AD
:100FA000001D012200F07CF9002080BD80B51030CA
:100FB000FFF748FF80BD0000F8B50546042400296E
:100FC0001FD000246C60CCC908681E4306433E4312
:100FD00016436E60802313432E1D1039C02B10D191
:100FE000C009094A024009A0805A8A6982404869BA
:100FF0001146FFF78DF8A86104210122304600F068
:101000004FF9204601B0F0BDFCFFFF0104000000D5
:1010100003000000020000000268FF239A430A4315
:1010200002600020704780B5C046C04680BD000009
:1010300080B503480068002800D0804780BDC046C6
:101040004C0B002005490A68042313430B6001225E
:10105000824008681043086030BF704710ED00E020
:1010600080B5C046C04680BD80B5C046C04680BD84
:1010700080B5C046C04680BD80B5C046C04680BD74
:1010800080B5C046C046C046C04680BD80B5C0469B
:10109000C046C046C04680BD80B500F033F880BD74
:1010A00080B579480321002200F0FAF880BDC046DF
:1010B00080B502465948072100F0F2F880BDC046CD
:1010C00070B5FF230233042298420FD20122D503C8
:1010D000074C2668AE43C90389B231432160FE3311
:1010E00018402168034B0B4003432360104670BD3A
:1010F0003014004000FEFFFF80B563480321FFF776
:10110000A1FE80BD80B5FFF7F7FF012801D1FFF7F1
:10111000C7FF80BDB0B504460020FFF7C9FF2068B7
:10112000C000082108403D4D2A688A4302432A60D6
:10113000201D00F04DF8072000022169090201403E
:101140006A6882430A436A606169208BFFF7B8FFCF
:101150001A34204600F064F8B0BDC04670B52F4A7E
:101160001168802319420FD0516801240C43546048
:1011700016490C46002C04D0611C556802263542E5
:10118000F7D00921641C1FD091680170D1684170AB
:10119000156814691F2121400826354200D02146D8
:1011A0008170916901715169C170D1694171116A90
:1011B000817150680121884350601068002101E06E
:1011C000506802231842FBD1084670BD18FCFFFF8F
:1011D000B0B501218A0301688B0313400F490C68E5
:1011E00094431C430C6003680022012B07D0002BA2
:1011F00011D18068072420400B68A34309E00479DB
:1012000004203F2C08D83F2005020B68AB43044064
:101210002002184308601046B0BDC04600140040CC
:1012200070B50321CB43184AD158802421420ED0F7
:10123000116801250D4315607D21CD006D1E09212A
:10124000124E35421DD0116802263142F6D0017887
:101250005160417891608178D16001795161417923
:1012600091618179D161C078106110680121884352
:101270001060D0580021204203D010680223184289
:10128000FBD1084670BDC04604140040FFFF0000BB
:1012900080B5C046C04680BD80B5C046C04680BD52
:1012A00001238B40012A02D10168194301E0016842
:1012B00099430160704780B5C046C04680BD0000BC
:1012C00010B50246984B9948986099489860042058
:1012D000042A6CD87A4412795200974402142B3EA7
:1012E000560001200029024600D10A461C688443AA
:1012F00014431C600020002959D0D9680122D20271
:101300001142FAD053E02B480268032414430460CE
:101310001868022290430122002900D10A46520097
:10132000104318600020002941D019694022114261
:10133000FBD03CE01868042290430122002900D130
:101340000A46920010431860002000292FD05969E6
:10135000012212031142FAD029E003208003144A2B
:10136000146804431460186808229043012200297D
:1013700000D10A46D200104318600020002916D080
:10138000996940221142FBD011E018681022904365
:101390000122002900D10A461201104318600020E2
:1013A000002904D0D96B012292041142FAD010BD59
:1013B0008C0D02404C1D0240F0B58AB0B148018846
:1013C00007914188069181880491C1880291058C1A
:1013D0000B20C143CA4A5058440907231C4001202E
:1013E000C603C948089036480090364801903648F0
:1013F000039036480590364F7B48042C099124D839
:101400007C4424796400A744025422292B001068EC
:10141000089908400799884238464AD010680899C8
:10142000084006998842059843D0106808990840FA
:101430000499884203983CD01068089908400299A2
:101440008842019835D0009833E0002031E0906860
:10145000AA4901404B204002A9422AD0304628E048
:10146000116B03240C40032C05461DD1106808990C
:101470000840079988423D4616D0106808990840F0
:1014800006998842059D0FD0106808990840049974
:101490008842039D08D01068089908400299884244
:1014A000019800D000980546106B41090F200840B4
:1014B000684309995158090A1940C8400AB0F0BD5B
:1014C00000093D0000127A000024F400408651011A
:1014D00000366E0180B5FFF76FFF75490968C90ACC
:1014E00003220A40D04080BD7149724A8A60724A24
:1014F0008A6007221202000210400B6893430343E4
:101500000B6000207047C04669496A4A8A606A4A8F
:101510008A600322D202C00210400B689343034347
:101520000B6000207047C046002000405A5A00005F
:10153000A5A50000F0B5534A118856889588D38830
:1015400084686F4A032C23D117686F4C27408F4261
:1015500003D1C7680621022F44D811682140B14247
:1015600003D1C6680621022E3CD811682140A94249
:1015700003D1C5680621032D34D8116821400446E3
:101580000C3499420DD123680621062B09D929E094
:10159000C168154B4B4304460C340621134DAB4236
:1015A00020D803214B0305686D031D40166B9E4335
:1015B0002E43166343689B001C252B40166BAE43DD
:1015C0001E4316630F235B01246864011C40156BE6
:1015D0009D432543156380680840136B8B43034389
:1015E000136300210846F0BD0048E801006CDC02EE
:1015F00070B50C460546A8060C4802D4294622467A
:101600000FE020218D43061D304629462246FFF774
:1016100047FE0748032D01D1047004E0027803213E
:101620003046FFF73DFE002070BDC0462020004040
:10163000580B002040001349405A334901403048BC
:101640000268324B13400B43036000207047C046D2
:1016500003218902800208400B4A13688B4303432D
:10166000136000207047C04640000649405A234995
:10167000014005480268234B13400B4303600020E0
:101680007047C046000C10001420004080B5084987
:10169000084A8A60084A8A600A68E0239A4340013F
:1016A000C0B21043086000F009F8002080BDC046B9
:1016B000002000405A5A0000A5A5000080B5FFF7A1
:1016C0007BFE1349086080BD10B50B49488B0B4A5F
:1016D00002400B4883680B4C1C401443846009880B
:1016E000094A0A400168094B0B4013430360FFF7A6
:1016F00063FE0749086010BD080C1000FF030000DE
:101700000C20004000FCFFFFFF07000000F8FFFF77
:101710001000002080B500F019F880BD80B5C046EB
:10172000C04680BD80B5C046C04680BD80B5C046BD
:10173000C04680BD80B5C046C04680BD80B5C046AD
:10174000C04680BD80B5C046C04680BD80B5002083
:101750000146FFF7A1F901280AD106480168491C92
:10176000016005480121017000200146FFF78AF958
:1017700080BDC0465C0B00202000002080B500F03A
:1017800009F8C046C04680BD80B5C046C046C046C8
:10179000C04680BD80B503480068002800D080475F
:1017A00080BDC046500B002010B5143000242246E6
:1017B000FFF776FD204610BD80B5001D0122FFF722
:1017C0006FFD002080BD80B51030FFF73BFB80BD72
:1017D00070B50546042400291ED000246C604CC955
:1017E00008681E43064316436E60802313432E1D74
:1017F0000C39C02B10D1C009084A024008A0805AF9
:101800004A69824008691146FEF782FCA8610421FA
:1018100001223046FFF744FD204670BDFCFFFF016A
:1018200004000000030000000268FF239A430A43FB
:1018300002600020704780B5C046C04680BD80B5BC
:10184000C046C046C046C04680BD80B5C046C04602
:1018500080BD000010B5134C2278501E6321002A71
:1018600000D1084620700321084203D102F058F845
:1018700004F0EAF902F026FC002805D120780521C1
:10188000FEF746FC002901D104F028FF20780F2143
:10189000084202D101F0DEFF2078032801D103F0D5
:1018A00097FA10BD1400002080B500200621FFF734
:1018B00031FB80BD80B502F013FD80BD10B504463C
:1018C00002F0CAFC134801784A1C02708A00821890
:1018D0009460002902D002F06FFA10BD002101705F
:1018E000816841600C480378427812021A430B4B1E
:1018F000994206D802700121090311430A0A427075
:1019000000E011460170012292020A43110A41705F
:1019100010BDC046F0000020600B0020030C00004A
:1019200080B502F0BCFE80BD80B502F0C8FE80BD6F
:10193000B0B504461C200B4D2146A847082021467F
:10194000A84700202146A84701202146A8471F207C
:101950002146A84710202146A8471B202146A8471A
:10196000B0BDC046F115000080B508A002F02CFC07
:101970003648017802220A43027002F014FD322038
:101980000121064A04F008FB80BDC04620313256D2
:10199000737769746368482000000000E91E000046
:1019A00070B502F0FAFC02F004FD02F00EFD104CDE
:1019B000267801252E4001F077FD217886420BD153
:1019C000FB200840207029420AD00AA002F0FCFB4C
:1019D00001F08CFF207803E00420014321700846C9
:1019E000FD210140217007A002F0EEFB70BDC04652
:1019F00028080020206F70656E7365635570646100
:101A000074652000206374726C46696E6973682087
:101A10000000000010B50D4C2078C00705D110A0C3
:101A200002F0D2FB02F0CBFC04E009A002F0CCFBF8
:101A300002F0E9FC20780124204001F03DFD4B201C
:101A40000B4A214604F0A8FA10BDC0462808002021
:101A5000206472694374726C4F70656E20000000E0
:101A6000206472694374726C436C6F73652000006C
:101A7000A1190000BCB55C4C01212046FFF796FA85
:101A8000002821D001212046FFF781FA544DA86893
:101A900003F028FF297F012806D10320014329777D
:101AA000E87F21216854BCBDFE2001402977A86849
:101AB00001A903F0BDFE012806D101A80078216824
:101AC000FF2291430143216000212046FFF76EFA77
:101AD000002812D000212046FFF759FA216801A8FA
:101AE00001703F4C6068C9B203F0B6FEA07F2021B0
:101AF0006054207FFB2101402177BCBD7CB5384C70
:101B0000207FC0072FD02120215C002904D0491E4E
:101B10002154FF20014226D12069FFF71FFA002837
:101B200021D120692F4D2946224601F075FF012859
:101B300019D1002604E00178A06803F08DFE761C20
:101B4000A81921688E42F6D3A06801A903F070FE9F
:101B5000012808D101A801782348FFF75DFA207F0A
:101B6000FE2101402177207F0221084207D0FD217C
:101B700008402077A169002901D08847207F4007CD
:101B80001DD42020215C002904D0491E2154FF20AF
:101B9000014214D10025134E05E0606803F048FEB1
:101BA000052803D06D1C71197F2DF6DDE0680D4905
:101BB0002A4602F0ABFF207F042101432177E06831
:101BC000FFF7CCF900280AD1E0680649224601F067
:101BD00023FF6269002A02D02168024890477CBD39
:101BE000300000205005002000020040F0B587B012
:101BF0006C461C21204601F005FF00270197402577
:101C0000284639462246FFF731F903262846394649
:101C10003246FFF777F9012001900B272846394615
:101C20002246FFF723F9284639463246FFF76AF97C
:101C300007B0F0BDB0B50446CDB2294601F010FFA3
:101C4000012816D002F046FA002808D002F054F815
:101C500000280ED02046294604F02AFDB0BD05A07C
:101C6000214602F0B1FA09A0012321462A4602F0DA
:101C7000D5FAB0BD6465627567527820756E6B6F7A
:101C8000776E205374723A25730D0A00646562758D
:101C900067527820756E6B6F776E204865783A00D2
:101CA000704780B502F0BEFD80BD000010B5084849
:101CB000017842788378C478C470837042702202BD
:101CC0001A4312040A4340211143017010BDC0465B
:101CD0000C00002070B504463B4DA9683BA022468D
:101CE00002F072FAA868A0426DD0601E04280ED8D7
:101CF0007844007940008744024112323E000120BE
:101D0000A8601920FF21354A04F046F95AE0204620
:101D10005238022856D336A002F056FA70BD304E23
:101D200030787178090201432F4808403070000A6A
:101D3000707003F043F800283CD0317870780002CE
:101D400008430421084207D1284A1040020A727051
:101D50000843307003F0FEF83C20E86032E0204891
:101D600001784278427002220A43027001F034FC8A
:101D700002F080F926E01848E86023E001F04CFC0E
:101D800017490B784A7812021A4301239B031A421F
:101D900008D0144B1A400A70120A4A70B421B428B1
:101DA00000D808461E211E2800D8084614214143A9
:101DB000E96007E00020E8603078717871700821F0
:101DC00001433170AC6070BDE00000200D0A445347
:101DD00025642D256400000070170000111E00000E
:101DE000600B0020FFBF0000FFDF0000F3FF0000DA
:101DF0000D0A2A2A2A2A2A2A205F646576537461EA
:101E0000746553657420457272202A2A2A2A0000BC
:101E1000B0B5214DA86802280BD053280ED0052854
:101E200016D0522819D0032802D1E86800282CD1F6
:101E3000B0BD2868002821D0401E22E0EC6828218F
:101E40002046FEF765F9002911D102F077FF0DE079
:101E5000E868002819D10E201BE0EC681421204608
:101E6000FEF756F9002902D104F09EFBEC68002C25
:101E700002D0601EE860B0BD0C200AE003F06AF8F2
:101E8000C8202860E868002802D0401EE860B0BD85
:101E9000042001F0C3FFB0BDE0000020B0B588B061
:101EA00001AC1C21204601F0ADFD002502950495F2
:101EB000059502F0D1F9052128462246FEF7D6FF06
:101EC00008B0B0BDB0B5044665022846FEF700FF75
:101ED0000028FAD103492046FEF758FF0021091ACD
:101EE0004841B0BD4401002080B505A002F06CF966
:101EF00002F04DFA0120054A014604F06BF880BD5E
:101F000020313256656E482000000000151A00008E
:101F1000B0B50224522806D0652803D0532813D127
:101F2000032400E00424E0B26C4D2978814204D1FE
:101F300069480078FF2800D0B0BD00F07DF86C70D3
:101F40002C7000F06DF8B0BD00F076F8B0BDC04662
:101F500080B500F071F880BD10B588B001AC1C21CF
:101F6000204601F04FFD01200290002004900590D2
:101F70004120800105212246FEF778FF08B010BD00
:101F800010B588B001AC1C21204601F03BFD02F0E9
:101F90008AFB002002900490059004212246FEF75F
:101FA00065FF02F080FB08B010BD0000FEB51A49C5
:101FB0000868401C08600022184D17461FE033785F
:101FC000354610350027002B17D0B0681249096834
:101FD000081A0127002810D0019302927168FEF7B9
:101FE00097F8002908D10198FF2801D0401E3070D1
:101FF000F068002800D08047029A2743521C3C46D4
:102000002E46D0B21328DAD9200600D0FEBD02F049
:102010006DFC00F0C9FEFEBD380100200C0A002056
:1020200080B5FFF781FC962001212D4A03F0B4FF13
:102030002949087080BDC04680B5274803F0D1FF0C
:1020400026480021018080BD10B502F019F8044631
:102050004F2C0DD8FFF77CFF0A480178491C01700E
:10206000052C09D0032C0AD0022C02F02DFB10BD48
:102070002046FFF74DFF10BD02F021FB10BD02F01E
:102080000EFB10BD4803002010B5134CFF2020703C
:10209000FFF746FC96200121024A03F07DFF2070E5
:1020A00010BDC046A9200000B0B50B4CFF20207029
:1020B0000A4D681C01F0E6FA6878002805D0FFF7A1
:1020C00033FC96200121064A02E006480121064A17
:1020D00003F062FF2070B0BD15000020D400002086
:1020E0008920000052030000CD2D0000B0B5044649
:1020F0000E4D2968A14217D00DA0224602F064F8C7
:1021000001F0F0FF012C08D100280CD07A2000212A
:1021100001F084FE04F000F905E0002803D1482016
:10212000002101F07BFE2C60B0BDC046540B0020A6
:102130000D0A5A5325642D256400000010B5DD48B2
:1021400000790024800707D5DB4882680124002A33
:1021500002D00C300F219047204610BD10B5D54855
:1021600000790024C00707D0D34882680124002AE0
:1021700002D01B300F219047204610BD10B501F052
:10218000DBF8002810D00C4C611C204600F0CEFF7C
:10219000002802D10AA002F017F808488268002A35
:1021A00009D06178204605E004488268002A02D000
:1021B00001484178904710BD1C0900200001002013
:1021C0005F6E32735478205831000000B0B5DA49A0
:1021D000097989060024002928D5002808D0D1488B
:1021E00082680124002A21D0CF48417890471DE021
:1021F000CD4C2046143002F0E5FE1120E0730020A3
:102200002074607421461231042004F019F8AB4D9B
:10221000697B0320224603F00AFFFFF7AFFF082087
:1022200003F044FF687BE049087001242046B0BDFC
:10223000FEB5DC490979C9060024002929D5002802
:1022400008D0D94882680124002A22D0D748417892
:1022500090471EE002F0BBFE02AB1870D34D28463B
:102260000F30694601240C604860002003260146B7
:10227000324601F059FFCE4F797B30462A4603F0B3
:10228000D6FEFFF77BFF082003F010FF787BE849BC
:102290000870204603B0F0BD1FB5E4494979C9066E
:1022A0000024002937D5002808D0E148826801249D
:1022B000002A30D0DF48417890472CE003AC20461C
:1022C00002F09BFEDB480F30694602220A6048603C
:1022D000002017220146234601F026FF03F0DEFE10
:1022E00000280CD0D44C617B0320D24A03F09FFE1F
:1022F000082003F0DBFE607BEA49087008E0E9484B
:102300000178491C0170C9B20320E74A03F08FFE2F
:10231000FFF734FF0124204604B010BD7FB5E0492B
:10232000497949060024002928D5002808D0DD482D
:1023300082680124002A21D0DB48417890471DE0C3
:1023400002F076FE03AB1870D74D28460F30694671
:1023500001240C60486000202722014601F0E4FEC1
:10236000EE4E717B03202A4603F061FEFFF706FF65
:10237000082003F09BFE707BE6490870204604B0FD
:1023800070BDC04670B5E2490979490700240029AB
:1023900028D5002808D0DF4882680124002A21D0EF
:1023A000DD48417890471DE0DB4D2846143002F0AF
:1023B0002DFE0920E8730020287468742946123124
:1023C0000124204603F03CFFD44E717B03202A46B3
:1023D00003F02DFEFFF7D2FE082003F067FE707BAE
:1023E000EE490870204670BD7FB5EB4949798906F2
:1023F0000024002928D5002808D0E8488268012454
:10240000002A21D0E648417890471DE002F027FEDF
:1024100003AB1870E24D28460F30694601240C606A
:10242000486000202622014601F07EFEDD4E717BD1
:1024300003202A4603F0FBFDFFF7A0FE082003F06F
:1024400035FE707BF2490870204604B070BDC0466E
:10245000B0B5EE49897989070024002928D50028DC
:1024600008D0EB4882680124002A21D0E94841784D
:1024700090471DE0E74C2046143002F01BFE401D43
:10248000E073002020746074214612312A2003F08A
:10249000D7FEE14D697B0320224603F0C8FDFFF71C
:1024A0006DFE082003F002FE687BF84908700124E5
:1024B0002046B0BD08000020000100202C080020AC
:1024C00010B5F149C979C9070024002928D000288E
:1024D00008D0EE4882680124002A21D0EC484178D7
:1024E00090471DE0EA4C2046143002F013FE401DD8
:1024F000E073002020746074214612312A2003F01A
:102500009FFEE2480178491C0170C9B202202246B0
:1025100003F08DFDFFF732FE082003F0C7FD012414
:10252000204610BD000100201C090020F248406830
:10253000C108012008407047080000207FB5EE491F
:10254000497949070024002928D5002808D0EB48FC
:1025500082680124002A21D0E948417890471DE093
:1025600002F0F8FD03AB1870E54D28460F306946C0
:1025700001240C60486000201522014601F0D4FDC2
:10258000E04E717B03202A4603F051FDFFF7F6FD74
:10259000082003F08BFD707BF6490870204604B0DC
:1025A00070BDC04608000020000100201C0900206A
:1025B0002C0800201CB5EE494979090700240029A0
:1025C00031D5002808D0EB4882680124002A2AD09F
:1025D000E9484178904726E0E7490F316A460020F4
:1025E00003C216220146034601F09EFD03F056FD8C
:1025F00000280CD0E14C617B0320DF4A03F017FD7B
:10260000082003F053FD607BF949087008E0F848A2
:102610000178491C0170C9B20420F64A03F007FD95
:10262000FFF7ACFD0124204602B010BD08000020D9
:10263000000100201C0900202C080020B0B5EB4947
:10264000497909060024002928D5002808D0E8483F
:1026500082680124002A21D0E648417890471DE095
:10266000E44C2046143002F013FD0920E0730020F2
:102670002074607421461231282003F0E1FDFA4DE8
:10268000697B0320224603F0D2FCFFF777FD082088
:1026900003F00CFD687BF249087001242046B0BDB0
:1026A00008000020000100201C090020B0B5F549F9
:1026B0008979C9070024002928D0002808D0E848D3
:1026C00082680124002A21D0E648417890471DE025
:1026D000E44C2046143002F03FFD0D20E073002052
:1026E0002074607421461231292003F0A9FDDE4DCB
:1026F000697B0320224603F09AFCFFF73FFD082088
:1027000003F0D4FC687BD649087001242046B0BD94
:1027100008000020000100201C0900202C080020D7
:102720001CB5D849097949060024002931D500286B
:1027300008D0CB4882680124002A2AD0C9484178B1
:10274000904726E0C7490F316A46002003C20522A0
:102750000146034601F0E8FC03F0A0FC00280CD081
:10276000C14C617B0320BF4A03F061FC082003F0E9
:102770009DFC607BBA49087008E0B9480178491CA3
:102780000170C9B20420B74A03F051FCFFF7F6FC10
:102790000124204602B010BD0800002000010020E6
:1027A0001C0900202C080020B0B5F349097909065E
:1027B0000024002928D5002808D0A94882680124CF
:1027C000002A21D0A748417890471DE0A54C20461B
:1027D000143002F0E4FC0920E073002020746074DF
:1027E00021461231122003F02BFD9F4D697B0320FF
:1027F000224603F01CFCFFF7C1FC082003F056FC46
:10280000687B9749087001242046B0BD080000206D
:10281000000100201C0900202C0800200020704727
:102820007FB5EC49497989070024002928D500287B
:1028300008D08B4882680124002A21D08948417839
:1028400090471DE002F0BDFC03AB1870854D284693
:102850000F30694601240C604860002014220146B4
:1028600001F062FC804E717B03202A4603F0DFFBFF
:10287000FFF784FC082003F019FC707B784908708E
:10288000204604B070BDC0460800002000010020B2
:102890001C090020B0B5EA494979C907002400297C
:1028A00028D0002808D06E4882680124002A21D050
:1028B0006C48417890471DE06A4C2046143002F085
:1028C00082FC0920E07300202074607421461231DC
:1028D000132003F0B5FC644D697B0320224603F00E
:1028E000A6FBFFF74BFC082003F0E0FB687B5C498C
:1028F000087001242046B0BD08000020000100201F
:102900001C0900202C0800207FB5E6498979C906FA
:102910000024002928D5002808D0514882680124C5
:10292000002A21D04F48417890471DE002F05DFC1D
:1029300003AB18704B4D28460F30694601240C60DC
:10294000486000209922014601F0EEFB464E717B63
:1029500003202A4603F06BFBFFF710FC082003F06E
:10296000A5FB707B3E490870204604B070BDC04690
:1029700008000020000100201C0900202C08002075
:102980007FB5C84989794906002400292AD500283D
:1029900008D0334882680124002A23D03148417886
:1029A00090471FE003AD284602F023FC2D4C204643
:1029B0000F30694603260E6048600020A1220146C0
:1029C0002B4601F0B1FB284D697B3046224603F0CF
:1029D0002EFBFFF7D3FB082003F068FB687B204940
:1029E00008700124204604B070BDC04608000020D5
:1029F000000100201C0900207FB5AA4989798906B9
:102A00000024002928D5002808D0E5488268012440
:102A1000002A21D01348417890471DE002F0EDFBD9
:102A200003AB18700F4D28460F30694601240C6027
:102A300048600020A022014601F076FBC94E717B60
:102A400003202A4603F0F3FAFFF798FB082003F06F
:102A50002DFB707BD2490870204604B070BDC04683
:102A6000000100201C0900202C080020CD484068EF
:102A7000C10C012008407047CA484068810C012001
:102A80000840704708000020B0B50446184D281DC6
:102A900003F01CFCA868022802D12046FFF71AF9AF
:102AA000B0BDC04610B50146114C201D03F00AFC14
:102AB000A068052800D110BD616800290CD00DA0C8
:102AC00001F082FB60680121084209D1C0060BD4E5
:102AD0000FA001F079FB10BD0320FFF7FBF810BD3C
:102AE0005220FFF7F7F810BD5320FFF7F3F810BDA1
:102AF000E00000205F6F6E457272546F4F6B5F6431
:102B000065764572724269743D2530385800000080
:102B1000206F6E457272546F4F6B5F58310000002A
:102B200080B501F07FFE80BD9E484168022291433E
:102B3000416070479B484168012291434160704762
:102B40009848416820229143416070479548416808
:102B500010229143416070470120000391494A6867
:102B600082434A607047C046012080038D494A680D
:102B700082434A607047C046080000208948416887
:102B800004229143416070470120400385494A680F
:102B900082434A607047C0460120400481494A6828
:102BA00082434A607047C046012000067D494A685A
:102BB00082434A607047C0467A4841680822914380
:102BC000416070470120800276494A6882434A602A
:102BD0007047C046080000200120C00271494A68C1
:102BE00082434A607047C0460120C0036D494A686D
:102BF00082434A607047C0460120000469494A6820
:102C000082434A607047C04666484168402291430B
:102C1000416070476348416880229143416070473A
:102C20000120C0055F494A6882434A607047C04638
:102C3000012040025B494A6882434A607047C046AF
:102C4000080000200120000256494A6882434A6079
:102C50007047C0460120000552494A6882434A60D5
:102C60007047C046012080054E494A6882434A6049
:102C70007047C046012040054A494A6882434A607D
:102C80007047C0460120C00446494A6882434A60F2
:102C90007047C0460120800442494A6882434A6026
:102CA0007047C04608000020B0B503F013F90028B3
:102CB00003D102F0FFFE002800D0B0BD064C074D46
:102CC0002046294603F0B6F82978204602F038FF5E
:102CD00001F084F8B0BDC046DC060020D806002014
:102CE00070B514280FD80401354D2E197160334882
:102CF0000068B0602A55F360002A04D0002802D191
:102D0000014801F0E9FD70BDAD1F0000F8B50E46A9
:102D10000746144C204639463246FDF769FA2046EC
:102D200001F016FA01280BD1E078032803D0617B6B
:102D3000202000F021F8052003F0B8F901250DE06E
:102D400009A00025394632462B4601F067FA617B1F
:102D5000222000F011F8062003F0A8F9284601B05F
:102D6000F0BDC0462C0800205F7478744672616D17
:102D70006545786500000000B0B50C46084D6876E2
:102D80002846103003F0D6FC2C760C35002128465E
:102D900002F0AFFD0348416802220A434260B0BD21
:102DA000000100200800002080B5044800210160D7
:102DB00005208201024800F050FC80BD380100204F
:102DC0000C0A002080B500F0F7FF80BD80B50448F4
:102DD000FF210170034801784170FFF721F980BDA0
:102DE00015000020D400002080B500F093FC80BDC9
:102DF000BCB501218C072046FEF7E5FC002821D058
:102E000001212046FEF7D0FC554DA86802F06AFD6E
:102E1000297F012806D1032001432977E87F21215A
:102E20006854BCBDFE2001402977A86801A902F0C2
:102E3000FFFC012806D101A800782168FF229143F8
:102E40000143216000212046FEF7BDFC002812D07E
:102E500000212046FEF7A8FC216801A80170404C23
:102E60006068C9B202F0F8FCA07F20216054207F86
:102E7000FB2101402177BCBD7CB5394C207FC007C8
:102E800030D02120215C002904D0491E2154FF208C
:102E9000014227D12069FEF761F8002822D120697C
:102EA000304D2946224600F0B7FD01281AD10026F0
:102EB00004E00178A06802F0CFFC761CA819216814
:102EC0008E42F6D3A06801A902F0B2FC012809D114
:102ED00001A8017801208007FEF7A6FC207FFE21D3
:102EE00001402177207F0221084207D0FD210840C0
:102EF0002077A169002901D08847207F40071DD491
:102F00002020215C002904D0491E2154FF200142C9
:102F100014D10025134E05E0606802F089FC0528F5
:102F200003D06D1C7119FF2DF6DDE0680D492A46AE
:102F300001F0ECFD207F042101432177E068FEF7DA
:102F40000DF800280AD1E0680649224600F064FD29
:102F50006269002A02D02168024890477CBDC046C1
:102F600060000020D4050020F0B587B06C461C211D
:102F7000204600F047FD0020019040250627284606
:102F800039462246FDF772FF022628463946324668
:102F9000FDF7B8FF01200190072728463946224651
:102FA000FDF764FF284639463246FDF7ABFF07B010
:102FB000F0BD0000B0B50546CCB20FA001232946F4
:102FC000224601F02BF901F085F8002808D000F026
:102FD00093FE00280ED02846214600F093FEB0BD97
:102FE0002846214603F0C4F9012803D0284621468B
:102FF00002F02EFEB0BDC0467A72783A00000000A2
:103000007047000080B501F069FD0A4801784278F8
:10301000427040220A43027080BDC04680B501F074
:1030200069FD044841780278027001220A43427027
:1030300080BDC046600B0020F0B58DB00C46054643
:10304000287803F077F8002819D0207803F077F873
:10305000002816D020786978814214D1A878AE1C57
:1030600003F0E7F8002810D0307803F0E0F80028EB
:103070000DD02078C01C000710D01FA008E028A0A9
:1030800006E024A004E01B4802E01FA000E01D4869
:1030900001F09AF8002738460DB0F0BD019609A955
:1030A000284600F037F90294207804900D26039505
:1030B0000AE009A805A90A46B8C8B8C2039DA8191C
:1030C000012200F0A9F81036F6B204988642F0D337
:1030D000049828180021C943425C4018002AFBD0FC
:1030E0000127791B0C186C70019802F0BDFF029843
:1030F0000470D0E78C7300006165734465632058E9
:1031000036000000967300006165734465632058C3
:10311000340000006165734465632058320000008C
:10312000616573446563205831000000F0B58BB0D1
:103130000D460446207802F0FDFF002815D02878BF
:1031400002F0FDFF002812D028786178814210D16A
:10315000A078A61C03F06DF800280CD0307803F09E
:1031600066F801280DD1224806E028A004E024A03A
:1031700002E01E4800E01FA001F026F800200BB07E
:10318000F0BD304602F075FF07A9204600F0C2F8F6
:103190002878C11C0F220A400021002A0AD0D2B28E
:1031A00010239E1A06D020180021324600F055FA4E
:1031B000287831460294081828700D2601950CE0F5
:1031C00007A803A90A46B8C8B8C2019D0298801989
:1031D000002200F021F810362878F6B2C1B28E42F3
:1031E000EED3029948700120C9E7C0468C730000F5
:1031F00096730000616573456E63205834000000CB
:10320000616573456E632058320000006165734547
:103210006E63205831000000F0B593B00F460546AC
:1032200000240E940D940C940B940A940994089421
:1032300007940694059404940394002A02951BD0E5
:103240001B2001900121FEF7D3F90BA80090102656
:1032500039463246FCF7CCFF07AF3846294632469E
:10326000FCF7C6FF03AD10950F97009811901294CC
:103270000FA8FDF7DFFA19E01B2001900121FEF7EE
:10328000B7F9294607AD102628463246FCF7B0FFAD
:1032900039460BAF38463246FCF7AAFF109503AD0E
:1032A0000F95119712940FA8FDF712FB029829466B
:1032B0003246FCF79DFF01982146FEF799F913B0BD
:1032C000F0BD704780B500F049F880BD80B500F0D2
:1032D0004FF8012080BD0000B0B5827803799C18BA
:1032E000032214400AA31C5D0C70C47805792C19C4
:1032F00014401C5D4C70047914401C5D8C70847803
:10330000C5782C19007920181040185CC870B0BD21
:10331000467A394070B50C4605462046FFF7D2FF85
:1033200026460C3628463146FFF7D6FF083420469D
:10333000314600F09CF970BD80B500F02FF880BDDB
:1033400080B500F033F880BD0002084370470002EA
:1033500008430002104300021843704780B500285C
:1033600004D0DA4938310C22FCF742FF80BDC04658
:10337000B0B50446002C10D0DF4D38350C22204665
:103380002946FCF767FF002807D00C222846214673
:10339000FCF72EFFD74801210170B0BDDC48416B1E
:1033A0000120002900D108467047C046D8494A6B21
:1033B000824203D04863CF48012101707047C04664
:1033C000D34880687047C046D1498A68824203D09A
:1033D0008860C848012101707047C046E9484169CA
:1033E0000120002900D108467047C04680B501463B
:1033F000054842698A4206D0416104A000F0E4FE1B
:10340000DF480121017080BDE00700205772697418
:10341000654374726C4D6F64652025640000000084
:10342000D8498869092801D80A2088617047C046B0
:10343000B0B504460A200A2C00D80446064DA869F7
:10344000A04207D005A0214600F0BEFEAC61CC48EA
:1034500001210170B0BDC046E007002057726974B9
:10346000654F70656E53656320256400C548C0696B
:103470007047C04680B501460548C2698A4206D0F9
:10348000C16104A000F0A0FEBD480121017080BD13
:10349000E007002057726974654F70656E53746160
:1034A0007274202564000000B648016B01200029D9
:1034B00000D108467047C04680B501460548026BFA
:1034C0008A4206D0016304A000F07EFEAC480121D0
:1034D000017080BDE0070020577269746543747203
:1034E0006C5374617465202564000000A448017861
:1034F0000020401A4841704780B50748807801286D
:1035000002D106A000F060FE224800210160FE20EA
:1035100000F02AF880BDC046600B00200D0A6366EB
:103520006750616765496444656600001948006832
:103530007047C04680B500F00FF816480068000AD2
:1035400001D0FFF7D9FF80BD0146C4390120002218
:103550003B2900D31046704780B5FF2000210D4A5B
:10356000012300F05EFF80BD80B50146094A136863
:1035700000208B420DD0116007488078012802D1CD
:1035800006A000F021FEFF200021024A012300F0E6
:1035900053FF80BD30010020600B00206366675040
:1035A00061676549645365743D256400754A136A13
:1035B0000360506A08607047724A136A834203D0FE
:1035C00010626F4801230370506A884203D0516231
:1035D0006B480121017070476A48C0687047C04657
:1035E000B0B50446064DE868A04207D005A02146C4
:1035F00000F0EAFDEC60624801210170B0BDC046F8
:10360000E00700205772697465536C6565705365F7
:1036100063202564000000005A4800697047C046D6
:1036200080B50146054802698A4206D0016104A0BE
:1036300000F0CAFD52480121017080BDE007002062
:103640005772697465576F726B5365632025640008
:1036500080B500F08DFB80BDFEE710B5524200231F
:1036600002E0C41A21705B1E9A42FAD110BD0A789A
:103670000378534003700A785A400A700178514029
:10368000017070470178002901D0491E0170704710
:1036900010B53C480168491C01D10021016000219E
:1036A0000A224B239C00DB0041608160C260046100
:1036B0004161836101223C23026243624163044908
:1036C0000164C16381632E48027010BDE0070020D1
:1036D0005858585880B5FFF72DFF00F00FF82848CC
:1036E0000021017027484068002801D0FFF7D0FF73
:1036F00080BDC0462D010020E007002080B5FFF707
:1037000015FF00211F4A122300F08BFE80BDC0462A
:10371000E0070020B0B51A48017800292FD0002119
:103720000170184C2068401C2060FFF7FFFE451E0A
:103730002846FFF709FF00280FD020681249884269
:103740000BD301202060002113232846224600F0DD
:1037500073FE2846FFF708FFB0BD0C4880780128AB
:1037600006D1FFF7E3FE0146226809A000F02CFD18
:10377000FFF7DCFE0021034A132300F05DFEB0BD1D
:103780002D010020E0070020D17E0100600B002009
:1037900077666C6173682C5049643D256420636EC4
:1037A000743D2564000000006A480178FA220A404E
:1037B000042111430170704780B5FFF7F5FF80BD0C
:1037C000704780B500F03AF880BD80B500F0A4F8ED
:1037D00080BD000080B500F01FF800F039F8FFF759
:1037E000EFFF5C480178F5220A400821114301707F
:1037F00080BDC04610B557480478002006210C4211
:1038000000D010BD01200440FFF74EFE211A002019
:10381000401A484110BDC046704780B5FFF7DEFD35
:103820000021091A484180BD80B5002801D001203F
:1038300000E00020FFF7DAFD80BD00004548017878
:1038400005220A430270704780B5FFF7E9FD80BD8D
:1038500070470000F8B5164E30784007800F00D052
:10386000F8BDFFF721FE0028FAD0FFF7FFFD044660
:1038700000F098FF05462F1BFFF7D2FD8742EFD3DC
:10388000FFF7CEFD03460BA02946224600F09CFC24
:103890003078FA2101400420084330701048017844
:1038A0004278427010220A43027000F039F8F8BDE5
:1038B0002808002020636C6F73653A20637572736B
:1038C00065633D25642073746172747365633D257F
:1038D00064206F70656E7365633D256400000000B1
:1038E000600B002080B5FFF7A3FD80BD10B500F090
:1038F00059FF044603A0214600F066FC2046FFF76E
:10390000B9FD10BD206F70656E20737461727420F4
:103910007365633D2564200080B5FFF7C5FD80BD5C
:10392000B0B50C4C25780620284004280BD1280778
:103930000AD401200540FFF7B7FD854207D1207862
:10394000FB2101402170B0BDF72005402570FEF736
:103950000BF8B0BD28080020B0B58CB0054601AC0E
:10396000204618301421FCF75CFC286809494018EF
:1039700006902879401E059068790490A8790390F4
:10398000E8790290287A01902046FCF7EBFB0CB016
:10399000B0BDC04694F8FFFF80B500F003F800F01A
:1039A000A7F980BDB0B586B001A980200880488005
:1039B000012460028880C880022008724872094889
:1039C000049009480590D34D281D02F049FCFF21C1
:1039D000064A204602F0E0FA6877054801F01EF832
:1039E00006B0B0BD351C0000A11C0000FD1A00008F
:1039F000751A000080B50A460146C648006901F004
:103A000085F880BD002804D105E000220270401C2A
:103A1000491E0029F9D17047F8B516460C460546EF
:103A2000A968EA680020914217D02868475C481CC2
:103A30006968FCF76DFBA96037600BE0A86829682E
:103A4000085C20706968A868401CFCF761FBA960ED
:103A50007F1E641C0120002FF0D101B0F0BD0000DA
:103A6000F8B50C4605460027032C3AD31E4903221D
:103A70002846FCF7EFFB002833D1EE1C1B49082237
:103A80003046FCF7E7FB00280AD128460B302146D8
:103A9000F531C9B200F00AF901460120012921D00F
:103AA000134903223046FCF7D5FB002809D1A81D95
:103AB0002146FA31C9B200F0ABF8014601200129D4
:103AC00010D00C4903223046FCF7C4FB002808D173
:103AD000A81DFA34E1B200F00FF8014601200129D7
:103AE00000D0384601B0F0BDEB730000DA7300007F
:103AF000D6730000A0730000BFB505460024062958
:103B000011D012291BD00A292ED0092949D13F49A9
:103B10002846FCF791FB002843D1FFF70DFC002855
:103B200031D036A03AE02B492846FCF785FB002827
:103B300037D101AD2846FFF7C5FB27A00DE01A4994
:103B400006222846FCF786FB00282AD1AD1D284610
:103B5000FFF7BCFB002820D014A00C22012429462A
:103B6000234600F05BFB1CE01E492846FCF764FB83
:103B700000280AD01C492846FCF75EFB002810D11B
:103B80000020FFF7DDFB19A008E001242046FFF725
:103B9000D7FB1AA000F018FB03E009A000F014FB0B
:103BA0000124204604B0B0BDAB7300000A61657308
:103BB0006B6579736574206F6B2C206B65793D00A4
:103BC0000A6165736B6579736574204572726F72F3
:103BD00000000000A47300000A6165736B65793A08
:103BE00000000000C7730000BC7300000A61657329
:103BF00020737769746368206F6666000A61657375
:103C000020737769746368206F6E0000B2730000E0
:103C100070B588B0002503292FD119490324224605
:103C2000FCF718FB002828D1684616A11822FCF7DB
:103C3000DFFA06A800F0F0FF00281AD000200646A0
:103C400005E006A9091A0978F2B28E18401E01464D
:103C50000831F6D16D462C4306A8214600F0E0FF5E
:103C6000F0B22946133100F057F800206875284655
:103C700000E00AA000F0A8FA0125284608B070BDAF
:103C8000D27300007A6C40000000000000000000C9
:103C90000000000000000000000000000D0A206D80
:103CA00061632072656164206572720010B5002442
:103CB000072908D0012916D10078302813D100F047
:103CC000B1FD01240FE00949FCF7B6FA00280AD13A
:103CD0000720002100F0A2F80948017801240029FA
:103CE00001D101240470204610BDC046E3730000DA
:103CF0000348002101707047014800787047C046B2
:103D0000D406002080B50A4601460248006900F04A
:103D1000FDFE80BD3000002080B5024602A30846AB
:103D2000194602F031FD80BD2530325800000000F8
:103D3000F8B51E4C1E4D65600021A1600521216073
:103D40001C4E0BE00020A06030680849FCF7E0F949
:103D5000691C081AA1688142FCD83846471E002811
:103D6000F0D12068012188432060F8BDA0860100C1
:103D7000F8B50E4C0E4D65600026A6600521216049
:103D80000CE0A6607D20C1000A480068FCF7C0F97D
:103D9000691C081AA1688142FCD83846471E0028D1
:103DA000EFD12068012188432060F8BD10E000E0D9
:103DB000FFFFFF001000002080B500F053FA032041
:103DC0000121024A02F0E8F880BDC046B5180000A3
:103DD000C84840680109012008407047C548C8210B
:103DE0000160704710B500F04FF900F085F905202B
:103DF000FF24074A214602F0CFF80120054A014678
:103E000002F0E8F80A20044A214602F0E3F810BD67
:103E100055180000AD1C0000E92D000010B5044647
:103E2000792C0BD359A0214600F0CEF97B2C16D06B
:103E30007A2C18D10120FEF735FE10BD512C24D864
:103E4000482C12D342A0214600F0BEF9492C14D0D0
:103E5000482C17D152200121FEF716FE10BD10206C
:103E6000FEF720FE10BD4DA00DE0332C0DD8082C20
:103E70000CD0072C18D1052014E053201021FEF798
:103E800003FE10BD38A000F09FF910BD2648406821
:103E90000121084203D1C00603D4032002E05220CE
:103EA00000E05320FDF716FF1F48806851280CD30F
:103EB0000C2CEAD11D4801784278427008220A434E
:103EC00002700420FDF706FF10BD05280DD8C0467E
:103ED0007844007940008744020A0D101E21012C0D
:103EE000D3D10120FDF7F6FE10BD11A0CBE7022CC7
:103EF000CBD10CE0042CC8D112E0062CC5D101F0C6
:103F00007BFD002803D1094840788006D9D50220DE
:103F1000FDF7E0FE10BD0A2CB7D101E00E2CB4D1A4
:103F20000320FDF7D7FE10BDE0000020600B00204D
:103F30000D0A2A2A2A2A2A2A205F6465764F6E45AE
:103F400076656E7420457272202A2A2A2A000000A3
:103F50005F6F6E45727248696E744576656E745F08
:103F6000653D2564000000000D0A2A2A2A2A2A2A13
:103F7000205F6F6E45727248696E744576656E7427
:103F800020457272202A2A2A2A0000005F6F6E459F
:103F90007272546F4F6B5F653D2564000D0A2A2ACB
:103FA0002A2A2A2A205F6F6E457272546F4F6B4522
:103FB00076656E7420457272202A2A2A2A00000033
:103FC000B0B5FFF717FC002848D0FFF78FFA00289C
:103FD00044D002F04BFB002840D001F02FFD002818
:103FE0003CD01F4C21786078000208430821084229
:103FF00034D0810609D41E490840010A617020218D
:104000000143217000F072FEB0BD400626D500F0DD
:104010007DFC144D01E000F0B5F92A68501F002125
:10402000052A00D8084628600028F4D12078617855
:10403000090201430C4808402070000A607000F03B
:104040005FFB00F05FFEFFF7B7FEFFF703FC07A082
:1040500000F0BAF80A200021FFF7E0FEB0BDC0462C
:10406000600B00203C01002091FF00007700000061
:104070009FFF0000014908607047C0463C010020D6
:104080001C4880687047C04680B51A4900204860C7
:10409000FDF720FE0120FFF7C1FE0220FFF7BEFE64
:1040A00080BDC04613488068811E0020401A4841E8
:1040B0007047C0460F48816853390020401A484174
:1040C0007047C0460B488068C11E0020401A484116
:1040D0007047C04607488068411F0020401A484189
:1040E0007047C0460348816852390020401A484151
:1040F0007047C046E000002080B50A4800210170EA
:10410000044800F0B5F832200121034A01F044FFD1
:1041100080BDC046BD180000C52D000001484068A4
:104120007047C046F000002070B51C46049D6B1D12
:10413000059E33707070B17090B2F11C02F080F87F
:10414000002D04D0701D21462A46FCF751F870BDA1
:10415000B0B50446E17CA07CFFF7F6F8054600F018
:1041600019F8411C05D080000549095820468847A8
:10417000B0BD04A0294600F027F80020B0BDC0461D
:104180000C720000657272207061726149643D2595
:1041900064000000B0B5152300210A4A00E0491C64
:1041A000CCB201E0FF310B460021C943DDB2AC4285
:1041B00006D8291949084D00555B8542F2D8EED33F
:1041C0000846B0BD3E73000083B010B5A1B00446F0
:1041D00023A80EC001A88021FCF723F8FFF77AFF7F
:1041E00000280FD123AB009301A88021224602F0C2
:1041F000DFFA0146002901D001A801E004A00B214B
:10420000FFF7F8FB21B010BC01BC03B00047C0466B
:104210006D795072696E7466204E4700F8B51C4681
:1042200015460E46002801D0FFF7CEFF07A705E090
:1042300031783846FFF7C8FF761C6D1E002DF7D188
:10424000002C02D003A0FFF7BFFFF8BD20253032BD
:10425000580000000D0A000080B500200521FCF781
:10426000FBFD80BD80B500200521FCF75DFE80BD13
:10427000164908607047C046F0B587B0FDF70EFEDE
:10428000FDF712FB6D461C212846FFF7BBFBFCF730
:10429000EDFB00270097019703242003029003976A
:1042A00004970126B003059006972846FCF7A2FB69
:1042B0000620FCF75DFBFCF76FFB18202146324619
:1042C000FCF772FC0148076007B0F0BD4403002012
:1042D00080B5FDF7E3FDFDF7E7FAFCF7C7FB80BD0E
:1042E00080B5FCF7B3FB80BD80B5FCF7B3FBFCF7F2
:1042F000B7FB80BDF0B585B000252846FDF7F4F882
:104300002846FDF701F91120FDF7AEF902263046E7
:10431000FDF79EF90124144F30462146B847304638
:10432000FDF7B4F904263046FDF784F92846214606
:10433000B84701950296032003900C20049001A831
:10434000FDF7F8F82046FCF713FD30462146B84744
:104350003046FDF79BF9FDF72FF804490860204629
:10436000FDF7E6FA05B0F0BDC1120000640B0020B5
:1043700080B50120FDF7DCFA80BD80B50020FDF797
:10438000D7FA80BD80B50020FCF75CFE80BD80B50B
:1043900000200721FCF7C8FD80BD80B50020072163
:1043A000FCF75AFD80BD80B580200421FCF7BCFDE0
:1043B00080BD80B580200421FCF74EFD80BD80B516
:1043C00000F01BF800F007F880BD80B500F015F88C
:1043D00000F007F880BD80B500200921FCF7A4FD9E
:1043E00080BD80B500200921FCF736FD80BD80B579
:1043F00000200821FCF798FD80BD80B50020082131
:10440000FCF72AFD80BD80B5FFF7F1FFFFF7E9FF5C
:1044100080BD80B50C200121FCF712FC0028F9D1E9
:1044200080BD89004002401802E002C802C25B1E43
:10443000002BFAD101207047F0B585B003928900B6
:10444000164E7118029199000191049047020425BB
:1044500016E00498FF2812D8002003E081007A5863
:104460007250401C8028F9D102980399019AFBF7F9
:10447000BFFE0498FDF726FD012400280AD16D1E19
:10448000002DE6D1064880780024012802D105A03D
:10449000FFF79AFE204605B0F0BDC046440100205B
:1044A000600B00200D0A666C617368207772697476
:1044B000652045525200000010B5FFF71BFFFFF7C3
:1044C000A8FF00F0BDF90024204600F069FA20465C
:1044D00000F0AAFA00F07AF8FFF7CEFE00F007F835
:1044E00000F01AF800F069F800F069F910BD80B525
:1044F000FDF732FD80BD80B5FDF72EFD80BD80B596
:10450000412080010521FCF7F5FC0146012000292E
:1045100000D1084680BD7047F0B587B06E461C25B7
:104520005A4A304629469047FFF743FF002401943A
:1045300003940127049780200421554B3246984765
:10454000FFF737FF6E4630462946504A9047FFF73F
:1045500024FF0194039404970721204632464C4BD4
:104560009847FFF71AFF6E4630462946474A90475C
:10457000FFF743FF01940394049708212046324635
:10458000434B9847FFF739FF6E46304629463F4A6E
:104590009047FFF726FF01940394049709212046D2
:1045A00032463B4B9847FFF71CFF07B0F0BDC046B3
:1045B00080B5FFF7B1FF80BD704780B5FDF7E0FC27
:1045C00080BD80B5FDF7DCFC80BD7047F0B58BB0D9
:1045D00004AE1C2102912D4A3046904700F07EFA2D
:1045E0000027059701200790044603940897402070
:1045F00001900421264B3246984700F06FFA04AE32
:104600003046029D2946214A904700F061FA0597FD
:104610000794089780200C2132461D4B984700F0E4
:1046200057FA04AE304629462C46184A904700F007
:1046300061FA05970398079008970321019D284682
:104640003246134B984700F055FA04AE30462146E7
:104650000E4A904700F036FA0597039C0794089796
:104660000521284632460A4EB04700F02BFA04AD29
:1046700028460299054A9047059407970897C02055
:1046800002212A46B0470BB0F0BDC046053A0000F3
:104690006D0E000080B5FFF799FF80BD704780B5B3
:1046A00000F001F880BD80B500200421FCF73CFC3F
:1046B00080BD80B500200421FCF7CEFB80BD80B515
:1046C000FFF7F7FF80BD000010B50C4C2078C00745
:1046D00008D1FFF7E8FF2078617809020143012043
:1046E000084307E0FFF7E5FF217860780002084300
:1046F000012188432070000A607010BD600B00200B
:1047000080B5FFF735FEFFF7F6FEFFF751FFFFF725
:1047100058FFFFF7BFFF00F0C5F900F031F900F0D6
:10472000D1F8FFF7D5FD80BD7CB50446684600256D
:10473000857185800095EE43761C092E2FDC684636
:10474000FCF70CFD0028F7D169468B791D090A207A
:1047500045430F2213407D2636011E437319236003
:104760004B791D0913404543EB1823710B791D0943
:1047700013404543EB1863718B781D091340454383
:10478000EB18A3714B781D0913404543EB18E371F7
:1047900009780A40090941438818207201252846F2
:1047A00002B070BDF8B501A8FFF7BEFF01460020BA
:1047B000012902D101A8FFF7CFF804B080BDF0B500
:1047C00089B06D4624212846FFF71CF914200124E6
:1047D0002146FCF70DFF032630462146FCF770FD0D
:1047E0000094002004900194092129725021A97697
:1047F000EC76102129771727AF7704216977E977BD
:10480000202119226A54059428832846FCF782FC4B
:10481000384631462246FCF7C7F92046FCF748FCEB
:1048200009B0F0BDBFF34F8F034804490160BFF3E7
:104830004F8F00BFFDE7C0460CED00E00400FA0515
:1048400070B58AB06E4628213046FFF7DBF80024A9
:104850000094059404200390012506953474347265
:10486000019420463146FCF755F90E4E204631465C
:10487000FCF71CF920463146FCF724F92046214676
:10488000FCF700F92046FCF73BF90E2003212A46ED
:10489000FCF78AF91448047003490C6044600AB0BC
:1048A00070BDC04690E800005C0B002010B50E4CB7
:1048B0002078012805D16068002800D080470020BA
:1048C000207010BD80B50E2003210122FCF76CF989
:1048D0000020FCF705F980BD80B503494860002041
:1048E000FCF7FEF880BDC0462000002080B5002007
:1048F000FCF7FEF880BD10B500242046FCF7F8F860
:104900000E2003212246FCF74FF910BD10B5FFF72A
:10491000EBFCFFF7F0FF00F03CF800F0CCF8FFF7FD
:10492000FAFDFFF749FEFFF750FEFFF7B7FE11480B
:104930000024C460C4648C214450CC2144500E49EE
:10494000CC60CC640D4A026002648023C250C02354
:10495000C2500A600A6444624466A4228450E4227D
:1049600084504C624C66FFF708FD2046FCF76AFB5A
:1049700010BDC046000D0240001D0240FFFF0000B8
:1049800080B5FDF733F9082003210122FCF70CF96B
:1049900080BD80B5082003210022FCF705F980BD09
:1049A000F0B589B00190FDF721F902AF1C2138461E
:1049B000FFF728F8022001252946FCF719FE0026FA
:1049C000049603960596FCF785FD0790A8020690CD
:1049D000E12040020890402002900F4C20463946CA
:1049E000FCF7EAFA20463146FCF7D1FA2046294680
:1049F000FCF7CDFA20463146FCF7D1FA204629468D
:104A0000FCF7CDFA082003212A46FCF7CDF805482B
:104A10000199016009B0F0BD000200400149086041
:104A20007047C0464C0B0020F0B587B00090FEF7F1
:104A30009BFA01AF18213846FEF7E4FF40200190B1
:104A4000002603960296E1200002069001256802E6
:104A50000490FCF73FFD0590AC0720463946FCF773
:104A6000B7FE20463146FCF79FFE20462946FCF75C
:104A70009BFE20463146FCF79FFE20462946FCF768
:104A80009BFE062003212A46FCF78EF80448009975
:104A9000016007B0F0BDC046014908607047C046DC
:104AA000500B002080B5FEF75FFA0620032101229B
:104AB000FCF77AF880BD80B5062003210022FCF7C0
:104AC00073F880BD80B540200521FCF72DFA80BD2C
:104AD00080B580200C21FCF727FA80BD80B54020EE
:104AE0000421FCF721FA80BD80B540200421FCF7A9
:104AF000B3F980BD80B540200321FCF715FA80BDD5
:104B000080B540200321FCF7A7F980BD70B514469D
:104B10000D46064600F01FF80146621C0020914237
:104B200017D3F06831680C547168F068401CFBF7CB
:104B3000EFFAF1600AE030682A7842547168F06850
:104B4000401CFBF7E5FAF160641E6D1C0120002C8F
:104B5000F1D170BD704710B5041D1CCC9818011B15
:104B6000881A9C4200DB084610BD70B505462E46EB
:104B70001336304601F07CFE0446002C0BD0204654
:104B80003146FBF74EFB20461030002121C4216046
:104B90006160083C02E0FEF75FFD0024204670BD26
:104BA00080B50448002101703220FF21024A01F043
:104BB000F3F980BD480300204920000080B5082299
:104BC000FBF748FB0021091A484180BD1CB504468B
:104BD00000F011F80146012000290AD1684601F0D1
:104BE000A9FD01460020002903D068462146FFF7B1
:104BF000E5FF02B010BD002204E01B780021FF2B6E
:104C000004D1521C83180121082AF6D108467047A6
:104C100080B5FFF7DBFF80BD80B501F08BFD80BD67
:104C200070B50C460546002606E0A81B0078214614
:104C3000FFF772F8A41C761E30460830F5D101202B
:104C400070BD000010B5114C0020A0706078217874
:104C50002170402101436170FFF72EFC00F032F813
:104C6000FFF7C0F800F04EF87D200001FFF780F854
:104C700007A0FFF7A9FA0120A070FFF717FE207820
:104C80008007FAD5FFF79CF9F7E7C046600B0020D4
:104C90000D0A7030335F7465726D696E616C5F63AD
:104CA00074726C5F77617465722056302E315F329A
:104CB000303230303631332066656E676875690D85
:104CC0000A00000080B501F063F9FEF703FDFEF76E
:104CD00063FEFEF7F6FA01F087FCFEF77BFDFFF7B7
:104CE0005FFF00F093FEFFF735FF80BD80B5FFF753
:104CF000FBFE07200121024A01F04EF980BDC046AB
:104D00000530000080B50A480178427812020A4353
:104D1000084911400A0A427080220A430270FFF7D4
:104D2000EFFE07200A21044A01F036F980BDC04693
:104D3000600B00207FFE00001D30000010B5FFF763
:104D4000B1F9002819D0FFF7B5F9002815D000F007
:104D500009F9012811D00948417802788378C4788C
:104D6000C4708370027022021A43120409021143B4
:104D70000122D2020A43110A417010BD0C0000202A
:104D800010B50446FFF78EF900280ED00A480168D6
:104D9000A1420AD00460FFF71BF8012C03D10028C0
:104DA00003D07B2003E0002800D010BD4920002163
:104DB000FFF734F810BDC0464C03002003480068DC
:104DC000411E0020401A48417047C046540B002045
:104DD000E0B5FFF767F9002815D001A801F0C2FC83
:104DE000002809D00198FDF781F9FFF77BF9002829
:104DF00009D001F0D9FB8CBD0320FDF777F9FFF74F
:104E000071F9002800D08CBD48200021FFF706F87A
:104E10008CBD000070B5474D6868474E002817D01C
:104E200030780024002800D082E046203070701CCA
:104E3000FEF728FC7078002870D0686801240028EC
:104E400076D080003D4909580124204688476FE00C
:104E50007068002400286BD00121C2074BD10221C9
:104E6000820748D40321420745D40421020742D4D3
:104E70000521C2063FD4062182063CD40721420602
:104E800039D40821020636D40921C20533D40A21B7
:104E9000820530D40B2142052DD40C2102052AD4E1
:104EA0000D21C20427D40E21820424D40F214204F0
:104EB00021D4102102041ED41121C2031BD41221BB
:104EC000820318D41321420315D41421020312D4EF
:104ED0001521C2020FD4162182020CD417214202DE
:104EE00009D41821020206D41921C00103D40024D8
:104EF0006C6014A01AE06960880010490958002409
:104F0000204688476868401E012802D800F0E4FD6A
:104F10006C60462030700124747009E000F0DCFD04
:104F200000246C600220FFF72BFF05A0FFF74CF96F
:104F3000204670BD000100200800002064720000BF
:104F4000630000005F6E327347657449642829204E
:104F5000657272000120000606494A6802434A60F1
:104F60007047C046034841680120002900D1084627
:104F70007047C0460800002010B5022001F096F8E6
:104F800001F084F8002809D001242046FFF7F8FE3C
:104F900000F0A2FD04480021416003E003A0FFF7F8
:104FA00013F90024204610BD0001002073675478D7
:104FB000436D644F6E52784F6B527370204552525E
:104FC0003100000080B5FEF77DF9012080BD80B57D
:104FD000FEF7B2F980BD10B500780024012806D094
:104FE000002808D10020FEF7ABF9012403E00124DA
:104FF0002046FEF7A5F9204610BD10B50446FFF780
:105000008DF880B2214601F01BF910BD10B50446A1
:10501000FEF7D6F9214601F01BF910BD80B5C37823
:10502000827841780078FEF792F9FEF7CDF980BDDD
:1050300080B5FEF7CAFB01460120002900D10846D1
:1050400080BD80B501780020012904D0002905D158
:10505000FEF7B2FB01E0FEF7B4FB012080BD80B596
:10506000FEF7DBFB0021091A484180BD10B500782E
:105070000024012806D0002808D10020FEF7D4FB28
:10508000012403E001242046FEF7CEFB204610BD9C
:1050900010B50446FEF7D8FB214601F0D9F810BD43
:1050A00080B5C378827841780078FEF750F9FEF732
:1050B00019FC80BD0020704710B50446E448017813
:1050C000427813020B4312491940012252031A433A
:1050D0002378002B00D011460170090A4170601C32
:1050E00000F065F8607900280FD0FEF76AFB637A5C
:1050F000227AE179A079FEF72AF9FEF7F3FBA07A8C
:10510000002801D0FEF7F2FB10BDFEF755FB10BDE5
:10511000FFDF000010B50446FFF76FFFED48007891
:10512000FF21C00605D5FEF750FB0121002800D164
:105130000146A170032010BD10B5FEF7A9FAC820E2
:105140000124034A214600F027FF204610BDC04637
:10515000A31C0000052070471CB5044601A8694641
:10516000FEF724FA0198214601F072F80098211DFB
:1051700001F06EF81CBDB0B50446E378A278617802
:105180002078FEF7E4F80546E379A2796179207981
:10519000FEF7DDF801462846FEF70EFAB0BD10B561
:1051A0000446FEF719FA214601F052F810BD80B509
:1051B000C378827841780078FEF7C9F8FEF710FAD4
:1051C00080BD1120704710B50446FEF725FA214630
:1051D00001F03EF810BD80B5C37882784178007840
:1051E000FEF7B5F8FEF71CFA80BD80B501F08EFA27
:1051F00080BD80B501F090FA80BD1CB501AC2046A1
:1052000001F0B0FA207802B010BD000010B50146E0
:10521000CA780020012A19D0022A20D1E348017857
:1052200042788378C478C4708370427022021A4333
:1052300012040A43202111430170DD4841780278AD
:10524000027008220A434270012010BD1431084642
:10525000FEF73CF801460120002900D1084610BDA8
:1052600010B50146CA780020012A19D0022A20D19F
:10527000EB48017842788378C478C47083704270B8
:1052800022021A4312040A43102111430170E54817
:1052900041780278027008220A434270012010BD52
:1052A00014310846FFF797FE01460120002900D17E
:1052B000084610BD10B5C1780020022918D1E74971
:1052C00048780A788B78CC78CC708B700A70220280
:1052D0001A43120403021343012002031A43120A61
:1052E0004A70DF494A780B780B70082313434B70E0
:1052F00010BDC04610B50146CA780020012A1BD057
:10530000022A22D1E74948780A788B78CC78CC7089
:105310008B700A7022021A43120403021343012005
:1053200082031A43120A4A70DF494A780B780B70DD
:10533000082313434B7010BD14310846FFF781FE5C
:1053400001460120002900D1084610BD10B50146D4
:10535000CA780020012A18D0022A1BD1E748017818
:1053600042788378C478C4708370427022021A43F2
:1053700012040A43042111430170F2484178027873
:10538000027008220A43427003E014310846FFF716
:1053900045FE012010BDC04610B50146CA78002068
:1053A000012A1BD0022A22D1E54948780A788B7855
:1053B000CC78CC708B700A7022021A43120403025C
:1053C0001343012042031A43120A4A70F0494A78F3
:1053D0000B780B70082313434B7010BD1431084633
:1053E000FFF744FE01460120002900D1084610BD08
:1053F000B0B50446E0780025032818D0012825D14F
:1054000020461430FFF758FEF14801784278120226
:105410000A43104911400170090A4170207D01259D
:10542000002813D104200021FEF7F8FC0EE0F34819
:105430000178427812020A43064911400170090AB4
:10544000417014342046FFF737FE01252846B0BDD1
:10545000600B0020EFFF000010B5C178002001298B
:1054600017D1FFF769FED948017842788378C4786C
:10547000C4708370427022021A4312040A43082146
:105480000A430270E8484278037803700A43427086
:10549000012010BD10B5C1780020022918D1CB49D8
:1054A00048780A788B78CC78CC708B700A7022029E
:1054B0001A43120403021343012082021A43120A00
:1054C0004A70D9494A780B780B70082313434B7004
:1054D00010BDC046600B002010B5C1780020022925
:1054E00018D1BA4948780A788B78CC78CC708B7010
:1054F0000A7022021A431204030213430120C2025B
:105500001A43120A4A70C8494A780B780B7008236C
:1055100013434B7010BDC04610B50146CA78002039
:10552000012A1BD0022A1ED1A84948780A788B7814
:10553000CC78CC708B700A7022021A4312040302DA
:1055400013430120C2031A43120A4A70B6494A782B
:105550000B780B70082313434B7010BD14310846B1
:10556000FFF79EFD012010BD10B50146CA7800204E
:10557000012A14D0022A17D194498A7808784B78E6
:10558000CC78CC704B700870012002438A70A64919
:105590004A780B780B70082313434B7010BD1431FD
:1055A0000846FFF7E8FD012010BDC0460C000020B2
:1055B000600B002010B5C0780024012805D16420BC
:1055C0000124034A214600F0E7FC204610BDC046F6
:1055D000212B000010B50146CA780020012A18D0FE
:1055E000022A1BD17948017842788378C478C47044
:1055F0008370427022021A4312040A43802111432D
:105600000170894841780278027008220A4342708A
:1056100003E014310846FFF7CAFD012010BDC04663
:105620000C000020600B002010B5C178002002297A
:1056300012D16648817802784378C478C470437088
:10564000027080220A4382707748417802780270A3
:1056500008220A434270012010BDC0460C00002001
:10566000600B002010B5C1780020022918D15749DD
:1056700048780A788B78CC78CC708B700A702202CC
:105680001A43120403021343012042021A43120A6E
:105690004A7065494A780B780B70082313434B70A6
:1056A00010BDC0460C000020600B002010B5014664
:1056B000CA780020012A1BD0022A1ED1434948780B
:1056C0000A788B78CC78CC708B700A7022021A43DF
:1056D000120403021343012002021A43120A4A7001
:1056E00051494A780B780B70082313434B7010BD57
:1056F00014310846FFF76FFD012010BD0C0000209B
:1057000010B50146CA780020012A14D0022A16D109
:105710002E48817802784378C478C4704370027050
:1057200010220A43827040484178027802700822B1
:105730000A43427002E0087D00F0CCFD012010BD5C
:105740000C000020600B002010B50146CA78002034
:10575000012A16D0022A19D100F0DEFD1B488178FB
:1057600002784378C478C4704370027040220A43C0
:105770008270E74841780278027008220A4342703A
:1057800003E01431084600F0D1FD012010BDC046F1
:10579000600B002010B5C1780020022914D100F060
:1057A00003FF0A48817802784378C478C470437054
:1057B000027020220A438270D54841780278027034
:1057C00008220A434270012010BDC0460C00002090
:1057D000600B002080B5C178002001290CD100F0B9
:1057E0008FFDCB480178427812020A430F491140DD
:1057F0000170090A4170012080BDC046600B002085
:1058000080B5C178002001290CD100F0A7FDC04867
:105810000178427812020A43044911400170090AD2
:105820004170012080BDC046600B0020FFF70000E2
:1058300010B504460CCC0520083C9A420BD0002938
:1058400003D0E068805C08702268501CA168FAF7F9
:1058500075FC2160012010BD70B50D4604466668D8
:10586000A168701CFAF76AFC22680420914208D0F3
:10587000E0688555A1686068401CFAF75FFC6160CC
:10588000012070BDF8B50C46411E490A04D0002520
:10589000002C24D0032021E0461C102000F0E8FF5B
:1058A0000546002D14D000272F606F60AE60304693
:1058B00000F0DEFFE860002811D1284600F0A6FFC6
:1058C000FDF7CAFE002C01D0022020603D4606E014
:1058D000FDF7C2FE0025002C01D0022020602846E2
:1058E00001B0F0BD01684068091A0020401A484123
:1058F000704710B504467720C043223020700F2037
:1059000060704020002900D10846A0708820A07354
:10591000204600F002F8E07010BD00210E2203E0E6
:10592000835CC9B25918521E032AFCD0002AF7D151
:1059300000784018C0B2704710B50446FFF7EDFF7D
:10594000E178411A0020401A484110BD0F3800216B
:10595000091A4841704710B5044600F00CF80128B8
:1059600008D1201DFFF754F9014607200122002924
:1059700000D0104610BDB0B503230F2923D1047801
:105980007721C9432231CDB202218822AC421BD1FA
:1059900041780F29194617D183780421BF24234267
:1059A00012D1837B0E2193420ED1417B2039CAB2A2
:1059B0000D21022A08D8FFF7BFFF06210122002887
:1059C00002D0114600E019460846B0BDB0B50E4DF4
:1059D0000020286001242046FDF73AFEFEF78FFDE7
:1059E0000221002803D1034800F0A6F821462960CF
:1059F000B0BDC046B166000003480068811E0020AB
:105A0000401A48417047C0463401002080B500F07C
:105A100003F800F007F880BD80B500F027F8FFF725
:105A2000D5FF80BD80B500F03BFA00F0F3F900F03F
:105A30000FF800F077F800F0A5FA80BD80B500F00F
:105A400049FA01460120002900D1084680BD000026
:105A500001480021016070474C0300206A484168FA
:105A600019390020401A48417047C046B0B5104867
:105A7000EE242146FAF7D5FB16482146FAF7D1FB6A
:105A8000614D28460C300F242146FAF7CAFB284600
:105A90001B302146FAF7C5FB5C48002141602970A4
:105AA00069600122427046220270A960B0BDC04602
:105AB0002C080020544841680120002900D10846E4
:105AC0007047C0460349497B091A0020401A4841E3
:105AD0007047C0461C09002080B54B48406800282C
