:020000040000FA
:1000000038340020D5000000EF000000550F00003C
:1000100000000000000000000000000000000000E0
:10002000000000000000000000000000F3000000DD
:100030000000000000000000F5000000DF120000DA
:1000400099100000A1100000A9100000B5100000D8
:10005000B90B000055170000A5170000B1170000EC
:10006000970F00009F0F0000B9120000C11200009E
:10007000650F00006D0F00003D17000045170000E0
:100080004D1700008B0F00005D1700006517000082
:100090006D1700008910000083180000C1100000D7
:1000A00027080000911000006F180000771800006A
:1000B0004F100000830F00004D0C0000B10B00003A
:1000C0000348854600F014FB00480047190800006B
:1000D0003834002009480A4A002100A1814200D991
:1000E0000244084802600848804708480047FEE785
:1000F000FEE7FEE7FEE7FEE7FEE700000000002067
:100100000000000008ED00E0F1160000C100000052
:1001100030B50B46014600202022012409E00D469F
:10012000D5409D4205D31D469540491B2546954027
:1001300040191546521E002DF1DC30BD70B500246B
:100140002546002801DA01244042002901DA012570
:100150004942FFF7DDFFAC4200D04042002C00D006
:10016000494270BD38B50446C0681821401E484356
:10017000A16840183C214843616840183C2148432D
:100180002168451860690C2148432169401869219C
:10019000C900401A3021FFF7D1FF114A50434219DC
:1001A000084600921A2902DB0E49511800910C21D1
:1001B000FFF7C4FF0C4A5043009A801800900B4888
:1001C00006E0491E425C074B5A43009BD21800923E
:1001D0000029F6DC2146684600F08AF8009838BD10
:1001E000801F8607805101008033E1010078000004
:1001F00003460B439B0703D009E008C9121F08C040
:10020000042AFAD203E00B780370401C491C521EEA
:10021000F9D27047D2B201E00270401C491EFBD2F5
:1002200070470022F6E710B513460A460446194601
:10023000FFF7F0FF204610BD10B5002200E0521C71
:10024000835C8C5CA34201D1002BF8D1D8B2E1B21F
:10025000401A10BD30B504460020034600E05B1C88
:10026000934203D2E05CCD5C401BF8D030BDF0B5CA
:100270001FB40646002082B005464024019100903C
:100280001BE0019922460F46304600F020F8049A00
:10029000059B801A994110D310461946224600F05A
:1002A00039FA361A8F410197224601200021009F1A
:1002B00000F030FA38184D4100902046641E0028A6
:1002C000DFDC019B00982946324607B0F0BD10B52F
:1002D000202A04DB0846203AD040002110BD0B46FE
:1002E000D340D0402024A21A91400843194610BDA3
:1002F00070B50C4600683C21FFF70AFF21603C21E5
:10030000FFF706FF61601821FFF702FF0546A160B5
:100310000721001DFFF7FCFEA1610F48A900081886
:100320000E49FFF7F5FE0246443288086261E0613B
:100330003B2802D3910700D0401C0021084B0A46FD
:100340002161995C814203D8401A521C2261F8E76E
:10035000401CE060204670BD6C0B0000B50500003D
:100360000C780000F0B507460846584087B0C00F2B
:10037000049048000E46590040084908BC1A8841BC
:1003800005D2384631461E4617460B4602465800EF
:10039000400810434CD0300D039040055900400DEB
:1003A000490D0590401A0290402872DA1803012185
:1003B000000B09050843019004980092002805D01D
:1003C00001995242002088410092019002984021F8
:1003D0000A1A0199009800F09DF905460C466B46F3
:1003E00007CB00F0A7F9C0197141039A0E0D002345
:1003F000D71756401A467A40164344D0049A002A2A
:100400002DD0029A012A039A15DC1205C01A9141D7
:1004100001263605001C7141D20F059ED2070093BC
:10042000019202962A46234600F0A4F907B0F0BDD7
:1004300038463146FAE71605224A0F46B218C01A66
:10044000B74101210905001C4F4100187F411146A9
:1004500018187941E20F10436D19644113E0E20767
:100460006D0815436408C2071443039A0126120558
:10047000C01A91413605001C7141CE074008304337
:100480004908C01851412A46234600F066F9CDE7D5
:10049000FFE7049801224000C117121A00238B4184
:1004A00004983146C417381AA141EEE730B401244C
:1004B000E407634030BC55E730B40124E4076140F1
:1004C00030BC4FE70000E0FFF0B51FB488B00B99D7
:1004D0000998002448400999C00F4900490809912A
:1004E000C0070B990090490049080B910999089899
:1004F000A64608431CD00B990A98084318D00998BF
:1005000001244000420D4800410D099824050003D4
:10051000000B204309900B980003000B20430B9025
:1005200050181C494018002201901446104605E05E
:10053000002001460DB0F0BD032801DA034600E0BB
:1005400003239C46C11A0AAE0AE05F0008ADED5BCA
:100550004F00F75B7D430027AA187C41491C5B1EB6
:100560006145F2DD410004AB5A522104120C0A43EA
:10057000240C401C0828DFDB01980290009970468B
:1005800001910090059B049A0799069800F0F2F8F3
:10059000D0E700000DFCFFFFF0B50C465C4085B0D5
:1005A000E40FE40703944C000026640859009446C5
:1005B000490802460296224321D062460A431ED0D1
:1005C0006200570D4A000E032303550D0124024615
:1005D0002C492405781B1B0B360B4018234326435C
:1005E000614600901C46501AB44103D30098401C49
:1005F000009002E0921800985B41002803DA002086
:10060000014605B0F0BD00200121090507468646D8
:1006100011E064461D46141BB54106D36546521BC6
:10062000B341744607430C43A646CD07400849082A
:10063000284392185B4105460D43EAD11046184302
:1006400013D06046194650407140084306D06046BA
:10065000101AB34106D20122002306E00022012332
:10066000DB0702E00122D2435310009874460105D3
:10067000381C6141029C039D0019694100F06DF82E
:10068000BFE70000FD0300004A0009030123090B36
:100690001B0519430A4B10B5520D9A4202DA00208D
:1006A000014610BD064B34339A4203DC9A1AFFF719
:1006B0000EFE10BD034BD21800F02CF810BD000048
:1006C000FF030000CDFBFFFF10B5002904DB012470
:1006D000E40740428C412146002B04DB1C460123E9
:1006E000DB075242A341994200D1904210BD000065
:1006F000064C0125064E05E0E36807CC2B430C3C75
:1007000098471034B442F7D3FFF7DEFC1C7A0000A0
:100710003C7A000010B5202A04DB0146203A9140C3
:10072000002010BD914020239C1A0346E34019434A
:10073000904010BD10B5202A06DBCB170846203AA2
:100740001041C1170B4306E00B461341D040202453
:10075000A21A91400843194610BD10B5002B08DAC3
:100760000024401C614192185B411A4301D14008AA
:10077000400010BDF0B51FB482B005460C0003D098
:10078000084606F031FB02E006F02EFB2030024660
:10079000009021462846FFF7BDFF049B059A0446BA
:1007A0000F4618431143084314D0184610431BD07A
:1007B000009840210A1A18460599FFF788FD05465A
:1007C0000E46009A05990498FFF7A4FF084305D048
:1007D000012004E02046394607B0F0BD0020C117D3
:1007E00005430E432C43374300990E986305401A86
:1007F0007905E40A00220C43FD0A0A3002D50020E4
:100800000146E9E70105101969410C9C0D9D00198D
:100810006941FFF7A2FFDFE780B500F069FF04F050
:100820007FFC002080BD80B500F0DAF8C046C046ED
:1008300080BD000010B50421002846D0C168CA0060
:1008400018231A4049490C689C4314430C60826881
:1008500013680B6253684B6293688B62D368CB62F8
:10086000C368022B07D0012B11D113690B630B4610
:100870003433052408E013690B6353694B639369B0
:100880008B630B463C330724A40012591A6002689C
:1008900013680B6153684B6193688B61D268CA61BE
:1008A0000A68022313430B600B68012213430B6099
:1008B0000B681342FCD10A69406802604A694260D1
:1008C0008A698260C969C1600021084610BDC046BE
:1008D00010B50421002846D0C168CA0018231A4068
:1008E00022490C689C4314430C60826813680B62B5
:1008F00053684B6293688B62D368CB62C368022BE8
:1009000007D0012B11D113690B630B463433052437
:1009100008E013690B6353694B6393698B630B4660
:100920003C330724A40012591A60426813680B6113
:1009300053684B6193688B61D268CA610A6802236D
:100940009A430A600B68012213430B600B68134241
:10095000FCD10A69006802604A6942608A69826063
:10096000C969C1600021084610BDC046001402409C
:100970001F21090100010840394A13688B430343D2
:10098000136000207047C04602490A6882430A602B
:100990007047C046B42400403148016801229143A9
:1009A000016070472E48016801220A4302607047C7
:1009B0000120C0032A490A6802430A607047C04602
:1009C0000349096801400120002900D10846704709
:1009D000B0240040014800687047C046A024004091
:1009E00080B50120FFF7ECFF01280BD10120FFF7B4
:1009F000CBFFFFF7EFFF04490968002900D08847C3
:100A000000F034F880BDC0464403002070B50446B1
:100A10000420002C22D0124D01262E60022003F06B
:100A20005FFB6068E168014320690843A1680143F6
:100A300060690843296801432960B002216889027E
:100A400001406A6882430A436A60A0698000042109
:100A500008406A688A4302436A60002070BDC0464D
:100A6000042400400348012101607047014800212F
:100A700001607047C02400400748016802220A4014
:100A80000260704780B50448016801220A43026091
:100A9000022003F025FB80BD0024004001228A4093
:100AA000D1430002014A815000207047140C0040DD
:100AB0000002034A8258CA40012010407047C046D5
:100AC000100C004010B50002034A8358094C1C402A
:100AD0000C438450002010BD000C004010B50002F3
:100AE000034A8358034C1C400C438450002010BD23
:100AF000040C00400000FFFF00022C494258012373
:100B000013434350002070470002284942580123F4
:100B10009A43425000207047000224494258012362
:100B20009B021343435000207047C04670B5032218
:100B300013030A6814031C4000021C4A85589D4395
:100B40002543855001235C024D686D02254086587F
:100B5000A6432E4386500C7A85581E02B5431C408E
:100B600023022B438350CB681B01702423408558FC
:100B7000A5431D4385500B7CDB000824234085588A
:100B8000A5431D4385504B699B0004242340855891
:100B9000A5431D43855089694900022319408458A3
:100BA0009C430C438450002070BDC0460C0C004098
:100BB00080B5C046C04680BD80B5C046C04680BD39
:100BC00070B5002805DB1F23034001249C401B4B0C
:100BD0001C60C30018241C408901CBB2A340FF2134
:100BE000A140CC431649002805DB03250646AE4349
:100BF000154D751906E00F250540083D0326B54340
:100C0000104EAD192E6826401E432E60012A07D1D2
:100C1000002811DB1F221040012282400A6070BDB3
:100C2000002809DB1F2210400122824080200A5048
:100C3000BFF34F8FBFF36F8F70BDC04680E200E0FF
:100C400000E100E01CED00E000E400E080B5C046FB
:100C5000C046C046C04680BDF0B589B00D460446CA
:100C6000FF26089668462021FFF7DBFA04200C2CAB
:100C700032D801221146A140184B19422CD0500203
:100C800017490B6A83431540680218430862002025
:100C9000144A05E08300D55865436F46FD50401C5B
:100CA0000828F7D10022134613E008969C006846F6
:100CB00005590AE0089F781E08900720002F0BD0E6
:100CC0006448C8626448C8620D510859A842F1D10D
:100CD0005B1C072BE9D9104609B0F0BD5611000086
:100CE0000000024084790000FFB5FF2102910391CA
:100CF00004210190420C43D102980390544A116898
:100D00001024214206D0039A511E03910921002A82
:100D1000F4D135E04F4DD5604F4ED66000200090A5
:100D2000C1431161D560D6605161029803900CE017
:100D3000039B591E03910921002B21D0D560D66059
:100D40001168B94302230B4313601168032739402C
:100D50000229EDD101980099017002980390106862
:100D6000204206D00398411E039109210028F6D1A4
:100D700006E0D560D66000991161D560D6605161FA
:100D8000084604B0F0BDC0463149324ACA60324A12
:100D9000CA6080000C2210400B68934303430B6031
:100DA00000207047FFB50091FF210191039144029B
:100DB0000420610C4AD101980390254A106810263E
:100DC000304206D00399481E039009200029F4D12F
:100DD0003CE02049D160204FD7600023D843106108
:100DE0000291D160D7605061019803900DE00399A2
:100DF000481E03900920002928D00298D060D760AF
:100E00001068A843012101431160106803252840A0
:100E10000128ECD1009D03E09800295821505B1C6B
:100E2000802BF9D1019803901068304206D00399C5
:100E3000481E039009200029F6D107E00299D160ED
:100E4000D76000201061D160D760506104B0F0BD60
:100E5000200002405A5A0000A5A5000002460120C9
:100E600003468B4011681940002900D1084670479D
:100E700080B5034A8018012200F026FA002080BDC8
:100E8000140D024080B5024A8018FFF7E7FF80BDCD
:100E9000040D0240FEB515460E4601901C49471848
:100EA00038460C300024314622460294194B9847AC
:100EB000B000019908181C494450384608302A7877
:100EC0003146144CA0472A7938463146A047384667
:100ED0001C302A7A3146A047384620302A7B3146DA
:100EE000A047384624302A7C3146A0472C372A7D3B
:100EF00038463146A047A8690121C903064A13684C
:100F00008B43C00380B218431060029803B0F0BD59
:100F1000000D0240C9120000080F0240890040186D
:100F20000149425000207047000C024080B5034A3E
:100F30008018012200F0C8F9002080BD0C0D02408D
:100F400080B5034A8018012200F0BEF9002080BD60
:100F5000100D024081B00020009000980028FCD0C5
:100F600001B0704780B5C046C04680BD80B5C04660
:100F7000C04680BD8168C068091A0020401A4841F7
:100F8000704780B5C046C04680BD80B5C046C046EB
:100F9000C046C04680BD80B500F05EF880BD80B51B
:100FA000C046C04680BD10B514300024224600F073
:100FB0008BF9204610BD10B5001D0024224600F01C
:100FC00083F9204610BD80B5001D012200F07CF998
:100FD000002080BD80B51030FFF740FF80BD0000CD
:100FE000F8B50546042400291FD000246C60CCC944
:100FF00008681E4306433E4316436E608023134336
:101000002E1D1039C02B10D1C009094A024009A079
:10101000805A8A69824048691146FFF779F8A861C9
:1010200004210122304600F04FF9204601B0F0BD06
:10103000FCFFFF01040000000300000002000000AC
:101040000268FF239A430A4302600020704780B57C
:10105000C046C04680BD000080B503480068002837
:1010600000D0804780BDC046180C002005490A68A2
:10107000042313430B600122824008681043086078
:1010800030BF704710ED00E080B5C046C04680BD5F
:1010900080B5C046C04680BD80B5C046C04680BD54
:1010A00080B5C046C04680BD80B5C046C046C0467B
:1010B000C04680BD80B5C046C046C046C04680BD63
:1010C00080B500F033F880BD80B579480321002257
:1010D00000F0FAF880BDC04680B5024659480721A5
:1010E00000F0F2F880BDC04670B5FF230233042241
:1010F00098420FD20122D503074C2668AE43C9039C
:1011000089B231432160FE3318402168034B0B4004
:1011100003432360104670BD3014004000FEFFFF03
:1011200080B563480321FFF799FE80BD80B5FFF7C6
:10113000F7FF012801D1FFF7C7FF80BDB0B5044616
:101140000020FFF7C9FF2068C000082108403D4D7E
:101150002A688A4302432A60201D00F04DF80720C8
:1011600000022169090201406A6882430A436A60F9
:101170006169208BFFF7B8FF1A34204600F064F84D
:10118000B0BDC04670B52F4A1168802319420FD0F8
:10119000516801240C43546016490C46002C04D0BD
:1011A000611C556802263542F7D00921641C1FD006
:1011B00091680170D1684170156814691F21214040
:1011C0000826354200D0214681709169017151692C
:1011D000C170D1694171116A8171506801218843E0
:1011E00050601068002101E0506802231842FBD1D2
:1011F000084670BD18FCFFFFB0B501218A030168E5
:101200008B0313400F490C6894431C430C60036824
:101210000022012B07D0002B11D180680724204029
:101220000B68A34309E0047904203F2C08D83F2031
:1012300005020B68AB4304402002184308601046C7
:10124000B0BDC0460014004070B50321CB43184A1E
:10125000D158802421420ED0116801250D4315601C
:101260007D21CD006D1E0921124E35421DD0116821
:1012700002263142F6D00178516041789160817840
:10128000D16001795161417991618179D161C078F1
:1012900010611068012188431060D058002120425D
:1012A00003D0106802231842FBD1084670BDC04627
:1012B00004140040FFFF000080B5C046C04680BD5A
:1012C00080B5C046C04680BD01238B40012A02D1B3
:1012D0000168194301E0016899430160704780B5D6
:1012E000C046C04680BD000010B50246984B9948E4
:1012F0009860994898600420042A6CD87A4412793E
:101300005200974402142B3E560001200029024649
:1013100000D10A461C68844314431C600020002945
:1013200059D0D9680122D2021142FAD053E02B4899
:1013300002680324144304601868022290430122C7
:10134000002900D10A4652001043186000200029ED
:1013500041D0196940221142FBD03CE018680422B8
:1013600090430122002900D10A46920010431860E0
:10137000002000292FD05969012212031142FAD00E
:1013800029E003208003144A146804431460186899
:10139000082290430122002900D10A46D2001043BE
:1013A00018600020002916D0996940221142FBD014
:1013B00011E01868102290430122002900D10A464A
:1013C0001201104318600020002904D0D96B0122BB
:1013D00092041142FAD010BD8C0D02404C1D024007
:1013E000F0B58AB0B148018807914188069181889B
:1013F0000491C1880291058C0B20C143CA4A505800
:10140000440907231C400120C603C94808903648F8
:101410000090364801903648039036480590364F84
:101420007B48042C099124D87C4424796400A74487
:10143000025422292B001068089908400799884215
:1014400038464AD01068089908400699884205989D
:1014500043D01068089908400499884203983CD00A
:1014600010680899084002998842019835D0009880
:1014700033E0002031E09068AA4901404B2040024F
:10148000A9422AD0304628E0116B03240C40032CDB
:1014900005461DD1106808990840079988423D46C5
:1014A00016D010680899084006998842059D0FD00B
:1014B00010680899084004998842039D08D0106874
:1014C0000899084002998842019800D00098054682
:1014D000106B41090F200840684309995158090AC7
:1014E0001940C8400AB0F0BD00093D0000127A0062
:1014F0000024F4004086510100366E0180B5FFF7EC
:101500006FFF75490968C90A03220A40D04080BDAF
:101510007149724A8A60724A8A6007221202000286
:1015200010400B68934303430B6000207047C04694
:1015300069496A4A8A606A4A8A600322D202C00202
:1015400010400B68934303430B6000207047C04674
:10155000002000405A5A0000A5A50000F0B5534AEB
:10156000118856889588D38884686F4A032C23D1C4
:1015700017686F4C27408F4203D1C7680621022F9E
:1015800044D811682140B14203D1C6680621022E19
:101590003CD811682140A94203D1C5680621032D1A
:1015A00034D81168214004460C3499420DD1236887
:1015B0000621062B09D929E0C168154B4B43044687
:1015C0000C340621134DAB4220D803214B03056890
:1015D0006D031D40166B9E432E43166343689B00AC
:1015E0001C252B40166BAE431E4316630F235B0175
:1015F000246864011C40156B9D4325431563806876
:101600000840136B8B430343136300210846F0BD6E
:101610000048E801006CDC0270B50C460546A806DF
:101620000C4802D4294622460FE020218D43061D96
:10163000304629462246FFF747FE0748032D01D1D1
:10164000047004E0027803213046FFF73DFE0020DD
:1016500070BDC04620200040240C002040001349EB
:10166000405A3349014030480268324B13400B4323
:10167000036000207047C0460321890280020840B1
:101680000B4A13688B430343136000207047C04626
:1016900040000649405A2349014005480268234B4F
:1016A00013400B43036000207047C046000C10003D
:1016B0001420004080B50849084A8A60084A8A60B8
:1016C0000A68E0239A434001C0B21043086000F06A
:1016D00009F8002080BDC046002000405A5A000092
:1016E000A5A5000080B5FFF77BFE1349086080BD0B
:1016F00010B50B49488B0B4A02400B4883680B4CD2
:101700001C40144384600988094A0A400168094B57
:101710000B4013430360FFF763FE0749086010BDE9
:10172000080C1000FF0300000C20004000FCFFFF2D
:10173000FF07000000F8FFFF1400002080B500F054
:1017400019F880BD80B5C046C04680BD80B5C04692
:10175000C04680BD80B5C046C04680BD80B5C0468D
:10176000C04680BD80B5C046C04680BD80B5C0467D
:10177000C04680BD80B500200146FFF799F90128D9
:101780000AD106480168491C016005480121017021
:1017900000200146FFF782F980BDC046280C0020DA
:1017A0002000002080B500F009F8C046C04680BD8A
:1017B00080B5C046C046C046C04680BD80B503481F
:1017C0000068002800D0804780BDC0461C0C002067
:1017D00010B5143000242246FFF776FD204610BDD8
:1017E00010B5001D00242246FFF76EFD204610BDF7
:1017F00080B5001D0122FFF767FD002080BD80B588
:101800001030FFF72BFB80BD70B50546042400297E
:101810001ED000246C604CC908681E430643164362
:101820006E60802313432E1D0C39C02B10D1C009CC
:10183000084A024008A0805A4A6982400869114655
:10184000FEF766FCA861042101223046FFF73CFD4B
:10185000204670BDFCFFFF010400000003000000F3
:101860000268FF239A430A4302600020704780B554
:10187000C046C04680BD80B5C046C046C046C046D2
:1018800080BD80B5C046C04680BD000002481E2114
:101890000160E12101607047800F004010B50F2208
:1018A0001140074B1C6894430C431C6040012021ED
:1018B00008401A688A4302431A60002010BDC046DF
:1018C000840F004010B51F4C2278501E6321002A5F
:1018D00000D1084620700321084203D102F07AF9B2
:1018E00004F092FC02F0E0FD002802D005F0F0F9CF
:1018F00005E020780621FEF70BFC0029F6D02078C1
:101900000F21084202D102F00FF920780F2806D0EB
:101910000C280BD0032808D103F0DAFC10BD02F02C
:10192000ABFD012801D102F0EBFD10BD608800285D
:1019300002D0401E608010BD4B20C000608002F0CD
:101940002FF810BD1000002080B500200621FFF701
:10195000EDFA80BD80B502F0BDFE80BD10B5044635
:1019600002F072FE164801784A1C02708A00821842
:101970009460002902D002F0F7FB10BD0021017035
:10198000816841600F48027843781B0213438278D4
:1019900012041A430C4B994208D80270110C817042
:1019A0000121C90311430A0A427000E01146017087
:1019B0000A0C8270012292020A43110A417010BD82
:1019C000F00000202C0C0020890C000080B503F0F2
:1019D00066F880BD80B503F072F880BD70B504462E
:1019E000012C17D11C200125174E2946B04708208D
:1019F0002946B04700202946B04728462946B04727
:101A000002202946B0471F202946B0470F2029460B
:101A1000B0470FE008200C4D2146A8470020214682
:101A2000A84701202146A84702202146A8471F2099
:101A30002146A84710202146FFF7EEFD1B20214636
:101A4000FFF7EAFD70BDC0461916000070B502F040
:101A5000A0FE02F0AAFE02F0B4FE104C267801258A
:101A60002E4001F061FE2178864208D1FB2008401B
:101A70002070294207D002F095F8207803E0042076
:101A8000014321700846FD210140217001F04CFE08
:101A9000014603A002F090FD70BDC046340800204E
:101AA000434625640000000010B50A4C2078C007AA
:101AB00002D102F080FE01E002F0A1FE20780124B4
:101AC000204001F039FE4B20034A214604F03CFD42
:101AD00010BDC046340800204D1A0000BCB55C4C57
:101AE00001212046FFF776FA002821D00121204667
:101AF000FFF759FA544DA86804F0BEF9297F012870
:101B000006D1032001432977E87F21216854BCBD19
:101B1000FE2001402977A86801A904F053F90128A3
:101B200006D101A800782168FF229143014321607A
:101B300000212046FFF74EFA002812D0002120464F
:101B4000FFF731FA216801A801703F4C6068C9B203
:101B500004F04CF9A07F20216054207FFB2101403C
:101B60002177BCBD7CB5384C207FC0072FD0212009
:101B7000215C002904D0491E2154FF20014226D1B6
:101B80002069FFF7F7F9002821D120692F4D294658
:101B9000224602F0D3F8012819D1002604E001788A
:101BA000A06804F023F9761CA81921688E42F6D3A8
:101BB000A06801A904F006F9012808D101A801785C
:101BC0002348FFF73DFA207FFE2101402177207F47
:101BD0000221084207D0FD2108402077A169002991
:101BE00001D08847207F40071DD42020215C002998
:101BF00004D0491E2154FF20014214D10025134E68
:101C000005E0606804F0DEF8052803D06D1C71194A
:101C10007F2DF6DDE0680D492A4603F0DBF9207FD1
:101C2000042101432177E068FFF7A4F900280AD1D5
:101C3000E0680649224602F081F86269002A02D073
:101C40002168024890477CBD3000002050050020EC
:101C500000020040F0B587B06C461C21204602F01F
:101C600063F8002701974025284639462246FFF7AA
:101C700011F90326284639463246FFF74FF901206D
:101C800001900B27284639462246FFF703F92846DC
:101C900039463246FFF742F907B0F0BDB0B5044609
:101CA000CDB2294602F06EF801280BD002F004FCF8
:101CB000002807D002F0F8F9002803D02046294672
:101CC00004F0EEFFB0BD704780B502F0B3FF80BDF9
:101CD00010B50848017842788378C478C47083705E
:101CE000427022021A4312040A4340211143017038
:101CF00010BDC0460C00002070B50446534DA968C5
:101D000053A0224602F058FCA868A04200D19CE0F3
:101D1000601E04280FD8C0467844007940008744EC
:101D20000213264E6A000120A8601920FF214B4AA9
:101D300004F00AFC88E020465238022800D283E0F2
:101D400055A002F039FC70BD01F0A0FD44490A78AD
:101D50004B781B0213438A7812041A4301235B0455
:101D60001A424AD1AA683C21502A4FD96CE03C4E15
:101D70003078717809020143B078000408433E4985
:101D800001403170080A7070080CB07003F096FAC8
:101D9000002845D03078717809020143B0780004FA
:101DA0000843042108424AD13A4A1040020A72709C
:101DB00001433170000CB07003F05EFB42E0284834
:101DC000017882784378437082701B020B431104C0
:101DD000194302220A43027001F028FD21490A78C2
:101DE0007821002A00D00146782800D30146084611
:101DF00002F02AFB28E0184825E01B4B1A400A7025
:101E0000130A4B70120C8A704B218900884200D350
:101E1000014614204843E86014A002F0CDFB13E013
:101E20000020E8603078B17872787270B170120278
:101E300002430804104308210143317004E00FA05D
:101E400002F0BAFB3C20E860AC6070BDE00000200E
:101E50000A2564442564000070170000B91E0000C4
:101E60002C0C002008000020FFFFFD006465627557
:101E7000675365633D256400F3FFFE006742312E22
:101E80006374726C5061636B54783D31206572727B
:101E900000000000F3FFFF000D0A2A2A2A2A2A2A3E
:101EA000205F646576537461746553657420457270
:101EB00072202A2A2A2A0000B0B52D4DA8680228CF
:101EC00015D0532818D0052820D0522823D0032815
:101ED00033D1E868002838D127A002F06DFB03F069
:101EE000EDF9002829D10420FFF706FFB0BD2868CE
:101EF000002823D0401E24E0EC6828212046FEF76D
:101F000007F9002911D103F091F90DE0E8680028E4
:101F10001BD10E200FE0EC6814212046FEF7F8F8E4
:101F2000002902D104F03AFEEC68002C02D0601EB9
:101F3000E860B0BD0C2002F047F9B0BD03F09CFA98
:101F4000A0202860E868002802D0401EE860B0BDEC
:101F500004F01AF80028F0D1064880780004C00385
:101F6000EBD401F029FE0028E7D10420E3E7C046C6
:101F7000E00000202C0C0020726561644374726CD8
:101F8000496E666F456E6400B0B588B001AC1C2127
:101F9000204601F0C9FE002502950495059502F042
:101FA00053FB052128462246FEF774FF08B0B0BD5A
:101FB000B0B5044665022846FEF796FE0028FAD121
:101FC00003492046FEF7EEFE0021091A4841B0BD44
:101FD0004401002080B502F0D6FB0120024A0146F0
:101FE00004F0D0FA80BDC046A91A0000B0B50224A2
:101FF000522806D0652803D0532813D1032400E0CB
:102000000424E0B26D4D2978814204D16A480078F9
:10201000FF2800D0B0BD00F07DF86C702C7000F08F
:102020006DF8B0BD00F076F8B0BDC04680B500F0E8
:1020300071F880BD10B588B001AC1C21204601F0BC
:1020400073FE012002900020049005904120800141
:1020500005212246FEF71EFF08B010BD10B588B05E
:1020600001AC1C21204601F05FFE02F01CFD0020A7
:1020700002900490059004212246FEF70BFF02F027
:1020800012FD08B010BD0000FEB51A490868401CDA
:1020900008600022184D17461FE03378354610358A
:1020A0000027002B17D0B06812490968081A0127C9
:1020B000002810D0019302927168FEF729F80029D8
:1020C00008D10198FF2801D0401E3070F068002828
:1020D00000D08047029A2743521C3C462E46D0B27D
:1020E0001F28DAD9200600D0FEBD02F007FE00F05E
:1020F00071FFFEBD38010020180A002080B5FFF7EF
:1021000069FC962001212E4A04F01EFA2A49087023
:1021100080BDC04680B5284804F03BFA274800211E
:10212000018080BD10B502F095F904464F2C0ED801
:10213000FFF77CFF0B480178491C0170052C0DD07E
:10214000032C08D0022C06D102F0BEFC10BD2046A4
:10215000FFF74CFF10BD02F0A2FC10BD02F0AFFC77
:1021600010BDC0464803002010B5134CFF2020705E
:10217000FFF72CFC96200121024A04F0E5F92070BB
:1021800010BDC04689210000B0B50B4CFF20207067
:102190000A4D681C01F0BEFB6878002805D0FFF7E7
:1021A00019FC96200121064A02E006480121064A50
:1021B00004F0CAF92070B0BD19000020D40000203E
:1021C0006921000052030000F92F0000B0B5044659
:1021D0000E4D2968A14217D00DA0224602F0ECF95D
:1021E00002F072F9012C08D100280CD07A200021CD
:1021F00001F0EAFF04F080FB05E0002803D148204D
:10220000002101F0E1FF2C60B0BDC046200C002091
:102210000D0A5A5325642D256400000010B5DD48D1
:1022200000790024800707D5DB4882680124002A52
:1022300002D00C300F219047204610BD10B5D54874
:1022400000790024C00707D0D34882680124002AFF
:1022500002D01B300F219047204610BD10B501F071
:10226000BFF9002810D00C4C611C204601F0B2F8D8
:10227000002802D10AA002F09FF908488268002ACB
:1022800009D06178204605E004488268002A02D01F
:1022900001484178904710BD280900200001002026
:1022A0005F6E32735478205831000000B0B5DA49BF
:1022B000097989060024002928D5002808D0D148AA
:1022C00082680124002A21D0CF48417890471DE040
:1022D000CD4C2046143003F007F91120E0730020A4
:1022E0002074607421461231042004F08FFAAB4D43
:1022F000697B0320224604F072F9FFF7AFFF082044
:1023000004F0ACF9687BE049087001242046B0BDB8
:10231000FEB5DC490979C9060024002929D5002821
:1023200008D0D94882680124002A22D0D7484178B1
:1023300090471EE003F0DDF802AB1870D34D28463D
:102340000F30694601240C604860002003260146D6
:10235000324602F0E1F8CE4F797B30462A4604F04F
:102360003EF9FFF77BFF082004F078F9787BE84915
:102370000870204603B0F0BD1FB5E4494979C9068D
:102380000024002937D5002808D0E14882680124BC
:10239000002A30D0DF48417890472CE003AC20463B
:1023A00003F0BDF8DB480F30694602220A6048603E
:1023B000002017220146234602F0AEF804F046F949
:1023C00000280CD0D44C617B0320D24A04F007F9DA
:1023D000082004F043F9607BEA49087008E0E94806
:1023E0000178491C0170C9B20320E74A04F0F7F8EC
:1023F000FFF734FF0124204604B010BD7FB5E0494B
:10240000497949060024002928D5002808D0DD484C
:1024100082680124002A21D0DB48417890471DE0E2
:1024200003F098F803AB1870D74D28460F30694673
:1024300001240C60486000202722014602F06CF85D
:10244000EE4E717B03202A4604F0C9F8FFF706FF21
:10245000082004F003F9707BE6490870204604B0B8
:1024600070BDC04670B5E2490979490700240029CA
:1024700028D5002808D0DF4882680124002A21D00E
:10248000DD48417890471DE0DB4D2846143003F0CD
:102490004FF80920E8730020287468742946123127
:1024A0000124204604F0B2F9D44E717B03202A4661
:1024B00004F095F8FFF7D2FE082004F0CFF8707B07
:1024C000EE490870204670BD7FB5EB494979890611
:1024D0000024002928D5002808D0E8488268012473
:1024E000002A21D0E648417890471DE003F049F8E2
:1024F00003AB1870E24D28460F30694601240C608A
:10250000486000202622014602F006F8DD4E717B6D
:1025100003202A4604F063F8FFF7A0FE082004F029
:102520009DF8707BF2490870204604B070BDC0462B
:10253000B0B5EE49897989070024002928D50028FB
:1025400008D0EB4882680124002A21D0E94841786C
:1025500090471DE0E74C2046143003F03DF8401D45
:10256000E073002020746074214612312A2004F0A8
:102570004DF9E14D697B0320224604F030F8FFF766
:102580006DFE082004F06AF8687BF84908700124A1
:102590002046B0BD080000200001002038080020BF
:1025A00010B5F149C97989070024002928D50028E8
:1025B00008D0EE4882680124002A21D0EC484178F6
:1025C00090471DE0EA4C2046143003F019F8401DF6
:1025D000E073002020746074214612312A2004F038
:1025E00015F9E2480178491C0170C9B2022022465F
:1025F00003F0F5FFFFF732FE082004F02FF8012466
:10260000204610BD0001002028090020F248406843
:10261000C108012008407047080000207FB5EE493E
:10262000497949070024002928D5002808D0EB481B
:1026300082680124002A21D0E948417890471DE0B2
:1026400002F0FEFF03AB1870E54D28460F306946D7
:1026500001240C60486000201522014601F05CFF57
:10266000E04E717B03202A4603F0B9FFFFF7F6FD29
:10267000082003F0F3FF707BF6490870204604B091
:1026800070BDC0460800002000010020280900207D
:10269000380800201CB5EE494979090700240029B3
:1026A00031D5002808D0EB4882680124002A2AD0BE
:1026B000E9484178904726E0E7490F316A46002013
:1026C00003C216220146034601F026FF03F0BEFFB7
:1026D00000280CD0E14C617B0320DF4A03F07FFF30
:1026E000082003F0BBFF607BF949087008E0F84858
:1026F0000178491C0170C9B20420F64A03F06FFF4B
:10270000FFF7ACFD0124204602B010BD08000020F8
:10271000000100202809002038080020B0B5EB494E
:10272000497909060024002928D5002808D0E8485E
:1027300082680124002A21D0E648417890471DE0B4
:10274000E44C2046143002F035FF0920E0730020ED
:102750002074607421461231282004F057F8FB4D94
:10276000697B0320224603F03AFFFFF777FD08203C
:1027700003F074FF687BF349087001242046B0BD64
:10278000080000200001002028090020B0B5EC4915
:102790008979C9070024002928D0002808D0E948F1
:1027A00082680124002A21D0E748417890471DE043
:1027B000E54C2046143002F045FF0D20E073002068
:1027C0002074607421461231292004F01FF8FC4D5A
:1027D000697B0320224603F002FFFFF73FFD08203C
:1027E00003F03CFF687BF449087001242046B0BD2B
:1027F00008000020000100202809002038080020DF
:102800001CB5F649097949060024002931D500286C
:1028100008D0E94882680124002A2AD0E748417894
:10282000904726E0E5490F316A46002003C20522A1
:102830000146034601F070FE03F008FF00280CD0AB
:10284000DF4C617B0320DD4A03F0C9FE082003F062
:1028500005FF607BD849087008E0D7480178491C1B
:102860000170C9B20420D54A03F0B9FEFFF7F6FCA7
:102870000124204602B010BD080000200001002005
:102880002809002038080020B0B5D4490979090684
:102890000024002928D5002808D0C74882680124D0
:1028A000002A21D0C548417890471DE0C34C2046FE
:1028B000143002F0EAFE0920E073002020746074F6
:1028C00021461231122003F0A1FFBD4D697B032088
:1028D000224603F084FEFFF7C1FC082003F0BEFE91
:1028E000687BB549087001242046B0BD080000206F
:1028F000000100202809002038080020002070472F
:102900007FB5B649497989070024002928D50028D0
:1029100008D0A94882680124002A21D0A74841781C
:1029200090471DE002F0C3FE03AB1870A34D28468C
:102930000F30694601240C604860002014220146D3
:1029400001F0EAFD9E4E717B03202A4603F047FE0C
:10295000FFF784FC082003F081FE707B9649087025
:10296000204604B070BDC0460800002000010020D1
:1029700028090020B0B5F8494979C9070024002981
:1029800028D0002808D08C4882680124002A21D051
:102990008A48417890471DE0884C2046143002F068
:1029A00088FE0920E07300202074607421461231F3
:1029B000132003F02BFF824D697B0320224603F096
:1029C0000EFEFFF74BFC082003F048FE687B7A49B7
:1029D000087001242046B0BD08000020000100203E
:1029E00028090020380800207FB5F1498979C906F7
:1029F0000024002928D5002808D06F4882680124C7
:102A0000002A21D06D48417890471DE002F063FE16
:102A100003AB1870694D28460F30694601240C60DD
:102A2000486000209922014601F076FD644E717BDA
:102A300003202A4603F0D3FDFFF710FC082003F023
:102A40000DFE707B5C490870204604B070BDC04626
:102A5000080000200001002028090020380800207C
:102A60007FB5EF4989790906002400292AD5002875
:102A700008D0514882680124002A23D04F48417869
:102A800090471FE003AD284602F029FE4B4C20463C
:102A90000F30694603260E6048600020A1220146DF
:102AA0002B4601F039FD464D697B3046224603F046
:102AB00096FDFFF7D3FB082003F0D0FD687B3E496D
:102AC00008700124204604B070BDC04608000020F4
:102AD00000010020280900207FB5E849897989068E
:102AE0000024002928D5002808D033488268012412
:102AF000002A21D03148417890471DE002F0F3FDD3
:102B000003AB18702D4D28460F30694601240C6028
:102B1000486000209E22014601F0FEFC284E717B99
:102B200003202A4603F05BFDFFF798FB082003F023
:102B300095FD707B20490870204604B070BDC046EA
:102B4000080000200001002028090020380800208B
:102B50007FB5DF49897949060024002928D5002856
:102B600008D0154882680124002A21D013484178F2
:102B700090471DE002F0BBFD03AB18700F4D2846D7
:102B80000F30694601240C6048600020A0220146F5
:102B900001F0C2FC0A4E717B03202A4603F01FFDA0
:102BA000FFF75CFB082003F059FD707B02490870B9
:102BB000204604B070BDC046000100202809002056
:102BC00038080020C2484068C10C01200840704706
:102BD000BF484068810C0120084070470800002071
:102BE000B0B50446184D281D03F060FEA868022801
:102BF00002D12046FFF780F8B0BDC04610B50146AF
:102C0000114C201D03F04EFEA068052800D110BD18
:102C1000616800290CD00DA001F0CEFC6068012194
:102C2000084209D1C0060BD40FA001F0C5FC10BDAD
:102C30000220FFF761F810BD5220FFF75DF810BDCC
:102C40005320FFF759F810BDE00000205F6F6E457C
:102C50007272546F4F6B5F6465764572724269742D
:102C60003D25303858000000206F6E457272546F59
:102C70004F6B5F583100000070B500F009FF00286D
:102C80003AD02348FF21017022480178427813028C
:102C90000B4381780A041A43130C01210B401E4C8C
:102CA0002578AB420FD00E041346B3433243002DB8
:102CB00000D0134603701A0A42701A0C8270114039
:102CC00016A001F079FC601C02F0E7FC6079002896
:102CD0001AD000F0BCFE637A227AE179A07900F084
:102CE0008AFC00F05BFFA07A00280CD00DA001F058
:102CF00063FC00F057FF70BD01200E4A014603F04F
:102D000023FC0349087070BD00F09CFE70BDC046F6
:102D1000180000202C0C0020D80600204462673DDB
:102D2000256400000A6F70656E53656352657374A5
:102D300061727400792C000080B501F07BFF80BDCA
:102D4000A34841680222914341607047A04841680E
:102D50000122914341607047080000209C4841686F
:102D60002022914341607047994841681022914365
:102D7000416070470120000395494A6882434A60D8
:102D80007047C0460120800391494A6882434A60E7
:102D90007047C0468E4841680422914341607047A5
:102DA000012040038A494A6882434A607047C0460E
:102DB000080000200120400485494A6882434A6097
:102DC0007047C0460120400681494A6882434A60F4
:102DD0007047C0467E484168082291434160704771
:102DE000012080027A494A6882434A607047C0469F
:102DF0000120C00276494A6882434A607047C04653
:102E00000120C00372494A6882434A607047C04645
:102E1000012000046E494A6882434A607047C046F8
:102E2000080000206A484168402291434160704791
:102E30006748416880229143416070470120000645
:102E400063494A6882434A607047C0460120400295
:102E50005F494A6882434A607047C04601200002C9
:102E60005B494A6882434A607047C04601200005BA
:102E700057494A6882434A607047C04608000020AC
:102E80000120C00552494A6882434A607047C046E3
:102E9000012040054E494A6882434A607047C04657
:102EA000012080054A494A6882434A607047C0460B
:102EB0000120C00446494A6882434A607047C046C0
:102EC0000120800442494A6882434A607047C046F4
:102ED00008000020B0B503F0D5FA002803D103F0B4
:102EE000C3F8002800D0B0BD064C074D2046294647
:102EF00003F078FA2978204603F002F901F04AF944
:102F0000B0BDC046E8060020E406002070B52028C9
:102F10000FD80401354D2E19716033480068B06038
:102F20002A55F360002A04D0002802D1014801F09C
:102F3000DBFE70BD89200000F8B50E460746144C34
:102F4000204639463246FDF753F9204601F0F8FA9B
:102F500001280BD1E078032803D0617B202000F00A
:102F600021F8052003F07AFB01250DE009A00025DA
:102F7000394632462B4601F049FB617B222000F0A6
:102F800011F8062003F06AFB284601B0F0BDC046E8
:102F9000380800205F7478744672616D6545786505
:102FA00000000000B0B50C46084D68762846103089
:102FB00003F0C4FE2C760C350021284602F063FF96
:102FC0000348416802220A434260B0BD000100206C
:102FD0000800002080B50448002101600120420261
:102FE000024800F082FC80BD38010020180A002051
:102FF00080B501F0B9F880BD80B50448FF210170AB
:10300000034801784170FFF779F880BD190000206E
:10301000D4000020BCB501218C072046FEF7EFFB51
:10302000002821D001212046FEF7D2FB554DA8688B
:1030300002F022FF297F012806D1032001432977CE
:10304000E87F21216854BCBDFE2001402977A86893
:1030500001A902F0B7FE012806D101A80078216875
:10306000FF2291430143216000212046FEF7C7FB68
:10307000002812D000212046FEF7AAFB216801A8F3
:103080000170404C6068C9B202F0B0FEA07F202100
:103090006054207FFB2101402177BCBD7CB5394CB9
:1030A000207FC00730D02120215C002904D0491E98
:1030B0002154FF20014227D12069FDF75BFF002842
:1030C00022D12069304D2946224600F037FE0128E2
:1030D0001AD1002604E00178A06802F087FE761C71
:1030E000A81921688E42F6D3A06801A902F06AFEF1
:1030F000012809D101A8017801208007FEF7B0FB63
:10310000207FFE2101402177207F0221084207D045
:10311000FD2108402077A169002901D08847207F40
:1031200040071DD42020215C002904D0491E2154D1
:10313000FF20014214D10025134E05E0606802F023
:1031400041FE052803D06D1C7119FF2DF6DDE068E6
:103150000D492A4601F03EFF207F042101432177DB
:10316000E068FDF707FF00280AD1E068064922461B
:1031700000F0E4FD6269002A02D02168024890470D
:103180007CBDC04660000020D4050020F0B587B0AB
:103190006C461C21204600F0C7FD00200190402510
:1031A0000627284639462246FDF774FE02262846A1
:1031B00039463246FDF7B2FE012001900727284626
:1031C00039462246FDF766FE284639463246FDF767
:1031D000A5FE07B0F0BD0000F0B587B00546CFB240
:1031E000202F2AD3687DA97D09020143E87D2A7E2C
:1031F0001202024310040843697E0491297D039161
:10320000AE7F297F6A7FAB7EEC7E0690200218435A
:1032100012020A4311040143059106A803F0FEFAC5
:1032200005A803F0FBFA069A0598694641C112A069
:103230000399049B01F0C0F901E0082F02D3124862
:103240000621017001F038F9002808D000F02CFFA9
:1032500000280ED02846394600F02CFF09E0284609
:10326000394603F07FFB012803D02846394602F097
:10327000D1FF07B0F0BDC0462564732564632564A3
:103280006F2564722564000008000020704700006C
:1032900080B501F087FE1148017882784378437049
:1032A00082701B020B431104194340220A4302702F
:1032B00080BDC04680B501F081FE08484178827823
:1032C0000378037082700902194312040A43012132
:1032D00009021143090A417080BDC0462C0C002030
:1032E000F0B58DB00C460546287803F009FA0028A1
:1032F00019D0207803F009FA002816D020786978D0
:10330000814214D1A878AE1C03F079FA002810D0BD
:10331000307803F072FA00280DD02078C01C000726
:1033200010D01FA008E028A006E024A004E01B485D
:1033300002E01FA000E01D4801F03EF900273846DA
:103340000DB0F0BD019609A9284600F037F90294A6
:10335000207804900D2603950AE009A805A90A46DD
:10336000B8C8B8C2039DA819012200F0A9F8103608
:10337000F6B204988642F0D3049828180021C94375
:10338000425C4018002AFBD00127791B0C186C7096
:10339000019803F041F902980470D0E7A479000085
:1033A000616573446563205836000000AE79000003
:1033B000616573446563205834000000616573449F
:1033C00065632058320000006165734465632058CE
:1033D00031000000F0B58BB00D460446207803F0B4
:1033E0008FF9002815D0287803F08FF9002812D023
:1033F00028786178814210D1A078A61C03F0FFF9EB
:1034000000280CD0307803F0F8F901280DD12248BB
:1034100006E028A004E024A002E01E4800E01FA06F
:1034200001F0CAF800200BB0F0BD304603F0F9F807
:1034300007A9204600F0C2F82878C11C0F220A40D4
:103440000021002A0AD0D2B210239E1A06D02018DA
:103450000021324600F049FA2878314602940818D3
:1034600028700D2601950CE007A803A90A46B8C8E4
:10347000B8C2019D02988019002200F021F8103690
:103480002878F6B2C1B28E42EED30299487001207C
:10349000C9E7C046A4790000AE79000061657345B4
:1034A0006E63205834000000616573456E632058D8
:1034B00032000000616573456E63205831000000E2
:1034C000F0B593B00F46054600240E940D940C946D
:1034D0000B940A9409940894079406940594049410
:1034E0000394002A02951BD01B2001900121FEF7B6
:1034F00093F80BA80090102639463246FCF778FE68
:1035000007AF384629463246FCF772FE03AD1095E8
:103510000F970098119012940FA8FDF78BF919E0FE
:103520001B2001900121FEF777F8294607AD1026F0
:1035300028463246FCF75CFE39460BAF3846324629
:10354000FCF756FE109503AD0F95119712940FA836
:10355000FDF7BEF9029829463246FCF749FE01986C
:103560002146FEF759F813B0F0BD704780B500F062
:1035700049F880BD80B500F04FF8012080BD000003
:10358000B0B5827803799C18032214400AA31C5D0D
:103590000C70C47805792C1914401C5D4C700479AA
:1035A00014401C5D8C708478C5782C190079201823
:1035B0001040185CC870B0BD467A394070B50C46F2
:1035C00005462046FFF7D2FF26460C3628463146F0
:1035D000FFF7D6FF08342046314600F090F970BD61
:1035E00080B500F02FF880BD80B500F033F880BDC5
:1035F0000002084370470002084300021043000223
:103600001843704780B5002804D0DE4938310C22B9
:10361000FCF7EEFD80BDC046B0B50446002C10D0CE
:10362000DE4D38350C2220462946FCF713FE0028D3
:1036300007D00C2228462146FCF7DAFDD0480121AC
:103640000170B0BDD548416B0120002900D108466A
:103650007047C046D1494A6B824203D04863C8488C
:10366000012101707047C046CC4880687047C04651
:10367000CA498A68824203D08860E4480121017007
:103680007047C046E24841690120002900D1084640
:103690007047C04680B50146054842698A4206D057
:1036A000416104A000F088FFD8480121017080BD6D
:1036B000EC0700206366674374726C4D6F6465208D
:1036C00025640000D24988693B2801D83C208861E4
:1036D0007047C046B0B504463C203C2C00D8044698
:1036E000064DA869A04207D005A0214600F064FF5E
:1036F000AC61C64801210170B0BDC046EC07002096
:103700006366674F5365633D25640000C048C06928
:103710007047C046BE49CA69824203D0C861BB48EF
:10372000012101707047C046B948016B0120002992
:1037300000D108467047C046B5490A6B824203D0A3
:103740000863B248012101707047C04680B5074840
:10375000C078012802D106A000F02EFF22480021E7
:103760000160FE2000F02AF880BDC0462C0C00202D
:103770000D0A6366675061676549644465660000C9
:10378000194800687047C04680B500F00FF8164829
:103790000068000A01D0FFF7D9FF80BD0146C43997
:1037A000012000223B2900D31046704780B5FF203E
:1037B00000210D4A012301F030F880BD80B501469B
:1037C000094A136800208B420DD011600748C07869
:1037D000012802D106A000F0EFFEFF200021024ADE
:1037E000012301F025F880BD300100202C0C0020C1
:1037F0006366675061676549645365743D2564007D
:10380000834A136A0360506A08607047804A136AEB
:10381000834203D010627D4801230370506A8842BE
:1038200003D0516279480121017070477849C86816
:103830000522052803D34B22D200904201D9CA6049
:1038400010467047B0B504460C4DE868A04213D04E
:10385000E2084B21C9004B2A00D30C460521052C58
:1038600000D80C46A04207D005A0214600F0A4FED7
:10387000EC60664801210170B0BDC046EC07002035
:10388000636667535365633D2564000060490869BA
:103890003C223C2803D3E122D200904201D90A61A4
:1038A0001046704710B501460B4802698A4212D093
:1038B000CC08E123DB00E12C00D319463C233C2952
:1038C00000D819468A4206D0016104A000F074FEB7
:1038D0004E480121017010BDEC0700206366675758
:1038E0005365633D25640000FEE710B55242002396
:1038F00002E0C41A21705B1E9A42FAD110BD0A7808
:103900000378534003700A785A400A700178514096
:10391000017070470178002901D0491E017070477D
:1039200010B53B480168491C01D10021016000210C
:103930000A224B239B00B42441608160C260036172
:103940004161846101223C23026243624163034975
:103950000164C16381632D48027010BD58585858E6
:1039600080B5FFF711FF00F00FF828480021017023
:1039700027484068002801D0FFF7D2FF80BDC0462D
:103980002D010020EC07002080B5FFF7F9FE002193
:103990001F4A122300F041FF80BDC046EC07002003
:1039A000B0B51A48017800292FD000210170184CB9
:1039B0002068401C2060FFF7E3FE451E2846FFF705
:1039C000EDFE00280FD02068124988420BD3012059
:1039D0002060002113232846224600F029FF2846B4
:1039E000FFF7ECFEB0BD0C48C078012806D1FFF708
:1039F000C7FE0146226809A000F0DEFDFFF7C0FE09
:103A00000021034A132300F013FFB0BD2D01002055
:103A1000EC070020D17E01002C0C002077666C6141
:103A200073682C5049643D256420636E743D2564A1
:103A3000000000007C480178FA220A40042111436A
:103A40000170704780B5FFF7F5FF80BD704780B506
:103A500000F042F880BD80B500F0B8F880BD0000ED
:103A600010B500F027F800F041F8FFF7EFFF6E4CBB
:103A70002078F5210140082008432070FFF754FE0C
:103A8000012101402078FE2202400A43227010BD2D
:103A900010B565480478002006210C4200D010BD06
:103AA00001200440FFF740FE211A0020401A48413F
:103AB00010BDC046704780B5FFF7E4FD0021091A2C
:103AC000484180BD80B5002801D0012000E00020E1
:103AD000FFF7E0FD80BD00005348017805220A434E
:103AE0000270704780B5FFF7EDFD80BD70470000A4
:103AF000B0B54D48007840070024800F01D0204623
:103B0000B0BDFFF711FE0028F9D0FFF7FFFD044616
:103B100001F050F8051BFFF7D5FD01240021854277
:103B2000EDD20C46EBE7C046B0B5184D28784007FB
:103B3000800F03D100F0A0FC002800D0B0BDFFF73B
:103B4000F3FD0028FAD0FFF7E1FD044601F032F85A
:103B5000041BFFF7B7FD8442F0D30DA000F02CFD4D
:103B60002878FA2101400420084328700A48017887
:103B700082784378437082701B020B43110419430F
:103B800010220A43027000F025F8B0BD340800206E
:103B9000636C6F73650000002C0C002080B5FFF78C
:103BA00099FD80BD80B501F005F8FFF7B3FD80BD3C
:103BB0000548002101707047034801780120002961
:103BC00000D108467047C046D806002080B5FFF7F0
:103BD000ABFD80BD70B5144C267802252E4222D153
:103BE00030070AD401200640FFF79EFD2178864267
:103BF00009D1F9200140217070BDF3200640042056
:103C00003043207070BD04200143217007A000F0F4
:103C1000D3FC20782843207000F0C1FD3220012120
:103C2000034A02F091FC70BD340800200A4353009F
:103C3000D51F0000B0B58CB0054601AC2046183049
:103C40001421FCF7EEFA28680949401806902879F3
:103C5000401E059068790490A8790390E879029055
:103C6000287A01902046FCF77DFA0CB0B0BDC04622
:103C700094F8FFFF80B500F003F800F011FA80BD62
:103C8000B0B586B001A98020088048800124600278
:103C90008880C88002200872487209480490094848
:103CA0000590204D281D02F0CBFDFF21064A20463D
:103CB00002F04AFC6877054801F0EAF806B0B0BDAA
:103CC0009D1C0000C71C0000651B0000DD1A0000E1
:103CD000B0B5FC4D287F0024C00718D02869FDF737
:103CE00049F9002813D0287F400710D5E868FDF770
:103CF00041F900280BD0A86802F0BEF8002806D0D1
:103D0000686802F0B9F80124002800D10446204672
:103D1000B0BDC04680B50A460146EA48006901F0D8
:103D200059F980BD30000020002804D105E00022B0
:103D30000270401C491E0029F9D17047F8B516469B
:103D40000C460546A968EA680020914217D0286809
:103D5000475C481C6968FCF7DBF9A96037600BE039
:103D6000A8682968085C20706968A868401CFCF78E
:103D7000CFF9A9607F1E641C0120002FF0D101B093
:103D8000F0BD0000F8B50C4605460027032C06D30D
:103D9000274903222846FCF75DFA002802D038465E
:103DA00001B0F0BDEE1C234908223046FCF752FA60
:103DB00000280AD128460B302146F531C9B200F05F
:103DC0004DF9014601200129EAD01B490322304662
:103DD000FCF740FA002809D1A81D2146FA31C9B2E2
:103DE00000F0EEF8014601200129D9D01349032241
:103DF0003046FCF72FFA002809D1A81D2146FA31D8
:103E0000C9B200F01FF8014601200129C8D00C49B1
:103E100003223046FCF71EFA0028C0D1A81DFA3450
:103E2000E1B200F09BF8014601200129B7D1B7E7C4
:103E30000F7A0000FE790000FA790000B8790000DE
:103E4000F2790000BFB505460024062911D01229D9
:103E50001BD00A292ED0092949D13F492846FCF711
:103E6000EBF9002843D1FFF7BBFB002831D036A087
:103E70003AE02B492846FCF7DFF9002837D101AD9D
:103E80002846FFF773FB27A00DE01A4906222846B3
:103E9000FCF7E0F900282AD1AD1D2846FFF76AFBA0
:103EA000002820D014A00C2201242946234600F02B
:103EB000ADFB1CE01E492846FCF7BEF900280AD0DD
:103EC0001C492846FCF7B8F9002810D10020FFF75C
:103ED0008BFB19A008E001242046FFF785FB1AA000
:103EE00000F06AFB03E009A000F066FB0124204615
:103EF00004B0B0BDC37900000A6165736B65797366
:103F00006574206F6B2C206B65793D000A616573C9
:103F10006B6579736574204572726F7200000000E2
:103F2000BC7900000A6165736B65793A0000000096
:103F3000DF790000D47900000A6165732073776926
:103F4000746368206F6666000A6165732073776921
:103F5000746368206F6E0000CA790000F8B5002411
:103F6000072919D10E490722FCF774F9002813D14B
:103F70000C488578FFF78AFC0646FFF757FC074692
:103F8000FFF7A0FB694608600124254006A02946EA
:103F900032463B4600F010FB204601B0F0BDC04663
:103FA000EA7900002C0C0020642F6E3D25642077F8
:103FB0003D256420733D2564206F3D25640000008D
:103FC00070B588B0002503292FD119490324224652
:103FD000FCF740F9002828D1684616A11822FCF702
:103FE00007F906A801F086F800281AD00020064636
:103FF00005E006A9091A0978F2B28E18401E01469A
:104000000831F6D16D462C4306A8214601F076F81A
:10401000F0B22946133100F057F8002068752846A1
:1040200000E00AA000F0C8FA0125284608B070BDDB
:10403000F67900007A6C40000000000000000000EB
:104040000000000000000000000000000D0A206DCC
:1040500061632072656164206572720010B500248E
:10406000072908D0012916D10078302813D100F093
:10407000E1FD01240FE00949FCF7DEF800280AD130
:104080000720002100F0A0F8094801780124002948
:1040900001D101240470204610BDC046077A0000FB
:1040A0000348002101707047014800787047C046FE
:1040B000D406002080B50A4601460248006900F097
:1040C00089FF80BD3000002080B5024602A308466B
:1040D000194602F05FFE80BD253032580000000016
:1040E000F8B51E4C1E4D65600021A16005212160C0
:1040F0001C4E0BE00020A06030680849FCF708F86F
:10410000691C081AA1688142FCD83846471E00285D
:10411000F0D12068012188432060F8BDA08601000D
:10412000F8B50E4C0E4D65600026A6600521216095
:104130000CE0A6607D20C1000A480068FBF7E8FF9C
:10414000691C081AA1688142FCD83846471E00281D
:10415000EFD12068012188432060F8BD10E000E025
:10416000FFFFFF001400002080B500F073FA032069
:104170000121024A02F0E8F980BDC046551900004D
:10418000D5480021C1607047D3484068010901202B
:1041900008407047D048A0210160704780B500F00A
:1041A0005DF900F09BF90520FF21054A02F0CCF9EA
:1041B0000120044A014602F0E5F900F055FF80BDF8
:1041C000C5180000D11C000010B50446792C0BD393
:1041D0005FA0214600F0F0F97B2C17D07A2C19D182
:1041E0000120FEF70BFD10BD512C00D97DE0482CBD
:1041F00014D348A0214600F0DFF9492C16D0482CF2
:1042000019D152200121FEF7EBFC10BD1020FEF762
:10421000F5FC10BD52A000F0CFF966E0332C64D855
:10422000082C0AD0072C16D1052012E053201021AB
:10423000FEF7D6FC10BD3DA0EDE72C4840680121FB
:10424000084203D1C00603D4022002E0522000E05D
:104250005320FDF751FD25488068512812D30C2CBE
:1042600043D12348017882784378437082701B02DF
:104270000B431104194308220A4302700420FDF77E
:104280003BFD10BD05280CD87844007940008744D8
:10429000020A0D102026012C27D10120FDF72CFD4C
:1042A00010BD14A0B7E7022C1BD01EE0042C12D0C6
:1042B0001BE0062C19D101F067FE002811D10C4833
:1042C00080780004C0030CD4FFF776FC002808D1E6
:1042D000D4E70A2C09D10320FDF70EFD10BD0E2CEA
:1042E00003D10220FDF708FD10BD10BDE000002045
:1042F0002C0C00200D0A2A2A2A2A2A2A205F64650B
:10430000764F6E4576656E7420457272202A2A2A91
:104310002A0000005F6F6E45727248696E744576C0
:10432000656E745F653D2564000000000D0A2A2A51
:104330002A2A2A2A205F6F6E45727248696E744578
:1043400076656E7420457272202A2A2A2A0000009F
:104350005F6F6E457272546F4F6B5F653D256400F1
:104360000D0A2A2A2A2A2A2A205F6F6E4572725461
:104370006F4F6B4576656E7420457272202A2A2A2B
:104380002A000000B0B5FFF783FB002855D002F0EB
:1043900065FC002851D0FFF79BFC00284DD001F0B0
:1043A00025FE002849D0254C207861780902014378
:1043B000A07800040843082108423ED081060BD4AF
:1043C00020490840010A6170202101432170000C3E
:1043D000A07000F0FFFEB0BD40062ED500F09EFCA0
:1043E0001B4D07E000F046FEFFF782FB00280AD1D4
:1043F00000F0C4F92A68501F0021052A00D8084699
:1044000028600028EED12078617809020143A07865
:10441000000408430A4901402170080A6070080C32
:10442000A07000F075FB00F0E1FEFFF79DFEFFF7C6
:104430007BFB0A200021FFF7C7FEB0BD2C0C00203B
:1044400091FFFF009FFFFF00014908607047C046D1
:104450003C010020204880687047C04680B51E4956
:1044600000204860FDF748FC0120FFF7ADFE022068
:10447000FFF7AAFE80BDC04617488068811E002055
:10448000401A48417047C04613488168533900209C
:10449000401A48417047C0460F48826801200021F9
:1044A000502A00D3084670470B488068C11E002080
:1044B000401A48417047C04607488068411F0020A5
:1044C000401A48417047C04603488168523900206D
:1044D000401A48417047C046E000002080B50D48B2
:1044E00000210170044800F0BBF832200121034A8A
:1044F00002F02AF880BDC0465D190000F12F0000CF
:1045000080B5FFF731FE80BD024841680B2048436B
:104510006E307047F000002070B51C46049D6B1D86
:10452000059E33707070B17090B2F11C02F06EF99C
:10453000002D04D0701D21462A46FBF759FE70BDA0
:10454000B0B50446E17CA07CFFF752F8054600F0C8
:1045500019F8411C05D080000549095820468847B4
:10456000B0BD04A0294600F027F80020B0BDC04629
:1045700018780000657272207061726149643D258F
:1045800064000000B0B5162300210A4A00E0491C6F
:10459000CCB201E0FF310B460021C943DDB2AC4291
:1045A00006D8291949084D00555B8542F2D8EED34B
:1045B0000846B0BD5679000083B010B5A1B00446DE
:1045C00023A80EC001A88021FBF72BFEFFF774FF84
:1045D00000280FD123AB009301A88021224602F0CE
:1045E000EDFB0146002901D001A801E004A00B2148
:1045F000FFF790FB21B010BC01BC03B00047C046E0
:104600006D795072696E7466204E4700F8B51C468D
:1046100015460E46002801D0FFF7CEFF07A705E09C
:1046200031783846FFF7C8FF761C6D1E002DF7D194
:10463000002C02D003A0FFF7BFFFF8BD20253032C9
:10464000580000000D0A000080B500200521FCF78D
:104650000FFC80BD80B500200521FCF771FC80BDFA
:10466000164908607047C046F0B587B0FDF78CFC6E
:10467000FDF76AF96D461C212846FFF755FBFCF74C
:1046800001FA002700970197032420030290039763
:1046900004970126B003059006972846FCF7B6F963
:1046A0000620FCF765F9FCF783F91820214632460D
:1046B000FCF786FA0148076007B0F0BD440300200C
:1046C00080B5FDF761FCFCF76DF9FDF73DF9FCF7EE
:1046D000D9F980BD80B5FCF7C5F980BD80B5FCF780
:1046E000C5F9FCF7C9F9FCF757F980BDF0B585B0FD
:1046F00000252846FCF70CFF2846FCF719FF11207F
:10470000FCF7C6FF02263046FCF7B6FF0124144F23
:1047100030462146B8473046FCF7CCFF04263046E9
:10472000FCF79CFF28462146B847019502960320D6
:1047300003900C20049001A8FCF710FF2046FCF722
:1047400023FB30462146B8473046FCF7B3FFFCF761
:1047500047FE044908602046FDF740F905B0F0BD6A
:10476000E9120000300C002080B50120FDF736F979
:1047700080BD80B50020FDF731F980BD80B50020F7
:10478000FCF774FC80BD80B500200721FCF7D8FB46
:1047900080BD80B500200721FCF76AFB80BD80B595
:1047A00080200421FCF7CCFB80BD80B58020042153
:1047B000FCF75EFB80BD80B500F01BF800F007F849
:1047C00080BD80B500F015F800F007F880BD80B519
:1047D00000200921FCF7B4FB80BD80B50020092131
:1047E000FCF746FB80BD80B500200821FCF7A8FB44
:1047F00080BD80B500200821FCF73AFB80BD80B564
:10480000FFF7F1FFFFF7E9FF80BD80B50C20012124
:10481000FCF722FA0028F9D180BD89004002401837
:1048200002E002C802C25B1E002BFAD101207047D1
:10483000F0B585B003928900164E71180291990067
:10484000019104904702042516E00498FF2812D82D
:10485000002003E081007A587250401C8028F9D172
:1048600002980399019AFBF7C3FC0498FDF7A0FB9B
:10487000012400280AD16D1E002DE6D10648C0781B
:104880000024012802D105A0FFF796FE204605B0BE
:10489000F0BDC046440100202C0C00200D0A666CBF
:1048A0006173682077726974652045525200000078
:1048B00010B5FFF71BFFFFF7A8FF00F0C9F90024B0
:1048C000204600F0A7FA204600F0E8FA00F07EF853
:1048D000FFF7CAFE00F007F800F01AF800F069F8D8
:1048E00000F075F910BD80B5FDF7A4FB80BD80B563
:1048F000FDF7A0FB80BD80B5412080010521FCF7BC
:10490000C1FA01460120002900D1084680BD704748
:10491000F0B587B06E461C255C4A30462946904764
:10492000FFF743FF0024019403940127049780209C
:104930000421574B32469847FFF737FF6E46304603
:104940002946524A9047FFF724FF019403940497A5
:104950000721204632464E4B9847FFF71AFF6E4616
:1049600030462946494A9047FFF743FF0194039494
:104970000497082120463246454B9847FFF739FFF8
:104980006E4630462946414A9047FFF726FF01947C
:10499000039404970921204632463D4B9847FFF780
:1049A0001CFF07B0F0BDC04680B5FFF7B1FF80BD6A
:1049B000704780B5FDF752FB80BD80B5FDF74EFB1B
:1049C00080BD80B500F06FF880BD0000F0B58BB001
:1049D00004AE1C2102912D4A3046904700F0E2FAC5
:1049E000002705970120079004460394089740206C
:1049F00001900421264B3246984700F0D3FA04AECA
:104A00003046029D2946214A904700F0C5FA059795
:104A10000794089780200C2132461D4B984700F0E0
:104A2000BBFA04AE304629462C46184A904700F09F
:104A3000C5FA05970398079008970321019D28461A
:104A40003246134B984700F0B9FA04AE304621467F
:104A50000E4A904700F09AFA0597039C079408972E
:104A60000521284632460A4EB04700F08FFA04ADC1
:104A700028460299054A9047059407970897C02051
:104A800002212A46B0470BB0F0BDC046293D0000C8
:104A9000950E000080B5FFF799FF80BD704780B587
:104AA00000F001F880BD80B500200421FCF748FA31
:104AB00080BD80B500200421FCF7DAF980BD80B507
:104AC000FFF7F7FF80BD000010B5104C2078C0073D
:104AD0000BD1FFF7E8FF2078617809020143A07845
:104AE00002040A43012010430AE0FFF7E2FF2078A6
:104AF000617809020143A07800040843012188433A
:104B00002070010A6170000CA07010BD2C0C0020F8
:104B100080B5FFF729FEFFF7EAFEFFF745FFFFF735
:104B20004CFFFFF7B7FF00F0F7F900F03BF900F09A
:104B3000D1F8FFF7C5FD80BD7CB504466846002569
:104B4000857185800095EE43761C092E2FDC684622
:104B5000FCF718FB0028F7D169468B791D090A205C
:104B600045430F2213407D2636011E4373192360EF
:104B70004B791D0913404543EB1823710B791D092F
:104B800013404543EB1863718B781D09134045436F
:104B9000EB18A3714B781D0913404543EB18E371E3
:104BA00009780A40090941438818207201252846DE
:104BB00002B070BDF8B501A8FFF7BEFF01460020A6
:104BC000012902D101A8FFF735F804B080BDF0B586
:104BD00089B06D4624212846FFF7A6F81420012449
:104BE0002146FCF719FD032630462146FCF77CFBE5
:104BF0000094002004900194092129725021A97683
:104C0000EC76102129771727AF7704216977E977A8
:104C1000202119226A54059428832846FCF78EFA2D
:104C2000384631462246FBF7CBFF2046FCF754FAC4
:104C300009B0F0BDBFF34F8F034804490160BFF3D3
:104C40004F8F00BFFDE7C0460CED00E00400FA0501
:104C500070B58AB06E4628213046FFF765F800240B
:104C60000094059404200390012506953474347251
:104C7000019420463146FBF759FF0E4E204631463F
:104C8000FBF720FF20463146FBF728FF2046214650
:104C9000FBF704FF2046FBF73FFF0E2003212A46C7
:104CA000FBF78EFF1448047003490C6044600AB09F
:104CB00070BDC04690E80000280C002010B50E4CD6
:104CC0002078012805D16068002800D080470020A6
:104CD000207010BD80B50E2003210122FBF770FF6C
:104CE0000020FBF709FF80BD80B503494860002024
:104CF000FBF702FF80BDC0462000002080B50020E9
:104D0000FBF702FF80BD10B500242046FBF7FCFE38
:104D10000E2003212246FBF753FF10BDB0B5FFF76D
:104D2000DDFCFFF7F0FF00F059F800F011F9FFF794
:104D3000EEFDFFF73DFEFFF744FEFFF7AFFE144820
:104D40000024C460C4648C214450CC2144501149D7
:104D5000CC60CC64104A0260104A1346383B0364AE
:104D600080230F4DC550C023C2500A600A6403223D
:104D7000120242624466A4228450E42284504C62AF
:104D80004C66FFF7F6FC2046FCF770F9B0BDC04654
:104D9000000D0240001D0240CFFC0000FFFF00009C
:104DA000EFEF000070B5FCF755FF08200321012448
:104DB0002246FBF705FF354D002628463146FCF715
:104DC000F2F828462146FCF7EEF828463146FCF773
:104DD000FAF828462146FCF7F6F870BDB0B5082071
:104DE000032100242246FBF7EBFE284D28462146EE
:104DF000FCF7E1F801212846FCF7DDF840252846BC
:104E000021462246FCF78AF80B2128462246FCF769
:104E100085F8B0BDF0B589B00190FCF71BFF02AF7B
:104E20001C213846FEF780FF022001252946FCF7A9
:104E3000F3FB0026049603960596FCF75FFB0790AC
:104E4000A8020690E12040020890402002900F4CFA
:104E500020463946FCF7C4F820463146FCF7A3F853
:104E600020462946FCF79FF820463146FCF7ABF870
:104E700020462946FCF7A7F8082003212A46FBF71D
:104E80009FFE05480199016009B0F0BD0002004095
:104E9000014908607047C046180C0020F0B587B083
:104EA0000090FEF773F901AF18213846FEF73CFF7A
:104EB00040200190002603960296E1200002069011
:104EC000012568020490FCF719FB0590AC07204609
:104ED0003946FCF799FC20463146FCF779FC204620
:104EE0002946FCF775FC20463146FCF781FC20463C
:104EF0002946FCF77DFC062003212A46FBF760FECD
:104F000004480099016007B0F0BDC046014908603F
:104F10007047C0461C0C002070B5FEF737F906201C
:104F2000032101242246FBF74BFEA5070026284655
:104F30003146FCF74DFC28462146FCF749FC284643
:104F40003146FCF755FC28462146FCF751FC70BD64
:104F500070B506250321002428462246FBF730FEC3
:104F60004026304629462246FBF7D8FF0721304627
:104F70002246FBF7D3FF0125AE0730462146FCF75A
:104F80002FFC30462946FCF72BFC70BD80B5402035
:104F90000521FBF7D5FF80BD80B580200C21FBF7F4
:104FA000CFFF80BD80B540200421FBF7C9FF80BD45
:104FB00080B540200421FBF75BFF80BD80B5402019
:104FC0000321FBF7BDFF80BD80B540200321FBF727
:104FD0004FFF80BD70B514460D46064600F01FF821
:104FE0000146621C0020914217D3F06831680C54CE
:104FF0007168F068401CFBF78BF8F1600AE03068DC
:105000002A7842547168F068401CFBF781F8F1601F
:10501000641E6D1C0120002CF1D170BD704710B5CD
:10502000041D1CCC9818011B881A9C4200DB084602
:1050300010BD70B505462E461336304601F01EFFF2
:105040000446002C0BD020463146FBF7EAF82046F8
:105050001030002121C421606160083C02E0FEF7AD
:1050600043FC0024204670BD80B500200D21FCF7D4
:1050700015FC80BD80B5FCF709FC80BD80B50448F7
:10508000002101703220FF21024A01F05DFA80BD4B
:10509000480300202521000080B50822FBF7DAF83C
:1050A0000021091A484180BD1CB5044600F011F8E2
:1050B0000146012000290AD1684601F03FFE014661
:1050C0000020002903D068462146FFF7E5FF02B023
:1050D00010BD002204E01B780021FF2B04D1521CDC
:1050E00083180121082AF6D10846704780B5FFF7DA
:1050F000DBFF80BD80B501F021FE80BD70B50C46A0
:105100000546002606E0A81B00782146FEF7DCFFD6
:10511000A41C761E30460830F5D1012070BD000079
:10512000B0B5144C0020E070A078217862786270ED
:10513000217002210143A170FFF7BAFB7D25A80071
:10514000FEF7EEFF00F032F8FFF728F800F04EF817
:10515000E800FEF7E5FF08A0FFF72EFA0120E07057
:10516000FFF7ACFDFFF786FF20788007F8D5FFF743
:1051700009F9F5E72C0C00200D0A7030335F7465D7
:10518000726D696E616C5F6374726C5F7761746578
:10519000722056302E345F32303230303732372082
:1051A00066656E676875690D0A00000080B501F0DC
:1051B000C7F9FEF7D5FBFEF75DFDFEF7D6F901F066
:1051C0000BFDFEF74DFCFFF759FF00F0F7FEFFF770
:1051D00025FF80BD80B5FFF7EBFE07200121024AC5
:1051E00001F0B2F980BDC0469132000080B50C4894
:1051F0000178427812020A43817809041143094A6E
:105200000A40110A4170802111430170110C817014
:10521000FFF7DAFE07200A21034A01F095F980BD65
:105220002C0C00207FFEFF00B532000010B5FFF708
:1052300033F9002803D0FFF71FF9002819D0FFF732
:1052400023F9002815D000F01FF9012811D00948D2
:10525000417802788378C478C47083700270220227
:105260001A431204090211430122D2020A43110A0D
:10527000417010BD0C00002010B50446FFF70CF97A
:10528000002803D0FFF7F8F800280FD00A4800687C
:10529000A0420BD008480460FEF776FF012C03D132
:1052A000002803D07B2003E0002800D010BD492057
:1052B0000021FEF789FF10BD4C0300200348006861
:1052C000411E0020401A48417047C046200C002073
:1052D000E0B5FFF7E1F8002803D0FFF7CDF800288C
:1052E00015D001A801F044FD002809D00198FCF771
:1052F0006DFFFFF7E9F8002809D001F04FFC8CBDE5
:105300000320FCF763FFFFF7DFF8002800D08CBD17
:1053100048200021FEF758FF8CBD000070B5FEF755
:10532000B7FB0024002800D194E04B4D68684B4E39
:10533000002816D07078002800D08BE04B207070C9
:10534000B01CFEF7E7FAB078002872D06868012434
:1053500000287FD080004249095801242046884710
:1053600078E07068002875D00121C2074ED1022173
:1053700082074BD40321420748D40421020745D4B5
:105380000521C20642D4062182063FD407214206E7
:105390003CD40821020639D40921C20536D40A2199
:1053A000820533D40B21420530D40C2102052DD4C3
:1053B0000D21C2042AD40E21820427D40F214204D5
:1053C00024D41021020421D41121C2031ED412219D
:1053D00082031BD41321420318D41421020315D4D1
:1053E0001521C20212D4162182020FD417214202C3
:1053F0000CD41821020209D41921C20106D41A21A1
:10540000800103D400246C6017A021E0696088004B
:10541000134909580024204688476868401E01281F
:1054200002D800F033FE6C604B2070700124B47021
:1054300010E000F02BFE00246C600220FFF71CFF40
:105440003078002801D0401E3070FEF7B1FB05A077
:10545000FFF7B2F8204670BD0001002008000020D0
:1054600074780000630000005F6E32734765744912
:1054700064282920657272000120400606494A68A6
:1054800002434A607047C046034841680120002932
:1054900000D108467047C0460800002010B5022021
:1054A00001F0DCF801F0CAF8002809D001242046F8
:1054B000FFF7E2FE00F0EAFD04480021416003E04E
:1054C00003A0FFF779F80024204610BD000100205A
:1054D00073675478436D644F6E52784F6B5273709C
:1054E000204552523100000080B5FEF73FF8012000
:1054F00080BD80B5FEF774F880BD10B5007800243B
:10550000012806D0002808D10020FEF76DF80124FC
:1055100003E001242046FEF767F8204610BD10B5D1
:105520000446FEF7F1FF80B2214601F06FF910BD8D
:1055300010B50446FEF798F8214601F079F910BD40
:1055400080B5C378827841780078FEF754F8FEF78A
:105550008FF880BD80B5FEF77EFA01460120002954
:1055600000D1084680BD80B501780020012904D013
:10557000002905D1FEF766FA01E0FEF768FA01207E
:1055800080BD80B5FEF797FA0021091A484180BD19
:1055900010B500780024012806D0002808D100208A
:1055A000FEF790FA012403E001242046FEF78AFA70
:1055B000204610BD10B50446FEF794FA214601F0CE
:1055C00037F910BD80B5C378827841780078FEF74E
:1055D00012F8FEF7E3FA80BD0020704780B501465F
:1055E00005480B22FAF704FE04480078FF2800D093
:1055F00080BDFDF741FB80BDD806002018000020CB
:1056000010B50446FFF78BFFEB480078FF21C0067A
:1056100005D5FEF720FA0121002800D10146A1702E
:10562000032010BD10B5FEF77BF9C8200124034A02
:10563000214600F089FF204610BDC046C91C00006D
:10564000052070471CB5044601A86946FEF7D8F846
:105650000198214601F0ECF80098211D01F0E8F8CE
:105660001CBDB0B50446E378A27861782078FDF7D8
:10567000C2FF0546E379A27961792079FDF7BBFF86
:1056800001462846FEF7C2F8B0BD10B50446FEF745
:10569000CDF8214601F0CCF810BD80B5C3788278F2
:1056A00041780078FDF7A7FFFEF7CCF880BD112008
:1056B000704710B50446FEF7E9F8214601F0B8F846
:1056C00010BD80B5C378827841780078FDF793FFEC
:1056D000FEF7E8F880BD80B501F014FB80BD80B511
:1056E00001F018FB80BD80B501F022FB80BD1CB528
:1056F00001AC204601F03CFB207802B010BD000058
:1057000010B50146CA780020012A1BD0022A22D1F6
:10571000E148017842788378C478C470837042701D
:1057200022021A4312040A43202111430170DB486C
:105730004178827803780370827040220A43427075
:10574000012010BD14310846FDF714FF0146012069
:10575000002900D1084610BD10B50146CA780020C6
:10576000012A1BD0022A22D1DF48017842788378AF
:10577000C478C4708370427022021A4312040A4330
:10578000102111430170D948417882780378037061
:10579000827040220A434270012010BD1431084635
:1057A000FFF7ABFE01460120002900D1084610BDDD
:1057B00010B5C178002002291AD1E94948780A7841
:1057C0008B78CC78CC708B700A7022021A4312044A
:1057D00003021343012002031A43120A4A70EF49DD
:1057E0004A788B780C780C708B70402313434B7085
:1057F00010BDC04610B50146CA780020012A1DD050
:10580000022A24D1E44948780A788B78CC78CC7085
:105810008B700A7022021A43120403021343012000
:1058200082031A43120A4A70EF494A788B780C783F
:105830000C708B70402313434B7010BD143108461D
:10584000FFF791FE01460120002900D1084610BD56
:1058500010B50146CA780020012A1AD0022A1DD1AB
:10586000E048017842788378C478C47083704270CD
:1058700022021A4312040A43042111430170F14821
:105880004178827803780370827040220A43427024
:1058900003E014310846FFF753FE012010BDC04657
:1058A00010B50146CA780020012A1DD0022A24D151
:1058B000E34948780A788B78CC78CC708B700A7082
:1058C00022021A43120403021343012042031A4323
:1058D000120A4A70ED494A788B780C780C708B70FC
:1058E000402313434B7010BD14310846FFF750FEA0
:1058F00001460120002900D1084610BDB0B504467C
:10590000E078002503281DD001282FD1204614302F
:10591000FFF764FEF1480178427812020A43817869
:1059200009041143124A0A400270110A4170110C15
:105930008170207D0125002818D104200021FEF768
:1059400043FC13E0E5480178427812020A4381786B
:1059500009041143064A0A400270110A4170110CF1
:10596000817014342046FFF739FE01252846B0BD6A
:10597000EFFFFF0010B5C178002001291AD1FFF711
:1059800051FEF448017842788378C478C4708370FB
:10599000427022021A4312040A4308211143017083
:1059A000ED484178827803780370827040220A4380
:1059B0004270012010BDC0462C0C002010B5C178EB
:1059C000002002291AD1E34948780A788B78CC78EC
:1059D000CC708B700A7022021A4312040302134324
:1059E000012082021A43120A4A70F4494A788B78DD
:1059F0000C780C708B70402313434B7010BDC04665
:105A000010B5C178002002291AD1D24948780A7805
:105A10008B78CC78CC708B700A7022021A431204F7
:105A2000030213430120C2021A43120A4A70E349D7
:105A30004A788B780C780C708B70402313434B7032
:105A400010BDC04610B50146CA780020012A1DD0FD
:105A5000022A20D1BF4948780A788B78CC78CC705C
:105A60008B700A7022021A431204030213430120AE
:105A7000C2031A43120A4A70D0494A788B780C78CC
:105A80000C708B70402313434B7010BD14310846CB
:105A9000FFF798FD012010BD0C0000202C0C002009
:105AA00010B50146CA780020012A16D0022A19D161
:105AB000A8498A7808784B78CC78CC704B700870FD
:105AC000012002438A70BD494A788B780C780C70AB
:105AD0008B70402313434B7010BD14310846FFF701
