:020000040000FA
:1000000078330020D5000000EF000000550F0000FD
:1000100000000000000000000000000000000000E0
:10002000000000000000000000000000F3000000DD
:100030000000000000000000F5000000DF120000DA
:1000400099100000A1100000A9100000B5100000D8
:10005000B90B000055170000A5170000B1170000EC
:10006000970F00009F0F0000B9120000C11200009E
:10007000650F00006D0F00003D17000045170000E0
:100080004D1700008B0F00005D1700006517000082
:100090006D1700008910000083180000C1100000D7
:1000A00027080000911000006F180000771800006A
:1000B0004F100000830F00004D0C0000B10B00003A
:1000C0000348854600F014FB00480047190800006B
:1000D0007833002009480A4A002100A1814200D952
:1000E0000244084802600848804708480047FEE785
:1000F000FEE7FEE7FEE7FEE7FEE700000000002067
:100100000000000008ED00E0F1160000C100000052
:1001100030B50B46014600202022012409E00D469F
:10012000D5409D4205D31D469540491B2546954027
:1001300040191546521E002DF1DC30BD70B500246B
:100140002546002801DA01244042002901DA012570
:100150004942FFF7DDFFAC4200D04042002C00D006
:10016000494270BD38B50446C0681821401E484356
:10017000A16840183C214843616840183C2148432D
:100180002168451860690C2148432169401869219C
:10019000C900401A3021FFF7D1FF114A50434219DC
:1001A000084600921A2902DB0E49511800910C21D1
:1001B000FFF7C4FF0C4A5043009A801800900B4888
:1001C00006E0491E425C074B5A43009BD21800923E
:1001D0000029F6DC2146684600F08AF8009838BD10
:1001E000801F8607805101008033E101E476000022
:1001F00003460B439B0703D009E008C9121F08C040
:10020000042AFAD203E00B780370401C491C521EEA
:10021000F9D27047D2B201E00270401C491EFBD2F5
:1002200070470022F6E710B513460A460446194601
:10023000FFF7F0FF204610BD10B5002200E0521C71
:10024000835C8C5CA34201D1002BF8D1D8B2E1B21F
:10025000401A10BD30B504460020034600E05B1C88
:10026000934203D2E05CCD5C401BF8D030BDF0B5CA
:100270001FB40646002082B005464024019100903C
:100280001BE0019922460F46304600F020F8049A00
:10029000059B801A994110D310461946224600F05A
:1002A00039FA361A8F410197224601200021009F1A
:1002B00000F030FA38184D4100902046641E0028A6
:1002C000DFDC019B00982946324607B0F0BD10B52F
:1002D000202A04DB0846203AD040002110BD0B46FE
:1002E000D340D0402024A21A91400843194610BDA3
:1002F00070B50C4600683C21FFF70AFF21603C21E5
:10030000FFF706FF61601821FFF702FF0546A160B5
:100310000721001DFFF7FCFEA1610F48A900081886
:100320000E49FFF7F5FE0246443288086261E0613B
:100330003B2802D3910700D0401C0021084B0A46FD
:100340002161995C814203D8401A521C2261F8E76E
:10035000401CE060204670BD6C0B0000B50500003D
:10036000F0760000F0B507460846584087B0C00F49
:10037000049048000E46590040084908BC1A8841BC
:1003800005D2384631461E4617460B4602465800EF
:10039000400810434CD0300D039040055900400DEB
:1003A000490D0590401A0290402872DA1803012185
:1003B000000B09050843019004980092002805D01D
:1003C00001995242002088410092019002984021F8
:1003D0000A1A0199009800F09DF905460C466B46F3
:1003E00007CB00F0A7F9C0197141039A0E0D002345
:1003F000D71756401A467A40164344D0049A002A2A
:100400002DD0029A012A039A15DC1205C01A9141D7
:1004100001263605001C7141D20F059ED2070093BC
:10042000019202962A46234600F0A4F907B0F0BDD7
:1004300038463146FAE71605224A0F46B218C01A66
:10044000B74101210905001C4F4100187F411146A9
:1004500018187941E20F10436D19644113E0E20767
:100460006D0815436408C2071443039A0126120558
:10047000C01A91413605001C7141CE074008304337
:100480004908C01851412A46234600F066F9CDE7D5
:10049000FFE7049801224000C117121A00238B4184
:1004A00004983146C417381AA141EEE730B401244C
:1004B000E407634030BC55E730B40124E4076140F1
:1004C00030BC4FE70000E0FFF0B51FB488B00B99D7
:1004D0000998002448400999C00F4900490809912A
:1004E000C0070B990090490049080B910999089899
:1004F000A64608431CD00B990A98084318D00998BF
:1005000001244000420D4800410D099824050003D4
:10051000000B204309900B980003000B20430B9025
:1005200050181C494018002201901446104605E05E
:10053000002001460DB0F0BD032801DA034600E0BB
:1005400003239C46C11A0AAE0AE05F0008ADED5BCA
:100550004F00F75B7D430027AA187C41491C5B1EB6
:100560006145F2DD410004AB5A522104120C0A43EA
:10057000240C401C0828DFDB01980290009970468B
:1005800001910090059B049A0799069800F0F2F8F3
:10059000D0E700000DFCFFFFF0B50C465C4085B0D5
:1005A000E40FE40703944C000026640859009446C5
:1005B000490802460296224321D062460A431ED0D1
:1005C0006200570D4A000E032303550D0124024615
:1005D0002C492405781B1B0B360B4018234326435C
:1005E000614600901C46501AB44103D30098401C49
:1005F000009002E0921800985B41002803DA002086
:10060000014605B0F0BD00200121090507468646D8
:1006100011E064461D46141BB54106D36546521BC6
:10062000B341744607430C43A646CD07400849082A
:10063000284392185B4105460D43EAD11046184302
:1006400013D06046194650407140084306D06046BA
:10065000101AB34106D20122002306E00022012332
:10066000DB0702E00122D2435310009874460105D3
:10067000381C6141029C039D0019694100F06DF82E
:10068000BFE70000FD0300004A0009030123090B36
:100690001B0519430A4B10B5520D9A4202DA00208D
:1006A000014610BD064B34339A4203DC9A1AFFF719
:1006B0000EFE10BD034BD21800F02CF810BD000048
:1006C000FF030000CDFBFFFF10B5002904DB012470
:1006D000E40740428C412146002B04DB1C460123E9
:1006E000DB075242A341994200D1904210BD000065
:1006F000064C0125064E05E0E36807CC2B430C3C75
:1007000098471034B442F7D3FFF7DEFC00790000BD
:100710002079000010B5202A04DB0146203A9140E0
:10072000002010BD914020239C1A0346E34019434A
:10073000904010BD10B5202A06DBCB170846203AA2
:100740001041C1170B4306E00B461341D040202453
:10075000A21A91400843194610BD10B5002B08DAC3
:100760000024401C614192185B411A4301D14008AA
:10077000400010BDF0B51FB482B005460C0003D098
:10078000084606F0A3FA02E006F0A0FA203002467E
:10079000009021462846FFF7BDFF049B059A0446BA
:1007A0000F4618431143084314D0184610431BD07A
:1007B000009840210A1A18460599FFF788FD05465A
:1007C0000E46009A05990498FFF7A4FF084305D048
:1007D000012004E02046394607B0F0BD0020C117D3
:1007E00005430E432C43374300990E986305401A86
:1007F0007905E40A00220C43FD0A0A3002D50020E4
:100800000146E9E70105101969410C9C0D9D00198D
:100810006941FFF7A2FFDFE780B500F069FF04F050
:100820001BFC002080BD80B500F0DAF8C046C04651
:1008300080BD000010B50421002846D0C168CA0060
:1008400018231A4049490C689C4314430C60826881
:1008500013680B6253684B6293688B62D368CB62F8
:10086000C368022B07D0012B11D113690B630B4610
:100870003433052408E013690B6353694B639369B0
:100880008B630B463C330724A40012591A6002689C
:1008900013680B6153684B6193688B61D268CA61BE
:1008A0000A68022313430B600B68012213430B6099
:1008B0000B681342FCD10A69406802604A694260D1
:1008C0008A698260C969C1600021084610BDC046BE
:1008D00010B50421002846D0C168CA0018231A4068
:1008E00022490C689C4314430C60826813680B62B5
:1008F00053684B6293688B62D368CB62C368022BE8
:1009000007D0012B11D113690B630B463433052437
:1009100008E013690B6353694B6393698B630B4660
:100920003C330724A40012591A60426813680B6113
:1009300053684B6193688B61D268CA610A6802236D
:100940009A430A600B68012213430B600B68134241
:10095000FCD10A69006802604A6942608A69826063
:10096000C969C1600021084610BDC046001402409C
:100970001F21090100010840394A13688B430343D2
:10098000136000207047C04602490A6882430A602B
:100990007047C046B42400403148016801229143A9
:1009A000016070472E48016801220A4302607047C7
:1009B0000120C0032A490A6802430A607047C04602
:1009C0000349096801400120002900D10846704709
:1009D000B0240040014800687047C046A024004091
:1009E00080B50120FFF7ECFF01280BD10120FFF7B4
:1009F000CBFFFFF7EFFF04490968002900D08847C3
:100A000000F034F880BDC0464403002070B50446B1
:100A10000420002C22D0124D01262E60022003F06B
:100A2000FBFA6068E168014320690843A16801435B
:100A300060690843296801432960B002216889027E
:100A400001406A6882430A436A60A0698000042109
:100A500008406A688A4302436A60002070BDC0464D
:100A6000042400400348012101607047014800212F
:100A700001607047C02400400748016802220A4014
:100A80000260704780B50448016801220A43026091
:100A9000022003F0C1FA80BD0024004001228A40F8
:100AA000D1430002014A815000207047140C0040DD
:100AB0000002034A8258CA40012010407047C046D5
:100AC000100C004010B50002034A8358094C1C402A
:100AD0000C438450002010BD000C004010B50002F3
:100AE000034A8358034C1C400C438450002010BD23
:100AF000040C00400000FFFF00022C494258012373
:100B000013434350002070470002284942580123F4
:100B10009A43425000207047000224494258012362
:100B20009B021343435000207047C04670B5032218
:100B300013030A6814031C4000021C4A85589D4395
:100B40002543855001235C024D686D02254086587F
:100B5000A6432E4386500C7A85581E02B5431C408E
:100B600023022B438350CB681B01702423408558FC
:100B7000A5431D4385500B7CDB000824234085588A
:100B8000A5431D4385504B699B0004242340855891
:100B9000A5431D43855089694900022319408458A3
:100BA0009C430C438450002070BDC0460C0C004098
:100BB00080B5C046C04680BD80B5C046C04680BD39
:100BC00070B5002805DB1F23034001249C401B4B0C
:100BD0001C60C30018241C408901CBB2A340FF2134
:100BE000A140CC431649002805DB03250646AE4349
:100BF000154D751906E00F250540083D0326B54340
:100C0000104EAD192E6826401E432E60012A07D1D2
:100C1000002811DB1F221040012282400A6070BDB3
:100C2000002809DB1F2210400122824080200A5048
:100C3000BFF34F8FBFF36F8F70BDC04680E200E0FF
:100C400000E100E01CED00E000E400E080B5C046FB
:100C5000C046C046C04680BDF0B589B00D460446CA
:100C6000FF26089668462021FFF7DBFA04200C2CAB
:100C700032D801221146A140184B19422CD0500203
:100C800017490B6A83431540680218430862002025
:100C9000144A05E08300D55865436F46FD50401C5B
:100CA0000828F7D10022134613E008969C006846F6
:100CB00005590AE0089F781E08900720002F0BD0E6
:100CC0006448C8626448C8620D510859A842F1D10D
:100CD0005B1C072BE9D9104609B0F0BD5611000086
:100CE0000000024068780000FFB5FF2102910391E7
:100CF00004210190420C43D102980390544A116898
:100D00001024214206D0039A511E03910921002A82
:100D1000F4D135E04F4DD5604F4ED66000200090A5
:100D2000C1431161D560D6605161029803900CE017
:100D3000039B591E03910921002B21D0D560D66059
:100D40001168B94302230B4313601168032739402C
:100D50000229EDD101980099017002980390106862
:100D6000204206D00398411E039109210028F6D1A4
:100D700006E0D560D66000991161D560D6605161FA
:100D8000084604B0F0BDC0463149324ACA60324A12
:100D9000CA6080000C2210400B68934303430B6031
:100DA00000207047FFB50091FF210191039144029B
:100DB0000420610C4AD101980390254A106810263E
:100DC000304206D00399481E039009200029F4D12F
:100DD0003CE02049D160204FD7600023D843106108
:100DE0000291D160D7605061019803900DE00399A2
:100DF000481E03900920002928D00298D060D760AF
:100E00001068A843012101431160106803252840A0
:100E10000128ECD1009D03E09800295821505B1C6B
:100E2000802BF9D1019803901068304206D00399C5
:100E3000481E039009200029F6D107E00299D160ED
:100E4000D76000201061D160D760506104B0F0BD60
:100E5000200002405A5A0000A5A5000002460120C9
:100E600003468B4011681940002900D1084670479D
:100E700080B5034A8018012200F026FA002080BDC8
:100E8000140D024080B5024A8018FFF7E7FF80BDCD
:100E9000040D0240FEB515460E4601901C49471848
:100EA00038460C300024314622460294194B9847AC
:100EB000B000019908181C494450384608302A7877
:100EC0003146144CA0472A7938463146A047384667
:100ED0001C302A7A3146A047384620302A7B3146DA
:100EE000A047384624302A7C3146A0472C372A7D3B
:100EF00038463146A047A8690121C903064A13684C
:100F00008B43C00380B218431060029803B0F0BD59
:100F1000000D0240C9120000080F0240890040186D
:100F20000149425000207047000C024080B5034A3E
:100F30008018012200F0C8F9002080BD0C0D02408D
:100F400080B5034A8018012200F0BEF9002080BD60
:100F5000100D024081B00020009000980028FCD0C5
:100F600001B0704780B5C046C04680BD80B5C04660
:100F7000C04680BD8168C068091A0020401A4841F7
:100F8000704780B5C046C04680BD80B5C046C046EB
:100F9000C046C04680BD80B500F05EF880BD80B51B
:100FA000C046C04680BD10B514300024224600F073
:100FB0008BF9204610BD10B5001D0024224600F01C
:100FC00083F9204610BD80B5001D012200F07CF998
:100FD000002080BD80B51030FFF740FF80BD0000CD
:100FE000F8B50546042400291FD000246C60CCC944
:100FF00008681E4306433E4316436E608023134336
:101000002E1D1039C02B10D1C009094A024009A079
:10101000805A8A69824048691146FFF779F8A861C9
:1010200004210122304600F04FF9204601B0F0BD06
:10103000FCFFFF01040000000300000002000000AC
:101040000268FF239A430A4302600020704780B57C
:10105000C046C04680BD000080B503480068002837
:1010600000D0804780BDC046580B002005490A6863
:10107000042313430B600122824008681043086078
:1010800030BF704710ED00E080B5C046C04680BD5F
:1010900080B5C046C04680BD80B5C046C04680BD54
:1010A00080B5C046C04680BD80B5C046C046C0467B
:1010B000C04680BD80B5C046C046C046C04680BD63
:1010C00080B500F033F880BD80B579480321002257
:1010D00000F0FAF880BDC04680B5024659480721A5
:1010E00000F0F2F880BDC04670B5FF230233042241
:1010F00098420FD20122D503074C2668AE43C9039C
:1011000089B231432160FE3318402168034B0B4004
:1011100003432360104670BD3014004000FEFFFF03
:1011200080B563480321FFF799FE80BD80B5FFF7C6
:10113000F7FF012801D1FFF7C7FF80BDB0B5044616
:101140000020FFF7C9FF2068C000082108403D4D7E
:101150002A688A4302432A60201D00F04DF80720C8
:1011600000022169090201406A6882430A436A60F9
:101170006169208BFFF7B8FF1A34204600F064F84D
:10118000B0BDC04670B52F4A1168802319420FD0F8
:10119000516801240C43546016490C46002C04D0BD
:1011A000611C556802263542F7D00921641C1FD006
:1011B00091680170D1684170156814691F21214040
:1011C0000826354200D0214681709169017151692C
:1011D000C170D1694171116A8171506801218843E0
:1011E00050601068002101E0506802231842FBD1D2
:1011F000084670BD18FCFFFFB0B501218A030168E5
:101200008B0313400F490C6894431C430C60036824
:101210000022012B07D0002B11D180680724204029
:101220000B68A34309E0047904203F2C08D83F2031
:1012300005020B68AB4304402002184308601046C7
:10124000B0BDC0460014004070B50321CB43184A1E
:10125000D158802421420ED0116801250D4315601C
:101260007D21CD006D1E0921124E35421DD0116821
:1012700002263142F6D00178516041789160817840
:10128000D16001795161417991618179D161C078F1
:1012900010611068012188431060D058002120425D
:1012A00003D0106802231842FBD1084670BDC04627
:1012B00004140040FFFF000080B5C046C04680BD5A
:1012C00080B5C046C04680BD01238B40012A02D1B3
:1012D0000168194301E0016899430160704780B5D6
:1012E000C046C04680BD000010B50246984B9948E4
:1012F0009860994898600420042A6CD87A4412793E
:101300005200974402142B3E560001200029024649
:1013100000D10A461C68844314431C600020002945
:1013200059D0D9680122D2021142FAD053E02B4899
:1013300002680324144304601868022290430122C7
:10134000002900D10A4652001043186000200029ED
:1013500041D0196940221142FBD03CE018680422B8
:1013600090430122002900D10A46920010431860E0
:10137000002000292FD05969012212031142FAD00E
:1013800029E003208003144A146804431460186899
:10139000082290430122002900D10A46D2001043BE
:1013A00018600020002916D0996940221142FBD014
:1013B00011E01868102290430122002900D10A464A
:1013C0001201104318600020002904D0D96B0122BB
:1013D00092041142FAD010BD8C0D02404C1D024007
:1013E000F0B58AB0B148018807914188069181889B
:1013F0000491C1880291058C0B20C143CA4A505800
:10140000440907231C400120C603C94808903648F8
:101410000090364801903648039036480590364F84
:101420007B48042C099124D87C4424796400A74487
:10143000025422292B001068089908400799884215
:1014400038464AD01068089908400699884205989D
:1014500043D01068089908400499884203983CD00A
:1014600010680899084002998842019835D0009880
:1014700033E0002031E09068AA4901404B2040024F
:10148000A9422AD0304628E0116B03240C40032CDB
:1014900005461DD1106808990840079988423D46C5
:1014A00016D010680899084006998842059D0FD00B
:1014B00010680899084004998842039D08D0106874
:1014C0000899084002998842019800D00098054682
:1014D000106B41090F200840684309995158090AC7
:1014E0001940C8400AB0F0BD00093D0000127A0062
:1014F0000024F4004086510100366E0180B5FFF7EC
:101500006FFF75490968C90A03220A40D04080BDAF
:101510007149724A8A60724A8A6007221202000286
:1015200010400B68934303430B6000207047C04694
:1015300069496A4A8A606A4A8A600322D202C00202
:1015400010400B68934303430B6000207047C04674
:10155000002000405A5A0000A5A50000F0B5534AEB
:10156000118856889588D38884686F4A032C23D1C4
:1015700017686F4C27408F4203D1C7680621022F9E
:1015800044D811682140B14203D1C6680621022E19
:101590003CD811682140A94203D1C5680621032D1A
:1015A00034D81168214004460C3499420DD1236887
:1015B0000621062B09D929E0C168154B4B43044687
:1015C0000C340621134DAB4220D803214B03056890
:1015D0006D031D40166B9E432E43166343689B00AC
:1015E0001C252B40166BAE431E4316630F235B0175
:1015F000246864011C40156B9D4325431563806876
:101600000840136B8B430343136300210846F0BD6E
:101610000048E801006CDC0270B50C460546A806DF
:101620000C4802D4294622460FE020218D43061D96
:10163000304629462246FFF747FE0748032D01D1D1
:10164000047004E0027803213046FFF73DFE0020DD
:1016500070BDC04620200040640B002040001349AC
:10166000405A3349014030480268324B13400B4323
:10167000036000207047C0460321890280020840B1
:101680000B4A13688B430343136000207047C04626
:1016900040000649405A2349014005480268234B4F
:1016A00013400B43036000207047C046000C10003D
:1016B0001420004080B50849084A8A60084A8A60B8
:1016C0000A68E0239A434001C0B21043086000F06A
:1016D00009F8002080BDC046002000405A5A000092
:1016E000A5A5000080B5FFF77BFE1349086080BD0B
:1016F00010B50B49488B0B4A02400B4883680B4CD2
:101700001C40144384600988094A0A400168094B57
:101710000B4013430360FFF763FE0749086010BDE9
:10172000080C1000FF0300000C20004000FCFFFF2D
:10173000FF07000000F8FFFF1400002080B500F054
:1017400019F880BD80B5C046C04680BD80B5C04692
:10175000C04680BD80B5C046C04680BD80B5C0468D
:10176000C04680BD80B5C046C04680BD80B5C0467D
:10177000C04680BD80B500200146FFF799F90128D9
:101780000AD106480168491C016005480121017021
:1017900000200146FFF782F980BDC046680B00209B
:1017A0002000002080B500F009F8C046C04680BD8A
:1017B00080B5C046C046C046C04680BD80B503481F
:1017C0000068002800D0804780BDC0465C0B002028
:1017D00010B5143000242246FFF776FD204610BDD8
:1017E00010B5001D00242246FFF76EFD204610BDF7
:1017F00080B5001D0122FFF767FD002080BD80B588
:101800001030FFF72BFB80BD70B50546042400297E
:101810001ED000246C604CC908681E430643164362
:101820006E60802313432E1D0C39C02B10D1C009CC
:10183000084A024008A0805A4A6982400869114655
:10184000FEF766FCA861042101223046FFF73CFD4B
:10185000204670BDFCFFFF010400000003000000F3
:101860000268FF239A430A4302600020704780B554
:10187000C046C04680BD80B5C046C046C046C046D2
:1018800080BD80B5C046C04680BD000002481E2114
:101890000160E12101607047800F004010B50F2208
:1018A0001140074B1C6894430C431C6040012021ED
:1018B00008401A688A4302431A60002010BDC046DF
:1018C000840F004010B51B4C2278501E6321002A63
:1018D00000D1084620700321084203D102F02AF902
:1018E00004F012FC02F080FD002802D005F062F93D
:1018F00005E020780521FEF70BFC0029F6D02078C2
:101900000F21084202D102F0BFF820780C2804D041
:1019100003280DD103F076FC10BD6088002802D0AA
:10192000401E608010BD4B20C000608001F0F0FFC1
:1019300010BDC0461000002080B500200621FFF732
:10194000F5FA80BD80B502F061FE80BD10B5044699
:1019500002F016FE164801784A1C02708A008218AE
:101960009460002902D002F09BFB10BD00210170A1
:10197000816841600F48027843781B0213438278E4
:1019800012041A430C4B994208D80270110C817052
:101990000121C90311430A0A427000E01146017097
:1019A0000A0C8270012292020A43110A417010BD92
:1019B000F00000206C0B0020890C000080B503F0C3
:1019C0000AF880BD80B503F016F880BD80B5012807
:1019D00007D10A4804F010FB05480121016008A066
:1019E00003E003480221016002A002F081FD80BDF6
:1019F0003401002063683D3438350000896B0000F5
:101A000063683D7A6762000070B50446012C17D107
:101A10001C200125174E2946B04708202946B0470B
:101A200000202946B04728462946B04702202946CB
:101A3000B0471F202946B0470F202946B0470FE086
:101A400008200C4D2146A84700202146A847012028
:101A50002146A84702202146A8471F202146A84723
:101A600010202146FFF7D8FD1B202146FFF7D4FDAB
:101A700070BDC0461916000080B508A002F038FD00
:101A80002748017802220A43027002F024FE322025
:101A90000121034A04F0D6FC80BDC0464353000038
:101AA0000120000070B502F010FE02F01AFE02F0F4
:101AB00024FE0E4C267801252E4001F005FE2178EB
:101AC000864208D1FB2008402070294207D002F04E
:101AD00019F8207803E00420014321700846FD2115
:101AE0000140217002A002F003FD70BD3408002007
:101AF0004346000010B50A4C2078C00702D102F01E
:101B0000F6FD01E002F017FE20780124204001F0EC
:101B1000E3FD4B20034A214604F094FC10BDC0466F
:101B200034080020A51A0000BCB55C4C01212046F9
:101B3000FFF750FA002821D001212046FFF733FAA1
:101B4000544DA86804F030F9297F012806D10320FC
:101B500001432977E87F21216854BCBDFE20014064
:101B60002977A86801A904F0C5F8012806D101A8C1
:101B700000782168FF229143014321600021204623
:101B8000FFF728FA002812D000212046FFF70BFAB1
:101B9000216801A801703F4C6068C9B204F0BEF82A
:101BA000A07F20216054207FFB2101402177BCBD14
:101BB0007CB5384C207FC0072FD02120215C002924
:101BC00004D0491E2154FF20014226D12069FFF78D
:101BD000D1F9002821D120692F4D2946224602F053
:101BE00049F8012819D1002604E00178A06804F022
:101BF00095F8761CA81921688E42F6D3A06801A931
:101C000004F078F8012808D101A801782348FFF7EB
:101C100017FA207FFE2101402177207F0221084210
:101C200007D0FD2108402077A169002901D088470D
:101C3000207F40071DD42020215C002904D0491EAC
:101C40002154FF20014214D10025134E05E06068A5
:101C500004F050F8052803D06D1C71197F2DF6DDB6
:101C6000E0680D492A4603F051F9207F0421014321
:101C70002177E068FFF77EF900280AD1E06806497D
:101C8000224601F0F7FF6269002A02D0216802486B
:101C900090477CBD3000002050050020000200402D
:101CA000F0B587B06C461C21204601F0D9FF002713
:101CB00001974025284639462246FFF7EBF80326D0
:101CC000284639463246FFF729F9012001900B27B3
:101CD000284639462246FFF7DDF82846394632467F
:101CE000FFF71CF907B0F0BDB0B50446CDB22946E8
:101CF00001F0E4FF01280BD002F07EFB002807D0A2
:101D000002F06EF9002803D02046294604F03CFF7B
:101D1000B0BD704780B502F029FF80BD10B50848FE
:101D2000017842788378C478C4708370427022024C
:101D30001A4312040A4340211143017010BDC046EA
:101D40000C00002070B504464E4DA9684EA02246F6
:101D500002F0CEFBA868A04200D192E0601E0428E9
:101D60000FD8C046784400794000874402122F57AC
:101D700073000120A8601920FF21474A04F062FB8C
:101D80007EE02046523802287AD352A002F0B0FBFF
:101D900070BD01F045FD41480178427812020A43C6
:101DA00081780904114301225204114206D03D4AB0
:101DB000114001700A0A4270090C81704B20C0006A
:101DC000E86039A01E2102F093FB59E0334E3078D1
:101DD000717809020143B078000408433549014095
:101DE0003170080A7070080CB07003F001FA002816
:101DF00032D03078717809020143B078000408438A
:101E00000421084237D1324A1040020A727001435D
:101E10003170000CB07003F0C7FA2FE01F48017852
:101E200082784378437082701B020B43110419437C
:101E300002220A43027001F0D5FC19490A783C21BC
:101E4000002A00D001463C2800D30146084602F093
:101E50009BFA15E00F4812E00020E8603078B17876
:101E600072787270B17012020243080410430821A4
:101E70000143317004E010A002F03AFB3C20E8601E
:101E8000AC6070BDE00000200D0A445325642D2590
:101E90006400000070170000F51E00006C0B0020AD
:101EA00008000020FFFFFD006465627567536563ED
:101EB0003D256400F3FFFE006742312E6374726CAF
:101EC0005061636B54783D312065727200000000F0
:101ED000F3FFFF000D0A2A2A2A2A2A2A205F6465B6
:101EE00076537461746553657420457272202A2A92
:101EF0002A2A0000B0B5294DA86802280ED0532820
:101F000011D0052819D052281CD003282CD1E868FC
:101F1000002831D123A002F0EBFAB0BD28680028D8
:101F200023D0401E24E0EC6828212046FEF7F0F87C
:101F3000002911D103F014F90DE0E86800281BD145
:101F40000E200FE0EC6814212046FEF7E1F800298E
:101F500002D104F097FDEC68002C02D0601EE8600E
:101F6000B0BD0C2002F0C8F8B0BD03F01DFA64202B
:101F70002860E868002802D0401EE860B0BD03F089
:101F800093FF0028F0D1064880780004C003EBD40A
:101F900001F0C2FD0028E7D10420E3E7E0000020C3
:101FA0006C0B0020726561644374726C496E666FDD
:101FB000456E6400B0B588B001AC1C21204601F02C
:101FC0004FFE002502950495059502F0D9FA0521EA
:101FD00028462246FEF75EFF08B0B0BDB0B5044605
:101FE00065022846FEF780FE0028FAD10349204604
:101FF000FEF7D8FE0021091A4841B0BD4401002077
:1020000080B502F05CFB0120024A014604F038FA78
:1020100080BDC046F51A0000B0B50224522806D093
:10202000652803D0532813D1032400E00424E0B230
:102030006D4D2978814204D16A480078FF2800D08C
:10204000B0BD00F07DF86C702C7000F06DF8B0BD84
:1020500000F076F8B0BDC04680B500F071F880BDE4
:1020600010B588B001AC1C21204601F0F9FD01201B
:102070000290002004900590412080010521224615
:10208000FEF708FF08B010BD10B588B001AC1C21E8
:10209000204601F0E5FD02F0A2FC00200290049031
:1020A000059004212246FEF7F5FE02F098FC08B0E8
:1020B00010BD0000FEB51A490868401C08600022E7
:1020C000184D17461FE03378354610350027002B92
:1020D00017D0B06812490968081A0127002810D0E3
:1020E000019302927168FEF713F8002908D1019854
:1020F000FF2801D0401E3070F068002800D08047D3
:10210000029A2743521C3C462E46D0B21328DAD9F5
:10211000200600D0FEBD02F08DFD00F067FFFEBD81
:1021200038010020180A002080B5FFF74BFC9620EC
:1021300001212E4A04F086F92A49087080BDC04664
:1021400080B5284804F0A3F927480021018080BD0C
:1021500010B502F01FF904464F2C0ED8FFF77CFF94
:102160000B480178491C0170052C0DD0032C08D0B8
:10217000022C06D102F044FC10BD2046FFF74CFFB4
:1021800010BD02F028FC10BD02F035FC10BDC046A9
:102190004803002010B5134CFF202070FFF70EFC01
:1021A00096200121024A04F04DF9207010BDC0466E
:1021B000B5210000B0B50B4CFF2020700A4D681C03
:1021C00001F064FB6878002805D0FFF7FBFB962040
:1021D0000121064A02E006480121064A04F032F9CC
:1021E0002070B0BD19000020D4000020952100000F
:1021F0005203000011300000B0B504460E4D2968AE
:10220000A14217D00DA0224602F072F902F0FCF8AC
:10221000012C08D100280CD07A20002101F06CFF9D
:1022200004F0DEFA05E0002803D14820002101F087
:1022300063FF2C60B0BDC046600B00200D0A5A53EE
:1022400025642D256400000010B5DD4800790024C8
:10225000800707D5DB4882680124002A02D00C30B1
:102260000F219047204610BD10B5D54800790024B5
:10227000C00707D0D34882680124002A02D01B304F
:102280000F219047204610BD10B501F087F90028B6
:1022900010D00C4C611C204601F07AF8002802D1C5
:1022A0000AA002F025F908488268002A09D061785E
:1022B000204605E004488268002A02D0014841789F
:1022C000904710BD28090020000100205F6E327386
:1022D0005478205831000000B0B5DA4909798906F0
:1022E0000024002928D5002808D0D148826801247C
:1022F000002A21D0CF48417890471DE0CD4C2046A0
:10230000143003F089F81120E07300202074607409
:1023100021461231042004F0F7F9AB4D697B03200C
:10232000224604F0DAF8FFF7AFFF082004F014F9B2
:10233000687BE049087001242046B0BDFEB5DC4949
:102340000979C9060024002929D5002808D0D948D0
:1023500082680124002A22D0D748417890471EE0A5
:1023600003F05FF802AB1870D34D28460F30694672
:1023700001240C604860002003260146324602F02A
:1023800067F8CE4F797B30462A4604F0A6F8FFF76F
:102390007BFF082004F0E0F8787BE84908702046CD
:1023A00003B0F0BD1FB5E4494979C90600240029EE
:1023B00037D5002808D0E14882680124002A30D0AF
:1023C000DF48417890472CE003AC204603F03FF80B
:1023D000DB480F30694602220A604860002017225D
:1023E0000146234602F034F804F0AEF800280CD081
:1023F000D44C617B0320D24A04F06FF8082004F02B
:10240000ABF8607BEA49087008E0E9480178491CAC
:102410000170C9B20320E74A04F05FF8FFF734FF08
:102420000124204604B010BD7FB5E0494979490632
:102430000024002928D5002808D0DD48826801241E
:10244000002A21D0DB48417890471DE003F01AF8BC
:1024500003AB1870D74D28460F30694601240C6035
:10246000486000202722014601F0F2FFEE4E717B0A
:1024700003202A4604F031F8FFF706FF082004F095
:102480006BF8707BE6490870204604B070BDC0460A
:1024900070B5E249097949070024002928D50028A8
:1024A00008D0DF4882680124002A21D0DD48417825
:1024B00090471DE0DB4D2846143002F0D1FF092083
:1024C000E8730020287468742946123101242046DC
:1024D00004F01AF9D44E717B03202A4603F0FDFF65
:1024E000FFF7D2FE082004F037F8707BEE49087041
:1024F000204670BD7FB5EB49497989060024002943
:1025000028D5002808D0E84882680124002A21D074
:10251000E648417890471DE002F0CBFF03AB18700E
:10252000E24D28460F30694601240C6048600020C7
:102530002622014601F08CFFDD4E717B03202A46E6
:1025400003F0CBFFFFF7A0FE082004F005F8707B36
:10255000F2490870204604B070BDC046B0B5EE49DF
:10256000897989070024002928D5002808D0EB485C
:1025700082680124002A21D0E948417890471DE073
:10258000E74C2046143002F0BFFF401DE0730020EE
:1025900020746074214612312A2004F0B5F8E14D10
:1025A000697B0320224603F098FFFFF76DFE0820A9
:1025B00003F0D2FF687BF849087001242046B0BDC3
:1025C00008000020000100203808002010B5F14963
:1025D000C97989070024002928D5002808D0EE48A9
:1025E00082680124002A21D0EC48417890471DE000
:1025F000EA4C2046143002F09BFF401DE07300209F
:1026000020746074214612312A2004F07DF8E248DB
:102610000178491C0170C9B20220224603F05DFF17
:10262000FFF732FE082003F097FF0124204610BD7B
:102630000001002028090020F2484068C10801205C
:1026400008407047080000207FB5EE4949794907E6
:102650000024002928D5002808D0EB4882680124EE
:10266000002A21D0E948417890471DE002F080FF20
:1026700003AB1870E54D28460F30694601240C6005
:10268000486000201522014601F0E2FEE04E717B19
:1026900003202A4603F021FFFFF7F6FD082003F090
:1026A0005BFF707BF6490870204604B070BDC046E1
:1026B0000800002000010020280900203808002020
:1026C0001CB5EE49497909070024002931D50028B5
:1026D00008D0EB4882680124002A2AD0E9484178D2
:1026E000904726E0E7490F316A46002003C21622D0
:1026F0000146034601F0ACFE03F026FF00280CD093
:10270000E14C617B0320DF4A03F0E7FE082003F081
:1027100023FF607BF949087008E0F8480178491CFC
:102720000170C9B20420F64A03F0D7FEFFF7ACFDF2
:102730000124204602B010BD080000200001002046
:102740002809002038080020B0B5EB49497909066E
:102750000024002928D5002808D0E84882680124F0
:10276000002A21D0E648417890471DE0E44C2046FD
:10277000143002F0B7FE0920E0730020207460746A
:1027800021461231282003F0BFFFFB4D697B032057
:10279000224603F0A2FEFFF777FD082003F0DCFEDF
:1027A000687BF349087001242046B0BD0800002072
:1027B0000001002028090020B0B5EC498979C9073B
:1027C0000024002928D0002808D0E9488268012484
:1027D000002A21D0E748417890471DE0E54C20468B
:1027E000143002F0C7FE0D20E073002020746074E6
:1027F00021461231292003F087FFFC4D697B03201D
:10280000224603F06AFEFFF73FFD082003F0A4FE16
:10281000687BF449087001242046B0BD0800002000
:102820000001002028090020380800201CB5F649C6
:10283000097949060024002931D5002808D0E94843
:1028400082680124002A2AD0E7484178904726E090
:10285000E5490F316A46002003C2052201460346BE
:1028600001F0F6FD03F070FE00280CD0DF4C617B18
:102870000320DD4A03F031FE082003F06DFE607B8B
:10288000D849087008E0D7480178491C0170C9B2DE
:102890000420D54A03F021FEFFF7F6FC0124204670
:1028A00002B010BD0800002000010020280900200F
:1028B00038080020B0B5D449097909060024002958
:1028C00028D5002808D0C74882680124002A21D0D2
:1028D000C548417890471DE0C34C2046143002F0B3
:1028E0006CFE0920E07300202074607421461231D0
:1028F000122003F009FFBD4D697B0320224603F03F
:10290000ECFDFFF7C1FC082003F026FE687BB5490B
:10291000087001242046B0BD0800002000010020FE
:102920002809002038080020002070477FB5B649EC
:10293000497989070024002928D5002808D0A9480A
:1029400082680124002A21D0A748417890471DE0E1
:1029500002F045FE03AB1870A34D28460F306946C0
:1029600001240C60486000201422014601F070FD33
:102970009E4E717B03202A4603F0AFFDFFF784FCD7
:10298000082003F0E9FD707B96490870204604B0EA
:1029900070BDC0460800002000010020280900206A
:1029A000B0B5F6494979C9070024002928D0002884
:1029B00008D08C4882680124002A21D08A484178B6
:1029C00090471DE0884C2046143002F00AFE092092
:1029D000E07300202074607421461231132003F04C
:1029E00093FE824D697B0320224603F076FDFFF7BC
:1029F0004BFC082003F0B0FD687B7A490870012485
:102A00002046B0BD08000020000100202809002059
:102A1000380800207FB5F0498979C90600240029CB
:102A200028D5002808D06F4882680124002A21D0C8
:102A30006D48417890471DE002F0E5FD03AB18704A
:102A4000694D28460F30694601240C60486000201B
:102A50009922014601F0FCFC644E717B03202A465A
:102A600003F03BFDFFF710FC082003F075FD707BC1
:102A70005C490870204604B070BDC04608000020C4
:102A80000001002028090020380800207FB5ED490A
:102A900089790906002400292AD5002808D0514840
:102AA00082680124002A23D04F48417890471FE0D4
:102AB00003AD284602F0ABFD4B4C20460F30694673
:102AC00003260E6048600020A12201462B4601F03B
:102AD000BFFC464D697B3046224603F0FEFCFFF703
:102AE000D3FB082003F038FD687B3E4908700124C1
:102AF000204604B070BDC046080000200001002040
:102B0000280900207FB5E7498979C90600240029F2
:102B100028D5002808D0334882680124002A21D013
:102B20003148417890471DE002F075FD03AB187005
:102B30002D4D28460F30694601240C604860002066
:102B40009E22014601F084FC284E717B03202A4618
:102B500003F0C3FCFFF798FB082003F0FDFC707B3B
:102B600020490870204604B070BDC046080000200F
:102B70000001002028090020380800207FB5DA492C
:102B8000897949060024002928D5002808D015484D
:102B900082680124002A21D01348417890471DE023
:102BA00002F03DFD03AB18700F4D28460F3069460B
:102BB00001240C6048600020A022014601F048FC7E
:102BC0000A4E717B03202A4603F087FCFFF75CFB6B
:102BD000082003F0C1FC707B02490870204604B055
:102BE00070BDC046000100202809002038080020E0
:102BF000BD484068C10C012008407047BA48406891
:102C0000810C01200840704708000020B0B5044640
:102C1000184D281D03F0BEFDA868022802D12046E9
:102C2000FFF790F8B0BDC04610B50146114C201D0D
:102C300003F0ACFDA068052800D110BD6168002933
:102C40000CD00DA001F054FC60680121084209D1AC
:102C5000C0060BD40FA001F04BFC10BD0220FFF703
:102C600071F810BD5220FFF76DF810BD5320FFF72B
:102C700069F810BDE00000205F6F6E457272546FFE
:102C80004F6B5F6465764572724269743D253038DA
:102C900058000000206F6E457272546F4F6B5F5882
:102CA0003100000070B500F0A3FE002837D02148A5
:102CB000FF21017020480178427813020B4381788C
:102CC0000A041A43130C01210B401C4C2578AB421B
:102CD0000FD00E041346B3433243002D00D01346E9
:102CE00003701A0A42701A0C8270114014A001F08D
:102CF000FFFB601C02F069FC6079002817D000F02F
:102D00005EFE637A227AE179A07900F052FC00F04D
:102D1000F5FEA07A002809D000F0F4FE70BD012075
:102D20000A4A014603F08EFB0249087070BD00F0AC
:102D300041FE70BD180000206C0B0020D80600205A
:102D400069734462673D256400000000A52C000003
:102D500080B501F00BFF80BDA3484168022291437A
:102D600041607047A048416801229143416070472B
:102D70009D4841682022914341607047080000202F
:102D80009948416810229143416070470120000337
:102D900095494A6882434A607047C04601208003D3
:102DA00091494A6882434A607047C0468E484168EC
:102DB0000422914341607047012040038A494A68D8
:102DC00082434A607047C0460120400486494A68F1
:102DD00082434A607047C046080000200120400638
:102DE00081494A6882434A607047C0467E484168CC
:102DF0000822914341607047012080027A494A6865
:102E000082434A607047C0460120C00276494A6842
:102E100082434A607047C0460120C00372494A6835
:102E200082434A607047C046012000046E494A68E8
:102E300082434A607047C0466B48416840229143D4
:102E40004160704708000020674841688022914334
:102E5000416070470120000663494A6882434A6026
:102E60007047C046012040025F494A6882434A6079
:102E70007047C046012000025B494A6882434A60AD
:102E80007047C0460120000557494A6882434A609E
:102E90007047C0460120C00553494A6882434A60D2
:102EA0007047C04608000020012040054E494A688E
:102EB00082434A607047C046012080054A494A68FB
:102EC00082434A607047C0460120C00446494A68B0
:102ED00082434A607047C0460120800442494A68E4
:102EE00082434A607047C04608000020B0B503F036
:102EF00047FA002803D103F037F8002800D0B0BD0E
:102F0000064C074D2046294603F0EAF92978204669
:102F100003F076F801F0D6F8B0BDC046E806002010
:102F2000E406002070B514280FD80401354D2E1981
:102F3000716033480068B0602A55F360002A04D0FD
:102F4000002802D1014801F06BFE70BDB5200000E1
:102F5000F8B50E460746144C204639463246FDF772
:102F600047F9204601F088FA01280BD1E0780328C0
:102F700003D0617B202000F021F8052003F0ECFA5B
:102F800001250DE009A00025394632462B4601F007
:102F9000D9FA617B222000F011F8062003F0DCFA58
:102FA000284601B0F0BDC046380800205F74787430
:102FB0004672616D6545786500000000B0B50C464D
:102FC000084D68762846103003F02AFE2C760C3522
:102FD0000021284602F0EFFE0348416802220A431E
:102FE0004260B0BD000100200800002080B5044808
:102FF0000021016005208201024800F032FC80BD02
:1030000038010020180A002080B501F049F880BD81
:1030100080B50448FF210170034801784170FFF733
:1030200083F880BD19000020D4000020BCB5012128
:103030008C072046FEF7E3FB002821D00121204623
:10304000FEF7C6FB554DA86802F0AEFE297F0128A9
:1030500006D1032001432977E87F21216854BCBDB4
:10306000FE2001402977A86801A902F043FE01284B
:1030700006D101A800782168FF2291430143216015
:1030800000212046FEF7BBFB002812D0002120467D
:10309000FEF79EFB216801A80170404C6068C9B230
:1030A00002F03CFEA07F20216054207FFB210140E4
:1030B0002177BCBD7CB5394C207FC00730D02120A2
:1030C000215C002904D0491E2154FF20014227D150
:1030D0002069FDF74FFF002822D12069304D294695
:1030E000224600F0C7FD01281AD1002604E001782D
:1030F000A06802F013FE761CA81921688E42F6D350
:10310000A06801A902F0F6FD012809D101A8017803
:1031100001208007FEF7A4FB207FFE2101402177DC
:10312000207F0221084207D0FD2108402077A169B5
:10313000002901D08847207F40071DD42020215C32
:10314000002904D0491E2154FF20014214D100253A
:10315000134E05E0606802F0CDFD052803D06D1C1C
:103160007119FF2DF6DDE0680D492A4601F0CEFE0B
:10317000207F042101432177E068FDF7FBFE002852
:103180000AD1E0680649224600F074FD6269002A0F
:1031900002D02168024890477CBDC04660000020F4
:1031A000D4050020F0B587B06C461C21204600F005
:1031B00057FD002001904025062728463946224623
:1031C000FDF768FE0226284639463246FDF7A6FE80
:1031D000012001900727284639462246FDF75AFE6E
:1031E000284639463246FDF799FE07B0F0BD00008B
:1031F000B0B50546CCB211A001232946224601F004
:10320000A1F9082C02D30F480321017001F0F4F852
:10321000002808D000F0E4FE00280ED02846214601
:1032200000F0E4FEB0BD2846214603F00FFB012864
:1032300003D02846214602F06BFFB0BD7A72783A7F
:1032400000000000080000207047000080B501F079
:1032500045FE1148017882784378437082701B02E2
:103260000B431104194340220A43027080BDC0463B
:1032700080B501F03FFE08484178827803780370FA
:1032800082700902194312040A4301210902114301
:10329000090A417080BDC0466C0B0020F0B58DB0AE
:1032A0000C460546287803F0A9F9002819D02078A3
:1032B00003F0A9F9002816D020786978814214D14A
:1032C000A878AE1C03F019FA002810D0307803F06B
:1032D00012FA00280DD02078C01C000710D01FA0C3
:1032E00008E028A006E024A004E01B4802E01FA09C
:1032F00000E01D4801F0FCF8002738460DB0F0BD95
:10330000019609A9284600F037F902942078049024
:103310000D2603950AE009A805A90A46B8C8B8C24F
:10332000039DA819012200F0A9F81036F6B20498FE
:103330008642F0D3049828180021C943425C401803
:10334000002AFBD00127791B0C186C70019803F040
:10335000E1F802980470D0E7887800006165734452
:103360006563205836000000927800006165734460
:10337000656320583400000061657344656320581C
:10338000320000006165734465632058310000001D
:10339000F0B58BB00D460446207803F02FF90028D5
:1033A00015D0287803F02FF9002812D028786178FA
:1033B000814210D1A078A61C03F09FF900280CD000
:1033C000307803F098F901280DD1224806E028A0B2
:1033D00004E024A002E01E4800E01FA001F088F8ED
:1033E00000200BB0F0BD304603F099F807A9204645
:1033F00000F0C2F82878C11C0F220A400021002AE0
:103400000AD0D2B210239E1A06D0201800213246CC
:1034100000F027FA287831460294081828700D2603
:1034200001950CE007A803A90A46B8C8B8C2019DD7
:1034300002988019002200F021F810362878F6B2A0
:10344000C1B28E42EED3029948700120C9E7C0464E
:103450008878000092780000616573456E6320589B
:1034600034000000616573456E632058320000002F
:10347000616573456E63205831000000F0B593B06C
:103480000F46054600240E940D940C940B940A9458
:103490000994089407940694059404940394002ACC
:1034A00002951BD01B2001900121FEF7B5F80BA857
:1034B0000090102639463246FCF79AFE07AF384690
:1034C00029463246FCF794FE03AD10950F970098FD
:1034D000119012940FA8FDF7ADF919E01B2001908F
:1034E0000121FEF799F8294607AD102628463246F5
:1034F000FCF77EFE39460BAF38463246FCF778FEC5
:10350000109503AD0F95119712940FA8FDF7E0F9F0
:10351000029829463246FCF76BFE01982146FEF7D9
:103520007BF813B0F0BD704780B500F049F880BD5E
:1035300080B500F04FF8012080BD0000B0B5827862
:1035400003799C18032214400AA31C5D0C70C478F4
:1035500005792C1914401C5D4C70047914401C5DD5
:103560008C708478C5782C19007920181040185C6C
:10357000C870B0BD467A394070B50C460546204645
:10358000FFF7D2FF26460C3628463146FFF7D6FF16
:1035900008342046314600F06EF970BD80B500F069
:1035A0002FF880BD80B500F033F880BD00020843DD
:1035B000704700020843000210430002184370479E
:1035C00080B5002804D0D14938310C22FCF710FE18
:1035D00080BDC046B0B50446002C10D0CB4D383568
:1035E0000C2220462946FCF735FE002807D00C2285
:1035F00028462146FCF7FCFDBE4801210170B0BD04
:10360000DF48416B0120002900D108467047C046C1
:10361000DB494A6B824203D04863D84801210170DC
:103620007047C046D64880687047C046D4498A680B
:10363000824203D08860D148012101707047C046A2
:10364000CF4841690120002900D108467047C04693
:1036500080B50146054842698A4206D0416104A00E
:1036600000F046FFC5480121017080BDEC07002035
:103670006366674374726C4D6F6465202564000057
:10368000BF4988693B2801D83C2088617047C04603
:103690003C213C2800D80846B9498A69824203D0B7
:1036A0008861B648012101707047C046B448C069BE
:1036B0007047C046B249CA69824203D0C861AF4868
:1036C000012101707047C046AD48016B01200029FF
:1036D00000D108467047C04680B501460548026BD8
:1036E0008A4206D0016304A000F002FFA348012132
:1036F000017080BDEC07002063666743533D25647D
:103700000000000080B50748C078012802D106A05B
:1037100000F0EEFE224800210160FE2000F02AF8B1
:1037200080BDC0466C0B00200D0A63666750616760
:103730006549644465660000194800687047C046E2
:1037400080B500F00FF816480068000A01D0FFF7B6
:10375000D9FF80BD0146C439012000223B2900D396
:103760001046704780B5FF2000210D4A012300F06C
:10377000F0FF80BD80B50146094A136800208B42E6
:103780000DD011600748C078012802D106A000F0D2
:10379000AFFEFF200021024A012300F0E5FF80BDBB
:1037A000300100206C0B002063666750616765493B
:1037B000645365743D256400714A136A0360506A5E
:1037C000086070476E4A136A834203D010626B48E8
:1037D00001230370506A884203D051626748012177
:1037E000017070476648C0687047C046B0B504466F
:1037F000064DE868A04207D005A0214600F078FEFB
:10380000EC605E4801210170B0BDC046EC070020AD
:10381000636667536C6565705365633D256400009E
:10382000574800697047C04680B50146054802699F
:103830008A4206D0016104A000F05AFE4F480121DF
:10384000017080BDEC0700205772697465576F7274
:103850006B5365632025640080B500F0FDFB80BDDF
:10386000FEE710B55242002302E0C41A21705B1E2D
:103870009A42FAD110BD0A780378534003700A784F
:103880005A400A7001785140017070470178002950
:1038900001D0491E0170704739480168491C01D1A7
:1038A0000021016000210A22B42341608160C260CE
:1038B00003614161836101223C23026243624163EF
:1038C00003490164C16381632C4802707047C0469C
:1038D0005858585880B5FFF733FF00F00DF82748C7
:1038E0000021017026484068002801D0FFF7D4FF6E
:1038F00080BDC0462D01002080B5FFF71DFF0021CF
:103900001F4A122300F025FF80BDC046EC070020AF
:10391000B0B51A48017800292FD000210170184C49
:103920002068401C2060FFF707FF451E2846FFF770
:1039300011FF00280FD02068124988420BD30120C4
:103940002060002113232846224600F00DFF284660
:10395000FFF710FFB0BD0C48C078012806D1FFF773
:10396000EBFE0146226809A000F0C2FDFFF7E4FE6D
:103970000021034A132300F0F7FEB0BD2D01002003
:10398000EC070020D17E01006C0B002077666C6193
:1039900073682C5049643D256420636E743D256432
:1039A0000000000070480178FA220A400421114307
:1039B0000170704780B5FFF7F5FF80BD704780B597
:1039C00000F03AF880BD80B500F0B0F880BD00008E
:1039D00080B500F01FF800F039F8FFF7EFFF6248FC
:1039E0000178F5220A4008211143017080BDC046CC
:1039F00010B55D480478002006210C4200D010BDAF
:103A000001200440FFF760FE211A0020401A4841BF
:103A100010BDC046704780B5FFF712FE0021091A9D
:103A2000484180BD80B5002801D0012000E0002081
:103A3000FFF70EFE80BD00004B48017805220A43C7
:103A40000270704780B5FFF71BFE80BD7047000015
:103A5000B0B54548007840070024800F01D02046CB
:103A6000B0BDFFF731FE0028F9D0FFF71FFE044676
:103A700001F03CF8051BFFF703FE012400218542FD
:103A8000EDD20C46EBE7C046B0B5184D287840079C
:103A9000800F03D100F090FC002800D0B0BDFFF7EC
:103AA00013FE0028FAD0FFF701FE044601F01EF8CD
:103AB000041BFFF7E5FD8442F0D30DA000F018FDD4
:103AC0002878FA2101400420084328700A48017828
:103AD00082784378437082701B020B4311041943B0
:103AE00010220A43027000F025F8B0BD340800200F
:103AF000636C6F73650000006C0B002080B5FFF7EE
:103B0000C7FD80BD80B500F0F1FFFFF7D3FD80BD9C
:103B10000548002101707047034801780120002901
:103B200000D108467047C046D806002080B5FFF790
:103B3000CBFD80BDB0B50C4C25780620284004286C
:103B40000BD128070AD401200540FFF7BDFD8542AF
:103B500007D12078F92101402170B0BDF720054040
:103B60002570FDF789FFB0BD34080020B0B58CB0DA
:103B7000054601AC204618301421FCF752FB28689A
:103B80000949401806902879401E059068790490EC
:103B9000A8790390E8790290287A01902046FCF7F2
:103BA000E1FA0CB0B0BDC04694F8FFFF80B500F05C
:103BB00003F800F011FA80BDB0B586B001A98020ED
:103BC00008804880012460028880C8800220087232
:103BD00048720948049009480590204D281D02F0BC
:103BE000A3FDFF21064A204602F02CFC6877054819
:103BF00001F0EAF806B0B0BDE91C0000131D00009A
:103C0000B11B0000291B0000B0B5FC4D287F00242B
:103C1000C00718D02869FDF7ADF9002813D0287F18
:103C2000400710D5E868FDF7A5F900280BD0A86873
:103C300002F0BAF8002806D0686802F0B5F801244E
:103C4000002800D104462046B0BDC04680B50A46D3
:103C50000146EA48006901F059F980BD30000020B2
:103C6000002804D105E000220270401C491E0029F2
:103C7000F9D17047F8B516460C460546A968EA68BA
:103C80000020914217D02868475C481C6968FCF7FF
:103C90003FFAA96037600BE0A8682968085C2070CB
:103CA0006968A868401CFCF733FAA9607F1E641C91
:103CB0000120002FF0D101B0F0BD0000F8B50C4696
:103CC00005460027032C06D3274903222846FCF784
:103CD000C1FA002802D0384601B0F0BDEE1C2349DD
:103CE00008223046FCF7B6FA00280AD128460B30E5
:103CF0002146F531C9B200F04DF9014601200129F4
:103D0000EAD01B4903223046FCF7A4FA002809D167
:103D1000A81D2146FA31C9B200F0EEF80146012093
:103D20000129D9D0134903223046FCF793FA002821
:103D300009D1A81D2146FA31C9B200F01FF8014689
:103D400001200129C8D00C4903223046FCF782FA31
:103D50000028C0D1A81DFA34E1B200F09BF801465A
:103D600001200129B7D1B7E7F3780000E27800001D
:103D7000DE7800009C780000D6780000BFB50546CC
:103D80000024062911D012291BD00A292ED0092976
:103D900049D13F492846FCF74FFA002843D1FFF7A5
:103DA000FDFB002831D036A03AE02B492846FCF72D
:103DB00043FA002837D101AD2846FFF7B5FB27A00D
:103DC0000DE01A4906222846FCF744FA00282AD1B9
:103DD000AD1D2846FFF7ACFB002820D014A00C2214
:103DE00001242946234600F0ADFB1CE01E4928466D
:103DF000FCF722FA00280AD01C492846FCF71CFAD6
:103E0000002810D10020FFF7CDFB19A008E0012405
:103E10002046FFF7C7FB1AA000F06AFB03E009A0E9
:103E200000F066FB0124204604B0B0BDA778000076
:103E30000A6165736B6579736574206F6B2C206BF9
:103E400065793D000A6165736B657973657420451A
:103E500072726F7200000000A07800000A61657342
:103E60006B65793A00000000C3780000B878000064
:103E70000A61657320737769746368206F666600F2
:103E80000A61657320737769746368206F6E000040
:103E9000AE780000F8B50024072919D10E49072291
:103EA000FCF7D8F9002813D10C488578FFF7B8FC47
:103EB0000646FFF797FC0746FFF7E2FB69460860F6
:103EC0000124254006A0294632463B4600F010FB5F
:103ED000204601B0F0BDC046CE7800006C0B00203B
:103EE000642F6E3D256420773D256420733D256455
:103EF000206F3D256400000070B588B000250329BF
:103F00002FD1194903242246FCF7A4F9002828D10F
:103F1000684616A11822FCF76BF906A801F086F88E
:103F200000281AD00020064605E006A9091A0978DB
:103F3000F2B28E18401E01460831F6D16D462C4370
:103F400006A8214601F076F8F0B22946133100F0B8
:103F500057F800206875284600E00AA000F0C8FA6B
:103F60000125284608B070BDDA7800007A6C400060
:103F70000000000000000000000000000000000041
:103F8000000000000D0A206D6163207265616420ED
:103F90006572720010B50024072908D0012916D1D6
:103FA0000078302813D100F0E1FD01240FE0094929
:103FB000FCF742F900280AD10720002100F09CF804
:103FC000094801780124002901D101240470204608
:103FD00010BDC046EB780000034800210170704717
:103FE000014800787047C046D406002080B50A46D4
:103FF00001460248006900F089FF80BD30000020C2
:1040000080B5024602A30846194602F035FE80BD7F
:104010002530325800000000F8B51E4C1E4D65607A
:104020000021A160052121601C4E0BE00020A06052
:1040300030680849FCF76CF8691C081AA1688142CD
:10404000FCD83846471E0028F0D12068012188435B
:104050002060F8BDA0860100F8B50E4C0E4D6560DD
:104060000026A660052121600CE0A6607D20C1002D
:104070000A480068FCF74CF8691C081AA1688142DC
:10408000FCD83846471E0028EFD12068012188431C
:104090002060F8BD10E000E0FFFFFF0014000020EA
:1040A00080B500F073FA03200121024A02F0CAF938
:1040B00080BDC04645190000D7484068010901206D
:1040C00008407047D44864210160704780B500F013
:1040D00065F900F0A3F90520FF21054A02F0B2F9C5
:1040E0000120044A014602F0CBF900F059FF80BDDF
:1040F000C51800001D1D000010B50446792C0BD317
:104100005FA0214600F0F4F97B2C17D07A2C19D14E
:104110000120FEF789FD10BD512C00D97DE0482C0F
:1041200014D348A0214600F0E3F9492C16D0482CBE
:1041300019D152200121FEF769FD10BD1020FEF7B4
:1041400073FD10BD52A000F0D3F966E0332C64D8A3
:10415000082C0AD0072C16D1052012E0532010217C
:10416000FEF754FD10BD3DA0EDE72C48406801214D
:10417000084203D1C00603D4022002E0522000E02E
:104180005320FDF7DFFD25488068512812D30C2C01
:1041900043D12348017882784378437082701B02B0
:1041A0000B431104194308220A4302700420FDF74F
:1041B000C9FD10BD05280CD878440079400087441B
:1041C000020A0D102026012C27D10120FDF7BAFD8F
:1041D00010BD14A0B7E7022C1BD01EE0042C12D097
:1041E0001BE0062C19D101F05FFE002811D10C480C
:1041F00080780004C0030CD4FFF78EFC002808D19F
:10420000D4E70A2C09D10320FDF79CFD10BD0E2C2C
:1042100003D10220FDF796FD10BD10BDE000002087
:104220006C0B00200D0A2A2A2A2A2A2A205F64659C
:10423000764F6E4576656E7420457272202A2A2A62
:104240002A0000005F6F6E45727248696E74457691
:10425000656E745F653D2564000000000D0A2A2A22
:104260002A2A2A2A205F6F6E45727248696E744549
:1042700076656E7420457272202A2A2A2A00000070
:104280005F6F6E457272546F4F6B5F653D256400C2
:104290000D0A2A2A2A2A2A2A205F6F6E4572725432
:1042A0006F4F6B4576656E7420457272202A2A2AFC
:1042B0002A000000B0B5FFF79BFB002858D002F0A1
:1042C00041FC002854D0FFF79FFC002850D001F09B
:1042D0000DFE00284CD0274C20786178090201435C
:1042E000A078000408430821084241D081060BD47D
:1042F00024490840010A6170202101432170000C0B
:10430000A07000F001FFB0BD400631D500F0A2FC66
:10431000194D07E000F04AFEFFF79AFB00280AD18A
:1043200000F0C8F92A68501F0021052A00D8084665
:1043300028600028EED12078617809020143A07836
:10434000000408430D4901402170080A6070080C00
:10435000A07000F079FB00F0E3FEFFF7A1FEFFF78D
:1043600093FB07A000F0C4F80A200021FFF7C4FE69
:10437000B0BDC0466C0B00203C01002091FFFF0047
:10438000770000009FFFFF00014908607047C046AA
:104390003C010020204880687047C04680B51E4917
:1043A00000204860FDF7CEFC0120FFF7A5FE0220AB
:1043B000FFF7A2FE80BDC04617488068811E00201E
:1043C000401A48417047C04613488168533900205D
:1043D000401A48417047C0460F48826801200021BA
:1043E000502A00D3084670470B488068C11E002041
:1043F000401A48417047C04607488068411F002066
:10440000401A48417047C04603488168523900202D
:10441000401A48417047C046E000002080B50B4874
:1044200000210170044800F0B7F832200121034A4E
:1044300002F008F880BDC0464D19000009300000A8
:10444000024841680B2048436E307047F00000205E
:1044500070B51C46049D6B1D059E33707070B17065
:1044600090B2F11C02F050F9002D04D0701D2146CD
:104470002A46FBF7BDFE70BDB0B50446E17CA07CCA
:10448000FFF794F8054600F019F8411C05D08000AC
:104490000549095820468847B0BD04A0294600F0C8
:1044A00027F80020B0BDC046FC760000657272207F
:1044B0007061726149643D2564000000B0B5162347
:1044C00000210A4A00E0491CCCB201E0FF310B4652
:1044D0000021C943DDB2AC4206D8291949084D0074
:1044E000555B8542F2D8EED30846B0BD3A7800005D
:1044F00083B010B5A1B0044623A80EC001A8802146
:10450000FBF78FFEFFF778FF00280FD123AB009356
:1045100001A88021224602F0C3FB0146002901D0F8
:1045200001A801E004A00B21FFF790FB21B010BC13
:1045300001BC03B00047C0466D795072696E746665
:10454000204E4700F8B51C4615460E46002801D0FF
:10455000FFF7CEFF07A705E031783846FFF7C8FF21
:10456000761C6D1E002DF7D1002C02D003A0FFF7A2
:10457000BFFFF8BD20253032580000000D0A0000B2
:1045800080B500200521FCF773FC80BD80B50020BC
:104590000521FCF7D5FC80BD164908607047C04670
:1045A000F0B587B0FDF706FDFDF7C6F96D461C2195
:1045B0002846FFF755FBFCF765FA0027009701979F
:1045C000032420030290039704970126B00305906B
:1045D00006972846FCF71AFA0620FCF7C9F9FCF7FB
:1045E000E7F9182021463246FCF7EAFA014807604D
:1045F00007B0F0BD4403002080B5FDF7DBFCFCF7FD
:10460000D1F9FDF799F9FCF73DFA80BD80B5FCF7CB
:1046100029FA80BD80B5FCF729FAFCF72DFAFCF7E2
:10462000BBF980BDF0B585B000252846FCF770FFCA
:104630002846FCF77DFF1120FDF72AF802263046B8
:10464000FDF71AF80124144F30462146B84730468A
:10465000FDF730F804263046FDF700F828462146DD
:10466000B84701950296032003900C20049001A8FE
:10467000FCF774FF2046FCF787FB30462146B8471D
:104680003046FDF717F8FCF7ABFE044908602046FA
:10469000FDF7BAF905B0F0BDE9120000700B00207B
:1046A00080B50120FDF7B0F980BD80B50020FDF791
:1046B000ABF980BD80B50020FCF7D8FC80BD80B58B
:1046C00000200721FCF73CFC80BD80B500200721BD
:1046D000FCF7CEFB80BD80B580200421FCF730FCC8
:1046E00080BD80B580200421FCF7C2FB80BD80B571
:1046F00000F01BF800F007F880BD80B500F015F859
:1047000000F007F880BD80B500200921FCF718FCF7
:1047100080BD80B500200921FCF7AAFB80BD80B5D3
:1047200000200821FCF70CFC80BD80B5002008218A
:10473000FCF79EFB80BD80B5FFF7F1FFFFF7E9FFB7
:1047400080BD80B50C200121FCF786FA0028F9D144
:1047500080BD89004002401802E002C802C25B1E10
:10476000002BFAD101207047F0B585B00392890083
:10477000164E711802919900019104904702042588
:1047800016E00498FF2812D8002003E081007A5830
:104790007250401C8028F9D102980399019AFBF7C6
:1047A00027FD0498FDF71AFC012400280AD16D1E8C
:1047B000002DE6D10648C0780024012802D105A0CA
:1047C000FFF796FE204605B0F0BDC046440100202C
:1047D0006C0B00200D0A666C617368207772697437
:1047E000652045525200000010B5FFF71BFFFFF790
:1047F000A8FF00F0C9F90024204600F0A7FA2046DF
:1048000000F0E8FA00F07EF8FFF7CAFE00F007F8C3
:1048100000F01AF800F069F800F075F910BD80B5E5
:10482000FDF71EFC80BD80B5FDF71AFC80BD80B58C
:10483000412080010521FCF725FB014601200029CC
:1048400000D1084680BD7047F0B587B06E461C2584
:104850005C4A304629469047FFF743FF0024019405
:1048600003940127049780200421574B3246984730
:10487000FFF737FF6E4630462946524A9047FFF70A
:1048800024FF0194039404970721204632464E4B9F
:104890009847FFF71AFF6E4630462946494A904727
:1048A000FFF743FF01940394049708212046324602
:1048B000454B9847FFF739FF6E4630462946414A37
:1048C0009047FFF726FF019403940497092120469F
:1048D00032463D4B9847FFF71CFF07B0F0BDC0467E
:1048E00080B5FFF7B1FF80BD704780B5FDF7CCFB09
:1048F00080BD80B5FDF7C8FB80BD80B500F06FF8C6
:1049000080BD0000F0B58BB004AE1C2102912D4A91
:104910003046904700F0E2FA002705970120079003
:10492000044603940897402001900421264B324608
:10493000984700F0D3FA04AE3046029D2946214A3A
:10494000904700F0C5FA05970794089780200C213E
:1049500032461D4B984700F0BBFA04AE304629465C
:104960002C46184A904700F0C5FA0597039807901F
:1049700008970321019D28463246134B984700F0C3
:10498000B9FA04AE304621460E4A904700F09AFA32
:104990000597039C079408970521284632460A4E3E
:1049A000B04700F08FFA04AD28460299054A9047B7
:1049B000059407970897C02002212A46B0470BB0FC
:1049C000F0BDC046613C0000950E000080B5FFF7C9
:1049D00099FF80BD704780B500F001F880BD80B5BB
:1049E00000200421FCF7ACFA80BD80B50020042132
:1049F000FCF73EFA80BD80B5FFF7F7FF80BD0000F1
:104A000010B5104C2078C0070BD1FFF7E8FF2078D5
:104A1000617809020143A07802040A43012010438F
:104A20000AE0FFF7E2FF2078617809020143A078ED
:104A300000040843012188432070010A6170000CC2
:104A4000A07010BD6C0B002080B5FFF729FEFFF7AA
:104A5000EAFEFFF745FFFFF74CFFFFF7B7FF00F057
:104A6000F7F900F03BF900F0D1F8FFF7C5FD80BD84
:104A70007CB5044668460025857185800095EE4327
:104A8000761C092E2FDC6846FCF77CFB0028F7D14A
:104A900069468B791D090A2045430F2213407D2664
:104AA00036011E43731923604B791D09134045439A
:104AB000EB1823710B791D0913404543EB18637103
:104AC0008B781D0913404543EB18A3714B781D09E2
:104AD00013404543EB18E37109780A400909414343
:104AE000881820720125284602B070BDF8B501A8CB
:104AF000FFF7BEFF01460020012902D101A8FFF700
:104B000035F804B080BDF0B589B06D462421284643
:104B1000FFF7A6F8142001242146FCF77DFD0326AB
:104B200030462146FCF7E0FB0094002004900194FD
:104B3000092129725021A976EC76102129771727AF
:104B4000AF7704216977E977202119226A54059407
:104B500028832846FCF7F2FA384631462246FCF70D
:104B60002FF82046FCF7B8FA09B0F0BDBFF34F8F1D
:104B7000034804490160BFF34F8F00BFFDE7C04603
:104B80000CED00E00400FA0570B58AB06E462821ED
:104B90003046FFF765F80024009405940420039044
:104BA0000125069534743472019420463146FBF792
:104BB000BDFF0E4E20463146FBF784FF20463146AE
:104BC000FBF78CFF20462146FBF768FF2046FBF7EA
:104BD000A3FF0E2003212A46FBF7F2FF14480470BE
:104BE00003490C6044600AB070BDC04690E8000004
:104BF000680B002010B50E4C2078012805D16068A4
:104C0000002800D080470020207010BD80B50E2005
:104C100003210122FBF7D4FF0020FBF76DFF80BDCD
:104C200080B5034948600020FBF766FF80BDC046A1
:104C30002000002080B50020FBF766FF80BD10B586
:104C400000242046FBF760FF0E2003212246FBF7DD
:104C5000B7FF10BDB0B5FFF7DDFCFFF7F0FF00F0C8
:104C600059F800F011F9FFF7EEFDFFF73DFEFFF7F1
:104C700044FEFFF7AFFE14480024C460C4648C21D6
:104C80004450CC2144501149CC60CC64104A02609D
:104C9000104A1346383B036480230F4DC550C02390
:104CA000C2500A600A640322120242624466A422CD
:104CB0008450E42284504C624C66FFF7F6FC204698
:104CC000FCF7D4F9B0BDC046000D0240001D024003
:104CD000CFFC0000FFFF0000EFEF000070B5FCF715
:104CE000DFFF0820032101242246FBF769FF354D31
:104CF000002628463146FCF756F928462146FCF79F
:104D000052F928463146FCF75EF928462146FCF761
:104D10005AF970BDB0B50820032100242246FBF7E4
:104D20004FFF284D28462146FCF745F9012128462A
:104D3000FCF741F94025284621462246FCF7EEF8CB
:104D40000B2128462246FCF7E9F8B0BDF0B589B042
:104D50000190FCF7A5FF02AF1C213846FEF780FF4B
:104D6000022001252946FCF757FC002604960396ED
:104D70000596FCF7C3FB0790A8020690E1204002CD
:104D80000890402002900F4C20463946FCF728F945
:104D900020463146FCF707F920462946FCF703F97F
:104DA00020463146FCF70FF920462946FCF70BF95F
:104DB000082003212A46FBF703FF054801990160FB
:104DC00009B0F0BD00020040014908607047C046CC
:104DD000580B0020F0B587B00090FEF7E3F901AF63
:104DE00018213846FEF73CFF40200190002603962C
:104DF0000296E12000020690012568020490FCF76B
:104E00007DFB0590AC0720463946FCF7FDFC2046AB
:104E10003146FCF7DDFC20462946FCF7D9FC20464C
:104E20003146FCF7E5FC20462946FCF7E1FC06206C
:104E300003212A46FBF7C4FE04480099016007B02D
:104E4000F0BDC046014908607047C0465C0B0020B9
:104E500070B5FEF7A7F90620032101242246FBF7CF
:104E6000AFFEA507002628463146FCF7B1FC2846D0
:104E70002146FCF7ADFC28463146FCF7B9FC284634
:104E80002146FCF7B5FC70BD70B506250321002452
:104E900028462246FBF794FE402630462946224605
:104EA000FCF73CF8072130462246FCF737F801258D
:104EB000AE0730462146FCF793FC30462946FCF706
:104EC0008FFC70BD80B540200521FCF739F880BD0E
:104ED00080B580200C21FCF733F880BD80B54020E0
:104EE0000421FCF72DF880BD80B540200421FBF79C
:104EF000BFFF80BD80B540200321FCF721F880BDB5
:104F000080B540200321FBF7B3FF80BD70B5144688
:104F10000D46064600F01FF80146621C0020914233
:104F200017D3F06831680C547168F068401CFBF7C7
:104F3000EFF8F1600AE030682A7842547168F0684E
:104F4000401CFBF7E5F8F160641E6D1C0120002C8D
:104F5000F1D170BD704710B5041D1CCC9818011B11
:104F6000881A9C4200DB084610BD70B505462E46E7
:104F70001336304601F0F4FE0446002C0BD02046D8
:104F80003146FBF74EF920461030002121C4216044
:104F90006160083C02E0FEF763FC0024204670BD1F
:104FA00080B500200D21FCF779FC80BD80B5FCF7B1
:104FB0006DFC80BD80B50448002101703220FF21C6
:104FC000024A01F03FFA80BD480300205121000051
:104FD00080B50822FBF73EF90021091A484180BD3F
:104FE0001CB5044600F011F80146012000290AD141
:104FF000684601F015FE01460020002903D06846EE
:105000002146FFF7E5FF02B010BD002204E01B7847
:105010000021FF2B04D1521C83180121082AF6D14C
:105020000846704780B5FFF7DBFF80BD80B501F013
:10503000F7FD80BD70B50C460546002606E0A81BAE
:1050400000782146FEF7DCFFA41C761E30460830AF
:10505000F5D1012070BD000010B5124C0020E070A9
:10506000A078217862786270217002210143A170DA
:10507000FFF7BAFB00F034F8FFF728F800F050F81B
:105080000948FEF7E9FF09A0FFF732FA0120E070B6
:10509000FFF7B0FDFFF78AFF20788007F8D5FFF70C
:1050A00009F9F5E76C0B0020B80B00000D0A703011
:1050B000335F7465726D696E616C5F6374726C5F8F
:1050C00077617465722056302E315F323032303065
:1050D0003631332066656E676875690D0A00000019
:1050E00080B501F0ABF9FEF7F5FBFEF75FFDFEF7CB
:1050F0001AFA01F0E5FCFEF76BFCFFF75BFF00F02E
:10510000DDFEFFF727FF80BD80B5FFF7EDFE07202E
:105110000121024A01F096F980BDC0464D320000DF
:1051200080B50C480178427812020A43817809045C
:105130001143094A0A40110A41708021114301704C
:10514000110C8170FFF7DCFE07200A21034A01F0F1
:1051500079F980BD6C0B00207FFEFF0071320000EA
:1051600010B5FFF739F9002803D0FFF725F900281B
:1051700019D0FFF729F9002815D000F01DF90128F2
:1051800011D00948417802788378C478C47083705C
:10519000027022021A431204090211430122D202B0
:1051A0000A43110A417010BD0C00002010B50446DE
:1051B000FFF712F9002803D0FFF7FEF800280FD000
:1051C0000A480068A0420BD008480460FEF774FF4C
:1051D000012C03D1002803D07B2003E0002800D05D
:1051E00010BD49200021FEF787FF10BD4C030020B1
:1051F00003480068411E0020401A48417047C046DD
:10520000600B0020E0B5FFF7E7F8002803D0FFF7B8
:10521000D3F8002815D001A801F01CFD002809D002
:105220000198FCF7E9FFFFF7EFF8002809D001F03B
:1052300029FC8CBD0320FCF7DFFFFFF7E5F8002811
:1052400000D08CBD48200021FEF756FF8CBD000029
:1052500070B5FEF7CDFB0024002800D191E04A4D47
:1052600068684A4E002816D07078002800D088E080
:105270003C207070B01CFEF709FBB07800286FD09E
:105280006868012400287CD0800041490958012425
:105290002046884775E07068002872D00121C20757
:1052A0004BD10221820748D40321420745D404216F
:1052B000020742D40521C2063FD4062182063CD40F
:1052C0000721420639D40821020636D40921C20535
:1052D00033D40A21820530D40B2142052DD40C2170
:1052E00002052AD40D21C20427D40E21820424D41D
:1052F0000F21420421D4102102041ED41121C20323
:105300001BD41221820318D41321420315D4142173
:10531000020312D41521C2020FD4172142020CD469
:105320001821020209D41921C20106D41A218001D0
:1053300003D400246C6018A021E06960880014493F
:1053400009580024204688476868401E012802D872
:1053500000F01CFE6C603C2070700124B47010E002
:1053600000F014FE00246C600220FFF71FFF30786D
:10537000002801D0401E3070FEF7CAFB05A0FFF7E1
:10538000B7F8204670BDC04600010020080000208C
:1053900058770000630000005F6E32734765744900
:1053A00064282920657272000120400606494A6877
:1053B00002434A607047C046034841680120002903
:1053C00000D108467047C0460800002010B50220F2
:1053D00001F0C2F801F0B0F8002809D001242046FD
:1053E000FFF7E4FE00F0D2FD04480021416003E035
:1053F00003A0FFF77DF80024204610BD0001002027
:1054000073675478436D644F6E52784F6B5273706C
:10541000204552523100000080B5FEF785F801208A
:1054200080BD80B5FEF7BAF880BD10B500780024C5
:10543000012806D0002808D10020FEF7B3F8012487
:1054400003E001242046FEF7ADF8204610BD10B55C
:105450000446FEF7F5FF80B2214601F055F910BD74
:1054600010B50446FEF7DEF8214601F055F910BDEF
:1054700080B5C378827841780078FEF79AF8FEF715
:10548000D5F880BD80B5FEF79EFA014601200029BF
:1054900000D1084680BD80B501780020012904D0E4
:1054A000002905D1FEF786FA01E0FEF788FA01200F
:1054B00080BD80B5FEF7AFFA0021091A484180BDD2
:1054C00010B500780024012806D0002808D100205B
:1054D000FEF7A8FA012403E001242046FEF7A2FA11
:1054E000204610BD10B50446FEF7ACFA214601F087
:1054F00013F910BD80B5C378827841780078FEF743
:1055000058F8FEF7FBFA80BD0020704780B50146D1
:1055100005480B22FAF76CFE04480078FF2800D0FB
:1055200080BDFDF7BFFB80BDD8060020180000201D
:1055300010B50446FFF78BFFEB480078FF21C0064B
:1055400005D5FEF740FA0121002800D10146A170DF
:10555000032010BD10B5FEF79FF9C8200124034AAF
:10556000214600F06FFF204610BDC046151D00000B
:10557000052070471CB5044601A86946FEF71CF9D2
:105580000198214601F0C8F80098211D01F0C4F8E7
:105590001CBDB0B50446E378A27861782078FEF7A8
:1055A00008F80546E379A27961792079FEF701F8D8
:1055B00001462846FEF706F9B0BD10B50446FEF7D1
:1055C00011F9214601F0A8F810BD80B5C3788278A2
:1055D00041780078FDF7EDFFFEF708F980BD112056
:1055E000704710B50446FEF71BF9214601F094F808
:1055F00010BD80B5C378827841780078FDF7D9FF77
:10560000FEF712F980BD80B501F0EEFA80BD80B5DD
:1056100001F0F2FA80BD80B501F0FCFA80BD1CB546
:1056200001AC204601F016FB207802B010BD00004E
:1056300010B50146CA780020012A1BD0022A22D1C7
:10564000E148017842788378C478C47083704270EE
:1056500022021A4312040A43202111430170DB483D
:105660004178827803780370827040220A43427046
:10567000012010BD14310846FDF75AFF01460120F4
:10568000002900D1084610BD10B50146CA78002097
:10569000012A1BD0022A22D1DF4801784278837880
:1056A000C478C4708370427022021A4312040A4301
:1056B000102111430170D948417882780378037032
:1056C000827040220A434270012010BD1431084606
:1056D000FFF7ABFE01460120002900D1084610BDAE
:1056E00010B5C178002002291AD1E94948780A7812
:1056F0008B78CC78CC708B700A7022021A4312041B
:1057000003021343012002031A43120A4A70EF49AD
:105710004A788B780C780C708B70402313434B7055
:1057200010BDC04610B50146CA780020012A1DD020
:10573000022A24D1E44948780A788B78CC78CC7056
:105740008B700A7022021A431204030213430120D1
:1057500082031A43120A4A70EF494A788B780C7810
:105760000C708B70402313434B7010BD14310846EE
:10577000FFF791FE01460120002900D1084610BD27
:1057800010B50146CA780020012A1AD0022A1DD17C
:10579000E048017842788378C478C470837042709E
:1057A00022021A4312040A43042111430170F148F2
:1057B0004178827803780370827040220A434270F5
:1057C00003E014310846FFF753FE012010BDC04628
:1057D00010B50146CA780020012A1DD0022A24D122
:1057E000E34948780A788B78CC78CC708B700A7053
:1057F00022021A43120403021343012042031A43F4
:10580000120A4A70ED494A788B780C780C708B70CC
:10581000402313434B7010BD14310846FFF750FE70
:1058200001460120002900D1084610BDB0B504464C
:10583000E078002503281DD001282FD12046143000
:10584000FFF764FEF1480178427812020A4381783A
:1058500009041143124A0A400270110A4170110CE6
:105860008170207D0125002818D104200021FEF739
:1058700043FC13E0E5480178427812020A4381783C
:1058800009041143064A0A400270110A4170110CC2
:10589000817014342046FFF739FE01252846B0BD3B
:1058A000EFFFFF0010B5C178002001291AD1FFF7E2
:1058B00051FEF448017842788378C478C4708370CC
:1058C000427022021A4312040A4308211143017054
:1058D000ED484178827803780370827040220A4351
:1058E0004270012010BDC0466C0B002010B5C1787D
:1058F000002002291AD1E34948780A788B78CC78BD
:10590000CC708B700A7022021A43120403021343F4
:10591000012082021A43120A4A70F4494A788B78AD
:105920000C780C708B70402313434B7010BDC04635
:1059300010B5C178002002291AD1D24948780A78D6
:105940008B78CC78CC708B700A7022021A431204C8
:10595000030213430120C2021A43120A4A70E349A8
:105960004A788B780C780C708B70402313434B7003
:1059700010BDC04610B50146CA780020012A1DD0CE
:10598000022A20D1BF4948780A788B78CC78CC702D
:105990008B700A7022021A4312040302134301207F
:1059A000C2031A43120A4A70D0494A788B780C789D
:1059B0000C708B70402313434B7010BD143108469C
:1059C000FFF798FD012010BD0C0000206C0B00209B
:1059D00010B50146CA780020012A16D0022A19D132
:1059E000A8498A7808784B78CC78CC704B700870CE
:1059F000012002438A70BD494A788B780C780C707C
:105A00008B70402313434B7010BD14310846FFF7D1
:105A1000C0FD012010BDC0460C0000206C0B002012
:105A200010B5C0780024012805D164200124034A60
:105A3000214600F007FD204610BDC046512D000054
:105A400010B50146CA780020012A1AD0022A1DD1B9
:105A50008C48017842788378C478C470837042702F
:105A600022021A4312040A438021114301709F4805
:105A70004178827803780370827040220A43427032
:105A800003E014310846FFF7A0FD012010BDC04619
:105A90000C00002010B5C1780020022913D17949EB
:105AA000CA7808784B788C788C704B70087001201D
:105AB0000243CA708D494A788B780C780C708B70D1
:105AC000402313434B7010BD0C0000206C0B0020D2
:105AD00010B5C178002002291AD16A4948780A789D
