:020000040000FA
:1000000038340020D5000000EF000000550F00003C
:1000100000000000000000000000000000000000E0
:10002000000000000000000000000000F3000000DD
:100030000000000000000000F5000000DF120000DA
:1000400099100000A1100000A9100000B5100000D8
:10005000B90B000055170000A5170000B1170000EC
:10006000970F00009F0F0000B9120000C11200009E
:10007000650F00006D0F00003D17000045170000E0
:100080004D1700008B0F00005D1700006517000082
:100090006D1700008910000083180000C1100000D7
:1000A00027080000911000006F180000771800006A
:1000B0004F100000830F00004D0C0000B10B00003A
:1000C0000348854600F014FB00480047190800006B
:1000D0003834002009480A4A002100A1814200D991
:1000E0000244084802600848804708480047FEE785
:1000F000FEE7FEE7FEE7FEE7FEE700000000002067
:100100000000000008ED00E0F1160000C100000052
:1001100030B50B46014600202022012409E00D469F
:10012000D5409D4205D31D469540491B2546954027
:1001300040191546521E002DF1DC30BD70B500246B
:100140002546002801DA01244042002901DA012570
:100150004942FFF7DDFFAC4200D04042002C00D006
:10016000494270BD38B50446C0681821401E484356
:10017000A16840183C214843616840183C2148432D
:100180002168451860690C2148432169401869219C
:10019000C900401A3021FFF7D1FF114A50434219DC
:1001A000084600921A2902DB0E49511800910C21D1
:1001B000FFF7C4FF0C4A5043009A801800900B4888
:1001C00006E0491E425C074B5A43009BD21800923E
:1001D0000029F6DC2146684600F08AF8009838BD10
:1001E000801F8607805101008033E101F477000011
:1001F00003460B439B0703D009E008C9121F08C040
:10020000042AFAD203E00B780370401C491C521EEA
:10021000F9D27047D2B201E00270401C491EFBD2F5
:1002200070470022F6E710B513460A460446194601
:10023000FFF7F0FF204610BD10B5002200E0521C71
:10024000835C8C5CA34201D1002BF8D1D8B2E1B21F
:10025000401A10BD30B504460020034600E05B1C88
:10026000934203D2E05CCD5C401BF8D030BDF0B5CA
:100270001FB40646002082B005464024019100903C
:100280001BE0019922460F46304600F020F8049A00
:10029000059B801A994110D310461946224600F05A
:1002A00039FA361A8F410197224601200021009F1A
:1002B00000F030FA38184D4100902046641E0028A6
:1002C000DFDC019B00982946324607B0F0BD10B52F
:1002D000202A04DB0846203AD040002110BD0B46FE
:1002E000D340D0402024A21A91400843194610BDA3
:1002F00070B50C4600683C21FFF70AFF21603C21E5
:10030000FFF706FF61601821FFF702FF0546A160B5
:100310000721001DFFF7FCFEA1610F48A900081886
:100320000E49FFF7F5FE0246443288086261E0613B
:100330003B2802D3910700D0401C0021084B0A46FD
:100340002161995C814203D8401A521C2261F8E76E
:10035000401CE060204670BD6C0B0000B50500003D
:1003600000780000F0B507460846584087B0C00F37
:10037000049048000E46590040084908BC1A8841BC
:1003800005D2384631461E4617460B4602465800EF
:10039000400810434CD0300D039040055900400DEB
:1003A000490D0590401A0290402872DA1803012185
:1003B000000B09050843019004980092002805D01D
:1003C00001995242002088410092019002984021F8
:1003D0000A1A0199009800F09DF905460C466B46F3
:1003E00007CB00F0A7F9C0197141039A0E0D002345
:1003F000D71756401A467A40164344D0049A002A2A
:100400002DD0029A012A039A15DC1205C01A9141D7
:1004100001263605001C7141D20F059ED2070093BC
:10042000019202962A46234600F0A4F907B0F0BDD7
:1004300038463146FAE71605224A0F46B218C01A66
:10044000B74101210905001C4F4100187F411146A9
:1004500018187941E20F10436D19644113E0E20767
:100460006D0815436408C2071443039A0126120558
:10047000C01A91413605001C7141CE074008304337
:100480004908C01851412A46234600F066F9CDE7D5
:10049000FFE7049801224000C117121A00238B4184
:1004A00004983146C417381AA141EEE730B401244C
:1004B000E407634030BC55E730B40124E4076140F1
:1004C00030BC4FE70000E0FFF0B51FB488B00B99D7
:1004D0000998002448400999C00F4900490809912A
:1004E000C0070B990090490049080B910999089899
:1004F000A64608431CD00B990A98084318D00998BF
:1005000001244000420D4800410D099824050003D4
:10051000000B204309900B980003000B20430B9025
:1005200050181C494018002201901446104605E05E
:10053000002001460DB0F0BD032801DA034600E0BB
:1005400003239C46C11A0AAE0AE05F0008ADED5BCA
:100550004F00F75B7D430027AA187C41491C5B1EB6
:100560006145F2DD410004AB5A522104120C0A43EA
:10057000240C401C0828DFDB01980290009970468B
:1005800001910090059B049A0799069800F0F2F8F3
:10059000D0E700000DFCFFFFF0B50C465C4085B0D5
:1005A000E40FE40703944C000026640859009446C5
:1005B000490802460296224321D062460A431ED0D1
:1005C0006200570D4A000E032303550D0124024615
:1005D0002C492405781B1B0B360B4018234326435C
:1005E000614600901C46501AB44103D30098401C49
:1005F000009002E0921800985B41002803DA002086
:10060000014605B0F0BD00200121090507468646D8
:1006100011E064461D46141BB54106D36546521BC6
:10062000B341744607430C43A646CD07400849082A
:10063000284392185B4105460D43EAD11046184302
:1006400013D06046194650407140084306D06046BA
:10065000101AB34106D20122002306E00022012332
:10066000DB0702E00122D2435310009874460105D3
:10067000381C6141029C039D0019694100F06DF82E
:10068000BFE70000FD0300004A0009030123090B36
:100690001B0519430A4B10B5520D9A4202DA00208D
:1006A000014610BD064B34339A4203DC9A1AFFF719
:1006B0000EFE10BD034BD21800F02CF810BD000048
:1006C000FF030000CDFBFFFF10B5002904DB012470
:1006D000E40740428C412146002B04DB1C460123E9
:1006E000DB075242A341994200D1904210BD000065
:1006F000064C0125064E05E0E36807CC2B430C3C75
:1007000098471034B442F7D3FFF7DEFC107A0000AC
:10071000307A000010B5202A04DB0146203A9140CF
:10072000002010BD914020239C1A0346E34019434A
:10073000904010BD10B5202A06DBCB170846203AA2
:100740001041C1170B4306E00B461341D040202453
:10075000A21A91400843194610BD10B5002B08DAC3
:100760000024401C614192185B411A4301D14008AA
:10077000400010BDF0B51FB482B005460C0003D098
:10078000084606F02BFB02E006F028FB203002466C
:10079000009021462846FFF7BDFF049B059A0446BA
:1007A0000F4618431143084314D0184610431BD07A
:1007B000009840210A1A18460599FFF788FD05465A
:1007C0000E46009A05990498FFF7A4FF084305D048
:1007D000012004E02046394607B0F0BD0020C117D3
:1007E00005430E432C43374300990E986305401A86
:1007F0007905E40A00220C43FD0A0A3002D50020E4
:100800000146E9E70105101969410C9C0D9D00198D
:100810006941FFF7A2FFDFE780B500F069FF04F050
:1008200093FC002080BD80B500F0DAF8C046C046D9
:1008300080BD000010B50421002846D0C168CA0060
:1008400018231A4049490C689C4314430C60826881
:1008500013680B6253684B6293688B62D368CB62F8
:10086000C368022B07D0012B11D113690B630B4610
:100870003433052408E013690B6353694B639369B0
:100880008B630B463C330724A40012591A6002689C
:1008900013680B6153684B6193688B61D268CA61BE
:1008A0000A68022313430B600B68012213430B6099
:1008B0000B681342FCD10A69406802604A694260D1
:1008C0008A698260C969C1600021084610BDC046BE
:1008D00010B50421002846D0C168CA0018231A4068
:1008E00022490C689C4314430C60826813680B62B5
:1008F00053684B6293688B62D368CB62C368022BE8
:1009000007D0012B11D113690B630B463433052437
:1009100008E013690B6353694B6393698B630B4660
:100920003C330724A40012591A60426813680B6113
:1009300053684B6193688B61D268CA610A6802236D
:100940009A430A600B68012213430B600B68134241
:10095000FCD10A69006802604A6942608A69826063
:10096000C969C1600021084610BDC046001402409C
:100970001F21090100010840394A13688B430343D2
:10098000136000207047C04602490A6882430A602B
:100990007047C046B42400403148016801229143A9
:1009A000016070472E48016801220A4302607047C7
:1009B0000120C0032A490A6802430A607047C04602
:1009C0000349096801400120002900D10846704709
:1009D000B0240040014800687047C046A024004091
:1009E00080B50120FFF7ECFF01280BD10120FFF7B4
:1009F000CBFFFFF7EFFF04490968002900D08847C3
:100A000000F034F880BDC0464403002070B50446B1
:100A10000420002C22D0124D01262E60022003F06B
:100A200077FB6068E168014320690843A1680143DE
:100A300060690843296801432960B002216889027E
:100A400001406A6882430A436A60A0698000042109
:100A500008406A688A4302436A60002070BDC0464D
:100A6000042400400348012101607047014800212F
:100A700001607047C02400400748016802220A4014
:100A80000260704780B50448016801220A43026091
:100A9000022003F03DFB80BD0024004001228A407B
:100AA000D1430002014A815000207047140C0040DD
:100AB0000002034A8258CA40012010407047C046D5
:100AC000100C004010B50002034A8358094C1C402A
:100AD0000C438450002010BD000C004010B50002F3
:100AE000034A8358034C1C400C438450002010BD23
:100AF000040C00400000FFFF00022C494258012373
:100B000013434350002070470002284942580123F4
:100B10009A43425000207047000224494258012362
:100B20009B021343435000207047C04670B5032218
:100B300013030A6814031C4000021C4A85589D4395
:100B40002543855001235C024D686D02254086587F
:100B5000A6432E4386500C7A85581E02B5431C408E
:100B600023022B438350CB681B01702423408558FC
:100B7000A5431D4385500B7CDB000824234085588A
:100B8000A5431D4385504B699B0004242340855891
:100B9000A5431D43855089694900022319408458A3
:100BA0009C430C438450002070BDC0460C0C004098
:100BB00080B5C046C04680BD80B5C046C04680BD39
:100BC00070B5002805DB1F23034001249C401B4B0C
:100BD0001C60C30018241C408901CBB2A340FF2134
:100BE000A140CC431649002805DB03250646AE4349
:100BF000154D751906E00F250540083D0326B54340
:100C0000104EAD192E6826401E432E60012A07D1D2
:100C1000002811DB1F221040012282400A6070BDB3
:100C2000002809DB1F2210400122824080200A5048
:100C3000BFF34F8FBFF36F8F70BDC04680E200E0FF
:100C400000E100E01CED00E000E400E080B5C046FB
:100C5000C046C046C04680BDF0B589B00D460446CA
:100C6000FF26089668462021FFF7DBFA04200C2CAB
:100C700032D801221146A140184B19422CD0500203
:100C800017490B6A83431540680218430862002025
:100C9000144A05E08300D55865436F46FD50401C5B
:100CA0000828F7D10022134613E008969C006846F6
:100CB00005590AE0089F781E08900720002F0BD0E6
:100CC0006448C8626448C8620D510859A842F1D10D
:100CD0005B1C072BE9D9104609B0F0BD5611000086
:100CE0000000024078790000FFB5FF2102910391D6
:100CF00004210190420C43D102980390544A116898
:100D00001024214206D0039A511E03910921002A82
:100D1000F4D135E04F4DD5604F4ED66000200090A5
:100D2000C1431161D560D6605161029803900CE017
:100D3000039B591E03910921002B21D0D560D66059
:100D40001168B94302230B4313601168032739402C
:100D50000229EDD101980099017002980390106862
:100D6000204206D00398411E039109210028F6D1A4
:100D700006E0D560D66000991161D560D6605161FA
:100D8000084604B0F0BDC0463149324ACA60324A12
:100D9000CA6080000C2210400B68934303430B6031
:100DA00000207047FFB50091FF210191039144029B
:100DB0000420610C4AD101980390254A106810263E
:100DC000304206D00399481E039009200029F4D12F
:100DD0003CE02049D160204FD7600023D843106108
:100DE0000291D160D7605061019803900DE00399A2
:100DF000481E03900920002928D00298D060D760AF
:100E00001068A843012101431160106803252840A0
:100E10000128ECD1009D03E09800295821505B1C6B
:100E2000802BF9D1019803901068304206D00399C5
:100E3000481E039009200029F6D107E00299D160ED
:100E4000D76000201061D160D760506104B0F0BD60
:100E5000200002405A5A0000A5A5000002460120C9
:100E600003468B4011681940002900D1084670479D
:100E700080B5034A8018012200F026FA002080BDC8
:100E8000140D024080B5024A8018FFF7E7FF80BDCD
:100E9000040D0240FEB515460E4601901C49471848
:100EA00038460C300024314622460294194B9847AC
:100EB000B000019908181C494450384608302A7877
:100EC0003146144CA0472A7938463146A047384667
:100ED0001C302A7A3146A047384620302A7B3146DA
:100EE000A047384624302A7C3146A0472C372A7D3B
:100EF00038463146A047A8690121C903064A13684C
:100F00008B43C00380B218431060029803B0F0BD59
:100F1000000D0240C9120000080F0240890040186D
:100F20000149425000207047000C024080B5034A3E
:100F30008018012200F0C8F9002080BD0C0D02408D
:100F400080B5034A8018012200F0BEF9002080BD60
:100F5000100D024081B00020009000980028FCD0C5
:100F600001B0704780B5C046C04680BD80B5C04660
:100F7000C04680BD8168C068091A0020401A4841F7
:100F8000704780B5C046C04680BD80B5C046C046EB
:100F9000C046C04680BD80B500F05EF880BD80B51B
:100FA000C046C04680BD10B514300024224600F073
:100FB0008BF9204610BD10B5001D0024224600F01C
:100FC00083F9204610BD80B5001D012200F07CF998
:100FD000002080BD80B51030FFF740FF80BD0000CD
:100FE000F8B50546042400291FD000246C60CCC944
:100FF00008681E4306433E4316436E608023134336
:101000002E1D1039C02B10D1C009094A024009A079
:10101000805A8A69824048691146FFF779F8A861C9
:1010200004210122304600F04FF9204601B0F0BD06
:10103000FCFFFF01040000000300000002000000AC
:101040000268FF239A430A4302600020704780B57C
:10105000C046C04680BD000080B503480068002837
:1010600000D0804780BDC046180C002005490A68A2
:10107000042313430B600122824008681043086078
:1010800030BF704710ED00E080B5C046C04680BD5F
:1010900080B5C046C04680BD80B5C046C04680BD54
:1010A00080B5C046C04680BD80B5C046C046C0467B
:1010B000C04680BD80B5C046C046C046C04680BD63
:1010C00080B500F033F880BD80B579480321002257
:1010D00000F0FAF880BDC04680B5024659480721A5
:1010E00000F0F2F880BDC04670B5FF230233042241
:1010F00098420FD20122D503074C2668AE43C9039C
:1011000089B231432160FE3318402168034B0B4004
:1011100003432360104670BD3014004000FEFFFF03
:1011200080B563480321FFF799FE80BD80B5FFF7C6
:10113000F7FF012801D1FFF7C7FF80BDB0B5044616
:101140000020FFF7C9FF2068C000082108403D4D7E
:101150002A688A4302432A60201D00F04DF80720C8
:1011600000022169090201406A6882430A436A60F9
:101170006169208BFFF7B8FF1A34204600F064F84D
:10118000B0BDC04670B52F4A1168802319420FD0F8
:10119000516801240C43546016490C46002C04D0BD
:1011A000611C556802263542F7D00921641C1FD006
:1011B00091680170D1684170156814691F21214040
:1011C0000826354200D0214681709169017151692C
:1011D000C170D1694171116A8171506801218843E0
:1011E00050601068002101E0506802231842FBD1D2
:1011F000084670BD18FCFFFFB0B501218A030168E5
:101200008B0313400F490C6894431C430C60036824
:101210000022012B07D0002B11D180680724204029
:101220000B68A34309E0047904203F2C08D83F2031
:1012300005020B68AB4304402002184308601046C7
:10124000B0BDC0460014004070B50321CB43184A1E
:10125000D158802421420ED0116801250D4315601C
:101260007D21CD006D1E0921124E35421DD0116821
:1012700002263142F6D00178516041789160817840
:10128000D16001795161417991618179D161C078F1
:1012900010611068012188431060D058002120425D
:1012A00003D0106802231842FBD1084670BDC04627
:1012B00004140040FFFF000080B5C046C04680BD5A
:1012C00080B5C046C04680BD01238B40012A02D1B3
:1012D0000168194301E0016899430160704780B5D6
:1012E000C046C04680BD000010B50246984B9948E4
:1012F0009860994898600420042A6CD87A4412793E
:101300005200974402142B3E560001200029024649
:1013100000D10A461C68844314431C600020002945
:1013200059D0D9680122D2021142FAD053E02B4899
:1013300002680324144304601868022290430122C7
:10134000002900D10A4652001043186000200029ED
:1013500041D0196940221142FBD03CE018680422B8
:1013600090430122002900D10A46920010431860E0
:10137000002000292FD05969012212031142FAD00E
:1013800029E003208003144A146804431460186899
:10139000082290430122002900D10A46D2001043BE
:1013A00018600020002916D0996940221142FBD014
:1013B00011E01868102290430122002900D10A464A
:1013C0001201104318600020002904D0D96B0122BB
:1013D00092041142FAD010BD8C0D02404C1D024007
:1013E000F0B58AB0B148018807914188069181889B
:1013F0000491C1880291058C0B20C143CA4A505800
:10140000440907231C400120C603C94808903648F8
:101410000090364801903648039036480590364F84
:101420007B48042C099124D87C4424796400A74487
:10143000025422292B001068089908400799884215
:1014400038464AD01068089908400699884205989D
:1014500043D01068089908400499884203983CD00A
:1014600010680899084002998842019835D0009880
:1014700033E0002031E09068AA4901404B2040024F
:10148000A9422AD0304628E0116B03240C40032CDB
:1014900005461DD1106808990840079988423D46C5
:1014A00016D010680899084006998842059D0FD00B
:1014B00010680899084004998842039D08D0106874
:1014C0000899084002998842019800D00098054682
:1014D000106B41090F200840684309995158090AC7
:1014E0001940C8400AB0F0BD00093D0000127A0062
:1014F0000024F4004086510100366E0180B5FFF7EC
:101500006FFF75490968C90A03220A40D04080BDAF
:101510007149724A8A60724A8A6007221202000286
:1015200010400B68934303430B6000207047C04694
:1015300069496A4A8A606A4A8A600322D202C00202
:1015400010400B68934303430B6000207047C04674
:10155000002000405A5A0000A5A50000F0B5534AEB
:10156000118856889588D38884686F4A032C23D1C4
:1015700017686F4C27408F4203D1C7680621022F9E
:1015800044D811682140B14203D1C6680621022E19
:101590003CD811682140A94203D1C5680621032D1A
:1015A00034D81168214004460C3499420DD1236887
:1015B0000621062B09D929E0C168154B4B43044687
:1015C0000C340621134DAB4220D803214B03056890
:1015D0006D031D40166B9E432E43166343689B00AC
:1015E0001C252B40166BAE431E4316630F235B0175
:1015F000246864011C40156B9D4325431563806876
:101600000840136B8B430343136300210846F0BD6E
:101610000048E801006CDC0270B50C460546A806DF
:101620000C4802D4294622460FE020218D43061D96
:10163000304629462246FFF747FE0748032D01D1D1
:10164000047004E0027803213046FFF73DFE0020DD
:1016500070BDC04620200040240C002040001349EB
:10166000405A3349014030480268324B13400B4323
:10167000036000207047C0460321890280020840B1
:101680000B4A13688B430343136000207047C04626
:1016900040000649405A2349014005480268234B4F
:1016A00013400B43036000207047C046000C10003D
:1016B0001420004080B50849084A8A60084A8A60B8
:1016C0000A68E0239A434001C0B21043086000F06A
:1016D00009F8002080BDC046002000405A5A000092
:1016E000A5A5000080B5FFF77BFE1349086080BD0B
:1016F00010B50B49488B0B4A02400B4883680B4CD2
:101700001C40144384600988094A0A400168094B57
:101710000B4013430360FFF763FE0749086010BDE9
:10172000080C1000FF0300000C20004000FCFFFF2D
:10173000FF07000000F8FFFF1400002080B500F054
:1017400019F880BD80B5C046C04680BD80B5C04692
:10175000C04680BD80B5C046C04680BD80B5C0468D
:10176000C04680BD80B5C046C04680BD80B5C0467D
:10177000C04680BD80B500200146FFF799F90128D9
:101780000AD106480168491C016005480121017021
:1017900000200146FFF782F980BDC046280C0020DA
:1017A0002000002080B500F009F8C046C04680BD8A
:1017B00080B5C046C046C046C04680BD80B503481F
:1017C0000068002800D0804780BDC0461C0C002067
:1017D00010B5143000242246FFF776FD204610BDD8
:1017E00010B5001D00242246FFF76EFD204610BDF7
:1017F00080B5001D0122FFF767FD002080BD80B588
:101800001030FFF72BFB80BD70B50546042400297E
:101810001ED000246C604CC908681E430643164362
:101820006E60802313432E1D0C39C02B10D1C009CC
:10183000084A024008A0805A4A6982400869114655
:10184000FEF766FCA861042101223046FFF73CFD4B
:10185000204670BDFCFFFF010400000003000000F3
:101860000268FF239A430A4302600020704780B554
:10187000C046C04680BD80B5C046C046C046C046D2
:1018800080BD80B5C046C04680BD000002481E2114
:101890000160E12101607047800F004010B50F2208
:1018A0001140074B1C6894430C431C6040012021ED
:1018B00008401A688A4302431A60002010BDC046DF
:1018C000840F004010B51F4C2278501E6321002A5F
:1018D00000D1084620700321084203D102F092F99A
:1018E00004F08EFC02F0F4FD002802D005F0EAF9C5
:1018F00005E020780621FEF70BFC0029F6D02078C1
:101900000F21084202D102F027F920780F2806D0D3
:101910000C280BD0032808D103F0EEFC10BD02F018
:10192000BFFD012801D102F0FFFD10BD6088002835
:1019300002D0401E608010BD4B20C000608002F0CD
:1019400047F810BD1000002080B500200621FFF7E9
:10195000EDFA80BD80B502F0D1FE80BD10B5044621
:1019600002F086FE164801784A1C02708A0082182E
:101970009460002902D002F00FFC10BD002101701C
:10198000816841600F48027843781B0213438278D4
:1019900012041A430C4B994208D80270110C817042
:1019A0000121C90311430A0A427000E01146017087
:1019B0000A0C8270012292020A43110A417010BD82
:1019C000F00000202C0C0020890C000080B503F0F2
:1019D0007AF880BD80B503F086F880BD80B5012817
:1019E00007D10A4804F084FB05480121016008A0E2
:1019F00003E003480221016002A002F0F1FD80BD76
:101A00003401002063683D3438350000956C0000D7
:101A100063683D7A6762000070B50446012C17D1F7
:101A20001C200125174E2946B04708202946B047FB
:101A300000202946B04728462946B04702202946BB
:101A4000B0471F202946B0470F202946B0470FE076
:101A500008200C4D2146A84700202146A847012018
:101A60002146A84702202146A8471F202146A84713
:101A700010202146FFF7D0FD1B202146FFF7CCFDAB
:101A800070BDC0461916000070B502F096FE02F057
:101A9000A0FE02F0AAFE104C267801252E4001F08F
:101AA00055FE2178864208D1FB200840207029424B
:101AB00007D002F08FF8207803E004200143217062
:101AC0000846FD210140217001F040FE014603A0BF
:101AD00002F086FD70BDC0463408002043462564F0
:101AE0000000000010B50A4C2078C00702D102F0B7
:101AF00076FE01E002F097FE20780124204001F0FC
:101B00002DFE4B20034A214604F018FD10BDC046AF
:101B100034080020891A0000BCB55C4C0121204625
:101B2000FFF758FA002821D001212046FFF73BFAA1
:101B3000544DA86804F0B4F9297F012806D1032088
:101B400001432977E87F21216854BCBDFE20014074
:101B50002977A86801A904F049F9012806D101A84C
:101B600000782168FF229143014321600021204633
:101B7000FFF730FA002812D000212046FFF713FAB1
:101B8000216801A801703F4C6068C9B204F042F9B5
:101B9000A07F20216054207FFB2101402177BCBD24
:101BA0007CB5384C207FC0072FD02120215C002934
:101BB00004D0491E2154FF20014226D12069FFF79D
:101BC000D9F9002821D120692F4D2946224602F05B
:101BD000CDF8012819D1002604E00178A06804F0AE
:101BE00019F9761CA81921688E42F6D3A06801A9BC
:101BF00004F0FCF8012808D101A801782348FFF778
:101C00001FFA207FFE2101402177207F0221084218
:101C100007D0FD2108402077A169002901D088471D
:101C2000207F40071DD42020215C002904D0491EBC
:101C30002154FF20014214D10025134E05E06068B5
:101C400004F0D4F8052803D06D1C71197F2DF6DD42
:101C5000E0680D492A4603F0D1F9207F04210143B1
:101C60002177E068FFF786F900280AD1E068064985
:101C7000224602F07BF86269002A02D021680248FD
:101C800090477CBD3000002050050020000200403D
:101C9000F0B587B06C461C21204602F05DF80027A5
:101CA00001974025284639462246FFF7F3F80326D8
:101CB000284639463246FFF731F9012001900B27BB
:101CC000284639462246FFF7E5F828463946324687
:101CD000FFF724F907B0F0BDB0B50446CDB22946F0
:101CE00002F068F801280BD002F0FAFB002807D0B8
:101CF00002F0F2F9002803D02046294604F0CAFF7A
:101D0000B0BD704780B502F0A9FF80BD10B508488E
:101D1000017842788378C478C4708370427022025C
:101D20001A4312040A4340211143017010BDC046FA
:101D30000C00002070B50446514DA96851A0224600
:101D400002F04EFCA868A04200D197E0601E042873
:101D50000FD8C04678440079400087440212345CB2
:101D600078000120A8601920FF21494A04F0E6FB11
:101D700083E02046523802287FD354A002F030FC82
:101D800070BD01F095FD434A117853781E020E4351
:101D900091780B04334301214E043C21334208D097
:101DA0003E490B401370190A5170190C91704B2168
:101DB0008900884200D3014614204843E86038A0D7
:101DC00002F00EFC59E0334E30787178090201437D
:101DD000B07800040843354901403170080A70703A
:101DE000080CB07003F07EFA002832D03078717899
:101DF00009020143B078000408430421084237D1A6
:101E0000314A1040020A727001433170000CB07008
:101E100003F046FB2FE01F48017882784378437037
:101E200082701B020B431104194302220A43027001
:101E300001F00EFD18490A787821002A00D00146E9
:101E4000782800D30146084602F012FB15E00F483F
:101E500012E00020E8603078B17872787270B1706A
:101E6000120202430804104308210143317004E0C8
:101E70000FA002F0B5FB3C20E860AC6070BDC0462E
:101E8000E00000200A25644425640000701700006B
:101E9000ED1E00002C0C002008000020FFFFFD00BC
:101EA00064656275675365633D256400F3FFFE005A
:101EB0006742312E6374726C5061636B54783D31AC
:101EC0002065727200000000F3FFFF000D0A2A2A4D
:101ED0002A2A2A2A205F64657653746174655365E3
:101EE0007420457272202A2A2A2A0000B0B5294D92
:101EF000A86802280ED0532811D0052819D05228DE
:101F00001CD003282CD1E868002831D123A002F08E
:101F100067FBB0BD2868002823D0401E24E0EC6891
:101F200028212046FEF7F4F8002911D103F092F998
:101F30000DE0E86800281BD10E200FE0EC681421AA
:101F40002046FEF7E5F8002902D104F021FEEC68F6
:101F5000002C02D0601EE860B0BD0C2002F048F9F1
:101F6000B0BD03F09DFAA0202860E868002802D0E8
:101F7000401EE860B0BD04F013F80028F0D1064818
:101F800080780004C003EBD401F02EFE0028E7D1D6
:101F90000420E3E7E00000202C0C0020726561645F
:101FA0004374726C496E666F456E6400B0B588B05C
:101FB00001AC1C21204601F0CFFE002502950495BE
:101FC000059502F055FB052128462246FEF762FFE3
:101FD00008B0B0BDB0B5044665022846FEF784FEE1
:101FE0000028FAD103492046FEF7DCFE0021091A39
:101FF0004841B0BD4401002080B502F0D8FB01206B
:10200000024A014604F0B8FA80BDC046E51A000055
:10201000B0B50224522806D0652803D0532813D126
:10202000032400E00424E0B26D4D2978814204D1FC
:102030006A480078FF2800D0B0BD00F07DF86C70D1
:102040002C7000F06DF8B0BD00F076F8B0BDC04661
:1020500080B500F071F880BD10B588B001AC1C21CE
:10206000204601F079FE01200290002004900590A6
:102070004120800105212246FEF70CFF08B010BD6B
:1020800010B588B001AC1C21204601F065FE02F0BD
:102090001EFD002002900490059004212246FEF7C8
:1020A000F9FE02F014FD08B010BD0000FEB51A499B
:1020B0000868401C08600022184D17461FE033785E
:1020C000354610350027002B17D0B0681249096833
:1020D000081A0127002810D0019302927168FEF7B8
:1020E00017F8002908D10198FF2801D0401E307050
:1020F000F068002800D08047029A2743521C3C46D3
:102100002E46D0B21F28DAD9200600D0FEBD02F03C
:1021100009FE00F071FFFEBD38010020180A002002
:1021200080B5FFF757FC962001212E4A04F006FAED
:102130002A49087080BDC04680B5284804F023FABB
:1021400027480021018080BD10B502F097F90446B0
:102150004F2C0ED8FFF77CFF0B480178491C01700B
:10216000052C0DD0032C08D0022C06D102F0C0FCA7
:1021700010BD2046FFF74CFF10BD02F0A4FC10BDBF
:1021800002F0B1FC10BDC0464803002010B5134C4E
:10219000FF202070FFF71AFC96200121024A04F06C
:1021A000CDF9207010BDC046AD210000B0B50B4C7C
:1021B000FF2020700A4D681C01F0C2FB68780028DF
:1021C00005D0FFF707FC96200121064A02E00648E9
:1021D0000121064A04F0B2F92070B0BD19000020B8
:1021E000D40000208D210000520300001D300000AB
:1021F000B0B504460E4D2968A14217D00DA0224665
:1022000002F0EEF902F074F9012C08D100280CD08C
:102210007A20002101F0ECFF04F068FB05E00028C3
:1022200003D14820002101F0E3FF2C60B0BDC0467F
:10223000200C00200D0A5A5325642D25640000004F
:1022400010B5DD4800790024800707D5DB48826897
:102250000124002A02D00C300F219047204610BDE7
:1022600010B5D54800790024C00707D0D34882684C
:102270000124002A02D01B300F219047204610BDB8
:1022800010B501F0BFF9002810D00C4C611C20469D
:1022900001F0B2F8002802D10AA002F0A1F9084822
:1022A0008268002A09D06178204605E004488268E7
:1022B000002A02D001484178904710BD280900202B
:1022C000000100205F6E3273547820583100000006
:1022D000B0B5DA49097989060024002928D50028F3
:1022E00008D0D14882680124002A21D0CF48417803
:1022F00090471DE0CD4C2046143003F009F9112021
:10230000E07300202074607421461231042004F030
:1023100077FAAB4D697B0320224604F05AF9FFF7A8
:10232000AFFF082004F094F9687BE04908700124AD
:102330002046B0BDFEB5DC490979C9060024002954
:1023400029D5002808D0D94882680124002A22D043
:10235000D748417890471EE003F0DFF802AB1870D1
:10236000D34D28460F30694601240C604860002098
:1023700003260146324602F0E3F8CE4F797B304621
:102380002A4604F026F9FFF77BFF082004F060F9E5
:10239000787BE8490870204603B0F0BD1FB5E449DA
:1023A0004979C9060024002937D5002808D0E1481A
:1023B00082680124002A30D0DF48417890472CE021
:1023C00003AC204603F0BFF8DB480F306946022219
:1023D0000A604860002017220146234602F0B0F848
:1023E00004F02EF900280CD0D44C617B0320D24A93
:1023F00004F0EFF8082004F02BF9607BEA4908703C
:1024000008E0E9480178491C0170C9B20320E74A95
:1024100004F0DFF8FFF734FF0124204604B010BDBC
:102420007FB5E049497949060024002928D50028CC
:1024300008D0DD4882680124002A21D0DB48417899
:1024400090471DE003F09AF803AB1870D74D28466B
:102450000F30694601240C604860002027220146A5
:1024600002F06EF8EE4E717B03202A4604F0B1F8BC
:10247000FFF706FF082004F0EBF8707BE6490870D0
:10248000204604B070BDC04670B5E24909794907DD
:102490000024002928D5002808D0DF4882680124BC
:1024A000002A21D0DD48417890471DE0DB4D2846C9
:1024B000143003F051F80920E87300202874687480
:1024C000294612310124204604F09AF9D44E717B3A
:1024D00003202A4604F07DF8FFF7D2FE082004F01E
:1024E000B7F8707BEE490870204670BD7FB5EB49A8
:1024F000497989060024002928D5002808D0E84811
:1025000082680124002A21D0E648417890471DE0E6
:1025100003F04BF803AB1870E24D28460F306946C4
:1025200001240C60486000202622014602F008F8D1
:10253000DD4E717B03202A4604F04BF8FFF7A0FE26
:10254000082004F085F8707BF2490870204604B03A
:1025500070BDC046B0B5EE498979890700240029CD
:1025600028D5002808D0EB4882680124002A21D011
:10257000E948417890471DE0E74C2046143003F0CD
:102580003FF8401DE0730020207460742146123132
:102590002A2004F035F9E14D697B0320224604F03E
:1025A00018F8FFF76DFE082004F052F8687BF84930
:1025B000087001242046B0BD080000200001002062
:1025C0003808002010B5F149C9798907002400298D
:1025D00028D5002808D0EE4882680124002A21D09E
:1025E000EC48417890471DE0EA4C2046143003F057
:1025F0001BF8401DE07300202074607421461231E6
:102600002A2004F0FDF8E2480178491C0170C9B2A3
:102610000220224603F0DDFFFFF732FE082004F01F
:1026200017F80124204610BD0001002028090020D1
:10263000F2484068C10801200840704708000020A7
:102640007FB5EE49497949070024002928D500289B
:1026500008D0EB4882680124002A21D0E94841785B
:1026600090471DE003F000F803AB1870E54D2846D5
:102670000F30694601240C60486000201522014695
:1026800001F05EFFE04E717B03202A4603F0A1FFBC
:10269000FFF7F6FD082003F0DBFF707BF6490870BA
:1026A000204604B070BDC046080000200001002094
:1026B00028090020380800201CB5EE49497909078F
:1026C0000024002931D5002808D0EB488268012475
:1026D000002A2AD0E9484178904726E0E7490F319F
:1026E0006A46002003C216220146034601F028FF75
:1026F00003F0A6FF00280CD0E14C617B0320DF4AE9
:1027000003F067FF082003F0A3FF607BF94908701E
:1027100008E0F8480178491C0170C9B20420F64A63
:1027200003F057FFFFF7ACFD0124204602B010BDB7
:10273000080000200001002028090020380800209F
:10274000B0B5EB49497909060024002928D50028AD
:1027500008D0E84882680124002A21D0E648417860
:1027600090471DE0E44C2046143002F037FF09206A
:10277000E07300202074607421461231282004F098
:102780003FF8FB4D697B0320224603F022FFFFF751
:1027900077FD082003F05CFF687BF3490870012493
:1027A0002046B0BD080000200001002028090020BC
:1027B000B0B5EC498979C9070024002928D0002840
:1027C00008D0E94882680124002A21D0E7484178EE
:1027D00090471DE0E54C2046143002F047FF0D20E5
:1027E000E07300202074607421461231292004F027
:1027F00007F8FC4D697B0320224603F0EAFEFFF751
:102800003FFD082003F024FF687BF4490870012491
:102810002046B0BD0800002000010020280900204B
:10282000380800201CB5F64909794906002400291A
:1028300031D5002808D0E94882680124002A2AD02E
:10284000E7484178904726E0E5490F316A46002085
:1028500003C205220146034601F072FE03F0F0FEBA
:1028600000280CD0DF4C617B0320DD4A03F0B1FE71
:10287000082003F0EDFE607BD849087008E0D748D7
:102880000178491C0170C9B20420D54A03F0A1FEA9
:10289000FFF7F6FC0124204602B010BD080000201E
:1028A000000100202809002038080020B0B5D449D4
:1028B000097909060024002928D5002808D0C7482E
:1028C00082680124002A21D0C548417890471DE044
:1028D000C34C2046143002F0ECFE0920E0730020C7
:1028E0002074607421461231122003F089FFBD4D1F
:1028F000697B0320224603F06CFEFFF7C1FC082031
:1029000003F0A6FE687BB549087001242046B0BDDF
:1029100008000020000100202809002038080020BD
:10292000002070477FB5B6494979890700240029FE
:1029300028D5002808D0A94882680124002A21D07F
:10294000A748417890471DE002F0C5FE03AB187020
:10295000A34D28460F30694601240C6048600020D2
:102960001422014601F0ECFD9E4E717B03202A46A5
:1029700003F02FFEFFF784FC082003F069FE707B54
:1029800096490870204604B070BDC046080000207B
:102990000001002028090020B0B5F8494979C9078D
:1029A0000024002928D0002808D08C4882680124FF
:1029B000002A21D08A48417890471DE0884C204663
:1029C000143002F08AFE0920E07300202074607445
:1029D00021461231132003F013FF824D697B03203F
:1029E000224603F0F6FDFFF74BFC082003F030FE13
:1029F000687B7A49087001242046B0BD0800002099
:102A00000001002028090020380800207FB5F14986
:102A10008979C9060024002928D5002808D06F48E4
:102A200082680124002A21D06D48417890471DE03A
:102A300002F065FE03AB1870694D28460F306946F9
:102A400001240C60486000209922014601F078FDC5
:102A5000644E717B03202A4603F0BBFDFFF710FC98
:102A6000082003F0F5FD707B5C490870204604B037
:102A700070BDC04608000020000100202809002089
:102A8000380800207FB5EF4989790906002400291C
:102A90002AD5002808D0514882680124002A23D072
:102AA0004F48417890471FE003AD284602F02BFEC7
:102AB0004B4C20460F30694603260E6048600020CC
:102AC000A12201462B4601F03BFD464D697B304675
:102AD000224603F07EFDFFF7D3FB082003F0B8FD8C
:102AE000687B3E4908700124204604B070BDC04692
:102AF0000800002000010020280900207FB5E849D7
:102B0000897989060024002928D5002808D033486F
:102B100082680124002A21D03148417890471DE085
:102B200002F0F5FD03AB18702D4D28460F306946B5
:102B300001240C60486000209E22014601F000FD47
:102B4000284E717B03202A4603F043FDFFF798FBD4
:102B5000082003F07DFD707B20490870204604B0FA
:102B600070BDC04608000020000100202809002098
:102B7000380800207FB5DF498979490600240029FB
:102B800028D5002808D0154882680124002A21D0C1
:102B90001348417890471DE002F0BDFD03AB18706B
:102BA0000F4D28460F30694601240C604860002014
:102BB000A022014601F0C4FC0A4E717B03202A4684
:102BC00003F007FDFFF75CFB082003F041FD707B7D
:102BD00002490870204604B070BDC04600010020C4
:102BE0002809002038080020C2484068C10C012094
:102BF00008407047BF484068810C0120084070477A
:102C000008000020B0B50446184D281D03F048FE0A
:102C1000A868022802D12046FFF78CF8B0BDC04654
:102C200010B50146114C201D03F036FEA0680528A2
:102C300000D110BD616800290CD00DA001F0D0FCBE
:102C400060680121084209D1C0060BD40FA001F031
:102C5000C7FC10BD0220FFF76DF810BD5220FFF732
:102C600069F810BD5320FFF765F810BDE0000020A3
:102C70005F6F6E457272546F4F6B5F64657645721D
:102C8000724269743D25303858000000206F6E454F
:102C90007272546F4F6B5F583100000070B500F0D6
:102CA0000FFF00283AD02348FF2101702248017805
:102CB000427813020B4381780A041A43130C012152
:102CC0000B401E4C2578AB420FD00E041346B34385
:102CD0003243002D00D0134603701A0A42701A0CBA
:102CE0008270114016A001F07BFC601C02F0E9FC30
:102CF000607900281AD000F0C2FE637A227AE17966
:102D0000A07900F08AFC00F061FFA07A00280CD0C6
:102D10000DA001F065FC00F05DFF70BD01200E4AC2
:102D2000014603F00BFC0349087070BD00F0A2FEE1
:102D300070BDC046180000202C0C0020D8060020D2
:102D40004462673D256400000A6F70656E536563D9
:102D500052657374617274009D2C000080B501F09F
:102D60007DFF80BDA34841680222914341607047C6
:102D7000A04841680122914341607047080000204B
:102D80009C484168202291434160704799484168BE
:102D900010229143416070470120000395494A6821
:102DA00082434A607047C0460120800391494A68C7
:102DB00082434A607047C0468E484168042291436E
:102DC00041607047012040038A494A6882434A6053
:102DD0007047C046080000200120400485494A6829
:102DE00082434A607047C0460120400681494A68D4
:102DF00082434A607047C0467E484168082291433A
:102E000041607047012080027A494A6882434A60E3
:102E10007047C0460120C00276494A6882434A6032
:102E20007047C0460120C00372494A6882434A6025
:102E30007047C046012000046E494A6882434A60D8
:102E40007047C046080000206A484168402291430C
:102E500041607047674841688022914341607047F4
:102E60000120000663494A6882434A607047C046B1
:102E7000012040025F494A6882434A607047C04669
:102E8000012000025B494A6882434A607047C0469D
:102E90000120000557494A6882434A607047C0468E
:102EA000080000200120C00552494A6882434A6058
:102EB0007047C046012040054E494A6882434A6037
:102EC0007047C046012080054A494A6882434A60EB
:102ED0007047C0460120C00446494A6882434A60A0
:102EE0007047C0460120800442494A6882434A60D4
:102EF0007047C04608000020B0B503F0BDFA0028B6
:102F000003D103F0ADF8002800D0B0BD064C074D4A
:102F10002046294603F060FA2978204603F0ECF8B1
:102F200001F04CF9B0BDC046E8060020E4060020E0
:102F300070B520280FD80401354D2E197160334823
:102F40000068B0602A55F360002A04D0002802D13E
:102F5000014801F0DDFE70BDAD200000F8B50E4661
:102F60000746144C204639463246FDF741F92046C3
:102F700001F0FAFA01280BD1E078032803D0617B35
:102F8000202000F021F8052003F062FB01250DE070
:102F900009A00025394632462B4601F04BFB617BE8
:102FA000222000F011F8062003F052FB284601B061
:102FB000F0BDC046380800205F7478744672616DB9
:102FC0006545786500000000B0B50C46084D687690
:102FD0002846103003F0ACFE2C760C350021284634
:102FE00002F065FF0348416802220A434260B0BD17
:102FF000000100200800002080B504480021016085
:1030000001204202024800F086FC80BD3801002009
:10301000180A002080B501F0BFF880BD80B50448D3
:10302000FF210170034801784170FFF779F880BDF6
:1030300019000020D4000020BCB501218C072046D7
:10304000FEF7DDFB002821D001212046FEF7C0FB62
:10305000554DA86802F024FF297F012806D10320DE
:1030600001432977E87F21216854BCBDFE2001403F
:103070002977A86801A902F0B9FE012806D101A8A4
:1030800000782168FF2291430143216000212046FE
:10309000FEF7B5FB002812D000212046FEF798FB72
:1030A000216801A80170404C6068C9B202F0B2FE0C
:1030B000A07F20216054207FFB2101402177BCBDEF
:1030C0007CB5394C207FC00730D02120215C0029FD
:1030D00004D0491E2154FF20014227D12069FDF769
:1030E00049FF002822D12069304D2946224600F0B0
:1030F0003DFE01281AD1002604E00178A06802F004
:1031000089FE761CA81921688E42F6D3A06801A911
:1031100002F06CFE012809D101A801780120800786
:10312000FEF79EFB207FFE2101402177207F0221B8
:10313000084207D0FD2108402077A169002901D06D
:103140008847207F40071DD42020215C002904D01F
:10315000491E2154FF20014214D10025134E05E0E1
:10316000606802F043FE052803D06D1C7119FF2D25
:10317000F6DDE0680D492A4601F040FF207F04217A
:1031800001432177E068FDF7F5FE00280AD1E068E9
:103190000649224600F0EAFD6269002A02D0216851
:1031A000024890477CBDC04660000020D405002046
:1031B000F0B587B06C461C21204600F0CDFD002004
:1031C000019040250627284639462246FDF762FE33
:1031D0000226284639463246FDF7A0FE012001901E
:1031E0000727284639462246FDF754FE2846394629
:1031F0003246FDF793FE07B0F0BD0000F0B587B092
:103200000546CFB2202F2AD3687DA97D090201434C
:10321000E87D2A7E1202024310040843697E04916D
:10322000297D0391AE7F297F6A7FAB7EEC7E06907D
:103230002002184312020A4311040143059106A813
:1032400003F0E6FA05A803F0E3FA069A0598694642
:1032500041C112A00399049B01F0C2F901E0082FBB
:1032600002D312480321017001F03AF9002808D076
:1032700000F032FF00280ED02846394600F032FF19
:1032800009E02846394603F067FB012803D02846A9
:10329000394602F0B9FF07B0F0BDC046256473257A
:1032A000646325646F2564722564000008000020B3
:1032B0007047000080B501F089FE114801788278DE
:1032C0004378437082701B020B4311041943402260
:1032D0000A43027080BDC04680B501F083FE0848F5
:1032E00041788278037803708270090219431204CE
:1032F0000A43012109021143090A417080BDC046F9
:103300002C0C0020F0B58DB00C460546287803F053
:10331000F1F9002819D0207803F0F1F9002816D02F
:1033200020786978814214D1A878AE1C03F061FA44
:10333000002810D0307803F05AFA00280DD02078F9
:10334000C01C000710D01FA008E028A006E024A0A1
:1033500004E01B4802E01FA000E01D4801F040F916
:10336000002738460DB0F0BD019609A9284600F0A7
:1033700037F90294207804900D2603950AE009A8F5
:1033800005A90A46B8C8B8C2039DA819012200F0D1
:10339000A9F81036F6B204988642F0D3049828189B
:1033A0000021C943425C4018002AFBD00127791B49
:1033B0000C186C70019803F029F902980470D0E79A
:1033C00098790000616573446563205836000000F9
:1033D000A2790000616573446563205834000000E1
:1033E0006165734465632058320000006165734471
:1033F0006563205831000000F0B58BB00D460446DF
:10340000207803F077F9002815D0287803F077F9B1
:10341000002812D028786178814210D1A078A61CAB
:1034200003F0E7F900280CD0307803F0E0F9012828
:103430000DD1224806E028A004E024A002E01E48A6
:1034400000E01FA001F0CCF800200BB0F0BD30462A
:1034500003F0E1F807A9204600F0C2F82878C11C63
:103460000F220A400021002A0AD0D2B210239E1A4D
:1034700006D020180021324600F04DFA2878314657
:103480000294081828700D2601950CE007A803A9DE
:103490000A46B8C8B8C2019D02988019002200F0FF
:1034A00021F810362878F6B2C1B28E42EED30299D6
:1034B00048700120C9E7C04698790000A279000051
:1034C000616573456E632058340000006165734583
:1034D0006E63205832000000616573456E632058AA
:1034E00031000000F0B593B00F46054600240E945D
:1034F0000D940C940B940A940994089407940694E0
:10350000059404940394002A02951BD01B2001907B
:103510000121FEF781F80BA80090102639463246AB
:10352000FCF766FE07AF384629463246FCF760FED8
:1035300003AD10950F970098119012940FA8FDF706
:1035400079F919E01B2001900121FEF765F8294661
:1035500007AD102628463246FCF74AFE39460BAF27
:1035600038463246FCF744FE109503AD0F9511978F
:1035700012940FA8FDF7ACF9029829463246FCF7E1
:1035800037FE01982146FEF747F813B0F0BD7047AB
:1035900080B500F049F880BD80B500F04FF80120FB
:1035A00080BD0000B0B5827803799C1803221440D6
:1035B0000AA31C5D0C70C47805792C1914401C5D9D
:1035C0004C70047914401C5D8C708478C5782C197B
:1035D000007920181040185CC870B0BD467A394098
:1035E00070B50C4605462046FFF7D2FF26460C363E
:1035F00028463146FFF7D6FF08342046314600F012
:1036000094F970BD80B500F02FF880BD80B500F052
:1036100033F880BD000208437047000208430002EF
:10362000104300021843704780B5002804D0D649E3
:1036300038310C22FCF7DCFD80BDC046B0B5044635
:10364000002C10D0DB4D38350C2220462946FCF7E3
:1036500001FE002807D00C2228462146FCF7C8FDB1
:10366000D34801210170B0BDD848416B0120002929
:1036700000D108467047C046D4494A6B824203D005
:103680004863CB48012101707047C046CF4880682D
:103690007047C046CD498A68824203D08860E748B7
:1036A000012101707047C046E548416901200029A9
:1036B00000D108467047C04680B5014605484269BA
:1036C0008A4206D0416104A000F08AFFDB48012154
:1036D000017080BDEC0700206366674374726C4D17
:1036E0006F64652025640000D54988693B2801D8AE
:1036F0003C2088617047C046B0B504463C203C2C55
:1037000000D80446064DA869A04207D005A021466E
:1037100000F066FFAC61C94801210170B0BDC04630
:10372000EC0700206366674F5365633D2564000026
:10373000C348C0697047C046C149CA69824203D0C4
:10374000C861BE48012101707047C046BC48016B8A
:103750000120002900D108467047C046B8490A6BCD
:10376000824203D00863B548012101707047C0460A
:1037700080B50748C078012802D106A000F030FFCC
:10378000224800210160FE2000F02AF880BDC046DA
:103790002C0C00200D0A636667506167654964441C
:1037A00065660000194800687047C04680B500F0A3
:1037B0000FF816480068000A01D0FFF7D9FF80BD56
:1037C0000146C439012000223B2900D3104670472E
:1037D00080B5FF2000210D4A012301F032F880BDA1
:1037E00080B50146094A136800208B420DD0116054
:1037F0000748C078012802D106A000F0F1FEFF20A2
:103800000021024A012301F027F880BD3001002089
:103810002C0C0020636667506167654964536574CA
:103820003D256400864A136A0360506A0860704749
:10383000834A136A834203D01062804801230370D5
:10384000506A884203D051627C4801210170704760
:103850007B49C8680522052803D34B22D200904239
:1038600001D9CA6010467047B0B504460C4DE868EF
:10387000A04213D0E2084B21C9004B2A00D30C46CA
:103880000521052C00D80C46A04207D005A02146F2
:1038900000F0A6FEEC60694801210170B0BDC04691
:1038A000EC070020636667535365633D25640000A1
:1038B000634908693C223C2803D3E122D2009042AC
:1038C00001D90A611046704710B501460B480269DC
:1038D0008A4212D0CC08E123DB00E12C00D3194648
:1038E0003C233C2900D819468A4206D0016104A035
:1038F00000F076FE51480121017010BDEC07002058
:10390000636667575365633D2564000080B500F02A
:103910001FFC80BDFEE710B55242002302E0C41A2E
:1039200021705B1E9A42FAD110BD0A780378534089
:1039300003700A785A400A7001785140017070474C
:103940000178002901D0491E0170704710B53C482C
:103950000168491C01D10021016000210A224B238A
:103960009B00B42441608160C26003614161846155
:1039700001223C2302624362416304490164C16342
:1039800081632E48027010BDEC070020585858582B
:1039900080B5FFF70BFF00F00FF8284800210170F9
:1039A00027484068002801D0FFF7D0FF80BDC046FF
:1039B0002D010020EC07002080B5FFF7F3FE002169
:1039C0001F4A122300F03DFF80BDC046EC070020D7
:1039D000B0B51A48017800292FD000210170184C89
:1039E0002068401C2060FFF7DDFE451E2846FFF7DB
:1039F000E7FE00280FD02068124988420BD301202F
:103A00002060002113232846224600F025FF284687
:103A1000FFF7E6FEB0BD0C48C078012806D1FFF7DD
:103A2000C1FE0146226809A000F0DAFDFFF7BAFEE8
:103A30000021034A132300F00FFFB0BD2D01002029
:103A4000EC070020D17E01002C0C002077666C6111
:103A500073682C5049643D256420636E743D256471
:103A6000000000007C480178FA220A40042111433A
:103A70000170704780B5FFF7F5FF80BD704780B5D6
:103A800000F042F880BD80B500F0B8F880BD0000BD
:103A900010B500F027F800F041F8FFF7EFFF6E4C8B
:103AA0002078F5210140082008432070FFF74EFEE2
:103AB000012101402078FE2202400A43227010BDFD
:103AC00010B565480478002006210C4200D010BDD6
:103AD00001200440FFF73AFE211A0020401A484115
:103AE00010BDC046704780B5FFF7DEFD0021091A02
:103AF000484180BD80B5002801D0012000E00020B1
:103B0000FFF7DAFD80BD00005348017805220A4323
:103B10000270704780B5FFF7E7FD80BD7047000079
:103B2000B0B54D48007840070024800F01D02046F2
:103B3000B0BDFFF70BFE0028F9D0FFF7F9FD0446F2
:103B400001F04CF8051BFFF7CFFD01240021854251
:103B5000EDD20C46EBE7C046B0B5184D28784007CB
:103B6000800F03D100F09CFC002800D0B0BDFFF70F
:103B7000EDFD0028FAD0FFF7DBFD044601F02EF83A
:103B8000041BFFF7B1FD8442F0D30DA000F028FD27
:103B90002878FA2101400420084328700A48017857
:103BA00082784378437082701B020B4311041943DF
:103BB00010220A43027000F025F8B0BD340800203E
:103BC000636C6F73650000002C0C002080B5FFF75C
:103BD00093FD80BD80B501F001F8FFF7ADFD80BD1C
:103BE0000548002101707047034801780120002931
:103BF00000D108467047C046D806002080B5FFF7C0
:103C0000A5FD80BD70B5144C267802252E4222D128
:103C100030070AD401200640FFF798FD217886423C
:103C200009D1F9200140217070BDF3200640042025
:103C30003043207070BD04200143217007A000F0C4
:103C4000CFFC20782843207000F0BDFD32200121F8
:103C5000034A02F073FC70BD340800200A4353008D
:103C6000F91F0000B0B58CB0054601AC20461830F5
:103C70001421FCF7D6FA28680949401806902879DB
:103C8000401E059068790490A8790390E879029025
:103C9000287A01902046FCF765FA0CB0B0BDC0460A
:103CA00094F8FFFF80B500F003F800F011FA80BD32
:103CB000B0B586B001A98020088048800124600248
:103CC0008880C88002200872487209480490094818
:103CD0000590204D281D02F0ADFDFF21064A20462B
:103CE00002F02CFC6877054801F0E6F806B0B0BD9C
:103CF000D91C0000031D0000A11B0000191B0000BF
:103D0000B0B5FC4D287F0024C00718D02869FDF706
:103D100031F9002813D0287F400710D5E868FDF757
:103D200029F900280BD0A86802F0BAF8002806D0BC
:103D3000686802F0B5F80124002800D10446204646
:103D4000B0BDC04680B50A460146EA48006901F0A8
:103D500055F980BD30000020002804D105E0002284
:103D60000270401C491E0029F9D17047F8B516466B
:103D70000C460546A968EA680020914217D02868D9
:103D8000475C481C6968FCF7C3F9A96037600BE021
:103D9000A8682968085C20706968A868401CFCF75E
:103DA000B7F9A9607F1E641C0120002FF0D101B07B
:103DB000F0BD0000F8B50C4605460027032C06D3DD
:103DC000274903222846FCF745FA002802D0384646
:103DD00001B0F0BDEE1C234908223046FCF73AFA48
:103DE00000280AD128460B302146F531C9B200F02F
:103DF0004DF9014601200129EAD01B490322304632
:103E0000FCF728FA002809D1A81D2146FA31C9B2C9
:103E100000F0EEF8014601200129D9D01349032210
:103E20003046FCF717FA002809D1A81D2146FA31BF
:103E3000C9B200F01FF8014601200129C8D00C4981
:103E400003223046FCF706FA0028C0D1A81DFA3438
:103E5000E1B200F09BF8014601200129B7D1B7E794
:103E6000037A0000F2790000EE790000AC790000DE
:103E7000E6790000BFB505460024062911D01229B5
:103E80001BD00A292ED0092949D13F492846FCF7E1
:103E9000D3F9002843D1FFF7B5FB002831D036A075
:103EA0003AE02B492846FCF7C7F9002837D101AD85
:103EB0002846FFF76DFB27A00DE01A490622284689
:103EC000FCF7C8F900282AD1AD1D2846FFF764FB8E
:103ED000002820D014A00C2201242946234600F0FB
:103EE000A9FB1CE01E492846FCF7A6F900280AD0C9
:103EF0001C492846FCF7A0F9002810D10020FFF744
:103F000085FB19A008E001242046FFF77FFB1AA0DB
:103F100000F066FB03E009A000F062FB01242046EC
:103F200004B0B0BDB77900000A6165736B65797341
:103F30006574206F6B2C206B65793D000A61657399
:103F40006B6579736574204572726F7200000000B2
:103F5000B07900000A6165736B65793A0000000072
:103F6000D3790000C87900000A616573207377690E
:103F7000746368206F6666000A61657320737769F1
:103F8000746368206F6E0000BE790000F8B50024ED
:103F9000072919D10E490722FCF75CF9002813D133
:103FA0000C488578FFF784FC0646FFF751FC07466E
:103FB000FFF79AFB694608600124254006A02946C0
:103FC00032463B4600F00CFB204601B0F0BDC04637
:103FD000DE7900002C0C0020642F6E3D25642077D4
:103FE0003D256420733D2564206F3D25640000005D
:103FF00070B588B0002503292FD119490324224622
:10400000FCF728F9002828D1684616A11822FCF7E9
:10401000EFF806A801F082F800281AD00020064622
:1040200005E006A9091A0978F2B28E18401E014669
:104030000831F6D16D462C4306A8214601F072F8EE
:10404000F0B22946133100F057F800206875284671
:1040500000E00AA000F0C4FA0125284608B070BDAF
:10406000EA7900007A6C40000000000000000000C7
:104070000000000000000000000000000D0A206D9C
:1040800061632072656164206572720010B500245E
:10409000072908D0012916D10078302813D100F063
:1040A000DDFD01240FE00949FCF7C6F800280AD11C
:1040B0000720002100F09CF809480178012400291C
:1040C00001D101240470204610BDC046FB790000D8
:1040D0000348002101707047014800787047C046CE
:1040E000D406002080B50A4601460248006900F067
:1040F00085FF80BD3000002080B5024602A308463F
:10410000194602F041FE80BD253032580000000003
:10411000F8B51E4C1E4D65600021A160052121608F
:104120001C4E0BE00020A06030680849FBF7F0FF50
:10413000691C081AA1688142FCD83846471E00282D
:10414000F0D12068012188432060F8BDA0860100DD
:10415000F8B50E4C0E4D65600026A6600521216065
:104160000CE0A6607D20C1000A480068FBF7D0FF84
:10417000691C081AA1688142FCD83846471E0028ED
:10418000EFD12068012188432060F8BD10E000E0F5
:10419000FFFFFF001400002080B500F06FFA03203D
:1041A0000121024A02F0CAF980BDC046551900003B
:1041B000D34840680109012008407047D048A02139
:1041C0000160704780B500F05DF900F09BF90520B3
:1041D000FF21054A02F0B2F90120044A014602F02B
:1041E000CBF900F055FF80BDC51800000D1D000083
:1041F00010B50446792C0BD35FA0214600F0F0F9EE
:104200007B2C17D07A2C19D10120FEF709FD10BDA7
:10421000512C00D97DE0482C14D348A0214600F051
:10422000DFF9492C16D0482C19D152200121FEF774
:10423000E9FC10BD1020FEF7F3FC10BD52A000F009
:10424000CFF966E0332C64D8082C0AD0072C16D19D
:10425000052012E053201021FEF7D4FC10BD3DA034
:10426000EDE72C4840680121084203D1C00603D481
:10427000022002E0522000E05320FDF75BFD2548BC
:104280008068512812D30C2C43D1234801788278BE
:104290004378437082701B020B43110419430822B8
:1042A0000A4302700420FDF745FD10BD05280CD817
:1042B0007844007940008744020A0D102026012C22
:1042C00027D10120FDF736FD10BD14A0B7E7022C61
:1042D0001BD01EE0042C12D01BE0062C19D101F0DB
:1042E0005FFE002811D10C4880780004C0030CD474
:1042F000FFF77AFC002808D1D4E70A2C09D1032063
:10430000FDF718FD10BD0E2C03D10220FDF712FDA4
:1043100010BD10BDE00000202C0C00200D0A2A2A40
:104320002A2A2A2A205F6465764F6E4576656E7468
:1043300020457272202A2A2A2A0000005F6F6E45EB
:10434000727248696E744576656E745F653D25646A
:10435000000000000D0A2A2A2A2A2A2A205F6F6EEE
:1043600045727248696E744576656E742045727246
:10437000202A2A2A2A0000005F6F6E457272546F4D
:104380004F6B5F653D2564000D0A2A2A2A2A2A2AD6
:10439000205F6F6E457272546F4F6B4576656E7419
:1043A00020457272202A2A2A2A000000B0B5FFF7A1
:1043B00087FB002855D002F04BFC002851D0FFF7B6
:1043C0009FFC00284DD001F00DFE002849D0254C5F
:1043D0002078617809020143A0780004084308218D
:1043E00008423ED081060BD420490840010A617082
:1043F000202101432170000CA07000F0FFFEB0BD31
:1044000040062ED500F09EFC1B4D07E000F046FE56
:10441000FFF786FB00280AD100F0C4F92A68501F74
:104420000021052A00D8084628600028EED120780F
:10443000617809020143A078000408430A49014059
:104440002170080A6070080CA07000F075FB00F085
:10445000E1FEFFF7A1FEFFF77FFB0A200021FFF737
:10446000C7FEB0BD2C0C002091FFFF009FFFFF0096
:10447000014908607047C0463C0100202048806820
:104480007047C04680B51E4900204860FDF752FCC9
:104490000120FFF7ADFE0220FFF7AAFE80BDC04657
:1044A00017488068811E0020401A48417047C04666
:1044B0001348816853390020401A48417047C0466C
:1044C0000F48826801200021502A00D30846704717
:1044D0000B488068C11E0020401A48417047C04602
:1044E00007488068411F0020401A48417047C04675
:1044F0000348816852390020401A48417047C0463D
:10450000E000002080B50D4800210170044800F053
:10451000BBF832200121034A02F010F880BDC046EA
:104520005D1900001530000080B5FFF735FE80BD35
:10453000024841680B2048436E307047F00000206D
:1045400070B51C46049D6B1D059E33707070B17074
:1045500090B2F11C02F054F9002D04D0701D2146D8
:104560002A46FBF745FE70BDB0B50446E17CA07C51
:10457000FFF750F8054600F019F8411C05D08000FF
:104580000549095820468847B0BD04A0294600F0D7
:1045900027F80020B0BDC0460C780000657272207C
:1045A0007061726149643D2564000000B0B5162356
:1045B00000210A4A00E0491CCCB201E0FF310B4661
:1045C0000021C943DDB2AC4206D8291949084D0083
:1045D000555B8542F2D8EED30846B0BD4A7900005B
:1045E00083B010B5A1B0044623A80EC001A8802155
:1045F000FBF717FEFFF774FF00280FD123AB0093E2
:1046000001A88021224602F0D3FB0146002901D0F7
:1046100001A801E004A00B21FFF794FB21B010BC1E
:1046200001BC03B00047C0466D795072696E746674
:10463000204E4700F8B51C4615460E46002801D00E
:10464000FFF7CEFF07A705E031783846FFF7C8FF30
:10465000761C6D1E002DF7D1002C02D003A0FFF7B1
:10466000BFFFF8BD20253032580000000D0A0000C1
:1046700080B500200521FCF7FBFB80BD80B5002044
:104680000521FCF75DFC80BD164908607047C046F7
:10469000F0B587B0FDF78AFCFDF756F96D461C2191
:1046A0002846FFF759FBFCF7EDF900270097019723
:1046B000032420030290039704970126B00305907A
:1046C00006972846FCF7A2F90620FCF751F9FCF7FB
:1046D0006FF9182021463246FCF772FA014807604C
:1046E00007B0F0BD4403002080B5FDF75FFCFCF788
:1046F00059F9FDF729F9FCF7C5F980BD80B5FCF73C
:10470000B1F980BD80B5FCF7B1F9FCF7B5F9FCF75C
:1047100043F980BDF0B585B000252846FCF7F8FECA
:104720002846FCF705FF1120FCF7B2FF02263046B1
:10473000FCF7A2FF0124144F30462146B84730460B
:10474000FCF7B8FF04263046FCF788FF28462146D0
:10475000B84701950296032003900C20049001A80D
:10476000FCF7FCFE2046FCF70FFB30462146B8471D
:104770003046FCF79FFFFCF733FE044908602046F3
:10478000FDF74AF905B0F0BDE9120000300C002039
:1047900080B50120FDF740F980BD80B50020FDF710
:1047A0003BF980BD80B50020FCF760FC80BD80B582
:1047B00000200721FCF7C4FB80BD80B50020072145
:1047C000FCF756FB80BD80B580200421FCF7B8FBC8
:1047D00080BD80B580200421FCF74AFB80BD80B5F8
:1047E00000F01BF800F007F880BD80B500F015F868
:1047F00000F007F880BD80B500200921FCF7A0FB80
:1048000080BD80B500200921FCF732FB80BD80B55A
:1048100000200821FCF794FB80BD80B50020082112
:10482000FCF726FB80BD80B5FFF7F1FFFFF7E9FF3E
:1048300080BD80B50C200121FCF70EFA0028F9D1CB
:1048400080BD89004002401802E002C802C25B1E1F
:10485000002BFAD101207047F0B585B00392890092
:10486000164E711802919900019104904702042597
:1048700016E00498FF2812D8002003E081007A583F
:104880007250401C8028F9D102980399019AFBF7D5
:10489000AFFC0498FDF79EFB012400280AD16D1E91
:1048A000002DE6D10648C0780024012802D105A0D9
:1048B000FFF796FE204605B0F0BDC046440100203B
:1048C0002C0C00200D0A666C617368207772697485
:1048D000652045525200000010B5FFF71BFFFFF79F
:1048E000A8FF00F0C9F90024204600F0A7FA2046EE
:1048F00000F0E8FA00F07EF8FFF7CAFE00F007F8D3
:1049000000F01AF800F069F800F075F910BD80B5F4
:10491000FDF7A2FB80BD80B5FDF79EFB80BD80B595
:10492000412080010521FCF7ADFA01460120002954
:1049300000D1084680BD7047F0B587B06E461C2593
:104940005C4A304629469047FFF743FF0024019414
:1049500003940127049780200421574B324698473F
:10496000FFF737FF6E4630462946524A9047FFF719
:1049700024FF0194039404970721204632464E4BAE
:104980009847FFF71AFF6E4630462946494A904736
:10499000FFF743FF01940394049708212046324611
:1049A000454B9847FFF739FF6E4630462946414A46
:1049B0009047FFF726FF01940394049709212046AE
:1049C00032463D4B9847FFF71CFF07B0F0BDC0468D
:1049D00080B5FFF7B1FF80BD704780B5FDF750FB94
:1049E00080BD80B5FDF74CFB80BD80B500F06FF851
:1049F00080BD0000F0B58BB004AE1C2102912D4AA1
:104A00003046904700F0E2FA002705970120079012
:104A1000044603940897402001900421264B324617
:104A2000984700F0D3FA04AE3046029D2946214A49
:104A3000904700F0C5FA05970794089780200C214D
:104A400032461D4B984700F0BBFA04AE304629466B
:104A50002C46184A904700F0C5FA0597039807902E
:104A600008970321019D28463246134B984700F0D2
:104A7000B9FA04AE304621460E4A904700F09AFA41
:104A80000597039C079408970521284632460A4E4D
:104A9000B04700F08FFA04AD28460299054A9047C6
:104AA000059407970897C02002212A46B0470BB00B
:104AB000F0BDC046593D0000950E000080B5FFF7DF
:104AC00099FF80BD704780B500F001F880BD80B5CA
:104AD00000200421FCF734FA80BD80B500200421B9
:104AE000FCF7C6F980BD80B5FFF7F7FF80BD000079
:104AF00010B5104C2078C0070BD1FFF7E8FF2078E5
:104B0000617809020143A07802040A43012010439E
:104B10000AE0FFF7E2FF2078617809020143A078FC
:104B200000040843012188432070010A6170000CD1
:104B3000A07010BD2C0C002080B5FFF729FEFFF7F8
:104B4000EAFEFFF745FFFFF74CFFFFF7B7FF00F066
:104B5000F7F900F03BF900F0D1F8FFF7C5FD80BD93
:104B60007CB5044668460025857185800095EE4336
:104B7000761C092E2FDC6846FCF704FB0028F7D1D1
:104B800069468B791D090A2045430F2213407D2673
:104B900036011E43731923604B791D0913404543A9
:104BA000EB1823710B791D0913404543EB18637112
:104BB0008B781D0913404543EB18A3714B781D09F1
:104BC00013404543EB18E37109780A400909414352
:104BD000881820720125284602B070BDF8B501A8DA
:104BE000FFF7BEFF01460020012902D101A8FFF70F
:104BF00039F804B080BDF0B589B06D46242128464F
:104C0000FFF7AAF8142001242146FCF705FD03262E
:104C100030462146FCF768FB009400200490019484
:104C2000092129725021A976EC76102129771727BE
:104C3000AF7704216977E977202119226A54059416
:104C400028832846FCF77AFA384631462246FBF795
:104C5000B7FF2046FCF740FA09B0F0BDBFF34F8F15
:104C6000034804490160BFF34F8F00BFFDE7C04612
:104C70000CED00E00400FA0570B58AB06E462821FC
:104C80003046FFF769F8002400940594042003904F
:104C90000125069534743472019420463146FBF7A1
:104CA00045FF0E4E20463146FBF70CFF20463146AD
:104CB000FBF714FF20462146FBF7F0FE2046FBF7EA
:104CC0002BFF0E2003212A46FBF77AFF14480470BD
:104CD00003490C6044600AB070BDC04690E8000013
:104CE000280C002010B50E4C2078012805D16068F2
:104CF000002800D080470020207010BD80B50E2015
:104D000003210122FBF75CFF0020FBF7F5FE80BDCD
:104D100080B5034948600020FBF7EEFE80BDC04629
:104D20002000002080B50020FBF7EEFE80BD10B50E
:104D300000242046FBF7E8FE0E2003212246FBF765
:104D40003FFF10BDB0B5FFF7DDFCFFF7F0FF00F04F
:104D500059F800F011F9FFF7EEFDFFF73DFEFFF700
:104D600044FEFFF7AFFE14480024C460C4648C21E5
:104D70004450CC2144501149CC60CC64104A0260AC
:104D8000104A1346383B036480230F4DC550C0239F
:104D9000C2500A600A640322120242624466A422DC
:104DA0008450E42284504C624C66FFF7F6FC2046A7
:104DB000FCF75CF9B0BDC046000D0240001D02408A
:104DC000CFFC0000FFFF0000EFEF000070B5FCF724
:104DD0005FFF0820032101242246FBF7F1FE354D39
:104DE000002628463146FCF7DEF828462146FCF727
:104DF000DAF828463146FCF7E6F828462146FCF763
:104E0000E2F870BDB0B50820032100242246FBF76C
:104E1000D7FE284D28462146FCF7CDF8012128462B
:104E2000FCF7C9F84025284621462246FCF776F8CB
:104E30000B2128462246FCF771F8B0BDF0B589B0C9
:104E40000190FCF725FF02AF1C213846FEF784FFD6
:104E5000022001252946FCF7DFFB00260496039675
:104E60000596FCF74BFB0790A8020690E120400254
:104E70000890402002900F4C20463946FCF7B0F8CD
:104E800020463146FCF78FF820462946FCF78BF880
:104E900020463146FCF797F820462946FCF793F860
:104EA000082003212A46FBF78BFE05480199016083
:104EB00009B0F0BD00020040014908607047C046DB
:104EC000180C0020F0B587B00090FEF771F901AF23
:104ED00018213846FEF740FF402001900026039637
:104EE0000296E12000020690012568020490FCF77A
:104EF00005FB0590AC0720463946FCF785FC2046AB
:104F00003146FCF765FC20462946FCF761FC20464B
:104F10003146FCF76DFC20462946FCF769FC06206B
:104F200003212A46FBF74CFE04480099016007B0B4
:104F3000F0BDC046014908607047C0461C0C002007
:104F400070B5FEF735F90620032101242246FBF750
:104F500037FEA507002628463146FCF739FC2846CF
:104F60002146FCF735FC28463146FCF741FC284633
:104F70002146FCF73DFC70BD70B5062503210024D9
:104F800028462246FBF71CFE40263046294622468C
:104F9000FBF7C4FF072130462246FBF7BFFF012580
:104FA000AE0730462146FCF71BFC30462946FCF78D
:104FB00017FC70BD80B540200521FBF7C1FF80BD07
:104FC00080B580200C21FBF7BBFF80BD80B5402061
:104FD0000421FBF7B5FF80BD80B540200421FBF71D
:104FE00047FF80BD80B540200321FBF7A9FF80BDAE
:104FF00080B540200321FBF73BFF80BD70B5144610
:105000000D46064600F01FF80146621C0020914242
:1050100017D3F06831680C547168F068401CFBF7D6
:1050200077F8F1600AE030682A7842547168F068D5
:10503000401CFBF76DF8F160641E6D1C0120002C14
:10504000F1D170BD704710B5041D1CCC9818011B20
:10505000881A9C4200DB084610BD70B505462E46F6
:105060001336304601F004FF0446002C0BD02046D6
:105070003146FBF7D6F820461030002121C42160CC
:105080006160083C02E0FEF745FC0024204670BD4C
:1050900080B500200D21FCF701FC80BD80B5FCF738
:1050A000F5FB80BD80B50448002101703220FF214E
:1050B000024A01F043FA80BD480300204921000064
:1050C00080B50822FBF7C6F80021091A484180BDC7
:1050D0001CB5044600F011F80146012000290AD150
:1050E000684601F025FE01460020002903D06846ED
:1050F0002146FFF7E5FF02B010BD002204E01B7857
:105100000021FF2B04D1521C83180121082AF6D15B
:105110000846704780B5FFF7DBFF80BD80B501F022
:1051200007FE80BD70B50C460546002606E0A81BAC
:1051300000782146FEF7E0FFA41C761E30460830BA
:10514000F5D1012070BD0000B0B5144C0020E07016
:10515000A078217862786270217002210143A170E9
:10516000FFF7BAFB7D25A800FEF7F2FF00F032F84A
:10517000FFF728F800F04EF8E800FEF7E9FF08A076
:10518000FFF72EFA0120E070FFF7ACFDFFF786FF76
:1051900020788007F8D5FFF709F9F5E72C0C0020F7
:1051A0000D0A7030335F7465726D696E616C5F6398
:1051B00074726C5F77617465722056302E315F3285
:1051C000303230303730362066656E676875690D6D
:1051D0000A00000080B501F0ADF9FEF7D9FBFEF73B
:1051E00061FDFEF7D4F901F0F1FCFEF751FCFFF789
:1051F00059FF00F0DFFEFFF725FF80BD80B5FFF708
:10520000EBFE07200121024A01F098F980BDC0465B
:10521000B532000080B50C480178427812020A438A
:10522000817809041143094A0A40110A417080211A
:1052300011430170110C8170FFF7DAFE07200A217B
:10524000034A01F07BF980BD2C0C00207FFEFF009B
:10525000D932000010B5FFF733F9002803D0FFF76B
:105260001FF9002819D0FFF723F9002815D000F006
:105270001FF9012811D00948417802788378C47851
:10528000C4708370027022021A431204090211438F
:105290000122D2020A43110A417010BD0C00002005
:1052A00010B50446FFF70CF9002803D0FFF7F8F813
:1052B00000280FD00A480068A0420BD008480460BC
:1052C000FEF776FF012C03D1002803D07B2003E0FA
:1052D000002800D010BD49200021FEF789FF10BD35
:1052E0004C03002003480068411E0020401A48413A
:1052F0007047C046200C0020E0B5FFF7E1F8002819
:1053000003D0FFF7CDF8002815D001A801F02AFD41
:10531000002809D00198FCF76BFFFFF7E9F8002897
:1053200009D001F035FC8CBD0320FCF761FFFFF7CD
:10533000DFF8002800D08CBD48200021FEF758FF80
:105340008CBD000070B5FEF7BBFB0024002800D127
:1053500094E04B4D68684B4E002816D070780028BA
:1053600000D08BE04B207070B01CFEF7E9FAB078EB
:10537000002872D06868012400287FD0800042494C
:10538000095801242046884778E07068002875D0C5
:105390000121C2074ED1022182074BD403214207CB
:1053A00048D40421020745D40521C20642D406216F
:1053B00082063FD4072142063CD40821020639D494
:1053C0000921C20536D40A21820533D40B214205B6
:1053D00030D40C2102052DD40D21C2042AD40E2173
:1053E000820427D40F21420424D41021020421D4A2
:1053F0001121C2031ED4122182031BD413214203A4
:1054000018D41421020315D41521C20212D4162176
:1054100082020FD4172142020CD41821020209D4AF
:105420001921C20106D41A21800103D400246C6022
:1054300017A021E06960880013490958002420461C
:1054400088476868401E012802D800F01BFE6C6087
:105450004B2070700124B47010E000F013FE0024A3
:105460006C600220FFF71CFF3078002801D0401E3E
:105470003070FEF7B5FB05A0FFF7B2F8204670BD0F
:105480000001002008000020687800006300000090
:105490005F6E327347657449642829206572720013
:1054A0000120400606494A6802434A607047C046E8
:1054B000034841680120002900D108467047C046D2
:1054C0000800002010B5022001F0C2F801F0B0F889
:1054D000002809D001242046FFF7E2FE00F0D2FDAB
:1054E00004480021416003E003A0FFF779F800249D
:1054F000204610BD0001002073675478436D644F4F
:105500006E52784F6B52737020455252310000003A
:1055100080B5FEF73DF8012080BD80B5FEF772F83A
:1055200080BD10B500780024012806D0002808D1DD
:105530000020FEF76BF8012403E001242046FEF76B
:1055400065F8204610BD10B50446FEF7F1FF80B2A5
:10555000214601F055F910BD10B50446FEF796F846
:10556000214601F05FF910BD80B5C378827841789B
:105570000078FEF752F8FEF78DF880BD80B5FEF793
:1055800082FA01460120002900D1084680BD80B57D
:1055900001780020012904D0002905D1FEF76AFA1C
:1055A00001E0FEF76CFA012080BD80B5FEF79BFAA2
:1055B0000021091A484180BD10B500780024012857
:1055C00006D0002808D10020FEF794FA012403E059
:1055D00001242046FEF78EFA204610BD10B5044681
:1055E000FEF798FA214601F01DF910BD80B5C37889
:1055F000827841780078FEF710F8FEF7E7FA80BD70
:105600000020704780B5014605480B22FAF7F0FDEF
:1056100004480078FF2800D080BDFDF73FFB80BD27
:10562000D80600201800002010B50446FFF78BFFB5
:10563000EB480078FF21C00605D5FEF724FA0121CA
:10564000002800D10146A170032010BD10B5FEF75F
:105650007DF9C8200124034A214600F06FFF20464F
:1056600010BDC046051D0000052070471CB504464E
:1056700001A86946FEF7D6F80198214601F0D2F854
:105680000098211D01F0CEF81CBDB0B50446E378AA
:10569000A27861782078FDF7C0FF0546E379A2790A
:1056A00061792079FDF7B9FF01462846FEF7C0F879
:1056B000B0BD10B50446FEF7CBF8214601F0B2F8B4
:1056C00010BD80B5C378827841780078FDF7A5FFDA
:1056D000FEF7CAF880BD1120704710B50446FEF7EA
:1056E000E7F8214601F09EF810BD80B5C3788278B6
:1056F00041780078FDF791FFFEF7E6F880BD80B5B0
:1057000001F0FAFA80BD80B501F0FEFA80BD80B5E7
:1057100001F008FB80BD1CB501AC204601F022FB66
:10572000207802B010BD000010B50146CA780020F4
:10573000012A1BD0022A22D1E148017842788378DD
:10574000C478C4708370427022021A4312040A4360
:10575000202111430170DB4841788278037803707F
:10576000827040220A434270012010BD1431084665
:10577000FDF712FF01460120002900D1084610BDA7
:1057800010B50146CA780020012A1BD0022A22D176
:10579000DF48017842788378C478C470837042709F
:1057A00022021A4312040A43102111430170D948FE
:1057B0004178827803780370827040220A434270F5
:1057C000012010BD14310846FFF7ABFE0146012051
:1057D000002900D1084610BD10B5C178002002296B
:1057E0001AD1E94948780A788B78CC78CC708B70DC
:1057F0000A7022021A431204030213430120020317
:105800001A43120A4A70EF494A788B780C780C7068
:105810008B70402313434B7010BDC04610B501463A
:10582000CA780020012A1DD0022A24D1E4494878F0
:105830000A788B78CC78CC708B700A7022021A436D
:10584000120403021343012082031A43120A4A700E
:10585000EF494A788B780C780C708B704023134397
:105860004B7010BD14310846FFF791FE0146012030
:10587000002900D1084610BD10B50146CA780020A5
:10588000012A1AD0022A1DD1E04801784278837893
:10589000C478C4708370427022021A4312040A430F
:1058A000042111430170F148417882780378037034
:1058B000827040220A43427003E014310846FFF729
:1058C00053FE012010BDC04610B50146CA78002025
:1058D000012A1DD0022A24D1E34948780A788B781E
:1058E000CC78CC708B700A7022021A431204030227
:1058F0001343012042031A43120A4A70ED494A78C1
:105900008B780C780C708B70402313434B7010BD58
:1059100014310846FFF750FE01460120002900D14E
:10592000084610BDB0B50446E078002503281DD018
:1059300001282FD120461430FFF764FEF14801788A
:10594000427812020A43817809041143124A0A403C
:105950000270110A4170110C8170207D0125002810
:1059600018D104200021FEF743FC13E0E54801783C
:10597000427812020A43817809041143064A0A4018
:105980000270110A4170110C817014342046FFF727
:1059900039FE01252846B0BDEFFFFF0010B5C178E4
:1059A000002001291AD1FFF751FEF448017842780E
:1059B0008378C478C4708370427022021A43120440
:1059C0000A43082111430170ED4841788278037839
:1059D0000370827040220A434270012010BDC0460D
:1059E0002C0C002010B5C178002002291AD1E349FF
:1059F00048780A788B78CC78CC708B700A70220249
:105A00001A43120403021343012082021A43120AAA
:105A10004A70F4494A788B780C780C708B7040236C
:105A200013434B7010BDC04610B5C1780020022949
:105A30001AD1D24948780A788B78CC78CC708B70A0
:105A40000A7022021A431204030213430120C20205
:105A50001A43120A4A70E3494A788B780C780C7022
:105A60008B70402313434B7010BDC04610B50146E8
:105A7000CA780020012A1DD0022A20D1BF494878C7
:105A80000A788B78CC78CC708B700A7022021A431B
:105A90001204030213430120C2031A43120A4A707C
:105AA000D0494A788B780C780C708B704023134364
:105AB0004B7010BD14310846FFF798FD012010BD52
:105AC0000C0000202C0C002010B50146CA780020E4
:105AD000012A16D0022A19D1A8498A7808784B7869
