:020000040000FA
:1000000010020020D5000000EF0000009103000066
:1000100000000000000000000000000000000000E0
:10002000000000000000000000000000F3000000DD
:100030000000000000000000F50000005F05000067
:100040000905000011050000190500002505000044
:10005000430200004D0700006D0700007907000013
:10006000C5030000CD030000390500004105000074
:10007000A1030000A9030000350700003D070000B0
:1000800045070000B9030000550700005D070000A8
:1000900065070000F9040000990700003105000021
:1000A0006F01000001050000850700008D070000BA
:1000B00081040000B1030000D90200003B020000EF
:1000C0000348854600F03AF8004800476101000007
:1000D0001002002009480A4A002100A1814200D9EB
:1000E0000244084802600848804708480047FEE785
:1000F000FEE7FEE7FEE7FEE7FEE700000000002067
:100100000000000008ED00E0E9060000C10000006A
:1001100030B50B46014600202022012409E00D469F
:10012000D5409D4205D31D469540491B2546954027
:1001300040191546521E002DF1DC30BD064C01253C
:10014000064E05E0E36807CC2B430C3C984710347F
:10015000B442F7D3FFF7B8FFEC0700000C0800002B
:1001600080B500F0C1FA00F025FB002080BD80B50D
:10017000C046C046C046C04680BD0000F0B589B04C
:1001800002AF1C21384600F00BFB03200190012533
:10019000294600F087FA002604960420039005966D
:1001A00000F074FA0790A80206904B20C001089056
:1001B000C0200290CE4C2046394600F027F9204658
:1001C000314600F007F92046294600F003F92046A1
:1001D000314600F007F92046294600F00BF90920C6
:1001E00001992A4600F032F809B0F0BDF0B587B0A9
:1001F0006C461C262046314600F0D2FA01253046D6
:10020000294600F04FFA0026019630463146224634
:1002100000F072F80227304631463A4600F0B0F856
:10022000019530462946224600F066F830462946B8
:100230003A4600F0A5F807B0F0BD80B5C046C0460C
:1002400080BD80B5C046C04680BD000070B50028A6
:1002500005DB1F23034001249C401B4B1C60C30093
:1002600018241C408901CBB2A340FF21A140CC43FC
:100270001649002805DB03250646AE43154D7519C2
:1002800006E00F250540083D0326B543104EAD1985
:100290002E6826401E432E60012A07D1002811DB5C
:1002A0001F221040012282400A6070BD002809DB35
:1002B0001F2210400122824080200A50BFF34F8F3E
:1002C000BFF36F8F70BDC04680E200E000E100E048
:1002D0001CED00E000E400E080B5C046C046C0462A
:1002E000C04680BD0246012003468B40116819407C
:1002F000002900D108467047FEB515460E4601900C
:100300001C49471838460C300024314622460294D6
:10031000194B9847B000019908181C4944503846B9
:1003200008302A783146144CA0472A79384631469D
:10033000A04738461C302A7A3146A047384620303C
:100340002A7B3146A047384624302A7C3146A047D4
:100350002C372A7D38463146A047A8690121C903B8
:10036000064A13688B43C00380B21843106002989A
:1003700003B0F0BD000D024049050000080F024027
:10038000890040180149425000207047000C02408B
:1003900081B00020009000980028FCD001B0704788
:1003A00080B5C046C04680BD80B5C046C04680BD51
:1003B00080B5C046C04680BD80B5C046C046C04678
:1003C000C04680BD80B5C046C04680BD80B500F047
:1003D0005BF880BD10B514300024224600F0B4F85C
:1003E000204610BD10B5001D0024224600F0ACF8D8
:1003F000204610BD80B5001D012200F0A5F80020A8
:1004000080BD80B51030FFF76DFF80BDF8B50546A3
:10041000042400291FD000246C60CCC908681E4346
:1004200006433E4316436E60802313432E1D10394E
:10043000C02B10D1C009094A024009A0805A8A691C
:10044000824048691146FFF763FEA861042101223A
:10045000304600F079F8204601B0F0BDFCFFFF0106
:100460000400000003000000020000000068C0B2A9
:1004700070470268FF239A430A43026000207047D6
:1004800080B5C046C04680BD70B5CF4C0121204626
:10049000FFF7B7FF00280CD0012520462946FFF7BB
:1004A00099FF20462946FFF79DFF00212046FFF7D0
:1004B000A1FF00212046FFF7A4FF002817D0002548
:1004C00020462946FFF786FF2046FFF7CFFF094E5B
:1004D000307020462946FFF785FF01212046FFF7AF
:1004E00089FF3078FF2141402046FFF7C2FF70BDF1
:1004F000004000400900002080B5C046C04680BDD5
:1005000080B5C046C04680BD80B5C046C04680BDEF
:1005100080B5C046C04680BD80B5C046C046C04616
:10052000C04680BD80B5C046C046C046C04680BDFE
:1005300080B5C046C04680BD80B5C046C04680BDBF
:1005400080B5C046C04680BD01238B40012A02D140
:100550000168194301E0016899430160704780B563
:10056000C046C04680BD0000F0B58AB04048018852
:1005700007914188069181880491C1880291058C78
:100580000B20C143664A5058440907231C400120F0
:10059000C6036548089037480090374801903748AF
:1005A000039037480590374F3748042C099124D8D9
:1005B0007C4424796400A744025422292B0010684B
:1005C000089908400799884238464AD01068089927
:1005D000084006998842059843D010680899084059
:1005E0000499884203983CD0106808990840029901
:1005F0008842019835D0009833E0002031E09068BF
:10060000464901404B204002A9422AD0304628E00A
:10061000116B03240C40032C05461DD1106808996A
:100620000840079988423D4616D01068089908404E
:1006300006998842059D0FD01068089908400499D2
:100640008842039D08D010680899084002998842A2
:10065000019800D000980546106B41090F20084012
:10066000684309995158090A1940C8400AB0F0BDB9
:10067000000C100000093D0000127A000024F40074
:100680004086510100366E010048E80180B5FFF751
:100690006BFF03490968C90A03220A40D04080BDA4
:1006A0000020004070B50C460546A8060C4802D450
:1006B000294622460FE020218D43061D304629465B
:1006C0002246FFF741FF0748032D01D1047004E0E3
:1006D000027803213046FFF737FF002070BDC04687
:1006E000202000400800002010B50B49488B0B4A21
:1006F00002400B4883680B4C1C40144384600988FB
:10070000094A0A400168094B0B4013430360FFF795
:100710002BFF0749086010BD080C1000FF03000004
:100720000C20004000FCFFFFFF07000000F8FFFF67
:100730000000002080B5C046C04680BD80B5C046E0
:10074000C04680BD80B5C046C04680BD80B5C046AD
:10075000C04680BD80B5C046C04680BD80B5C0469D
:10076000C04680BD80B5C046C04680BD80B5C0468D
:10077000C046C046C04680BD80B5C046C046C046E3
:10078000C04680BD80B5C046C04680BD80B5C0466D
:10079000C046C046C04680BD80B5C046C04680BD8C
:1007A000002804D105E000220270401C491E0029E7
:1007B000F9D1704780B5FFF719FDFFF7DFFC02485C
:1007C0005521FFF756FEFEE70040004002E008C852
:1007D000121F08C1002AFAD170477047002001E0BB
:1007E00001C1121F002AFBD1704700001008000051
:1007F0000000002008000000CC07000018080000DE
:100800000800002008020000DC07000000000000D3
:0808100000093D00000000009A
:04000005000000C136
:00000001FF
