:020000040000FA
:1000000068330020D5000000EF0000009D0E0000C6
:1000100000000000000000000000000000000000E0
:10002000000000000000000000000000F3000000DD
:100030000000000000000000F500000017120000A2
:10004000D10F0000D90F0000E10F0000ED0F0000FC
:10005000A10B00008D160000DD160000E91600005F
:10006000DF0E0000E70E0000F1110000F9110000A2
:10007000AD0E0000B50E0000751600007D160000E4
:1000800085160000D30E0000951600009D16000096
:10009000A5160000C10F0000AB170000F90F00000B
:1000A00027080000C90F0000971700009F170000E5
:1000B000870F0000CB0E0000350C0000990B0000EC
:1000C0000348854600F014FB00480047190800006B
:1000D0006833002009480A4A002100A1814200D962
:1000E0000244084802600848804708480047FEE785
:1000F000FEE7FEE7FEE7FEE7FEE700000000002067
:100100000000000008ED00E029160000C10000001A
:1001100030B50B46014600202022012409E00D469F
:10012000D5409D4205D31D469540491B2546954027
:1001300040191546521E002DF1DC30BD70B500246B
:100140002546002801DA01244042002901DA012570
:100150004942FFF7DDFFAC4200D04042002C00D006
:10016000494270BD38B50446C0681821401E484356
:10017000A16840183C214843616840183C2148432D
:100180002168451860690C2148432169401869219C
:10019000C900401A3021FFF7D1FF114A50434219DC
:1001A000084600921A2902DB0E49511800910C21D1
:1001B000FFF7C4FF0C4A5043009A801800900B4888
:1001C00006E0491E425C074B5A43009BD21800923E
:1001D0000029F6DC2146684600F08AF8009838BD10
:1001E000801F8607805101008033E101D06D00003F
:1001F00003460B439B0703D009E008C9121F08C040
:10020000042AFAD203E00B780370401C491C521EEA
:10021000F9D27047D2B201E00270401C491EFBD2F5
:1002200070470022F6E710B513460A460446194601
:10023000FFF7F0FF204610BD10B5002200E0521C71
:10024000835C8C5CA34201D1002BF8D1D8B2E1B21F
:10025000401A10BD30B504460020034600E05B1C88
:10026000934203D2E05CCD5C401BF8D030BDF0B5CA
:100270001FB40646002082B005464024019100903C
:100280001BE0019922460F46304600F020F8049A00
:10029000059B801A994110D310461946224600F05A
:1002A00039FA361A8F410197224601200021009F1A
:1002B00000F030FA38184D4100902046641E0028A6
:1002C000DFDC019B00982946324607B0F0BD10B52F
:1002D000202A04DB0846203AD040002110BD0B46FE
:1002E000D340D0402024A21A91400843194610BDA3
:1002F00070B50C4600683C21FFF70AFF21603C21E5
:10030000FFF706FF61601821FFF702FF0546A160B5
:100310000721001DFFF7FCFEA1610F48A900081886
:100320000E49FFF7F5FE0246443288086261E0613B
:100330003B2802D3910700D0401C0021084B0A46FD
:100340002161995C814203D8401A521C2261F8E76E
:10035000401CE060204670BD6C0B0000B50500003D
:10036000DC6D0000F0B507460846584087B0C00F66
:10037000049048000E46590040084908BC1A8841BC
:1003800005D2384631461E4617460B4602465800EF
:10039000400810434CD0300D039040055900400DEB
:1003A000490D0590401A0290402872DA1803012185
:1003B000000B09050843019004980092002805D01D
:1003C00001995242002088410092019002984021F8
:1003D0000A1A0199009800F09DF905460C466B46F3
:1003E00007CB00F0A7F9C0197141039A0E0D002345
:1003F000D71756401A467A40164344D0049A002A2A
:100400002DD0029A012A039A15DC1205C01A9141D7
:1004100001263605001C7141D20F059ED2070093BC
:10042000019202962A46234600F0A4F907B0F0BDD7
:1004300038463146FAE71605224A0F46B218C01A66
:10044000B74101210905001C4F4100187F411146A9
:1004500018187941E20F10436D19644113E0E20767
:100460006D0815436408C2071443039A0126120558
:10047000C01A91413605001C7141CE074008304337
:100480004908C01851412A46234600F066F9CDE7D5
:10049000FFE7049801224000C117121A00238B4184
:1004A00004983146C417381AA141EEE730B401244C
:1004B000E407634030BC55E730B40124E4076140F1
:1004C00030BC4FE70000E0FFF0B51FB488B00B99D7
:1004D0000998002448400999C00F4900490809912A
:1004E000C0070B990090490049080B910999089899
:1004F000A64608431CD00B990A98084318D00998BF
:1005000001244000420D4800410D099824050003D4
:10051000000B204309900B980003000B20430B9025
:1005200050181C494018002201901446104605E05E
:10053000002001460DB0F0BD032801DA034600E0BB
:1005400003239C46C11A0AAE0AE05F0008ADED5BCA
:100550004F00F75B7D430027AA187C41491C5B1EB6
:100560006145F2DD410004AB5A522104120C0A43EA
:10057000240C401C0828DFDB01980290009970468B
:1005800001910090059B049A0799069800F0F2F8F3
:10059000D0E700000DFCFFFFF0B50C465C4085B0D5
:1005A000E40FE40703944C000026640859009446C5
:1005B000490802460296224321D062460A431ED0D1
:1005C0006200570D4A000E032303550D0124024615
:1005D0002C492405781B1B0B360B4018234326435C
:1005E000614600901C46501AB44103D30098401C49
:1005F000009002E0921800985B41002803DA002086
:10060000014605B0F0BD00200121090507468646D8
:1006100011E064461D46141BB54106D36546521BC6
:10062000B341744607430C43A646CD07400849082A
:10063000284392185B4105460D43EAD11046184302
:1006400013D06046194650407140084306D06046BA
:10065000101AB34106D20122002306E00022012332
:10066000DB0702E00122D2435310009874460105D3
:10067000381C6141029C039D0019694100F06DF82E
:10068000BFE70000FD0300004A0009030123090B36
:100690001B0519430A4B10B5520D9A4202DA00208D
:1006A000014610BD064B34339A4203DC9A1AFFF719
:1006B0000EFE10BD034BD21800F02CF810BD000048
:1006C000FF030000CDFBFFFF10B5002904DB012470
:1006D000E40740428C412146002B04DB1C460123E9
:1006E000DB075242A341994200D1904210BD000065
:1006F000064C0125064E05E0E36807CC2B430C3C75
:1007000098471034B442F7D3FFF7DEFCD46F0000F3
:10071000F46F000010B5202A04DB0146203A914016
:10072000002010BD914020239C1A0346E34019434A
:10073000904010BD10B5202A06DBCB170846203AA2
:100740001041C1170B4306E00B461341D040202453
:10075000A21A91400843194610BD10B5002B08DAC3
:100760000024401C614192185B411A4301D14008AA
:10077000400010BDF0B51FB482B005460C0003D098
:10078000084605F019FE02E005F016FE203002468C
:10079000009021462846FFF7BDFF049B059A0446BA
:1007A0000F4618431143084314D0184610431BD07A
:1007B000009840210A1A18460599FFF788FD05465A
:1007C0000E46009A05990498FFF7A4FF084305D048
:1007D000012004E02046394607B0F0BD0020C117D3
:1007E00005430E432C43374300990E986305401A86
:1007F0007905E40A00220C43FD0A0A3002D50020E4
:100800000146E9E70105101969410C9C0D9D00198D
:100810006941FFF7A2FFDFE780B500F005FF04F0B4
:1008200055F8002080BD80B500F0CEF8C046C04627
:1008300080BD000010B50421002846D0C168CA0060
:1008400018231A4049490C689C4314430C60826881
:1008500013680B6253684B6293688B62D368CB62F8
:10086000C368022B07D0012B11D113690B630B4610
:100870003433052408E013690B6353694B639369B0
:100880008B630B463C330724A40012591A6002689C
:1008900013680B6153684B6193688B61D268CA61BE
:1008A0000A68022313430B600B68012213430B6099
:1008B0000B681342FCD10A69406802604A694260D1
:1008C0008A698260C969C1600021084610BDC046BE
:1008D00010B50421002846D0C168CA0018231A4068
:1008E00022490C689C4314430C60826813680B62B5
:1008F00053684B6293688B62D368CB62C368022BE8
:1009000007D0012B11D113690B630B463433052437
:1009100008E013690B6353694B6393698B630B4660
:100920003C330724A40012591A60426813680B6113
:1009300053684B6193688B61D268CA610A6802236D
:100940009A430A600B68012213430B600B68134241
:10095000FCD10A69006802604A6942608A69826063
:10096000C969C1600021084610BDC046001402409C
:100970001F21090100010840334A13688B430343D8
:10098000136000207047C04602490A6882430A602B
:100990007047C046B42400400120C0032A490A68B9
:1009A00002430A607047C0460349096801400120BC
:1009B000002900D108467047B02400400148006873
:1009C0007047C046A024004080B50120FFF7ECFF2F
:1009D00001280BD10120FFF7D7FFFFF7EFFF0449F4
:1009E0000968002900D0884700F034F880BDC0466F
:1009F0004003002070B504460420002C22D0124D84
:100A000001262E60022003F027F86068E1680143A8
:100A100020690843A16801436069084329680143CC
:100A20002960B0022168890201406A6882430A4352
:100A30006A60A0698000042108406A688A43024312
:100A40006A60002070BDC0460424004003480121B4
:100A5000016070470148002101607047C0240040D8
:100A60000748016802220A400260704780B50448C6
:100A7000016801220A430260022002F0EDFF80BDFE
:100A80000024004001228A40D1430002014A8150E3
:100A900000207047140C00400002034A8258CA40EC
:100AA000012010407047C046100C004010B50002F5
:100AB000034A8358094C1C400C438450002010BD4D
:100AC000000C004010B50002034A8358034C1C4040
:100AD0000C438450002010BD040C00400000FFFFB8
:100AE00000022C4942580123134343500020704711
:100AF00000022849425801239A434250002070477F
:100B000000022449425801239B0213434350002012
:100B10007047C04670B5032213030A6814031C40D3
:100B200000021C4A85589D432543855001235C02E1
:100B30004D686D0225408658A6432E4386500C7A98
:100B400085581E02B5431C4023022B438350CB68BB
:100B50001B01702423408558A5431D4385500B7C01
:100B6000DB00082423408558A5431D4385504B696D
:100B70009B00042423408558A5431D438550896963
:100B800049000223194084589C430C4384500020A0
:100B900070BDC0460C0C004080B5C046C04680BD4C
:100BA00080B5C046C04680BD70B5002805DB1F2358
:100BB000034001249C401B4B1C60C30018241C40B4
:100BC0008901CBB2A340FF21A140CC4316490028A4
:100BD00005DB03250646AE43154D751906E00F25C6
:100BE0000540083D0326B543104EAD192E6826403A
:100BF0001E432E60012A07D1002811DB1F2210405E
:100C0000012282400A6070BD002809DB1F221040CB
:100C10000122824080200A50BFF34F8FBFF36F8FB5
:100C200070BDC04680E200E000E100E01CED00E0A5
:100C300000E400E080B5C046C046C046C04680BD66
:100C4000F0B589B00D460446FF2608966846202177
:100C5000FFF7E7FA04200C2C32D801221146A140FC
:100C6000184B19422CD0500217490B6A8343154088
:100C70006802184308620020144A05E08300D55832
:100C800065436F46FD50401C0828F7D100221346EB
:100C900013E008969C00684605590AE0089F781EF4
:100CA00008900720002F0BD03C48C8623C48C8621F
:100CB0000D510859A842F1D15B1C072BE9D9104608
:100CC00009B0F0BD5611000000000240486F00005E
:100CD0003149324ACA60324ACA6080000C22104050
:100CE0000B68934303430B6000207047FFB50091EE
:100CF000FF210191039144020420610C4AD1019823
:100D00000390254A10681026304206D00399481EE9
:100D1000039009200029F4D13CE02049D160204F04
:100D2000D7600023D84310610291D160D760506131
:100D3000019803900DE00399481E039009200029B3
:100D400028D00298D060D7601068A84301210143E1
:100D500011601068032528400128ECD1009D03E0B4
:100D60009800295821505B1C802BF9D101980390E1
:100D70001068304206D00399481E039009200029CC
:100D8000F6D107E00299D160D76000201061D160F0
:100D9000D760506104B0F0BD200002405A5A0000F4
:100DA000A5A500000246012003468B4011681940AA
:100DB000002900D10846704780B5034A80180122F7
:100DC00000F01EFA002080BD140D0240FEB515464D
:100DD0000E4601901C49471838460C300024314615
:100DE00022460294194B9847B000019908182049EF
:100DF0004450384608302A783146144CA0472A79A6
:100E000038463146A04738461C302A7A3146A0473A
:100E1000384620302A7B3146A047384624302A7C89
:100E20003146A0472C372A7D38463146A047A8696D
:100E30000121C903064A13688B43C00380B21843DB
:100E40001060029803B0F0BD000D024001120000D6
:100E5000080F024080B5024A8018FFF7A3FF80BD4B
:100E6000080D024089004018014942500020704797
:100E7000000C024080B5034A8018012200F0C0F93E
:100E8000002080BD0C0D024080B5034A801801226D
:100E900000F0B6F9002080BD100D024081B00020A6
:100EA000009000980028FCD001B0704780B5C04683
:100EB000C04680BD80B5C046C04680BD8168C06860
:100EC000091A0020401A4841704780B5C046C04604
:100ED00080BD80B5C046C046C046C04680BD80B516
:100EE00000F056F880BD80B5C046C04680BD10B544
:100EF00014300024224600F083F9204610BD80B54E
:100F0000001D012200F07CF9002080BD80B510306A
:100F1000FFF748FF80BD0000F8B50546042400290E
:100F20001FD000246C60CCC908681E4306433E43B2
:100F300016436E60802313432E1D1039C02B10D131
:100F4000C009094A024009A0805A8A69824048695A
:100F50001146FFF7DDF8A86104210122304600F0B8
:100F60004FF9204601B0F0BDFCFFFF010400000076
:100F700003000000020000000268FF239A430A43B6
:100F800002600020704780B5C046C04680BD0000AA
:100F900080B503480068002800D0804780BDC04667
:100FA000480B002005490A68042313430B60012203
:100FB000824008681043086030BF704710ED00E0C1
:100FC00080B5C046C04680BD80B5C046C04680BD25
:100FD00080B5C046C04680BD80B5C046C04680BD15
:100FE00080B5C046C046C046C04680BD80B5C0463C
:100FF000C046C046C04680BD80B500F033F880BD15
:1010000080B579480321002200F0FAF880BDC0467F
:1010100080B502465948072100F0F2F880BDC0466D
:1010200070B5FF230233042298420FD20122D50368
:10103000074C2668AE43C90389B231432160FE33B1
:1010400018402168034B0B4003432360104670BDDA
:101050003014004000FEFFFF80B563480321FFF716
:10106000A1FE80BD80B5FFF7F7FF012801D1FFF792
:10107000C7FF80BDB0B504460020FFF7C9FF206858
:10108000C000082108403D4D2A688A4302432A6077
:10109000201D00F04DF807200002216909020140DF
:1010A0006A6882430A436A606169208BFFF7B8FF70
:1010B0001A34204600F064F8B0BDC04670B52F4A1F
:1010C0001168802319420FD0516801240C435460E9
:1010D00016490C46002C04D0611C55680226354286
:1010E000F7D00921641C1FD091680170D16841704C
:1010F000156814691F2121400826354200D0214679
:101100008170916901715169C170D1694171116A30
:10111000817150680121884350601068002101E00E
:10112000506802231842FBD1084670BD18FCFFFF2F
:10113000B0B501218A0301688B0313400F490C6885
:1011400094431C430C6003680022012B07D0002B42
:1011500011D18068072420400B68A34309E004797B
:1011600004203F2C08D83F2005020B68AB43044005
:101170002002184308601046B0BDC046001400406D
:1011800070B50321CB43184AD158802421420ED098
:10119000116801250D4315607D21CD006D1E0921CB
:1011A000124E35421DD0116802263142F6D0017828
:1011B0005160417891608178D160017951614179C4
:1011C00091618179D161C0781061106801218843F3
:1011D0001060D0580021204203D01068022318422A
:1011E000FBD1084670BDC04604140040FFFF00005C
:1011F00080B5C046C04680BD80B5C046C04680BDF3
:1012000001238B40012A02D10168194301E00168E2
:1012100099430160704780B5C046C04680BD00005C
:1012200010B50246984B99489860994898600420F8
:10123000042A6CD87A4412795200974402142B3E47
:10124000560001200029024600D10A461C6884434A
:1012500014431C600020002959D0D9680122D20211
:101260001142FAD053E02B4802680324144304606F
:101270001868022290430122002900D10A46520038
:10128000104318600020002941D019694022114202
:10129000FBD03CE01868042290430122002900D1D1
:1012A0000A46920010431860002000292FD0596987
:1012B000012212031142FAD029E003208003144ACC
:1012C000146804431460186808229043012200291E
:1012D00000D10A46D200104318600020002916D021
:1012E000996940221142FBD011E018681022904306
:1012F0000122002900D10A46120110431860002083
:10130000002904D0D96B012292041142FAD010BDF9
:101310008C0D02404C1D0240F0B58AB0B1480188E6
:1013200007914188069181880491C1880291058CBA
:101330000B20C143CA4A5058440907231C400120CE
:10134000C603C94808903648009036480190364890
:10135000039036480590364F7B48042C099124D8D9
:101360007C4424796400A744025422292B0010688D
:10137000089908400799884238464AD01068089969
:10138000084006998842059843D01068089908409B
:101390000499884203983CD0106808990840029943
:1013A0008842019835D0009833E0002031E0906801
:1013B000AA4901404B204002A9422AD0304628E0E9
:1013C000116B03240C40032C05461DD110680899AD
:1013D0000840079988423D4616D010680899084091
:1013E00006998842059D0FD0106808990840049915
:1013F0008842039D08D010680899084002998842E5
:10140000019800D000980546106B41090F20084054
:10141000684309995158090A1940C8400AB0F0BDFB
:1014200000093D0000127A000024F40040865101BA
:1014300000366E0180B5FFF76FFF75490968C90A6C
:1014400003220A40D04080BD7149724A8A60724AC4
:101450008A6007221202000210400B689343034384
:101460000B6000207047C04669496A4A8A606A4A30
:101470008A600322D202C00210400B6893430343E8
:101480000B6000207047C046002000405A5A000000
:10149000A5A50000F0B5534A118856889588D388D1
:1014A00084686F4A032C23D117686F4C27408F4202
:1014B00003D1C7680621022F44D811682140B142E8
:1014C00003D1C6680621022E3CD811682140A942EA
:1014D00003D1C5680621032D34D811682140044684
:1014E0000C3499420DD123680621062B09D929E035
:1014F000C168154B4B4304460C340621134DAB42D7
:1015000020D803214B0305686D031D40166B9E43D5
:101510002E43166343689B001C252B40166BAE437D
:101520001E4316630F235B01246864011C40156B86
:101530009D432543156380680840136B8B43034329
:10154000136300210846F0BD0048E801006CDC028E
:1015500070B50C460546A8060C4802D4294622461A
:101560000FE020218D43061D304629462246FFF715
:1015700047FE0748032D01D1047004E002780321DF
:101580003046FFF73DFE002070BDC04620200040E1
:10159000540B002040001349405A33490140304861
:1015A0000268324B13400B43036000207047C04673
:1015B00003218902800208400B4A13688B430343CE
:1015C000136000207047C04640000649405A234936
:1015D000014005480268234B13400B430360002081
:1015E0007047C046000C10001420004080B5084928
:1015F000084A8A60084A8A600A68E0239A434001E0
:10160000C0B21043086000F009F8002080BDC04659
:10161000002000405A5A0000A5A5000080B5FFF741
:101620007BFE1349086080BD10B50B49488B0B4AFF
:1016300002400B4883680B4C1C40144384600988AB
:10164000094A0A400168094B0B4013430360FFF746
:1016500063FE0749086010BD080C1000FF0300007E
:101660000C20004000FCFFFFFF07000000F8FFFF18
:101670001000002080B500F019F880BD80B5C0468C
:10168000C04680BD80B5C046C04680BD80B5C0465E
:10169000C04680BD80B5C046C04680BD80B5C0464E
:1016A000C04680BD80B5C046C04680BD80B5002024
:1016B0000146FFF7F1F901280AD106480168491CE3
:1016C000016005480121017000200146FFF7DAF9A9
:1016D00080BDC046580B00202000002080B500F0DF
:1016E00009F8C046C04680BD80B5C046C046C04669
:1016F000C04680BD80B503480068002800D0804700
:1017000080BDC0464C0B002010B51430002422468A
:10171000FFF776FD204610BD80B5001D0122FFF7C2
:101720006FFD002080BD80B51030FFF73BFB80BD12
:1017300070B50546042400291ED000246C604CC9F5
:1017400008681E43064316436E60802313432E1D14
:101750000C39C02B10D1C009084A024008A0805A99
:101760004A69824008691146FEF7D2FCA86104214B
:1017700001223046FFF744FD204670BDFCFFFF010B
:1017800004000000030000000268FF239A430A439C
:1017900002600020704780B5C046C04680BD80B55D
:1017A000C046C046C046C04680BD80B5C046C046A3
:1017B00080BD000010B5164C2278501E6321002A0F
:1017C00000D1084620700321084203D101F03CFFFC
:1017D00004F03AF802F0D8FA002805D12078052163
:1017E000FEF796FC002901D104F064FD2078072162
:1017F000084202D101F04EFE2078010702D101F02B
:10180000FBFE2078032801D103F026F910BDC04665
:101810001400002080B500200621FFF72BFB80BDBF
:1018200080B502F0BBFB80BD10B5044602F070FB32
:101830000D4801784A1C0270890041188C60D1B2B1
:10184000022910D1002101708168C26851184A082C
:1018500042600648814206D8054841780278027005
:1018600002220A43427010BDEC000020071800005D
:101870005C0B002080B502F056FD80BD80B502F003
:1018800062FD80BDB0B504461C200B4D2146A84723
:1018900008202146A84700202146A84701202146CC
:1018A000A8471F202146A84710202146A8471B20F3
:1018B0002146A847B0BDC0465115000010B52348C9
:1018C000017802242143017002F0C6FB0121024A83
:1018D000204604F059F910BD551D000070B502F006
:1018E000B5FB02F0BFFB02F0C9FB184C26780125BE
:1018F0002E4001F0D7FC2178864208D1FB20084019
:101900002070294207D001F095FE207803E00420E2
:10191000014321700846FD210140217070BDC04681
:1019200010B50A4C2078C00702D102F0A1FB01E0FB
:1019300002F0C2FB20780124204001F0BBFC4B20C8
:10194000034A214604F020F910BDC04624080020B7
:10195000DD180000BCB55C4C01212046FFF7D6FA2B
:10196000002821D001212046FFF7C1FA544DA86874
:1019700003F0C0FD297F012806D103200143297708
:10198000E87F21216854BCBDFE2001402977A8686A
:1019900001A903F055FD012806D101A800782168AE
:1019A000FF2291430143216000212046FFF7AEFA58
:1019B000002812D000212046FFF799FA216801A8DB
:1019C00001703F4C6068C9B203F04EFDA07F20213A
:1019D0006054207FFB2101402177BCBD7CB5384C91
:1019E000207FC0072FD02120215C002904D0491E70
:1019F0002154FF20014226D12069FFF75FFA002819
:101A000021D120692F4D2946224601F099FE012857
:101A100019D1002604E00178A06803F025FD761CAA
:101A2000A81921688E42F6D3A06801A903F008FD29
:101A3000012808D101A801782348FFF79DFA207FEB
:101A4000FE2101402177207F0221084207D0FD219D
:101A500008402077A169002901D08847207F4007EE
:101A60001DD42020215C002904D0491E2154FF20D0
:101A7000014214D10025134E05E0606803F0E0FC3C
:101A8000052803D06D1C71197F2DF6DDE0680D4926
:101A90002A4602F07FFE207F042101432177E0687F
:101AA000FFF70CFA00280AD1E0680649224601F047
:101AB00047FE6269002A02D02168024890477CBD37
:101AC000300000204C05002000020040F0B587B037
:101AD0006C461C21204601F029FE00270197402575
:101AE000284639462246FFF771F90326284639462B
:101AF0003246FFF7B7F9012001900B2728463946F7
:101B00002246FFF763F9284639463246FFF7AAF91D
:101B100007B0F0BDB0B50446CDB2294601F034FEA1
:101B2000012803D02046294601F0F8FDB0BD7047DA
:101B300080B502F0BBFC80BD10B509484178027841
:101B40008378C478C4708370027022021A4312042E
:101B5000090211430122D2020A43110A417010BD49
:101B60000C00002070B50446394D696839A0224642
:101B700002F088F96868A04268D0601E04280ED878
:101B80007844007940008744023D12323A00012037
:101B900068601920FF21334A03F0F6FF55E0204624
:101BA0005238022851D334A002F06CF970BD2E4E89
:101BB00030787178090201432D4808403070000ADE
:101BC000707002F03FFF002837D031787078000243
:101BD00008430421084207D1264A1040020A7270C5
:101BE0000843307002F0F4FF3C20A8602DE01E484E
:101BF00001784278427002220A43027025E01848B8
:101C0000A86022E001F0E2FB17490B784A78120243
:101C10001A430123DB021A4208D0144B1A400A70FF
:101C2000120A4A701E211E2800D8084614211428C2
:101C300000D808464143A96007E00020A86030783A
:101C4000717871700821014331706C6070BDC046BD
:101C5000E00000200D0A445325642D256400000097
:101C600070170000991C00005C0B0020FFF70000BB
:101C7000FFFB0000F3FF00000D0A2A2A2A2A2A2A65
:101C8000205F646576537461746553657420457292
:101C900072202A2A2A2A0000B0B51E4D6868022840
:101CA0000ED0532811D0052819D052281DD0032852
:101CB0002FD1A868002815D10420FFF753FFB0BD2D
:101CC000A86800280ED1042021E0AC682821204615
:101CD000FEF71EFA002912D102F074FE0EE0A86889
:101CE000002813D0401EA860B0BDAC681421204667
:101CF000FEF70EFA002902D104F04EFAAC68002C6F
:101D000002D0601EA860B0BD0C2000E00E2001F0E3
:101D100001FFB0BDE0000020B0B588B001AC1C21CF
:101D2000204601F003FD002502950495059502F07B
:101D3000EFF8052128462246FFF748F808B0B0BD65
:101D400080B50349FEF7D2FF0021091A484180BD42
:101D50004001002080B502F073F964200121024A9D
:101D600003F012FF80BDC04621190000B0B5022467
:101D7000522806D0652803D0532813D1032400E04D
:101D80000424E0B26C4D2978814204D1694800787E
:101D9000FF2800D0B0BD00F07DF86C702C7000F012
:101DA0006DF8B0BD00F076F8B0BDC04680B500F06B
:101DB00071F880BD10B588B001AC1C21204601F03F
:101DC000B5FC012002900020049005904120800184
:101DD00005212246FEF7FAFF08B010BD10B588B005
:101DE00001AC1C21204601F0A1FC02F0A0FA002069
:101DF00002900490059002212246FEF7E7FF02F0D0
:101E000096FA08B010BD0000FEB51A490868401CDB
:101E100008600022184D17461FE03378354610350C
:101E20000027002B17D0B06812490968081A01274B
:101E3000002810D0019302927168FEF769F9002919
:101E400008D10198FF2801D0401E3070F0680028AA
:101E500000D08047029A2743521C3C462E46D0B2FF
:101E60001328DAD9200600D0FEBD02F083FB00F073
:101E7000D9FEFEBD38010020080A002080B5FFF71A
:101E8000FDFC962001212D4A03F07EFE29490870B1
:101E900080BDC04680B5274803F09BFE2648002140
:101EA000018080BD10B501F04DFF04464F2C0DD8C8
:101EB000FFF77CFF0A480178491C0170052C09D006
:101EC000032C0AD0022C02F043FA10BD2046FFF783
:101ED0004DFF10BD02F037FA10BD02F024FA10BD1C
:101EE0004403002010B5134CFF202070FFF7C2FC04
:101EF00096200121024A03F047FE207010BDC04623
:101F0000051F0000B0B50B4CFF2020700A4D681C67
:101F100001F082FA6878002805D0FFF7AFFC962020
:101F20000121064A02E006480121064A03F02CFE80
:101F30002070B0BD15000020D4000020E51E000078
:101F400052030000592C0000B0B504460E4D29681C
:101F5000A14217D00DA0224601F094FF01F024FF0A
:101F6000012C08D100280CD07A20002101F0D2FDEC
:101F700003F0CAFF05E0002803D14820002101F04A
:101F8000C9FD2C60B0BDC046500B00200D0A5A534D
:101F900025642D256400000080B5CB4949680029DF
:101FA00004D0C9B28900024A5158884780BDC04652
:101FB000406E000010B5DE4800790024800707D588
:101FC000DC4882680124002A02D00C300F2190479F
:101FD000204610BD10B5D64800790024C00707D0B0
:101FE000D44882680124002A02D01B300F21904778
:101FF000204610BD10B501F0D5F8002810D00C4CCB
:10200000611C204600F0C8FF002802D10AA001F0A0
:1020100039FF08488268002A09D06178204605E027
:1020200004488268002A02D001484178904710BDD8
:1020300018090020000100205F6E32735478205888
:1020400031000000B0B5DD49097989060024002976
:1020500028D5002808D0D44882680124002A21D03D
:10206000D248417890471DE0D04C2046143002F011
:10207000E7FD1120E07300202074607421461231C6
:10208000042003F0D5FEAC4D697B0320224603F00B
:10209000C6FDFFF7AFFF082003F000FE687BE349B1
:1020A000087001242046B0BDFEB5DF490979C90694
:1020B0000024002929D5002808D0DC4882680124A2
:1020C000002A22D0DA48417890471EE002F0BDFD98
:1020D00002AB1870D64D28460F30694601240C60BB
:1020E0004860002003260146324601F07BFED14FB6
:1020F000797B30462A4603F092FDFFF77BFF0820EC
:1021000003F0CCFD787BC9490870204603B0F0BDD0
:102110001FB5E7494979C9060024002937D50028A9
:1021200008D0E44882680124002A30D0E24841788F
:1021300090472CE003AC204602F09DFDDE480F30B6
:10214000694602220A6048600020172201462346A1
:1021500001F048FE03F09AFD00280CD0D74C617BBB
:102160000320D54A03F05BFD082003F097FD607B58
:10217000ED49087008E0EC480178491C0170C9B2CB
:102180000320EA4A03F04BFDFFF734FF0124204609
:1021900004B010BD7FB5E349497949060024002900
:1021A00028D5002808D0E04882680124002A21D0E0
:1021B000DE48417890471DE002F078FD03AB1870CF
:1021C000DA4D28460F30694601240C604860002033
:1021D0002722014601F006FED54E717B03202A46D8
:1021E00003F01DFDFFF706FF082003F057FD707B8D
:1021F000EA490870204604B070BDC04670B5E64993
:10220000097949070024002928D5002808D0E34887
:1022100082680124002A21D0E148417890471DE0DE
:10222000DF4D2846143002F02FFD0920E87300200E
:1022300028746874294612310124204603F0F8FD01
:10224000D84E717B03202A4603F0E9FCFFF7D2FE4B
:10225000082003F023FD707BF2490870204670BD12
:102260007FB5EF49497989060024002928D500283F
:1022700008D0EC4882680124002A21D0EA4841783D
:1022800090471DE002F029FD03AB1870E64D28468B
:102290000F30694601240C60486000202622014668
:1022A00001F0A0FDE14E717B03202A4603F0B7FC4C
:1022B000FFF7A0FE082003F0F1FC707BF6490870E0
:1022C000204604B070BDC04600010020B0B5F14901
:1022D000897989070024002928D5002808D0EE48EC
:1022E00082680124002A21D0EC48417890471DE003
:1022F000EA4C2046143002F01BFD401DE073002024
:1023000020746074214612312A2003F091FDE44DBF
:10231000697B0320224603F082FCFFF76BFE082056
:1023200003F0BCFC687BFB49087001242046B0BD6B
:102330000800002000010020280800207FB5F44993
:10234000C979C907002400292AD0002808D0F148FB
:1023500082680124002A23D0EF48417890471FE08B
:1023600003AD284602F087FCEB4C20460F3069464F
:1023700002260E6048600020172201462B4601F01D
:1023800031FDE4480178491C0170C9B2304622464B
:1023900003F045FCFFF72EFE082003F07FFC01242C
:1023A000204604B070BDC04600010020180900207E
:1023B000F3484068C1080120084070470800002029
:1023C0007FB5EF49497949070024002928D500281D
:1023D00008D0EC4882680124002A21D0EA484178DC
:1023E00090471DE002F0F4FC03AB1870E64D284660
:1023F0000F30694601240C60486000201522014618
:1024000001F0F0FCE14E717B03202A4603F007FC4B
:10241000FFF7F0FD082003F041FC707BF7490870DE
:10242000204604B070BDC046080000200001002016
:1024300018090020280800201CB5EF494979090730
:102440000024002931D5002808D0EC4882680124F6
:10245000002A2AD0EA484178904726E0E8490F311F
:102460006A46002003C216220146034601F0BAFC68
:1024700003F00CFC00280CD0E24C617B0320E04A06
:1024800003F0CDFB082003F009FC607BFA490870DB
:1024900008E0F9480178491C0170C9B20420F74AE4
:1024A00003F0BDFBFFF7A6FD0124204602B010BDDE
:1024B0000800002000010020180900202808002042
:1024C000B0B5EC49497909060024002928D500282F
:1024D00008D0E94882680124002A21D0E7484178E1
:1024E00090471DE0E54C2046143002F00FFC092017
:1024F000E07300202074607421461231282003F01C
:1025000097FCFB4D697B0320224603F088FBFFF715
:1025100071FD082003F0C2FB687BF34908700124B9
:102520002046B0BD0800002000010020180900204E
:1025300028080020B0B5F5498979C9070024002989
:1025400028D0002808D0E84882680124002A21D039
:10255000E648417890471DE0E44C2046143002F0F4
:1025600039FC0D20E0730020207460742146123184
:10257000292003F05DFCDE4D697B0320224603F039
:102580004EFBFFF737FD082003F088FB687BD64938
:10259000087001242046B0BD080000200001002082
:1025A00018090020280800201CB5D84909794906D7
:1025B0000024002931D5002808D0CB4882680124A6
:1025C000002A2AD0C9484178904726E0C7490F31F0
:1025D0006A46002003C205220146034601F002FCC0
:1025E00003F054FB00280CD0C14C617B0320BF4A90
:1025F00003F015FB082003F051FB607BBA4908701B
:1026000008E0B9480178491C0170C9B20420B74AF2
:1026100003F005FBFFF7EEFC0124204602B010BDDD
:1026200008000020000100201809002028080020D0
:10263000B0B5F349097909060024002928D50028F6
:1026400008D0A94882680124002A21D0A7484178EF
:1026500090471DE0A54C2046143002F0DEFB092017
:10266000E07300202074607421461231122003F0C0
:10267000DFFB9F4D697B0320224603F0D0FAFFF772
:10268000B9FC082003F00AFB687B97490870012415
:102690002046B0BD080000200001002018090020DD
:1026A00028080020002070477FB5EC494979890748
:1026B0000024002928D5002808D08B4882680124EE
:1026C000002A21D08948417890471DE002F0B7FBED
:1026D00003AB1870854D28460F30694601240C6005
:1026E000486000201422014601F07CFB804E717B83
:1026F00003202A4603F093FAFFF77CFC082003F03E
:10270000CDFA707B78490870204604B070BDC04691
:10271000080000200001002018090020B0B5EA4997
:102720004979C9070024002928D0002808D06E481C
:1027300082680124002A21D06C48417890471DE02E
:102740006A4C2046143002F07CFB0920E073002024
:102750002074607421461231132003F069FB644D2C
:10276000697B0320224603F05AFAFFF743FC082056
:1027700003F094FA687B5C49087001242046B0BDE0
:10278000080000200001002018090020280800206F
:102790007FB5E6498979C9060024002928D5002893
:1027A00008D0514882680124002A21D04F4841783E
:1027B00090471DE002F057FB03AB18704B4D2846C5
:1027C0000F30694601240C604860002099220146C0
:1027D00001F008FB464E717B03202A4603F01FFAE6
:1027E000FFF708FC082003F059FA707B3E49087097
:1027F000204604B070BDC046080000200001002043
:1028000018090020280800207FB5C84989794906A1
:10281000002400292AD5002808D0334882680124E2
:10282000002A23D03148417890471FE003AD284665
:1028300002F01DFB2D4C20460F30694603260E602A
:1028400048600020A12201462B4601F0CBFAE44D5E
:10285000697B3046224603F0E2F9FFF7CBFB082004
:1028600003F01CFA687B204908700124204604B05C
:1028700070BDC0460800002000010020180900209B
:102880007FB5AA49897989060024002928D500281E
:1028900008D0E24882680124002A21D013484178F8
:1028A00090471DE002F0E7FA03AB18700F4D284681
:1028B0000F30694601240C6048600020A0220146C8
:1028C00001F090FAC64E717B03202A4603F0A7F967
:1028D000FFF790FB082003F0E1F9707BCF49087007
:1028E000204604B070BDC046000100201809002039
:1028F00028080020CA484068C10C012008407047E1
:10290000C7484068810C012008407047080000203B
:10291000B0B50446184D284603F0D0FA686802287E
:1029200002D12046FFF71EF9B0BDC04610B50146E2
:10293000114C204603F0BEFA6068052800D110BD96
:10294000216800290CD00DA001F09CFA206801211B
:10295000084209D1C0060BD40FA001F093FA10BDB4
:102960000320FFF7FFF810BD5220FFF7FBF810BD62
:102970005320FFF7F7F810BDE00000205F6F6E45B1
:102980007272546F4F6B5F64657645727242697400
:102990003D25303858000000206F6E457272546F2C
:1029A0004F6B5F583100000080B501F07FFD80BDA6
:1029B0009B484168022291434160704798484168B2
:1029C000012291434160704795484168202291431C
:1029D00041607047924841681022914341607047BE
:1029E000012000038E494A6882434A607047C0460E
:1029F000012080038A494A6882434A607047C04682
:102A000008000020864841680422914341607047D5
:102A10000120400382494A6882434A607047C046A9
:102A2000012040047E494A6882434A607047C0469C
:102A3000012000067A494A6882434A607047C046CE
:102A40007748416808229143416070470120800225
:102A500073494A6882434A607047C04608000020B4
:102A60000120C0026E494A6882434A607047C046EE
:102A70000120C0036A494A6882434A607047C046E1
:102A80000120000466494A6882434A607047C04694
:102A90006348416840229143416070476048416803
:102AA00080229143416070470120C0055C494A681B
:102AB00082434A607047C0460120400258494A6834
:102AC00082434A607047C04608000020012000028F
:102AD00053494A6882434A607047C0460120000556
:102AE0004F494A6882434A607047C04601208005CA
:102AF0004B494A6882434A607047C04601204005FE
:102B000047494A6882434A607047C0460120C00472
:102B100043494A6882434A607047C04601208004A6
:102B20003F494A6882434A607047C0460800002017
:102B3000B0B502F0C7FF002803D102F0BBFD0028AA
:102B400000D0B0BD054C064D2046294602F06AFF74
:102B50002978204602F0F4FDB0BDC046D80600201A
:102B6000D406002070B514280FD80401334D2E1957
:102B7000716031480068B0602A55F360002A04D0C3
:102B8000002802D1014801F0EBFC70BD091E0000D5
:102B9000F8B50E460746124C204639463246FDF738
:102BA00027FB204601F032F9012808D1617B202063
:102BB00000F020F8052003F071F801250DE009A0D0
:102BC0000025394632462B4601F084F9617B2220EC
:102BD00000F010F8062003F061F8284601B0F0BDBF
:102BE000280800205F7478744672616D65457865C9
:102BF00000000000B0B50C46084D6876284610303D
:102C000003F086FB2C760C350021284602F079FC77
:102C10000348416802220A434260B0BD000100201F
:102C20000800002080B504480021016005208201D1
:102C3000024800F0DCFB80BD38010020080A0020BB
:102C400080B501F06BF903200121024A02F09CFFDC
:102C500080BDC0462118000080B50448FF210170E6
:102C6000034801784170FFF709F980BD1500002085
:102C7000D4000020BCB501218C072046FEF753FD8F
:102C8000002821D001212046FEF73EFD554DA868C1
:102C900002F030FC297F012806D103200143297767
:102CA000E87F21216854BCBDFE2001402977A86837
:102CB00001A902F0C5FB012806D101A8007821680E
:102CC000FF2291430143216000212046FEF72BFDA6
:102CD000002812D000212046FEF716FD216801A829
:102CE0000170404C6068C9B202F0BEFBA07F202199
:102CF0006054207FFB2101402177BCBD7CB5394C5D
:102D0000207FC00730D02120215C002904D0491E3B
:102D10002154FF20014227D12069FEF7CFF8002877
:102D200022D12069304D2946224600F009FD0128B4
:102D30001AD1002604E00178A06802F095FB761C09
:102D4000A81921688E42F6D3A06801A902F078FB89
:102D5000012809D101A8017801208007FEF714FDA0
:102D6000207FFE2101402177207F0221084207D0E9
:102D7000FD2108402077A169002901D08847207FE4
:102D800040071DD42020215C002904D0491E215475
:102D9000FF20014214D10025134E05E0606802F0C7
:102DA0004FFB052803D06D1C7119FF2DF6DDE0687F
:102DB0000D492A4601F0EEFC207F042101432177D2
:102DC000E068FEF77BF800280AD1E0680649224651
:102DD00000F0B6FC6269002A02D0216802489047E0
:102DE0007CBDC04660000020D0050020F0B587B053
:102DF0006C461C21204600F099FC002001904025E3
:102E00000627284639462246FDF7E0FF02262846D7
:102E100039463246FEF726F801200190072728465A
:102E200039462246FDF7D2FF284639463246FEF79C
:102E300019F807B0F0BDB0B50D46044600F0ACFF80
:102E4000002808D000F0ECFD00280FD0E9B22046A1
:102E500000F0ECFDB0BDEDB22046294603F080F84D
:102E6000012803D02046294602F0F2FCB0BD70478D
:102E700080B501F077FC0A48017842784270202240
:102E80000A43027080BDC04680B501F077FC04485B
:102E900001784278427080220A43027080BDC046A9
:102EA0005C0B0020F0B58DB00C460546287802F08A
:102EB00039FF002819D0207802F039FF002816D0F9
:102EC00020786978814214D1A878AE1C02F0A9FF5D
:102ED000002810D0307802F0A2FF00280DD0207812
:102EE000C01C000710D01FA008E028A006E024A006
:102EF00004E01B4802E01FA000E01D4800F0C2FFF4
:102F0000002738460DB0F0BD019609A9284600F00B
:102F100037F90294207804900D2603950AE009A859
:102F200005A90A46B8C8B8C2039DA819012200F035
:102F3000A9F81036F6B204988642F0D304982818FF
:102F40000021C943425C4018002AFBD00127791BAD
:102F50000C186C70019802F07FFE02980470D0E7A4
:102F6000686F000061657344656320583600000097
:102F7000726F00006165734465632058340000007F
:102F800061657344656320583200000061657344D5
:102F90006563205831000000F0B58BB00D46044643
:102FA000207802F0BFFE002815D0287802F0BFFE7E
:102FB000002812D028786178814210D1A078A61C10
:102FC00002F02FFF00280CD0307802F028FF0128F3
:102FD0000DD1224806E028A004E024A002E01E480B
:102FE00000E01FA000F04EFF00200BB0F0BD304607
:102FF00002F037FE07A9204600F0C2F82878C11C6D
:103000000F220A400021002A0AD0D2B210239E1AB1
:1030100006D020180021324600F0E9F92878314620
:103020000294081828700D2601950CE007A803A942
:103030000A46B8C8B8C2019D02988019002200F063
:1030400021F810362878F6B2C1B28E42EED302993A
:1030500048700120C9E7C046686F0000726F000029
:10306000616573456E6320583400000061657345E7
:103070006E63205832000000616573456E6320580E
:1030800031000000F0B593B00F46054600240E94C1
:103090000D940C940B940A94099408940794069444
:1030A000059404940394002A02951BD01B200190E0
:1030B0000121FEF74DFA0BA8009010263946324642
:1030C000FDF796F807AF384629463246FDF790F8E7
:1030D00003AD10950F970098119012940FA8FDF76B
:1030E000A9FB19E01B2001900121FEF731FA2946C6
:1030F00007AD102628463246FDF77AF839460BAF61
:1031000038463246FDF774F8109503AD0F951197C8
:1031100012940FA8FDF7DCFB029829463246FDF712
:1031200067F801982146FEF713FA13B0F0BD704717
:1031300080B500F049F880BD80B500F04FF801205F
:1031400080BD0000B0B5827803799C18032214403A
:103150000AA31C5D0C70C47805792C1914401C5D01
:103160004C70047914401C5D8C708478C5782C19DF
:10317000007920181040185CC870B0BD467A3940FC
:1031800070B50C4605462046FFF7D2FF26460C36A2
:1031900028463146FFF7D6FF08342046314600F076
:1031A00030F970BD80B500F02FF880BD80B500F01B
:1031B00033F880BD00020843704700020843000254
:1031C000104300021843704780B5002804D0CD4951
:1031D00038310C22FDF70CF880BDC046B0B504466E
:1031E000002C10D0C74D38350C2220462946FDF75B
:1031F00031F8002807D0C248012101700C2228466E
:103200002146FCF7F5FFB0BDBE48416B0120002907
:1032100000D108467047C046BA494A6B824203D083
:10322000B74A0123137048637047C046B5488068A9
:103230007047C046B3498A68824203D0B04A01232E
:10324000137088607047C046AE484169012000296C
:1032500000D108467047C046AA494A69824203D055
:103260004861A748012101707047C046A5488069A0
:103270007047C046A3498A69824203D08861A0484A
:10328000012101707047C0469E48C0697047C04622
:103290009C49CA69824203D0C861994801210170E2
:1032A0007047C0469748016B0120002900D10846AD
:1032B0007047C04693490A6B824203D00863904826
:1032C000012101707047C0468D4801780020401AE6
:1032D0004841704780B507488078012802D106A090
:1032E00000F0D0FD224800210160FE2000F02AF805
:1032F00080BDC0465C0B00200D0A636667506167A5
:103300006549644465660000194800687047C04616
:1033100080B500F00FF816480068000A01D0FFF7EA
:10332000D9FF80BD0146C439012000223B2900D3CA
:103330001046704780B5FF2000210D4A012300F0A0
:10334000C9FE80BD80B50146094A136800208B4242
:103350000DD0116007488078012802D106A000F046
:1033600091FDFF200021024A012300F0BFFE80BD35
:10337000300100205C0B002063666750616765497F
:10338000645365743D2564005E4A136A0360506AA5
:10339000086070475B4A136A834203D01062584842
:1033A00001230370506A884203D0516254480121BE
:1033B000017070470A2070475249CA68824203D0A0
:1033C0004F4A01231370C8607047C0460020704701
:1033D0004C490A69824203D0494A012313700861AB
:1033E0007047C04680B500F057FB80BDFEE710B5C2
:1033F0005242002302E0C41A21705B1E9A42FAD1A5
:1034000010BD0A780378534003700A785A400A7056
:1034100001785140017070470178002901D0491EA0
:103420000170704737480168491C01D100210160D3
:1034300000213C224B239B0041608160C1600261FE
:103440004161836101230362426241630349016474
:10345000C16381632A4803707047C0465858585862
:1034600080B5FFF755FF00F00BF8254800210170EB
:1034700024484068002801D0FFF7D4FF80BDC04633
:1034800080B5FFF741FF00211E4A122300F022FE03
:1034900080BDC046B0B51A48017800292FD0002160
:1034A0000170184C2068401C2060FFF72DFF451E5E
:1034B0002846FFF737FF00280FD0206812498842BE
:1034C0000BD301202060002113232846224600F060
:1034D0000DFE2846FFF736FFB0BD0C488078012866
:1034E00006D1FFF711FF0146226809A000F0CAFCCF
:1034F000FFF70AFF0021034A132300F0F7FDB0BDD8
:103500002D010020DC070020D17E01005C0B002093
:1035100076617220777269746520666C6173682CBD
:103520007061676549643D256420636E743D256460
:103530000000000051480178FA220A40042111439A
:103540000170704780B5FFF7F5FF80BD704780B50B
:1035500000F046F880BD80B500F072F880BD000034
:1035600010B500F02BF800F045F8FFF7EFFF434CE3
:103570002078F5210140082008432070FFF792FED3
:10358000227805211143FA23134004221A4300280C
:1035900000D00A46227010BD10B5384804780020CB
:1035A00006210C4200D010BD01200440FFF77AFE36
:1035B000211A0020401A484110BDC046704780B50E
:1035C000FFF742FE0021091A484180BD80B500285E
:1035D00001D0012000E00020FFF73EFE80BD00008A
:1035E0002648017805220A430270704780B5FFF72C
:1035F0003DFE80BD7047000010B5FFF753FE002868
:1036000012D0FFF741FE044600F010FF041BFFF745
:103610002DFE844208D319480178FA220A40042179
:103620001143017000F010F810BDC04680B5FFF7DF
:1036300021FE80BD80B500F0F9FEFFF729FE80BDB8
:1036400080B5FFF72FFE80BDB0B50C4C2578062065
:10365000284004280BD128070AD401200540FFF791
:1036600021FE854207D12078FB2101402170B0BDA9
:10367000F72005402570FEF721F9B0BD2408002091
:10368000B0B58CB0054601AC204618301421FCF7CB
:10369000C8FD28680949401806902879401E059001
:1036A00068790490A8790390E8790290287A0190CB
:1036B0002046FCF757FD0CB0B0BDC04694F8FFFFA4
:1036C00080B500F003F800F0A7F980BDB0B586B072
:1036D00001A9802008804880012460028880C88079
:1036E0000220087248720948049009480590D34D99
:1036F000281D02F0ADFBFF21064A204602F044FAE5
:103700006877054800F0CEFF06B0B0BD151B00007D
:103710002F1B0000DD1900005519000080B50A4676
:103720000146C648006901F035F880BD002804D183
:1037300005E000220270401C491E0029F9D17047A3
:10374000F8B516460C460546A968EA68002091427D
:1037500017D02868475C481C6968FCF7D9FCA96049
:1037600037600BE0A8682968085C20706968A86861
:10377000401CFCF7CDFCA9607F1E641C0120002FBB
:10378000F0D101B0F0BD0000F8B50C4605460027A9
:10379000032C3AD31E4903222846FCF75BFD002880
:1037A00033D1EE1C1B4908223046FCF753FD00289C
:1037B0000AD128460B302146F531C9B200F00AF98A
:1037C00001460120012921D0134903223046FCF78C
:1037D00041FD002809D1A81D2146FA31C9B200F0E7
:1037E000ABF801460120012910D00C4903223046D4
:1037F000FCF730FD002808D1A81DFA34E1B200F032
:103800000FF801460120012900D0384601B0F0BD73
:10381000C76F0000B66F0000B26F00007C6F000041
:10382000BFB505460024062911D012291BD00A294C
:103830002ED0092949D13F492846FCF7FDFC002834
:1038400043D1FFF7AFFC002831D036A03AE02B4936
:103850002846FCF7F1FC002837D101AD2846FFF7D8
:1038600067FC27A00DE01A4906222846FCF7F2FC67
:1038700000282AD1AD1D2846FFF75EFC002820D085
:1038800014A00C2201242946234600F023FB1CE04F
:103890001E492846FCF7D0FC00280AD01C492846BF
:1038A000FCF7CAFC002810D10020FFF77FFC19A00C
:1038B00008E001242046FFF779FC1AA000F0E2FAA4
:1038C00003E009A000F0DEFA0124204604B0B0BDF8
:1038D000876F00000A6165736B6579736574206F8B
:1038E0006B2C206B65793D000A6165736B6579739C
:1038F0006574204572726F7200000000806F0000D6
:103900000A6165736B65793A00000000A36F0000DF
:10391000986F00000A61657320737769746368208B
:103920006F6666000A616573207377697463682047
:103930006F6E00008E6F000070B588B000250329FF
:103940002FD1194903242246FCF784FC002828D1F2
:10395000684616A11822FCF74BFC06A800F0A0FF51
:1039600000281AD00020064605E006A9091A0978A1
:10397000F2B28E18401E01460831F6D16D462C4336
:1039800006A8214600F090FFF0B22946133100F05E
:1039900057F800206875284600E00AA000F072FA87
:1039A0000125284608B070BDAE6F00007A6C40005B
:1039B0000000000000000000000000000000000007
:1039C000000000000D0A206D6163207265616420B3
:1039D0006572720010B50024072908D0012916D19C
:1039E0000078302813D100F061FD01240FE009496F
:1039F000FCF722FC00280AD10720002100F08AF8F9
:103A0000094801780124002901D1012404702046CD
:103A100010BDC046BF6F0000034800210170704711
:103A2000014800787047C046D006002080B50A469D
:103A300001460248006900F0ADFE80BD3000002064
:103A400080B5024602A30846194602F08BFC80BDF1
:103A50002530325800000000F8B51E4C1E4D656040
:103A60000021A160052121601C4E0BE00020A06018
:103A700030680849FCF74CFB691C081AA1688142B0
:103A8000FCD83846471E0028F0D120680121884321
:103A90002060F8BDA0860100F8B50E4C0E4D6560A3
:103AA0000026A660052121600CE0A6607D20C100F3
:103AB0000A480068FCF72CFB691C081AA1688142BF
:103AC000FCD83846471E0028EFD1206801218843E2
:103AD0002060F8BD10E000E0FFFFFF0010000020B4
:103AE000B5480068010901200840704780B500F022
:103AF0002DF900F063F90520FF21044A02F044F893
:103B00000120034A014602F05DF880BDB5170000B0
:103B1000391B000010B50446792C0BD359A021465F
:103B200000F0B0F97B2C16D07A2C18D10120FEF7CA
:103B3000FDFE10BD512C24D8482C12D342A02146A2
:103B400000F0A0F9492C14D0482C17D152200121A3
:103B5000FEF7DEFE10BD1020FEF7E8FE10BD4DA002
:103B60000DE0332C0DD8082C0CD0072C18D10520D3
:103B700014E053201021FEF7CBFE10BD38A000F05A
:103B800081F910BD264800680121084203D1C00612
:103B900003D4032002E0522000E05320FDF7E2FFAF
:103BA0001F48406851280CD30C2CEAD11D480178DD
:103BB0004278427008220A4302700420FDF7D2FFC7
:103BC00010BD05280DD8C0467844007940008744D0
:103BD000020A0D101E21012CD3D10120FDF7C2FFD6
:103BE00010BD11A0CBE7022CCBD10CE0042CC8D126
:103BF00012E0062CC5D101F007FD002803D10948C9
:103C000040784007D9D50220FDF7ACFF10BD0A2C43
:103C1000B7D101E00E2CB4D10320FDF7A3FF10BDF6
:103C2000E00000205C0B00200D0A2A2A2A2A2A2AFA
:103C3000205F6465764F6E4576656E7420457272BE
:103C4000202A2A2A2A0000005F6F6E457272486996
:103C50006E744576656E745F653D256400000000F6
:103C60000D0A2A2A2A2A2A2A205F6F6E4572724874
:103C7000696E744576656E7420457272202A2A2A10
:103C80002A0000005F6F6E457272546F4F6B5F6564
:103C90003D2564000D0A2A2A2A2A2A2A205F6F6EEF
:103CA000457272546F4F6B4576656E742045727223
:103CB000202A2A2A2A00000010B5FFF76DFC0028F0
:103CC00037D0FFF701FB002833D002F0C7FA0028F5
:103CD0002FD001F0BBFC00282BD0164C2178607847
:103CE000000208430821084223D0C10609D4144920
:103CF0000840010A617010210143217000F03AFE72
:103D000010BD800615D500F045FC207861780902C9
:103D10000143094808402070000A607000F034FB3D
:103D200000F034FE05A000F0ADF80A200021FFF7F6
:103D3000F1FE10BD5C0B0020C1FF00007700000009
:103D4000CFFF00001C4840687047C04680B51A4944
:103D500000200860FDF706FF0120FFF7DBFE0220D0
:103D6000FFF7D8FE80BDC04613484068811E002082
:103D7000401A48417047C0460F48416853390020F7
:103D8000401A48417047C0460B484068C11E002099
:103D9000401A48417047C04607484068411F00200C
:103DA000401A48417047C0460348416852390020D4
:103DB000401A48417047C046E000002080B50448E2
:103DC00000F0B2F83220FF21024A01F0DDFE80BD92
:103DD00029180000412C0000014840687047C04687
:103DE000EC00002070B51C46049D6B1D059E3370D1
:103DF0007070B17090B2F11C02F01AF8002D04D06E
:103E0000701D21462A46FCF7F3F970BDB0B5044693
:103E1000E17CA07CFFF7CEF9054600F019F8411CC3
:103E200005D080000549095820468847B0BD04A048
:103E3000294600F027F80020B0BDC046E86D00001C
:103E4000657272207061726149643D2564000000F2
:103E5000B0B5152300210A4A00E0491CCCB201E0AC
:103E6000FF310B460021C943DDB2AC4206D8291907
:103E700049084D00555B8542F2D8EED30846B0BDE7
:103E80001A6F000083B070B5A1B0044625A80EC01B
:103E900001AD802628463146FCF7C3F925AB0093D7
:103EA00028463146224602F071FA0146002901D027
:103EB00001A801E004A00B21FFF730FC21B070BC89
:103EC00001BC03B00047C0466D795072696E7466DC
:103ED000204E4700F8B51C4615460E46002801D076
:103EE000FFF7D0FF07A705E031783846FFF7CAFF94
:103EF000761C6D1E002DF7D1002C02D003A0FFF719
:103F0000C1FFF8BD20253032580000000D0A000026
:103F100080B500200521FCF74FFF80BD80B5002053
:103F20000521FCF7B1FF80BD164908607047C04607
:103F3000F0B587B0FDF7F0FEFDF76CFC6D461C2177
:103F40002846FFF7F3FBFCF791FD00270097019748
:103F5000032420030290039704970126B0030590E1
:103F600006972846FCF746FD0620FCF701FDFCF706
:103F700013FD182021463246FCF716FE0148076063
:103F800007B0F0BD4003002080B5FDF7C5FEFDF78A
:103F900041FCFCF76BFDFCF759FD80BD80B5FCF7DB
:103FA00055FD80BD80B5FCF755FDFCF759FD80BD82
:103FB000F0B585B000252846FDF746FA2846FDF7FE
:103FC00053FA1120FDF700FB02263046FDF7F0FA08
:103FD0000124144F30462146B8473046FDF706FB12
:103FE00004263046FDF7D6FA28462146B847019503
:103FF0000296032003900C20049001A8FDF74AFAD2
:104000002046FCF765FE30462146B8473046FDF7AE
:10401000EDFAFDF781F9044908602046FDF732FC0E
:1040200005B0F0BD21120000600B002080B501201A
:10403000FDF728FC80BD80B50020FDF723FC80BD86
:1040400080B500200721FCF71FFF80BD80B5002050
:104050000721FCF7B1FE80BD80B580200421FCF76C
:1040600013FF80BD80B580200421FCF7A5FE80BD34
:1040700080B500F01BF800F007F880BD80B500F0B7
:1040800015F800F007F880BD80B500200921FCF785
:10409000FBFE80BD80B500200921FCF78DFE80BDB0
:1040A00080B500200821FCF7EFFE80BD80B5002020
:1040B0000821FCF781FE80BD80B5FFF7F1FFFFF717
:1040C000E9FF80BD80B50C200121FCF7B9FD002877
:1040D000F9D180BD89004002401802E002C802C246
:1040E0005B1E002BFAD1012070470000FEB5029242
:1040F00005468800114C201801906E02980000902F
:10410000042716E0FF2D13D8002003E08100725829
:104110006250401C8028F9D101980299009AFCF75E
:1041200067F82846FDF70CFE01460120002903D15F
:104130007F1E0020002FE5D103B0F0BD400100201C
:1041400010B5FFF735FFFFF7BDFF00F0BDF9002404
:10415000204600F069FA204600F0AAFA00F07AF84A
:10416000FFF7E6FE00F007F800F01AF800F069F833
:1041700000F069F910BD80B5FDF71CFE80BD80B56B
:10418000FDF718FE80BD80B5412080010521FCF7B8
:1041900061FE01460120002900D1084680BD70471C
:1041A000F0B587B06E461C255A4A304629469047DE
:1041B000FFF758FF002401940394012704978020FF
:1041C0000421554B32469847FFF74CFF6E46304668
:1041D0002946504A9047FFF739FF0194039404970A
:1041E0000721204632464C4B9847FFF72FFF6E467B
:1041F00030462946474A9047FFF758FF01940394F9
:104200000497082120463246434B9847FFF74EFF5C
:104210006E46304629463F4A9047FFF73BFF0194E0
:10422000039404970921204632463B4B9847FFF7F9
:1042300031FF07B0F0BDC04680B5FFF7B1FF80BDCC
:10424000704780B5FDF7CAFD80BD80B5FDF7C6FD9E
:1042500080BD7047F0B58BB004AF1C2102912D4A90
:104260003846904700F07EFA00250595012007901A
:10427000044603940895402001900421264B3A46B9
:10428000984700F06FFA04AF3846029E3146214A43
:10429000904700F061FA0595079408950B21284690
:1042A0003A461D4B984700F057FA04AF384631465E
:1042B0003446184A904700F061FA05950398079034
:1042C00008950321019E30463A46134B984700F06B
:1042D00055FA04AF384621460E4A904700F036FAA8
:1042E0000595039C07940895052130463A460A4FE8
:1042F000B84700F02BFA04AE30460299054A9047C1
:104300000594079508950F2128463246B8470BB00B
:10431000F0BDC0462D370000CD0D000080B5FFF781
:1043200099FF80BD704780B500F001F880BD80B571
:1043300000200221FCF7A8FD80BD80B500200221ED
:10434000FCF73AFD80BD80B5FFF7F7FF80BD0000A8
:1043500010B50C4C2078C00708D1FFF7E8FF207893
:104360006178090201430120084307E0FFF7E5FFF8
:104370002178607800020843012188432070000AF8
:10438000607010BD5C0B002080B5FFF74FFEFFF79B
:10439000F6FEFFF751FFFFF758FFFFF7BFFF00F0F2
:1043A000C5F900F031F900F0D1F8FFF7EDFD80BD5F
:1043B0007CB5044668460025857185800095EE43EE
:1043C000761C092E2FDC6846FCF778FE0028F7D112
:1043D00069468B791D090A2045430F2213407D262B
:1043E00036011E43731923604B791D091340454361
:1043F000EB1823710B791D0913404543EB186371CA
:104400008B781D0913404543EB18A3714B781D09A8
:1044100013404543EB18E37109780A400909414309
:10442000881820720125284602B070BDF8B501A891
:10443000FFF7BEFF01460020012902D101A8FFF7C6
:104440001FF904B080BDF0B589B06D46242128461F
:10445000FFF76CF9142001242146FDF779F80326B3
:1044600030462146FCF7DCFE0094002004900194C5
:10447000112129725021A976EC761021297717276E
:10448000AF7704216977E977202119226A540594CE
:1044900028832846FCF7EEFD384631462246FCF7D5
:1044A00083FB2046FCF7B4FD09B0F0BDBFF34F8F8E
:1044B000034804490160BFF34F8F00BFFDE7C046CA
:1044C0000CED00E00400FA0570B58AB06E462821B4
:1044D0003046FFF72BF90024009405940420039044
:1044E0000125069534743472019420463146FCF758
:1044F00011FB0E4E20463146FCF7D8FA20463146D5
:10450000FCF7E0FA20462146FCF7BCFA2046FCF70F
:10451000F7FA0E2003212A46FCF746FB14480470E4
:1045200003490C6044600AB070BDC04690E80000CA
:10453000580B002010B50E4C2078012805D160687A
:10454000002800D080470020207010BD80B50E20CC
:1045500003210122FCF728FB0020FCF7C1FA80BDF3
:1045600080B5034948600020FCF7BAFA80BDC04618
:104570002000002080B50020FCF7BAFA80BD10B5FD
:1045800000242046FCF7B4FA0E2003212246FCF753
:104590000BFB10BD10B5FFF705FDFFF7F0FF00F0B6
:1045A0003CF800F0CCF8FFF7FAFDFFF749FEFFF703
:1045B00050FEFFF7B7FE11480024C460C4648C218C
:1045C0004450CC2144500E49CC60CC640D4A02606A
:1045D00002648023C250C023C2500A600A6444624D
:1045E0004466A4228450E42284504C624C66FFF757
:1045F00022FD2046FCF7D6FC10BDC046000D02404F
:10460000001D0240FFFF000080B5FDF75FFA0820A3
:1046100003210122FCF7C8FA80BD80B508200321E0
:104620000022FCF7C1FA80BDF0B589B00190FDF71A
:104630004DFA02AF1C213846FFF778F80220012519
:104640002946FCF785FF0026049603960596FCF79D
:10465000F1FE0790A8020690E12040020890402059
:1046600002900F4C20463946FCF756FC2046314656
:10467000FCF73DFC20462946FCF739FC2046314634
:10468000FCF73DFC20462946FCF739FC08200321B5
:104690002A46FCF789FA05480199016009B0F0BD86
:1046A00000020040014908607047C046480B0020E6
:1046B000F0B587B00090FEF799FB01AF182138469E
:1046C000FFF734F840200190002603960296E1207F
:1046D00000020690012568020490FCF7ABFE0590ED
:1046E000AC0720463946FDF723F820463146FDF752
:1046F0000BF820462946FDF707F820463146FDF71E
:104700000BF820462946FDF707F8062003212A4624
:10471000FCF74AFA04480099016007B0F0BDC046B2
:10472000014908607047C0464C0B002080B5FEF779
:104730005DFB062003210122FCF736FA80BD80B51F
:10474000062003210022FCF72FFA80BD80B540200F
:104750000521FCF799FB80BD80B500200B21FCF7FB
:1047600093FB80BD80B540200421FCF78DFB80BD0C
:1047700080B540200421FCF71FFB80BD80B54020A0
:104780000321FCF781FB80BD80B540200321FCF7AD
:1047900013FB80BD70B514460D46064600F01FF8A9
:1047A0000146621C0020914217D3F06831680C5416
:1047B0007168F068401CFBF7ABFCF1600AE0306800
:1047C0002A7842547168F068401CFBF7A1FCF16044
:1047D000641E6D1C0120002CF1D170BD704710B516
:1047E000041D1CCC9818011B881A9C4200DB08464B
:1047F00010BD70B505462E461336304601F026FE34
:104800000446002C0BD020463146FBF70AFD20461B
:104810001030002121C421606160083C02E0FEF7F5
:10482000E5FD0024204670BD80B5044800210170DC
:104830003220FF21024A01F0A7F980BD4403002085
:10484000A51E000080B50822FBF704FD0021091A0F
:10485000484180BD1CB5044600F011F80146012016
:1048600000290AD1684601F053FD014600200029C5
:1048700003D068462146FFF7E5FF02B010BD0022D5
:1048800004E01B780021FF2B04D1521C8318012166
:10489000082AF6D10846704780B5FFF7DBFF80BDD8
:1048A00080B501F035FD80BD70B50C46054600268B
:1048B00006E0A81B00782146FFF7C2F8A41C761E6C
:1048C00030460830F5D1012070BD000010B5114C04
:1048D0000020A07060782178217008210143617068
:1048E000FFF72EFC00F032F8FFF700F900F04EF869
:1048F0007D200001FFF7D0F807A0FFF7C3FA0120E1
:10490000A070FFF717FE20788007FAD5FFF7D4F9DB
:10491000F7E7C0465C0B00200D0A7030335F74650A
:10492000726D696E616C5F6374726C5F77617465E0
:10493000722056302E315F323032303036313320F3
:1049400066656E676875690D0A00000080B501F044
:1049500017F9FEF785FDFEF7B3FEFEF7E8FB01F061
:104960003BFCFEF7FDFDFFF75FFF00F057FEFFF792
:1049700035FF80BD80B5FFF7FBFE07200121024A0D
:1049800001F002F980BDC046712E000080B50A48D2
:104990000178427812020A43084911400A0A42701B
:1049A00040220A430270FFF7EFFE07200A21044A63
:1049B00001F0EAF880BDC0465C0B00203FFF00001C
:1049C000892E000010B5FFF7CFF9002819D0FFF7A6
:1049D000D3F9002815D000F003F9012811D00948B7
:1049E000417802788378C478C470837002702202A0
:1049F0001A431204090211430122D2020A43110A86
:104A0000417010BD0C00002010B50446FFF7ACF952
:104A100000280ED00A480168A1420AD00460FFF7BE
:104A20005FF8012C03D1002803D07B2003E000288D
:104A300000D010BD49200021FFF76CF810BDC04622
:104A40004803002003480068411E0020401A4841E6
:104A50007047C046500B0020E0B5FFF785F90028ED
:104A600015D001A801F06CFC002809D00198FDF7D1
:104A70006BFAFFF799F9002809D001F08DFB8CBD86
:104A80000320FDF761FAFFF78FF9002800D08CBDF5
:104A900048200021FFF73EF88CBD000070B5454D61
:104AA0006868454E002819D03078002400287FD14E
:104AB00046203070701CFEF7AFFC7078002873D170
:104AC0006868072870D000F007FE00246C600220A0
:104AD000FFF79AFF39A0FFF7D5F969E07068002465
:104AE000002865D00121C2074DD1022182074AD496
:104AF0000321420747D40421020744D40521C206FA
:104B000041D4062182063ED4072142063BD4082127
:104B1000020638D40921C20535D40A21820532D4CF
:104B20000B2142052FD40C2102052CD40D21C204E7
:104B300029D40E21820426D40F21420423D410212B
:104B4000020420D41121C2031DD4122182031AD4DD
:104B50001321420317D41421020314D41521C202D5
:104B600011D4162182020ED4172142020BD418212F
:104B7000020208D41921C00105D400246C6010A0E1
:104B8000FFF780F914E0696000242046FDF704FA7D
:104B90006868401E012802D800F09EFD6C60462027
:104BA00030700124747003E001242046FDF7F4F90D
:104BB000204670BD000100200800002063000000B6
:104BC0005F6E3273476574496428292065727200EC
:104BD0000120000606494A6802434A607047C04601
:104BE000034841680120002900D108467047C046AB
:104BF0000800002010B5022001F050F801F03EF846
:104C0000002809D001242046FFF7FEFE00F064FDD5
:104C100004480021416003E003A0FFF733F90024BA
:104C2000204610BD0001002073675478436D644F27
:104C30006E52784F6B527370204552523100000013
:104C400080B5FEF775FA012080BD80B5FEF7AAFA9F
:104C500080BD10B500780024012806D0002808D1B6
:104C60000020FEF7A3FA012403E001242046FEF70A
:104C70009DFA204610BD10B50446FFF7ADF880B28E
:104C8000214601F0D5F810BD10B50446FEF7CEFA66
:104C9000214601F0D5F810BD80B5C37882784178FF
:104CA0000078FEF78AFAFEF7C5FA80BD80B5FEF7F8
:104CB00052FC01460120002900D1084680BD80B584
:104CC00001780020012904D0002905D1FEF73AFC23
:104CD00001E0FEF73CFC012080BD80B5FEF76FFCD3
:104CE0000021091A484180BD10B500780024012830
:104CF00006D0002808D10020FEF768FC012403E05C
:104D000001242046FEF762FC204610BD10B5044683
:104D1000FEF76CFC214601F093F810BD80B5C37816
:104D2000827841780078FEF748FAFEF77FFC80BD74
:104D3000B0B5044600F085F8201D00F082F8FEF7BB
:104D40007FFC00280FD001202072FFF76FFB054683
:104D5000FEF79AFA451BFEF789FA28182146093111
:104D600001F06EF805E00020207220460930FFF7C0
:104D7000CDFF002060730E20B0BD10B5044600F0DA
:104D800068F8201D00F051F8207A00280FD0FEF7B7
:104D9000DEFB237BE27AA17A607AFEF70EFAFEF759
:104DA00045FC607B002801D0FEF744FC10BDFEF7F7
:104DB000C9FB10BD10B5FEF735FBC8200124034A1E
:104DC000214600F0E1FE204610BDC046311B000028
:104DD000052070471CB5044601A86946FEF7D4FAC1
:104DE0000198214601F02CF80098211D01F028F8C7
:104DF0001CBDB0B50446E378A27861782078FEF750
:104E0000DCF90546E379A27961792079FEF7D5F9D5
:104E100001462846FEF7BEFAB0BD10B50446FEF7BF
:104E2000C9FA214601F00CF810BD80B5C37882782C
:104E300041780078FEF7C1F9FEF7BEFA80BD112077
:104E4000704710B50446FEF7C1FA214600F0F8FF9E
:104E500010BD80B5C378827841780078FEF7ADF94F
:104E6000FEF7B6FA80BD80B501F03CFA80BD80B592
:104E700001F040FA80BD1CB501AC204601F060FA9B
:104E8000207802B010BD000010B50146CA7800209D
:104E9000012A18D0022A1FD1CE480178427883789F
:104EA000C478C4708370427022021A4312040A4309
:104EB000202111430170E3494A78087808700120E5
:104EC00002434A7010BD14310846FEF735F9014619
:104ED0000120002900D1084610BDC04610B501468A
:104EE000CA780020012A18D0022A1FD1E24801788E
:104EF00042788378C478C4708370427022021A4367
:104F000012040A43102111430170DC494A780878E1
:104F10000870012002434A7010BD14310846FFF7A3
:104F200098FE01460120002900D1084610BDC04668
:104F300010B5C1780020022917D1E04948780A78D5
:104F40008B78CC78CC708B700A7022021A431204D2
:104F500003021343012002031A43120A4A70D8497C
:104F60004A780B780B7002434A7010BD10B50146A9
:104F7000CA780020012A1AD0022A21D1E5494878AE
:104F80000A788B78CC78CC708B700A7022021A4326
:104F9000120403021343012082031A43120A4A70C7
:104FA000DD494A780B780B7002434A7010BD14310A
:104FB0000846FFF784FE01460120002900D108467B
:104FC00010BDC04610B50146CA780020012A18D08D
:104FD000022A1BD1E148017842788378C478C470F2
:104FE0008370427022021A4312040A4304211143BF
:104FF0000170ED494A7808780870012002434A7030
:1050000010BD14310846FFF747FE012010BDC04611
:1050100010B50146CA780020012A1AD0022A21D1EF
:10502000EF4948780A788B78CC78CC708B700A700E
:1050300022021A43120403021343012042031A43BB
:10504000120A4A70E7494A780B780B7002434A709B
:1050500010BD14310846FFF747FE01460120002924
:1050600000D1084610BDC04680B5C2780021032A91
:1050700005D0012A09D11430FFF77FFE04E0143077
:10508000FFF77BFE00F028FB0121084680BD0000F1
:1050900010B5C1780020012917D1FFF78BFED04849
:1050A000017842788378C478C47083704270220299
:1050B0001A4312040A43082111430170DE494A7859
:1050C00008780870012002434A7010BD10B5C178FD
:1050D0000020022917D1C24948780A788B78CC7809
:1050E000CC708B700A7022021A431204030213431D
:1050F000012082021A43120A4A70CF494A780B787B
:105100000B7002434A7010BD10B5C178002002290F
:1051100017D1B34948780A788B78CC78CC708B70EB
:105120000A7022021A431204030213430120C2022E
:105130001A43120A4A70C0494A780B780B7002432E
:105140004A7010BD10B50146CA780020012A1AD055
:10515000022A1DD1A24948780A788B78CC78CC7085
:105160008B700A7022021A431204030213430120B7
:10517000C2031A43120A4A70AF494A780B780B707F
:1051800002434A7010BD14310846FFF7C7FD0120E5
:1051900010BDC04610B50146CA780020012A13D0C0
:1051A000022A16D18E498A7808784B78CC78CC7050
:1051B0004B700870012002438A709F494A780B782F
:1051C0000B7002434A7010BD14310846FFF711FE00
:1051D000012010BD0C00002010B5C078002401286B
:1051E00005D164200124034A214600F0CDFC20466D
:1051F00010BDC046A929000010B50146CA7800209C
:10520000012A18D0022A1BD1754801784278837888
:10521000C478C4708370427022021A4312040A4395
:1052200080211143017084494A7808780870012070
:1052300002434A7010BD14310846FFF7F6FD012005
:1052400010BDC0465C0B002010B5C17800200229BB
:1052500011D16348817802784378C478C470437070
:10526000027080220A43827073494A780878087075
:10527000012002434A7010BD0C0000205C0B00208E
:1052800010B5C1780020022917D1554948780A780D
:105290008B78CC78CC708B700A7022021A4312047F
:1052A00003021343012042021A43120A4A70624960
:1052B0004A780B780B7002434A7010BD0C00002036
:1052C0005C0B002010B50146CA780020012A1AD0D4
:1052D000022A1DD1424948780A788B78CC78CC7064
:1052E0008B700A7022021A43120403021343012036
:1052F00002021A43120A4A704F494A780B780B701F
:1053000002434A7010BD14310846FFF7A2FD012088
:1053100010BDC0460C0000205C0B002010B50146FB
:10532000CA780020012A14D0022A16D12C4881788C
:1053300002784378C478C4704370027010220A4324
:105340008270F3494A7808780870012002434A7055
:1053500010BD087D00F0B6FD012010BD0C0000203E
:1053600010B50146CA780020012A16D0022A19D1A8
:1053700000F0CAFD1A48817802784378C478C47076
:105380004370027040220A438270E1494A780878EB
:105390000870012002434A7010BD1431084600F025
:1053A000BDFD012010BDC0465C0B002010B5C178CA
:1053B0000020022913D100F0EFFE0948817802781D
:1053C0004378C478C4704370027020220A4382700C
:1053D000CF494A7808780870012002434A7010BD0E
:1053E0000C0000205C0B002080B5C1780020012952
:1053F0000CD100F07DFDC6480178427812020A43C4
:105400000E4911400170090A4170012080BDC0465B
:1054100080B5C178002001290CD100F097FDBC486F
:105420000178427812020A43044911400170090AC6
:105430004170012080BDC0465C0B0020FFFE0000D3
:1054400010B504460CCC0520083C9A420BD000292C
:1054500003D0E068805C08702268501CA168FAF7ED
:105460006DFE2160012010BD70B50D4604466668D2
:10547000A168701CFAF762FE22680420914208D0ED
:10548000E0688555A1686068401CFAF757FE6160C6
:10549000012070BDF8B50C46411E490A04D0002514
:1054A000002C24D0032021E0461C102000F0CEFF69
:1054B0000546002D14D000272F606F60AE60304687
:1054C00000F0C4FFE860002811D1284600F08CFFEE
:1054D000FDF78CFF002C01D0022020603D4606E045
:1054E000FDF784FF0025002C01D002202060284613
:1054F00001B0F0BD01684068091A0020401A484117
:10550000704710B504467720C043223020700F202A
:1055100060704020002900D10846A0708820A07348
:10552000204600F002F8E07010BD00210E2203E0DA
:10553000835CC9B25918521E032AFCD0002AF7D145
:1055400000784018C0B2704710B50446FFF7EDFF71
:10555000E178411A0020401A484110BD0F3800215F
:10556000091A4841704710B5044600F00CF80128AC
:1055700008D1201DFFF790F90146072001220029DC
:1055800000D0104610BDB0B503230F2923D10478F5
:105590007721C9432231CDB202218822AC421BD1EE
:1055A00041780F29194617D183780421BF2423425B
:1055B00012D1837B0E2193420ED1417B2039CAB296
:1055C0000D21022A08D8FFF7BFFF0621012200287B
:1055D00002D0114600E019460846B0BDB0B50E4DE8
:1055E0000020286001242046FDF7FCFEFEF7CBFDDD
:1055F0000221002803D1034800F09EF821462960CB
:10560000B0BDC046A162000003480068811E0020B2
:10561000401A48417047C0463401002080B500F070
:1056200003F800F007F880BD80B500F01FF8FFF721
:10563000D5FF80BD80B500F02BFA00F0E3F900F053
:105640000FF800F06FF800F095FA80BD80B500F01B
:1056500039FA01460120002900D1084680BD00002A
:10566000014800210160704748030020B0B5104890
:10567000EE242146FAF7D5FD16482146FAF7D1FD6A
:10568000614D28460C300F242146FAF7CAFD284602
:105690001B302146FAF7C5FD5C48002141602970A6
:1056A00069600122427046220270A960B0BDC04606
:1056B00028080020544841680120002900D10846EC
:1056C0007047C0460349497B091A0020401A4841E7
:1056D0007047C0461809002080B54B484068002834
:1056E00015D0192806D10A490A784B784B7008233F
:1056F00013430B70C0B28000064908588047FEF77C
:1057000043FB002803D006200021FEF703FA80BDEA
:105710005C0B0020A86E000080B53C48FDF77CFEC5
:1057200080BDC04680B5034800210160012000F023
:10573000B5FA80BD3C010020334988607047C046FF
:10574000F8B50E46044600F0C5F90025002858D0EB
:10575000022000F0A3FA00F091FA002825D0684654
:105760000670A07800F05BFB012805D16D4620464D
:105770002946FDF797FB2E780025204631462A461C
:1057800000F0E1FA012812D10120FFF73DF90320D2
:1057900000F084FA00F06AFA00282FD068460178F9
:1057A0002046FDF7F5F905462BE023A027E06846E3
:1057B0000178204600F0C5FA002814D0677B282025
:1057C000114E222131543046103000F0A1FD272027
:1057D00037541B3600213046FFF793FE0B484168D3
:1057E00001220A434260042000F058FA6846027819
:1057F00007A021462B46FEF76DFB02E00AA0FEF74C
:1058000041FB284601B0F0BD000100200800002047
:105810007478744672616D65457865455252325FA1
:10582000756E6B6E6F775F007478744672616D652C
:1058300045786545525233007478744672616D65DF
:10584000457865455252310080B5FFF765FF80BD50
:10585000F0B587B00E46014600200691002900D120
:10586000B3E0002E00D1B0E0594800880121019139
:10587000490202910A1A91B2B142314600D811464A
:10588000544C9CE00493059285B26019CCB2069901
:105890002246FAF7ADFC28194D4908808888051979
:1058A0004C4C8D804C4E39E04A490D186878FFF712
:1058B00055FE0028039E0ED0002228462146FFF701
:1058C00052FE012807D1287BFFF7FCFE00281ED0DE
:1058D000FFF790F903E02846214600F0C1F83C4864
:1058E000024650880019508091880D1B95802A46E9
:1058F0003240002A374C04D0304021182046FAF7B5
:1059000077FC334801460D800020488006E00123E3
:1059100039A029462246FEF7DDFAE0E728043CD00C
:105920002B484088C1B261180122034602E0521C94
:10593000491C5B1C0C78AA2C04D0ACB297B2A742CD
:10594000F5D31DE00396DFB2391ACCB2214E002CFC
:105950000CD03118012321A02246FEF7BBFA1C48C7
:1059600001464F808888051B8D803846F1194C7898
:10597000A9B28C4201D8002C96D1164C039E00E0AF
:10598000144C002809D02118AAB22046FAF730FC9E
:105990000F4801460D8000204880059D2E40002EB6
:1059A00012D0069804994018069009480088029978
:1059B0000A1A91B2ABB29942294600D811468BB26D
:1059C000F21A002B00D05DE7019807B0F0BDC04689
:1059D000D80000204C030020FFFF0000736E727897
:1059E000205F70617365724672616D6520686561E4
:1059F00064204E473A200000736964204E473A20E5
:105A00000000000080B505480021018041808180B0
:105A10000220FF21024A00F0B7F880BDD800002024
:105A2000312B000080B50A46014607480068FDF7A3
:105A300087FE01460120002900D080BD03A0FEF7AB
:105A400021FA002080BDC046CC0500200D0A736EEF
:105A50005278517565756544652078310000000005
:105A600080B50A46014607480068FEF793FE0146E6
:105A70000120002900D080BD03A0FEF703FA00201A
:105A800080BDC046CC0500200D0A534E4958000089
:105A900080B501204002FEF7ACFE044908600028F2
:105AA00000D080BD02A0FEF7EDF980BDCC0500203E
:105AB0000D0A736E52785175657565496E6974206B
:105AC0007831000080B502480068FBF7F7F980BD27
:105AD000CC050020B0B50D460446FFF754FD012863
