:020000040000FA
:10000000180E0020D5000000EF0000007904000069
:1000100000000000000000000000000000000000E0
:10002000000000000000000000000000F3000000DD
:100030000000000000000000F5000000E7050000DF
:100040009105000099050000A1050000AD05000024
:10005000F9020000650A0000B50A0000C10A0000AC
:10006000BB040000C3040000C1050000C905000076
:1000700089040000910400004D0A0000550A0000A8
:100080005D0A0000AF0400006D0A0000750A000060
:100090007D0A000081050000E10A0000B9050000AA
:1000A000DF01000089050000CD0A0000D50A00002C
:1000B00063050000A70400008D030000F1020000AA
:1000C0000348854600F072F800480047D10100005F
:1000D000180E002009480A4A002100A1814200D9D7
:1000E0000244084802600848804708480047FEE785
:1000F000FEE7FEE7FEE7FEE7FEE700000000002067
:100100000000000008ED00E0010A0000C10000004E
:1001100030B50B46014600202022012409E00D469F
:10012000D5409D4205D31D469540491B2546954027
:1001300040191546521E002DF1DC30BD70B500246B
:100140002546002801DA01244042002901DA012570
:100150004942FFF7DDFFAC4200D04042002C00D006
:10016000494270BDD2B201E00270401C491EFBD270
:1001700070470022F6E710B513460A4604461946B2
:10018000FFF7F0FF204610BD03460B439B0703D04B
:1001900009E008C9121F08C0042AFAD203E00B784C
:1001A0000370401C491C521EF9D27047064C0125B1
:1001B000064E05E0E36807CC2B430C3C984710340F
:1001C000B442F7D3FFF780FF88130000A8130000A4
:1001D00080B500F015FC00F070FF002080BD80B5F8
:1001E000C046C046C046C04680BD000001228A40CD
:1001F000D1430002014A815000207047140C004096
:100200000002034A8258CA40012010407047C0468D
:10021000100C004010B50002034A8358094C1C40E2
:100220000C438450002010BD000C004010B50002AB
:10023000034A8358034C1C400C438450002010BDDB
:10024000040C00400000FFFF00022849425801232F
:1002500013434350002070470002244942580123B1
:100260009B021343435000207047C04670B50322E1
:1002700013030A6814031C4000021C4A85589D435E
:100280002543855001235C024D686D022540865848
:10029000A6432E4386500C7A85581E02B5431C4057
:1002A00023022B438350CB681B01702423408558C5
:1002B000A5431D4385500B7CDB0008242340855853
:1002C000A5431D4385504B699B000424234085585A
:1002D000A5431D438550896949000223194084586C
:1002E0009C430C438450002070BDC0460C0C004061
:1002F00080B5C046C04680BD80B5C046C04680BD02
:1003000070B5002805DB1F23034001249C401B4BD4
:100310001C60C30018241C408901CBB2A340FF21FC
:10032000A140CC431649002805DB03250646AE4311
:10033000154D751906E00F250540083D0326B54308
:10034000104EAD192E6826401E432E60012A07D19B
:10035000002811DB1F221040012282400A6070BD7C
:10036000002809DB1F2210400122824080200A5011
:10037000BFF34F8FBFF36F8F70BDC04680E200E0C8
:1003800000E100E01CED00E000E400E080B5C046C4
:10039000C046C046C04680BD0649D14ACA60D14A5F
:1003A000CA6080000C2210400B68934303430B602B
:1003B00000207047200002400246012003468B4087
:1003C00011681940002900D10846704780B5034ADA
:1003D0008018012200F0FCF8002080BD140D0240BE
:1003E000FEB515460E4601901C49471838460C309C
:1003F0000024314622460294194B9847B0000199D7
:1004000008181C494450384608302A783146144CA4
:10041000A0472A7938463146A04738461C302A7A08
:100420003146A047384620302A7B3146A04738461F
:1004300024302A7C3146A0472C372A7D3846314665
:10044000A047A8690121C903064A13688B43C0036A
:1004500080B218431060029803B0F0BD000D024056
:10046000D1050000080F02408900401801494250A0
:1004700000207047000C024081B0002000900098DE
:100480000028FCD001B0704780B5C046C04680BD92
:1004900080B5C046C04680BD8168C068091A00208A
:1004A000401A4841704780B5C046C04680BD80B5FF
:1004B000C046C046C046C04680BD80B500F056F874
:1004C00080BD80B5C046C04680BD10B51430002444
:1004D000224600F07DF8204610BD80B5001D0122A7
:1004E00000F076F8002080BD80B51030FFF764FF83
:1004F00080BD0000F8B50546042400291FD0002463
:100500006C60CCC908681E4306433E4316436E60C8
:10051000802313432E1D1039C02B10D1C009094A66
:10052000024009A0805A8A69824048691146FFF753
:10053000EFFDA86104210122304600F049F8204671
:1005400001B0F0BDFCFFFF0104000000030000004B
:10055000020000000268FF239A430A430260002061
:10056000704780B5C046C04680BD000080B50348D6
:100570000068002800D0804780BDC04608020020E7
:1005800080B5C046C04680BD80B5C046C04680BD6F
:1005900080B5C046C04680BD80B5C046C04680BD5F
:1005A00080B5C046C046C046C04680BD80B5C04686
:1005B000C046C046C04680BD80B5C046C04680BD6E
:1005C00080B5C046C04680BD80B5C046C04680BD2F
:1005D00001238B40012A02D10168194301E001681F
:1005E00099430160704780B5C046C04680BD000099
:1005F00010B502469A4B9B4898609B48986004202F
:10060000042A6CD87A4412795200974402142B3E83
:10061000560001200029024600D10A461C68844386
:1006200014431C600020002959D0D9680122D2024D
:100630001142FAD053E02D480268032414430460A9
:100640001868022290430122002900D10A46520074
:10065000104318600020002941D01969402211423E
:10066000FBD03CE01868042290430122002900D10D
:100670000A46920010431860002000292FD05969C3
:10068000012212031142FAD029E003208003164A06
:10069000146804431460186808229043012200295A
:1006A00000D10A46D200104318600020002916D05D
:1006B000996940221142FBD011E018681022904342
:1006C0000122002900D10A461201104318600020BF
:1006D000002904D0D96B012292041142FAD010BD36
:1006E0005A5A0000A5A500008C0D02404C1D024086
:1006F000F0B58AB0B1480188079141880691818898
:100700000491C1880291058C0B20C143CA4A5058FC
:10071000440907231C400120C603C94808903648F5
:100720000090364801903648039036480590364F81
:100730007B48042C099124D87C4424796400A74484
:10074000025422292B001068089908400799884212
:1007500038464AD01068089908400699884205989A
:1007600043D01068089908400499884203983CD007
:1007700010680899084002998842019835D000987D
:1007800033E0002031E09068AA4901404B2040024C
:10079000A9422AD0304628E0116B03240C40032CD8
:1007A00005461DD1106808990840079988423D46C2
:1007B00016D010680899084006998842059D0FD008
:1007C00010680899084004998842039D08D0106871
:1007D0000899084002998842019800D0009805467F
:1007E000106B41090F200840684309995158090AC4
:1007F0001940C8400AB0F0BD00093D0000127A005F
:100800000024F4004086510100366E0180B5FFF7E8
:100810006FFF75490968C90A03220A40D04080BDAC
:100820007149724A8A60724A8A6007221202000283
:1008300010400B68934303430B6000207047C04691
:1008400069496A4A8A606A4A8A600322D202C002FF
:1008500010400B68934303430B6000207047C04671
:10086000002000405A5A0000A5A50000F0B5534AE8
:10087000118856889588D38884686F4A032C23D1C1
:1008800017686F4C27408F4203D1C7680621022F9B
:1008900044D811682140B14203D1C6680621022E16
:1008A0003CD811682140A94203D1C5680621032D17
:1008B00034D81168214004460C3499420DD1236884
:1008C0000621062B09D929E0C168154B4B43044684
:1008D0000C340621134DAB4220D803214B0305688D
:1008E0006D031D40166B9E432E43166343689B00A9
:1008F0001C252B40166BAE431E4316630F235B0172
:10090000246864011C40156B9D4325431563806872
:100910000840136B8B430343136300210846F0BD6B
:100920000048E801006CDC0270B50C460546A806DC
:100930000C4802D4294622460FE020218D43061D93
:10094000304629462246FFF743FE0748032D01D1D2
:10095000047004E0027803213046FFF739FE0020DE
:1009600070BDC046202000400C020020400013490A
:10097000405A3349014030480268324B13400B4320
:10098000036000207047C0460321890280020840AE
:100990000B4A13688B430343136000207047C04623
:1009A00040000649405A2349014005480268234B4C
:1009B00013400B43036000207047C046000C10003A
:1009C0001420004080B50849084A8A60084A8A60B5
:1009D0000A68E0239A434001C0B21043086000F067
:1009E00009F8002080BDC046002000405A5A00008F
:1009F000A5A5000080B5FFF77BFE1349086080BD08
:100A000010B50B49488B0B4A02400B4883680B4CCE
:100A10001C40144384600988094A0A400168094B54
:100A20000B4013430360FFF763FE0749086010BDE6
:100A3000080C1000FF0300000C20004000FCFFFF2A
:100A4000FF07000000F8FFFF0800002080B500F05D
:100A500019F880BD80B5C046C04680BD80B5C0468F
:100A6000C04680BD80B5C046C04680BD80B5C0468A
:100A7000C04680BD80B5C046C04680BD80B5C0467A
:100A8000C04680BD80B500200146FFF7B9FB0128B4
:100A90000AD106480168491C01600548012101701E
:100AA00000200146FFF7A2FB80BDC04610020020D7
:100AB0001000002080B5C046C046C046C04680BD7C
:100AC00080B5C046C046C046C04680BD80B5C04661
:100AD000C04680BD80B5C046C046C046C04680BD49
:100AE00080B5C046C04680BDB0B504461C200B4D45
:100AF0002146A84708202146A84700202146A847AC
:100B000001202146A8471F202146A8470F20214643
:100B1000A84710202146A847B0BDC04629090000BB
:100B2000BCB55B4C01212046FFF7DEFC002821D03C
:100B300001212046FFF7C9FCA64DA86800F03AFB4A
:100B4000297F012806D1032001432977E87F21214D
:100B50006854BCBDFE2001402977A86801A900F0B7
:100B6000CFFA012806D101A800782168FF2291431D
:100B70000143216000212046FFF7B6FC002812D077
:100B800000212046FFF7A1FC216801A80170914CCB
:100B90006068C9B200F0C8FAA07F20216054207FAD
:100BA000FB2101402177BCBD7CB58A4C207FC0076A
:100BB0002FD02120215C002904D0491E2154FF2080
:100BC000014226D12069FFF767FC002821D1206966
:100BD0002E4D2946224600F009F9012819D1002698
:100BE00004E00178A06800F09FFA761CA81921683B
:100BF0008E42F6D3A06801A900F082FA012808D13C
:100C000001A801782248FFF7A5FC207FFE210140C2
:100C10002177207F0221084207D0FD21084020775C
:100C2000A169002901D08847207F40071DD42020DA
:100C3000215C002904D0491E2154FF20014214D117
:100C40000025124E05E0606800F05AFA052803D02E
:100C50006D1C71197F2DF6DDE0680C492A4600F005
:100C6000E3F9207F042101432177E068FFF714FCBA
:100C700000280AD1E0680549224600F0B7F8626909
:100C8000002A02D02168014890477CBD480000201E
:100C90000002004080B500F095F880BD704700006C
:100CA000FEB52A490868401C08600022284D1746F6
:100CB0001FE03378354610350027002B17D0B06879
:100CC00022490968081A0127002810D001930292CE
:100CD0007168FFF71DFA002908D10198FF2801D09B
:100CE000401E3070F068002800D08047029A2743E9
:100CF000521C3C462E46D0B21328DAD9200600D02A
:100D0000FEBD00F029F900F017F8FEBD70B51428FB
:100D10000FD804010E4D2E1971600C480068B060A8
:100D20002A55F360002A04D0002802D1014800F0BF
:100D300009F970BDA10C000080B5044800210160D4
:100D400005208201024800F006F880BD4400002022
:100D5000C8000020FEE710B55242002302E0C41A8A
:100D600021705B1E9A42FAD110BD80B500F002F8E6
:100D700080BD0000B0B586B001A980200880488001
:100D8000012420028880C880022008724872094825
:100D90000490094805900F4D281D00F035FAFF21F9
:100DA000064A204600F012FA6877054800F036F946
:100DB00006B0B0BD950C00009D0C0000A90B000012
:100DC000210B000080B50A4601460248006900F088
:100DD0002BF980BD20000020002804D105E000226E
:100DE0000270401C491E0029F9D17047F8B516461B
:100DF0000C460546A968EA680020914216D028688A
:100E0000475C481C6968FFF783F9A96037600AE00E
:100E10002868405C20706968A868401CFFF778F972
:100E2000A9607F1E641C0120002FF1D101B0F0BD2C
:100E3000F0B585B000252846FFF7F2FC2846FFF7FD
:100E4000FFFC1120FFF7ACFD02263046FFF79CFDAA
:100E50000124144F30462146B8473046FFF7B2FD13
:100E600004263046FFF782FD28462146B847019503
:100E70000296032003900C20049001A8FFF7F6FCD3
:100E80002046FFF789FA30462146B8473046FFF73B
:100E900099FDFFF72DFC044908602046FFF724FE6A
:100EA00005B0F0BDF10500001402002080B5FFF789
:100EB000BFFF00F005F8002000F054F880BD0000EE
:100EC00070B58AB06E4628213046FFF785FF0024B2
:100ED000009405940420039001250695347434721F
:100EE000019420463146FFF7C1F90E4E20463146A7
:100EF000FFF790F920463146FFF798F92046214642
:100F0000FFF774F92046FFF7A7F90E2003212A46C0
:100F1000FFF7F6F90F48047003490C6044600AB00B
:100F200070BDC04690E800001002002010B5094CCA
:100F30002078012805D16068002800D08047002073
:100F4000207010BD80B5034948600020FFF77CF990
:100F500080BDC0461000002080B50020FFF774F966
:100F600080BD0000F0B58BB0029004AD1C21019152
:100F70002846FFF731FF00260596402420463146DB
:100F80002A46FFF72DFA0322039220463146FFF747
:100F90006BFA0120009005900B27204639462A461F
:100FA000FFF71EFA20463946039AFFF75DFA04ADB3
:100FB00028460199FFF710FF0220009F3946FFF7EE
:100FC000B3FC069605960796FFF720FC0990B80239
:100FD0000890E12040020A9004940F4C20462946D4
:100FE000FFF788FA20463146FFF76FFA2046394668
:100FF000FFF76BFA20463146FFF76FFA2046394675
:10100000FFF76BFA082003993A46FFF779F905488C
:10101000029901600BB0F0BD000200400149086078
:101020007047C0460802002070B514460D460646BB
:1010300000F01EF80146621C0020914217D3F068B0
:1010400031680C547168F068401CFFF761F8F1607A
:101050000AE030682A7842547168F068401CFFF753
:1010600057F8F160641E6D1C0120002CF1D170BD99
:1010700010B5041D1CCC9818011B881A9C4200DB7B
:10108000084610BD70B505462E461336304600F0B2
:101090001FF90446002C0BD020463146FFF769F8B3
:1010A00020461030002121C421606160083C02E02C
:1010B000FFF750FE0024204670BD70B588B0FFF7E2
:1010C000F5FE01AC1C212046FFF786FE00250295A7
:1010D000049501200590022628463146FFF776F94F
:1010E000284631462246FFF77BF900F003F8FFF768
:1010F0001DFFFCE780B500F064F8FFF736FE80BD09
:1011000010B504460CCC0520083C9A420BD00029AF
:1011100003D0E068805C08702268501CA168FFF76B
:101120000DF82160012010BD70B50D4604466668BB
:10113000A168701CFFF702F822680420914208D0D1
:10114000E0688555A1686068401CFEF7F7FF6160A4
:10115000012070BDF8B50C46411E490A04D0002597
:10116000002C24D0032021E0461C102000F0B0F811
:101170000546002D14D000272F606F60AE6030460A
:1011800000F0A6F8E860002811D1284600F06EF8BB
:10119000FFF7E0FD002C01D0022020603D4606E074
:1011A000FFF7D8FD0025002C01D002202060284642
:1011B00001B0F0BD01684068091A0020401A48419A
:1011C000704780B5FFF7B8FD80BD000070B51346CD
:1011D0000A460146FF24002912D0002A10D000251B
:1011E000084804E02E01865D002E03D06D1C132DEF
:1011F000F8DD05E0E8B2A04202D0FFF787FD2C46FB
:10120000E0B270BDC8000020B0B50D460446288885
:101210000021FFF79FFF2060002824D0688800216C
:10122000FFF798FF606000281DD0A888FFF72AFF0D
:10123000A060002817D0E888FFF724FFE0600028AE
:1012400011D0207EF8210140052008432076287A1D
:10125000A076687AE076002020776077E8682061E1
:1012600028696061B0BDFFF775FDB0BD30B50028DD
:1012700005D0164C021F20680023014605E00846F1
:1012800030BD904203D8034640680028F9D1002BB6
:1012900000D05968002B0AD01C68D51AA54204D189
:1012A0001268A4181A461C6002E05A6000E022602E
:1012B000002807D01468851AA54203D1056864196F
:1012C000146040685060184630BD000000000020E7
:1012D000F1B50E4C0F480C4E001B0D4FC508ED002C
:1012E00000221146009800F027F8002803D130684A
:1012F000002801D00020F8BD3C600020256060601F
:1013000001203060ECE70000040000201C020020F7
:1013100000000020180A002002E008C8121F08C1BF
:10132000002AFAD170477047002001E001C1121F66
:10133000002AFBD170470000F8B50B30C608F60054
:10134000104D19E02068B04215D3B0420BD9636844
:10135000871B201D0093FEF717FFA019009B076055
:101360004360286004E060682860201DFEF70CFFE1
:10137000201D2660F8BD251D2C68002CE2D1002020
:10138000F8BD000000000020B013000000000020A5
:101390001000000018130000C0130000100000200F
:1013A000080E0000281300000000000000000000EC
:1013B000000000000000000000093D0000000000E7
:04000005000000C136
:00000001FF
