:020000040000FA
:10000000782F0020D5000000EF000000810E0000D6
:1000100000000000000000000000000000000000E0
:10002000000000000000000000000000F3000000DD
:100030000000000000000000F5000000DF110000DB
:10004000990F0000A10F0000A90F0000B50F0000DC
:10005000850B000055160000A5160000B116000023
:10006000C30E0000CB0E0000B9110000C11100004A
:10007000910E0000990E00003D160000451600008C
:100080004D160000B70E00005D160000651600005A
:100090006D160000890F000073170000C10F0000EB
:1000A00027080000910F00005F170000671700008D
:1000B0006B0F0000AF0E0000190C00007D0B00005C
:1000C0000348854600F014FB00480047190800006B
:1000D000782F002009480A4A002100A1814200D956
:1000E0000244084802600848804708480047FEE785
:1000F000FEE7FEE7FEE7FEE7FEE700000000002067
:100100000000000008ED00E0F1150000C100000053
:1001100030B50B46014600202022012409E00D469F
:10012000D5409D4205D31D469540491B2546954027
:1001300040191546521E002DF1DC30BD70B500246B
:100140002546002801DA01244042002901DA012570
:100150004942FFF7DDFFAC4200D04042002C00D006
:10016000494270BD38B50446C0681821401E484356
:10017000A16840183C214843616840183C2148432D
:100180002168451860690C2148432169401869219C
:10019000C900401A3021FFF7D1FF114A50434219DC
:1001A000084600921A2902DB0E49511800910C21D1
:1001B000FFF7C4FF0C4A5043009A801800900B4888
:1001C00006E0491E425C074B5A43009BD21800923E
:1001D0000029F6DC2146684600F08AF8009838BD10
:1001E000801F8607805101008033E101D067000045
:1001F00003460B439B0703D009E008C9121F08C040
:10020000042AFAD203E00B780370401C491C521EEA
:10021000F9D27047D2B201E00270401C491EFBD2F5
:1002200070470022F6E710B513460A460446194601
:10023000FFF7F0FF204610BD10B5002200E0521C71
:10024000835C8C5CA34201D1002BF8D1D8B2E1B21F
:10025000401A10BD30B504460020034600E05B1C88
:10026000934203D2E05CCD5C401BF8D030BDF0B5CA
:100270001FB40646002082B005464024019100903C
:100280001BE0019922460F46304600F020F8049A00
:10029000059B801A994110D310461946224600F05A
:1002A00039FA361A8F410197224601200021009F1A
:1002B00000F030FA38184D4100902046641E0028A6
:1002C000DFDC019B00982946324607B0F0BD10B52F
:1002D000202A04DB0846203AD040002110BD0B46FE
:1002E000D340D0402024A21A91400843194610BDA3
:1002F00070B50C4600683C21FFF70AFF21603C21E5
:10030000FFF706FF61601821FFF702FF0546A160B5
:100310000721001DFFF7FCFEA1610F48A900081886
:100320000E49FFF7F5FE0246443288086261E0613B
:100330003B2802D3910700D0401C0021084B0A46FD
:100340002161995C814203D8401A521C2261F8E76E
:10035000401CE060204670BD6C0B0000B50500003D
:10036000DC670000F0B507460846584087B0C00F6C
:10037000049048000E46590040084908BC1A8841BC
:1003800005D2384631461E4617460B4602465800EF
:10039000400810434CD0300D039040055900400DEB
:1003A000490D0590401A0290402872DA1803012185
:1003B000000B09050843019004980092002805D01D
:1003C00001995242002088410092019002984021F8
:1003D0000A1A0199009800F09DF905460C466B46F3
:1003E00007CB00F0A7F9C0197141039A0E0D002345
:1003F000D71756401A467A40164344D0049A002A2A
:100400002DD0029A012A039A15DC1205C01A9141D7
:1004100001263605001C7141D20F059ED2070093BC
:10042000019202962A46234600F0A4F907B0F0BDD7
:1004300038463146FAE71605224A0F46B218C01A66
:10044000B74101210905001C4F4100187F411146A9
:1004500018187941E20F10436D19644113E0E20767
:100460006D0815436408C2071443039A0126120558
:10047000C01A91413605001C7141CE074008304337
:100480004908C01851412A46234600F066F9CDE7D5
:10049000FFE7049801224000C117121A00238B4184
:1004A00004983146C417381AA141EEE730B401244C
:1004B000E407634030BC55E730B40124E4076140F1
:1004C00030BC4FE70000E0FFF0B51FB488B00B99D7
:1004D0000998002448400999C00F4900490809912A
:1004E000C0070B990090490049080B910999089899
:1004F000A64608431CD00B990A98084318D00998BF
:1005000001244000420D4800410D099824050003D4
:10051000000B204309900B980003000B20430B9025
:1005200050181C494018002201901446104605E05E
:10053000002001460DB0F0BD032801DA034600E0BB
:1005400003239C46C11A0AAE0AE05F0008ADED5BCA
:100550004F00F75B7D430027AA187C41491C5B1EB6
:100560006145F2DD410004AB5A522104120C0A43EA
:10057000240C401C0828DFDB01980290009970468B
:1005800001910090059B049A0799069800F0F2F8F3
:10059000D0E700000DFCFFFFF0B50C465C4085B0D5
:1005A000E40FE40703944C000026640859009446C5
:1005B000490802460296224321D062460A431ED0D1
:1005C0006200570D4A000E032303550D0124024615
:1005D0002C492405781B1B0B360B4018234326435C
:1005E000614600901C46501AB44103D30098401C49
:1005F000009002E0921800985B41002803DA002086
:10060000014605B0F0BD00200121090507468646D8
:1006100011E064461D46141BB54106D36546521BC6
:10062000B341744607430C43A646CD07400849082A
:10063000284392185B4105460D43EAD11046184302
:1006400013D06046194650407140084306D06046BA
:10065000101AB34106D20122002306E00022012332
:10066000DB0702E00122D2435310009874460105D3
:10067000381C6141029C039D0019694100F06DF82E
:10068000BFE70000FD0300004A0009030123090B36
:100690001B0519430A4B10B5520D9A4202DA00208D
:1006A000014610BD064B34339A4203DC9A1AFFF719
:1006B0000EFE10BD034BD21800F02CF810BD000048
:1006C000FF030000CDFBFFFF10B5002904DB012470
:1006D000E40740428C412146002B04DB1C460123E9
:1006E000DB075242A341994200D1904210BD000065
:1006F000064C0125064E05E0E36807CC2B430C3C75
:1007000098471034B442F7D3FFF7DEFCCC69000001
:10071000EC69000010B5202A04DB0146203A914024
:10072000002010BD914020239C1A0346E34019434A
:10073000904010BD10B5202A06DBCB170846203AA2
:100740001041C1170B4306E00B461341D040202453
:10075000A21A91400843194610BD10B5002B08DAC3
:100760000024401C614192185B411A4301D14008AA
:10077000400010BDF0B51FB482B005460C0003D098
:10078000084605F019FB02E005F016FB2030024692
:10079000009021462846FFF7BDFF049B059A0446BA
:1007A0000F4618431143084314D0184610431BD07A
:1007B000009840210A1A18460599FFF788FD05465A
:1007C0000E46009A05990498FFF7A4FF084305D048
:1007D000012004E02046394607B0F0BD0020C117D3
:1007E00005430E432C43374300990E986305401A86
:1007F0007905E40A00220C43FD0A0A3002D50020E4
:100800000146E9E70105101969410C9C0D9D00198D
:100810006941FFF7A2FFDFE780B500F0E9FE03F0D2
:100820008BFE002080BD80B500F0CEF8C046C046EB
:1008300080BD000010B50421002846D0C168CA0060
:1008400018231A4049490C689C4314430C60826881
:1008500013680B6253684B6293688B62D368CB62F8
:10086000C368022B07D0012B11D113690B630B4610
:100870003433052408E013690B6353694B639369B0
:100880008B630B463C330724A40012591A6002689C
:1008900013680B6153684B6193688B61D268CA61BE
:1008A0000A68022313430B600B68012213430B6099
:1008B0000B681342FCD10A69406802604A694260D1
:1008C0008A698260C969C1600021084610BDC046BE
:1008D00010B50421002846D0C168CA0018231A4068
:1008E00022490C689C4314430C60826813680B62B5
:1008F00053684B6293688B62D368CB62C368022BE8
:1009000007D0012B11D113690B630B463433052437
:1009100008E013690B6353694B6393698B630B4660
:100920003C330724A40012591A60426813680B6113
:1009300053684B6193688B61D268CA610A6802236D
:100940009A430A600B68012213430B600B68134241
:10095000FCD10A69006802604A6942608A69826063
:10096000C969C1600021084610BDC046001402409C
:100970001F21090100010840334A13688B430343D8
:10098000136000207047C04602490A6882430A602B
:100990007047C046B42400400120C0032A490A68B9
:1009A00002430A607047C0460349096801400120BC
:1009B000002900D108467047B02400400148006873
:1009C0007047C046A024004080B50120FFF7ECFF2F
:1009D00001280BD10120FFF7D7FFFFF7EFFF0449F4
:1009E0000968002900D0884700F034F880BDC0466F
:1009F0005003002070B504460420002C22D0124D74
:100A000001262E60022002F03BFF6068E16801438E
:100A100020690843A16801436069084329680143CC
:100A20002960B0022168890201406A6882430A4352
:100A30006A60A0698000042108406A688A43024312
:100A40006A60002070BDC0460424004003480121B4
:100A5000016070470148002101607047C0240040D8
:100A600080B50448016801220A430260022002F0B6
:100A700007FF80BD0024004001228A40D1430002CC
:100A8000014A815000207047140C00400002034AC4
:100A90008258CA40012010407047C046100C0040E8
:100AA00010B50002034A8358094C1C400C43845083
:100AB000002010BD000C004010B50002034A83580E
:100AC000034C1C400C438450002010BD040C00401B
:100AD0000000FFFF000228494258012313434350FE
:100AE0000020704700022449425801239B0213430F
:100AF000435000207047C04670B5032213030A68B4
:100B000014031C4000021C4A85589D432543855010
:100B100001235C024D686D0225408658A6432E4392
:100B200086500C7A85581E02B5431C4023022B4385
:100B30008350CB681B01702423408558A5431D4377
:100B400085500B7CDB00082423408558A5431D43BA
:100B500085504B699B00042423408558A5431D43C1
:100B60008550896949000223194084589C430C43ED
:100B70008450002070BDC0460C0C004080B5C046BB
:100B8000C04680BD80B5C046C04680BD70B5002857
:100B900005DB1F23034001249C401B4B1C60C3004A
:100BA00018241C408901CBB2A340FF21A140CC43B3
:100BB0001649002805DB03250646AE43154D751979
:100BC00006E00F250540083D0326B543104EAD193C
:100BD0002E6826401E432E60012A07D1002811DB13
:100BE0001F221040012282400A6070BD002809DBEC
:100BF0001F2210400122824080200A50BFF34F8FF5
:100C0000BFF36F8F70BDC04680E200E000E100E0FE
:100C10001CED00E000E400E080B5C046C046C046E0
:100C2000C04680BDF0B589B00D460446FF26089643
:100C300068462021FFF7F5FA04200C2C32D8012257
:100C40001146A140184B19422CD0500217490B6A8B
:100C5000834315406802184308620020144A05E0E7
:100C60008300D55865436F46FD50401C0828F7D1D6
:100C70000022134613E008969C00684605590AE0D6
:100C8000089F781E08900720002F0BD03C48C862B0
:100C90003C48C8620D510859A842F1D15B1C072B92
:100CA000E9D9104609B0F0BD56110000000002401D
:100CB000406900003149324ACA60324ACA60800045
:100CC0000C2210400B68934303430B6000207047D5
:100CD000FFB50091FF210191039144020420610CB2
:100CE0004AD101980390254A10681026304206D058
:100CF0000399481E039009200029F4D13CE02049C3
:100D0000D160204FD7600023D84310610291D16099
:100D1000D7605061019803900DE00399481E03903D
:100D20000920002928D00298D060D7601068A84315
:100D30000121014311601068032528400128ECD1EE
:100D4000009D03E09800295821505B1C802BF9D1AD
:100D5000019803901068304206D00399481E039012
:100D600009200029F6D107E00299D160D760002060
:100D70001061D160D760506104B0F0BD2000024026
:100D80005A5A0000A5A500000246012003468B40E8
:100D900011681940002900D10846704780B5034A00
:100DA0008018012200F010FA002080BD140D0240CE
:100DB000FEB515460E4601901C49471838460C30C2
:100DC0000024314622460294194B9847B0000199FD
:100DD000081820494450384608302A783146144CC7
:100DE000A0472A7938463146A04738461C302A7A2F
:100DF0003146A047384620302A7B3146A047384646
:100E000024302A7C3146A0472C372A7D384631468B
:100E1000A047A8690121C903064A13688B43C00390
:100E200080B218431060029803B0F0BD000D02407C
:100E3000C9110000080F024080B5024A8018FFF770
:100E4000A3FF80BD080D02408900401801494250AF
:100E500000207047000C024080B5034A8018012230
:100E600000F0B2F9002080BD0C0D024080B5034AAD
:100E70008018012200F0A8F9002080BD100D02406A
:100E800081B00020009000980028FCD001B070478D
:100E900080B5C046C04680BD80B5C046C04680BD56
:100EA0008168C068091A0020401A4841704780B51F
:100EB000C046C04680BD80B5C046C046C046C0469C
:100EC00080BD80B500F056F880BD80B5C046C046F4
:100ED00080BD10B514300024224600F075F920467C
:100EE00010BD80B5001D012200F06EF9002080BD0C
:100EF00080B51030FFF748FF80BD0000F8B505460B
:100F0000042400291FD000246C60CCC908681E434B
:100F100006433E4316436E60802313432E1D103953
:100F2000C02B10D1C009094A024009A0805A8A6921
:100F3000824048691146FFF7EBF8A86104210122BD
:100F4000304600F041F9204601B0F0BDFCFFFF0142
:100F50000400000003000000020000000268FF23FC
:100F60009A430A4302600020704780B5C046C046DD
:100F700080BD000080B503480068002800D080478D
:100F800080BDC046580B002080B5C046C04680BD1D
:100F900080B5C046C04680BD80B5C046C04680BD55
:100FA00080B5C046C04680BD80B5C046C046C0467C
:100FB000C04680BD80B5C046C046C046C04680BD64
:100FC00080B500F033F880BD80B579480321002258
:100FD00000F0FAF880BDC04680B5024659480721A6
:100FE00000F0F2F880BDC04670B5FF230233042242
:100FF00098420FD20122D503074C2668AE43C9039D
:1010000089B231432160FE3318402168034B0B4005
:1010100003432360104670BD3014004000FEFFFF04
:1010200080B563480321FFF7AFFE80BD80B5FFF7B1
:10103000F7FF012801D1FFF7C7FF80BDB0B5044617
:101040000020FFF7C9FF2068C000082108403D4D7F
:101050002A688A4302432A60201D00F04DF80720C9
:1010600000022169090201406A6882430A436A60FA
:101070006169208BFFF7B8FF1A34204600F064F84E
:10108000B0BDC04670B52F4A1168802319420FD0F9
:10109000516801240C43546016490C46002C04D0BE
:1010A000611C556802263542F7D00921641C1FD007
:1010B00091680170D1684170156814691F21214041
:1010C0000826354200D0214681709169017151692D
:1010D000C170D1694171116A8171506801218843E1
:1010E00050601068002101E0506802231842FBD1D3
:1010F000084670BD18FCFFFFB0B501218A030168E6
:101100008B0313400F490C6894431C430C60036825
:101110000022012B07D0002B11D18068072420402A
:101120000B68A34309E0047904203F2C08D83F2032
:1011300005020B68AB4304402002184308601046C8
:10114000B0BDC0460014004070B50321CB43184A1F
:10115000D158802421420ED0116801250D4315601D
:101160007D21CD006D1E0921124E35421DD0116822
:1011700002263142F6D00178516041789160817841
:10118000D16001795161417991618179D161C078F2
:1011900010611068012188431060D058002120425E
:1011A00003D0106802231842FBD1084670BDC04628
:1011B00004140040FFFF000080B5C046C04680BD5B
:1011C00080B5C046C04680BD01238B40012A02D1B4
:1011D0000168194301E0016899430160704780B5D7
:1011E000C046C04680BD000010B50246984B9948E5
:1011F0009860994898600420042A6CD87A4412793F
:101200005200974402142B3E56000120002902464A
:1012100000D10A461C68844314431C600020002946
:1012200059D0D9680122D2021142FAD053E02B489A
:1012300002680324144304601868022290430122C8
:10124000002900D10A4652001043186000200029EE
:1012500041D0196940221142FBD03CE018680422B9
:1012600090430122002900D10A46920010431860E1
:10127000002000292FD05969012212031142FAD00F
:1012800029E003208003144A14680443146018689A
:10129000082290430122002900D10A46D2001043BF
:1012A00018600020002916D0996940221142FBD015
:1012B00011E01868102290430122002900D10A464B
:1012C0001201104318600020002904D0D96B0122BC
:1012D00092041142FAD010BD8C0D02404C1D024008
:1012E000F0B58AB0B148018807914188069181889C
:1012F0000491C1880291058C0B20C143CA4A505801
:10130000440907231C400120C603C94808903648F9
:101310000090364801903648039036480590364F85
:101320007B48042C099124D87C4424796400A74488
:10133000025422292B001068089908400799884216
:1013400038464AD01068089908400699884205989E
:1013500043D01068089908400499884203983CD00B
:1013600010680899084002998842019835D0009881
:1013700033E0002031E09068AA4901404B20400250
:10138000A9422AD0304628E0116B03240C40032CDC
:1013900005461DD1106808990840079988423D46C6
:1013A00016D010680899084006998842059D0FD00C
:1013B00010680899084004998842039D08D0106875
:1013C0000899084002998842019800D00098054683
:1013D000106B41090F200840684309995158090AC8
:1013E0001940C8400AB0F0BD00093D0000127A0063
:1013F0000024F4004086510100366E0180B5FFF7ED
:101400006FFF75490968C90A03220A40D04080BDB0
:101410007149724A8A60724A8A6007221202000287
:1014200010400B68934303430B6000207047C04695
:1014300069496A4A8A606A4A8A600322D202C00203
:1014400010400B68934303430B6000207047C04675
:10145000002000405A5A0000A5A50000F0B5534AEC
:10146000118856889588D38884686F4A032C23D1C5
:1014700017686F4C27408F4203D1C7680621022F9F
:1014800044D811682140B14203D1C6680621022E1A
:101490003CD811682140A94203D1C5680621032D1B
:1014A00034D81168214004460C3499420DD1236888
:1014B0000621062B09D929E0C168154B4B43044688
:1014C0000C340621134DAB4220D803214B03056891
:1014D0006D031D40166B9E432E43166343689B00AD
:1014E0001C252B40166BAE431E4316630F235B0176
:1014F000246864011C40156B9D4325431563806877
:101500000840136B8B430343136300210846F0BD6F
:101510000048E801006CDC0270B50C460546A806E0
:101520000C4802D4294622460FE020218D43061D97
:10153000304629462246FFF747FE0748032D01D1D2
:10154000047004E0027803213046FFF73DFE0020DE
:1015500070BDC04620200040640B002040001349AD
:10156000405A3349014030480268324B13400B4324
:10157000036000207047C0460321890280020840B2
:101580000B4A13688B430343136000207047C04627
:1015900040000649405A2349014005480268234B50
:1015A00013400B43036000207047C046000C10003E
:1015B0001420004080B50849084A8A60084A8A60B9
:1015C0000A68E0239A434001C0B21043086000F06B
:1015D00009F8002080BDC046002000405A5A000093
:1015E000A5A5000080B5FFF77BFE1349086080BD0C
:1015F00010B50B49488B0B4A02400B4883680B4CD3
:101600001C40144384600988094A0A400168094B58
:101610000B4013430360FFF763FE0749086010BDEA
:10162000080C1000FF0300000C20004000FCFFFF2E
:10163000FF07000000F8FFFF0C00002080B500F05D
:1016400019F880BD80B5C046C04680BD80B5C04693
:10165000C04680BD80B5C046C04680BD80B5C0468E
:10166000C04680BD80B5C046C04680BD80B5C0467E
:10167000C04680BD80B500200146FFF707FA01286B
:101680000AD106480168491C016005480121017022
:1016900000200146FFF7F0F980BDC046680B00202E
:1016A0002000002080B500F009F8C046C04680BD8B
:1016B00080B5C046C046C046C04680BD80B5034820
:1016C0000068002800D0804780BDC0465C0B002029
:1016D00010B5143000242246FFF776FD204610BDD9
:1016E00080B5001D0122FFF76FFD002080BD80B591
:1016F0001030FFF749FB80BD70B505460424002972
:101700001ED000246C604CC908681E430643164373
:101710006E60802313432E1D0C39C02B10D1C009DD
:10172000084A024008A0805A4A6982400869114666
:10173000FEF7EEFCA861042101223046FFF744FDCC
:10174000204670BDFCFFFF01040000000300000004
:101750000268FF239A430A4302600020704780B565
:10176000C046C04680BD80B5C046C046C046C046E3
:1017700080BD80B5C046C04680BD0000B0B5124CEB
:1017800021784D1E3120002900D105462570032007
:10179000054204D101F06CFE03F07CFD2578E8B22F
:1017A0000521FEF7B5FC002902D104F089FA25785D
:1017B000680702D101F094FD2578280700D0B0BD5C
:1017C00001F02EFEB0BDC0461000002080B502F032
:1017D00077FA80BD10B5044602F024FA0848017873
:1017E0004A1C0270890041188C60D1B2022906D1CE
:1017F000002101708168C26851184908416010BD1C
:10180000EC00002080B502F01FFC80BD80B502F026
:101810002BFC80BDB0B504461C200B4D2146A847CB
:1018200008202146A84700202146A847012021463C
:10183000A8471F202146A84710202146A8471B2063
:101840002146A847B0BDC0461915000010B5234871
:10185000017802242143017002F080FA0121024A3A
:10186000204603F0B7FE10BD991B000070B502F0D2
:101870006FFA02F079FA02F083FA184C2678012503
:101880002E4001F037FC2178864208D1FB20084029
:101890002070294207D001F0E1FD207803E0042008
:1018A000014321700846FD210140217070BDC046F2
:1018B00010B50A4C2078C00702D102F05BFA01E0B3
:1018C00002F07CFA20780124204001F01BFC4B2020
:1018D000034A214603F07EFE10BDC04634080020B6
:1018E0006D180000BCB55C4C01212046FFF700FBE1
:1018F000002821D001212046FFF7EBFA544DA868BB
:1019000003F048FB297F012806D1032001432977F2
:10191000E87F21216854BCBDFE2001402977A868DA
:1019200001A903F0DDFA012806D101A80078216899
:10193000FF2291430143216000212046FFF7D8FA9E
:10194000002812D000212046FFF7C3FA216801A821
:1019500001703F4C6068C9B203F0D6FAA07F202125
:101960006054207FFB2101402177BCBD7CB5384C01
:10197000207FC0072FD02120215C002904D0491EE0
:101980002154FF20014226D12069FFF789FA00285F
:1019900021D120692F4D2946224601F0E5FD01287D
:1019A00019D1002604E00178A06803F0ADFA761C96
:1019B000A81921688E42F6D3A06801A903F090FA15
:1019C000012808D101A801782348FFF7C7FA207F32
:1019D000FE2101402177207F0221084207D0FD210E
:1019E00008402077A169002901D08847207F40075F
:1019F0001DD42020215C002904D0491E2154FF2041
:101A0000014214D10025134E05E0606803F068FA26
:101A1000052803D06D1C71197F2DF6DDE0680D4996
:101A20002A4602F0EDFC207F042101432177E06883
:101A3000FFF736FA00280AD1E0680649224601F08D
:101A400093FD6269002A02D02168024890477CBD5C
:101A5000300000205C05002000020040B0B50446C4
:101A6000CDB2294601F0A4FD012803D02046294625
:101A700001F068FDB0BD704780B502F08BFB80BD02
:101A8000CE48417882780378037082700902194346
:101A900012040A430121C9021143090A4170704727
:101AA000B0B50446174D696817A0224602F074F8D5
:101AB0007D20C0006968A14203D1022C1DD1A8601D
:101AC000B0BD621E1349032A09D8C0467A44127970
:101AD000520097440A0201016420A8600CE0522CD5
:101AE00001D0532C0AD1A96006E0012068601920BA
:101AF000FF21094A03F06EFD6C60B0BD07A002F043
:101B00004BF8B0BDE00000200D0A445325642D259C
:101B100064000000E02E00003D1B00000D0A2A2A90
:101B20002A2A2A2A205F6465765374617465536596
:101B30007420457272202A2A2A2A000080B50F4894
:101B400042680F49022A12D0532A0AD0522A08D0DA
:101B5000032A11D1816800290CD10220FFF7A0FFD0
:101B600080BD83685A1E002B05D0114603E08168B2
:101B7000002901D0491E816080BDC046E0000020E0
:101B8000E02E000080B50349FFF7A2F80021091AF2
:101B9000484180BD5001002080B502F0D3F8642098
:101BA0000121024A03F016FD80BDC046B1180000B5
:101BB000B0B50224522806D0652803D0532813D18B
:101BC000032400E00424E0B2594D2978814204D175
:101BD00056480078FF2800D0B0BD00F053F86C7074
:101BE0002C7000F043F8B0BD00F04CF8B0BDC0461A
:101BF00080B500F047F880BDFEB51A490868401C62
:101C000008600022184D17461FE03378354610351E
:101C10000027002B17D0B06812490968081A01275D
:101C2000002810D0019302927168FEF771FA002922
:101C300008D10198FF2801D0401E3070F0680028BC
:101C400000D08047029A2743521C3C462E46D0B211
:101C50001328DAD9200600D0FEBD02F0F5FA00F014
:101C60003DFFFEBD48010020180A002080B5FFF7A7
:101C7000CDFD962001212F4A03F0ACFC2B490870C2
:101C800080BDC04680B5294803F0C9FC2848002122
:101C9000018080BD10B501F0FFFE04464F2C0DD829
:101CA000FFF7A6FF0C490878401C0870042C09D0E7
:101CB000032C0AD0022C02F0DBF910BD2046FFF7FE
:101CC00077FF10BD02F0D0F910BDC0B20521FEF7BC
:101CD0001FFA0029F5D1EEE75403002010B5134C8C
:101CE000FF202070FFF78EFD96200121024A03F0AD
:101CF00071FC207010BDC046FD1C0000B0B50B4C3F
:101D0000FF2020700A4D681C01F0ACFA68780028AA
:101D100005D0FFF77BFD96200121064A02E0064828
:101D20000121064A03F056FC2070B0BD11000020CE
:101D3000D4000020DD1C000052030000112B000025
:101D400080B5D4494968002904D0C9B28900024A43
:101D50005158884780BDC0464068000010B5CD4C42
:101D60006068002804D0C0B280000349085880474A
:101D70000020606010BDC046A468000010B5E048B7
:101D800000880024800707D5DE4882680124002AE5
:101D900002D00C300F219047204610BD10B5DD4811
:101DA00000880024C00707D0D64882680124002A92
:101DB00002D024300F219047204610BD740B002024
:101DC00010B501F017F9002810D00C4C611C20460A
:101DD00001F00AF8002802D10AA001F0DDFE08484F
:101DE0008268002A09D06178204605E004488268AC
:101DF000002A02D001484178904710BD28090020F0
:101E0000000100205F6E32735478205831000000CA
:101E1000B0B5DB49098889060024002928D50028A7
:101E200008D0D84882680124002A21D0D6484178B9
:101E300090471DE0D44C2046143002F0A9FC11203C
:101E4000E07300202074607421461231042003F0F6
:101E50000BFDCE4D697B0320224603F006FCFFF705
:101E6000AFFF082003F040FC687BC64908700124DE
:101E70002046B0BDFEB5E4490988C9060024002902
:101E800029D5002808D0E14882680124002A22D000
:101E9000DF48417890471EE002F07FFC02AB1870EB
:101EA000DB4D28460F30694601240C604860002055
:101EB00003260146324601F01FFED64F797B30469D
:101EC0002A4603F0D2FBFFF77BFF082003F00CFC4F
:101ED000787BCE490870204603B0F0BD1FB5E749B6
:101EE0000988C9040024002937D5002808D0E4480F
:101EF00082680124002A30D0E248417890472CE0E3
:101F000003AC204602F05FFCDE480F306946022237
:101F10000A604860002017220146234601F0ECFDCC
:101F200003F0DAFB00280CD0D74C617B0320D54AA4
:101F300003F09BFB082003F0D7FB607BD0490870BF
:101F400008E0ED480178491C0170C9B20320EB4A52
:101F500003F08BFBFFF734FF0124204604B010BDD3
:101F60007FB5E449098849040024002928D50028C0
:101F700008D0E14882680124002A21D0DF48417856
:101F800090471DE002F03AFC03AB1870DB4D284689
:101F90000F30694601240C6048600020272201466A
:101FA00001F0AAFDD64E717B03202A4603F05DFBAB
:101FB000FFF706FF082003F097FB707BF0490870DD
:101FC000204604B070BDC04670B5EC490988490789
:101FD0000024002928D5002808D0E9488268012477
:101FE000002A21D0E748417890471DE0E54D28467A
:101FF000143002F0F1FB0920E873002028746874A3
:10200000294612310124204603F02EFCDE4E717B5E
:1020100003202A4603F029FBFFF7D2FE082003F035
:1020200063FB707BF3490870204670BD7FB5F049B3
:10203000098889040024002928D5002808D0ED4803
:1020400082680124002A21D0EB48417890471DE0A6
:1020500002F0EBFB03AB1870E74D28460F306946E2
:1020600001240C60486000202622014601F044FD56
:10207000E24E717B03202A4603F0F7FAFFF7A0FE39
:10208000082003F031FB707BF9490870204604B04A
:1020900070BDC04600010020B0B5F449897809043C
:1020A00089030024002928D5002808D0F048826838
:1020B0000124002A21D0EF48417890471DE0ED4CE3
:1020C0002046143002F0DCFB401DE0730020207439
:1020D0006074214612312A2003F0C6FBE64D697B6D
:1020E0000320224603F0C1FAFFF76AFE082003F03E
:1020F000FBFA687BFB49087001242046B0BDC0464E
:10210000740B002000010020F5480088C108012060
:1021100008407047740B00207FB5F14909884905D4
:102120000024002928D5002808D0EE488268012420
:10213000002A21D0EC48417890471DE002F0F0FBE6
:1021400003AB1870E84D28460F30694601240C6037
:10215000486000201522014601F0CEFCE34E717B61
:1021600003202A4603F081FAFFF72AFE082003F035
:10217000BBFA707BF9490870204604B070BDC046B8
:10218000740B0020000100202809002038080020DE
:102190001CB5F149098809050024002931D500281A
:1021A00008D0EE4882680124002A2AD0EC48417801
:1021B000904726E0EA490F316A46002003C2162202
:1021C0000146034601F098FC03F086FA00280CD083
:1021D000E44C617B0320E24A03F047FA082003F055
:1021E00083FA607BFC49087008E0FB480178491CD1
:1021F0000170C9B20420F94A03F037FAFFF7E0FD95
:102200000124204602B010BD740B00200001002004
:102210002809002038080020B0B5EE4909880904D3
:102220000024002928D5002808D0EB488268012422
:10223000002A21D0E948417890471DE0E74C20462C
:10224000143002F00BFB0920E0730020207460744E
:1022500021461231282003F007FBFD4D697B032046
:10226000224603F002FAFFF7ABFD082003F03CFA28
:10227000687BF549087001242046B0BD740B00202E
:10228000000100202809002038080020B0B5F749D7
:1022900089780904C9030024002928D5002808D01A
:1022A000E94882680124002A21D0E8484178904713
:1022B0001DE0E64C2046143002F034FB0D20E073A4
:1022C00000202074607421461231292003F0CCFADA
:1022D000DF4D697B0320224603F0C7F9FFF770FD4D
:1022E000082003F001FA687BD749087001242046D2
:1022F000B0BDC046740B002000010020280900205A
:10230000380800201CB5D94909884906002400294D
:1023100031D5002808D0CC4882680124002A2AD070
:10232000CA484178904726E0C8490F316A460020E4
:1023300003C205220146034601F0DEFB03F0CCF99F
:1023400000280CD0C24C617B0320C04A03F08DF9F9
:10235000082003F0C9F9607BBB49087008E0BA485F
:102360000178491C0170C9B20420B84A03F07DF914
:10237000FFF726FD0124204602B010BD740B00209B
:10238000000100202809002038080020B0B5F349DA
:10239000098809060024002928D5002808D0AA4861
:1023A00082680124002A21D0A848417890471DE086
:1023B000A64C2046143002F0D8FA0920E073002021
:1023C0002074607421461231122003F04DFAA04DA2
:1023D000697B0320224603F048F9FFF7F1FC08204F
:1023E00003F082F9687B9849087001242046B0BD4B
:1023F000740B00200001002028090020380800206C
:10240000002070477FB5F24909888905002400291A
:1024100028D5002808D08C4882680124002A21D0C1
:102420008A48417890471DE002F0B1FA03AB18707A
:10243000864D28460F30694601240C604860002014
:102440001422014601F058FB814E717B03202A467D
:1024500003F00BF9FFF7B4FC082003F045F9707B9B
:1024600079490870204604B070BDC046740B002046
:10247000000100202809002038080020B0B5F149EB
:102480000988C9050024002928D5002808D06E48ED
:1024900082680124002A21D06C48417890471DE0D1
:1024A0006A4C2046143002F074FA0920E0730020D0
:1024B0002074607421461231132003F0D5F9644D65
:1024C000697B0320224603F0D0F8FFF779FC08204F
:1024D00003F00AF9687B5C49087001242046B0BD0E
:1024E000740B00200001002028090020380800207B
:1024F0007FB5F14989780904C9020024002928D54B
:10250000002808D0504882680124002A21D04F4872
:10251000417890471DE002F04EFA03AB18704B4D26
:1025200028460F30694601240C604860002099223B
:10253000014601F0E1FA464E717B03202A4603F082
:1025400094F8FFF73DFC082003F0CEF8707B3E497D
:102550000870204604B070BD740B002000010020FC
:1025600028090020380800207FB5E9498978090446
:102570004902002400292AD5002808D03248826860
:102580000124002A23D03148417890471FE003AD51
:10259000284602F014FA2D4C20460F3069460326D7
:1025A0000E6048600020A12201462B4601F0A4FAEB
:1025B000274D697B3046224603F057F8FFF700FCB1
:1025C000082003F091F8687B1F4908700124204619
:1025D00004B070BD740B0020000100202809002009
:1025E0007FB5E8498978090489020024002928D5A3
:1025F000002808D0144882680124002A21D01348FA
:10260000417890471DE002F0DEF903AB18700F4DE2
:1026100028460F30694601240C6048600020A02243
:10262000014601F069FA0A4E717B03202A4603F045
:102630001CF8FFF7C5FB082003F056F8707B024931
:102640000870204604B070BD000100202809002059
:1026500038080020E1488078C10801200840704710
:10266000DE4880788108012008407047740B002004
:1026700070B50D4604461E4E304603F03BF97068B7
:1026800004280DD0512808D3012D02D1532804D29B
:1026900006E0102D04D1542802D32046FFF700FA9B
:1026A00070BDC04610B50146114C204603F01EF91E
:1026B0006068042800D110BD216800290CD00DA04D
:1026C00001F06AFA20680121084209D1C0060BD442
:1026D0000FA001F061FA10BD0220FFF7E1F910BD73
:1026E0005220FFF7DDF910BD5320FFF7D9F910BDD7
:1026F000E00000205F6F6E457272546F4F6B5F6435
:1027000065764572724269743D2530385800000084
:10271000206F6E457272546F4F6B5F58310000002E
:1027200080B501F037FD80BDEB4801888278120446
:102730000A43034911400180090C81707047C0466B
:10274000FDFFFF00E4480188827812040A4304492F
:1027500011400180090C81707047C046740B002045
:10276000FEFFFF00DC480188827812040A43034917
:1027700011400180090C81707047C046DFFFFF00E7
:10278000D5480188827812040A4303491140018028
:10279000090C81707047C046EFFFFF00CE480188EA
:1027A000827812040A43034911400180090C8170A8
:1027B0007047C046FFEFFF00C748018882781204C7
:1027C0000A43044911400180090C81707047C046DA
:1027D000740B0020FFBFFF00BF48018882781204FD
:1027E0000A43034911400180090C81707047C046BB
:1027F000FBFFFF00B8480188827812040A430349AE
:1028000011400180090C81707047C046FFDFFF0056
:10281000B1480188827812040A43034911400180BB
:10282000090C81707047C046FFFFFD00AA4801886F
:10283000827812040A43044911400180090C817016
:102840007047C046740B0020F7FFFF00A2480188C4
:10285000827812040A43034911400180090C8170F7
:102860007047C046FFFBFF009B4801888278120436
:102870000A43034911400180090C81707047C0462A
:10288000FFF7FF0094480188827812040A43034945
:1028900011400180090C81707047C046FF7FFF0026
:1028A0008D480188827812040A430449114001804E
:1028B000090C81707047C046740B0020FFFFFE00BA
:1028C00085480188827812040A4303491140018037
:1028D000090C81707047C046BFFFFF007E48018829
:1028E000827812040A43034911400180090C817067
:1028F0007047C0467FFFFF00774801888278120446
:102900000A43044911400180090C81707047C04698
:10291000740B0020FFFF7F006F480188827812044B
:102920000A43034911400180090C81707047C04679
:10293000FFFDFF0068480188827812040A430349BA
:1029400011400180090C81707047C046FFFEFF00F6
:1029500061480188827812040A43034911400180CA
:10296000090C81707047C046FFFFEF005A4801888C
:10297000827812040A43044911400180090C8170D5
:102980007047C046740B0020FFFFBF00524801880B
:10299000827812040A43034911400180090C8170B6
:1029A0007047C046FFFFDF004B4801888278120461
:1029B0000A43034911400180090C81707047C046E9
:1029C000FFFFF70044480188827812040A43044953
:1029D00011400180090C81707047C046740B0020C3
:1029E000FFFFFB00B0B502F093FD002803D102F019
:1029F000A3FB002800D0B0BD054C064D204629465B
:102A000002F036FD2978204602F0BEFBB0BDC0467C
:102A1000E8060020E406002070B514280FD8040151
:102A2000344D2E19716032480068B0602A55F36049
:102A3000002A04D0002802D1014801F0FBFB70BD40
:102A4000F91B0000F8B50E460746124C20463946E1
:102A50003246FDF7CDFB204601F062F8012808D18F
:102A6000617B202000F020F8052002F03DFE0125CA
:102A70000DE009A00025394632462B4601F0B4F896
:102A8000617B222000F010F8062002F02DFE28467F
:102A900001B0F0BD380800205F7478744672616D33
:102AA0006545786500000000B0B50C46094DE86149
:102AB0002846103003F02AF92C760C3500212846E0
:102AC00002F06FFA044801888278827002220A4379
:102AD0000280B0BD00010020740B002080B50448C6
:102AE0000021016005208201024800F0A6FB80BDA4
:102AF00048010020180A002080B501F099F8032051
:102B00000121024A02F066FD80BDC046CD170000DB
:102B100080B50448FF210170034801784170FFF738
:102B2000A5F880BD11000020D4000020BCB5012113
:102B30008C072046FEF7DBFD002821D0012120462E
:102B4000FEF7C6FD554DA86802F024FA297F01283A
:102B500006D1032001432977E87F21216854BCBDB9
:102B6000FE2001402977A86801A902F0B9F90128DF
:102B700006D101A800782168FF229143014321601A
:102B800000212046FEF7B3FD002812D00021204688
:102B9000FEF79EFD216801A80170404C6068C9B233
:102BA00002F0B2F9A07F20216054207FFB21014078
:102BB0002177BCBD7CB5394C207FC00730D02120A7
:102BC000215C002904D0491E2154FF20014227D155
:102BD0002069FEF765F9002822D12069304D294689
:102BE000224600F0C1FC01281AD1002604E0017839
:102BF000A06802F089F9761CA81921688E42F6D3E4
:102C0000A06801A902F06CF9012809D101A8017896
:102C100001208007FEF79CFD207FFE2101402177E7
:102C2000207F0221084207D0FD2108402077A169BA
:102C3000002901D08847207F40071DD42020215C37
:102C4000002904D0491E2154FF20014214D100253F
:102C5000134E05E0606802F043F9052803D06D1CAF
:102C60007119FF2DF6DDE0680D492A4601F0C8FB19
:102C7000207F042101432177E068FEF711F9002845
:102C80000AD1E0680649224600F06EFC6269002A1B
:102C900002D02168024890477CBDC04660000020F9
:102CA000E0050020B0B50546CCB20FA001232946AF
:102CB000224600F099FF00F001FF002808D000F044
:102CC000C3FD00280ED02846214600F0C3FDB0BD4C
:102CD0002846214602F060FE012803D028462146FE
:102CE00002F0DCFAB0BDC0467A72783A000000000B
:102CF00070470000F0B58DB00C460546287802F00C
:102D00002DFD002819D0207802F02DFD002816D0C6
:102D100020786978814214D1A878AE1C02F09DFD1C
:102D2000002810D0307802F096FD00280DD02078D1
:102D3000C01C000710D01FA008E028A006E024A0B7
:102D400004E01B4802E01FA000E01D4800F024FF43
:102D5000002738460DB0F0BD019609A9284600F0BD
:102D600037F90294207804900D2603950AE009A80B
:102D700005A90A46B8C8B8C2039DA819012200F0E7
:102D8000A9F81036F6B204988642F0D304982818B1
:102D90000021C943425C4018002AFBD00127791B5F
:102DA0000C186C70019802F07DFC02980470D0E75A
:102DB0006069000061657344656320583600000057
:102DC0006A6900006165734465632058340000003F
:102DD0006165734465632058320000006165734487
:102DE0006563205831000000F0B58BB00D460446F5
:102DF000207802F0B3FC002815D0287802F0B3FC4C
:102E0000002812D028786178814210D1A078A61CC1
:102E100002F023FD00280CD0307802F01CFD0128C0
:102E20000DD1224806E028A004E024A002E01E48BC
:102E300000E01FA000F0B0FE00200BB0F0BD304657
:102E400002F035FC07A9204600F0C2F82878C11C22
:102E50000F220A400021002A0AD0D2B210239E1A63
:102E600006D020180021324600F0E7F928783146D4
:102E70000294081828700D2601950CE007A803A9F4
:102E80000A46B8C8B8C2019D02988019002200F015
:102E900021F810362878F6B2C1B28E42EED30299EC
:102EA00048700120C9E7C046606900006A690000F7
:102EB000616573456E632058340000006165734599
:102EC0006E63205832000000616573456E632058C0
:102ED00031000000F0B593B00F46054600240E9473
:102EE0000D940C940B940A940994089407940694F6
:102EF000059404940394002A02951BD01B20019092
:102F00000121FEF709FB0BA8009010263946324636
:102F1000FDF76EF907AF384629463246FDF768F9E6
:102F200003AD10950F970098119012940FA8FDF71C
:102F300081FC19E01B2001900121FEF7EDFA2946E2
:102F400007AD102628463246FDF752F939460BAF39
:102F500038463246FDF74CF9109503AD0F951197A1
:102F600012940FA8FDF7B4FC029829463246FDF7EB
:102F70003FF901982146FEF7CFFA13B0F0BD704734
:102F800080B500F049F880BD80B500F04FF8012011
:102F900080BD0000B0B5827803799C1803221440EC
:102FA0000AA31C5D0C70C47805792C1914401C5DB3
:102FB0004C70047914401C5D8C708478C5782C1991
:102FC000007920181040185CC870B0BD467A3940AE
:102FD00070B50C4605462046FFF7D2FF26460C3654
:102FE00028463146FFF7D6FF08342046314600F028
:102FF0002EF970BD80B500F02FF880BD80B500F0CF
:1030000033F880BD00020843704700020843000205
:10301000104300021843704780B5002804D0CC4903
:1030200038310C22FDF7E4F880BDC046B0B5044647
:10303000002C10D0C64D38350C2220462946FDF70D
:1030400009F9002807D0C148012101700C22284647
:103050002146FDF7CDF8B0BDBD48416B01200029E8
:1030600000D108467047C046B9494A6B824203D036
:10307000B64A0123137048637047C046B44880685D
:103080007047C046B2498A68824203D0AF4A0123E2
:10309000137088607047C046AD484169012000291F
:1030A00000D108467047C046A9494A69824203D008
:1030B0004861A648012101707047C046A448806954
:1030C0007047C046A2498A69824203D088619F48FE
:1030D000012101707047C0469D48C0697047C046D5
:1030E0009B49CA69824203D0C86198480121017096
:1030F0007047C0469648016B0120002900D1084660
:103100007047C04692490A6B824203D008638F48D9
:10311000012101707047C04680B5074840780128FA
:1031200002D106A000F038FD224800210160FE20F7
:1031300000F02AF880BDC0466C0B00200D0A6366C3
:103140006750616765496444656600001948006816
:103150007047C04680B500F00FF816480068000AB6
:1031600001D0FFF7D9FF80BD0146C43901200022FC
:103170003B2900D31046704780B5FF2000210D4A3F
:10318000012300F029FE80BD80B50146094A13687D
:1031900000208B420DD0116007484078012802D1F1
:1031A00006A000F0F9FCFF200021024A012300F0F4
:1031B0001FFE80BD400100206C0B0020636667503D
:1031C00061676549645365743D256400604A136A0C
:1031D0000360506A086070475D4A136A834203D0F7
:1031E00010625A4801230370506A884203D051622A
:1031F00056480121017070475548C0687047C04665
:103200005349CA68824203D0504A01231370C860F0
:103210007047C0464E4800697047C0464C490A692D
:10322000824203D0494A0123137008617047C046A7
:1032300080B500F045FB80BDFEE710B5524200238B
:1032400002E0C41A21705B1E9A42FAD110BD0A78BE
:103250000378534003700A785A400A70017851404D
:10326000017070470178002901D0491E0170704734
:1032700037480168491C01D10021016000213C222E
:103280004B239B0041608160C160026141618361A9
:10329000012303624262416303490164C1638163A4
:1032A0002A4803707047C0465858585880B5FFF7F1
:1032B00051FF00F00BF825480021017024484068B8
:1032C000002801D0FFF7D4FF80BDC04680B5FFF7CE
:1032D0003DFF00211E4A122300F07EFD80BDC04646
:1032E000B0B51A48017800292FD000210170184C80
:1032F0002068401C2060FFF729FF451E2846FFF785
:1033000033FF00280FD02068124988420BD30120D8
:103310002060002113232846224600F069FD28463C
:10332000FFF732FFB0BD0C484078012806D1FFF707
:103330000DFF0146226809A000F02EFCFFF706FFF2
:103340000021034A132300F053FDB0BD3D010020CE
:10335000EC070020D17E01006C0B0020766172200A
:10336000777269746520666C6173682C706167653B
:1033700049643D256420636E743D256400000000AF
:1033800048480178FA220A4004211143017070472D
:1033900080B5FFF7F5FF80BD704780B500F034F8C9
:1033A00080BD80B500F060F880BD000010B500F071
:1033B00019F800F033F8FFF7EFFF3A4C2078F521C9
:1033C0000140082008432070FFF794FE2278052171
:1033D0001143FA23134004221A43002800D00A465E
:1033E000227010BD704780B5FFF756FE0021091A04
:1033F000484180BD80B5002801D0012000E00020B8
:10340000FFF752FE80BD00002648017805220A43DE
:103410000270704780B5FFF751FE80BD7047000015
:1034200010B5FFF767FE002812D0FFF755FE0446DF
:1034300000F070FE041BFFF741FE844208D31948D8
:103440000178FA220A4004211143017000F010F8BB
:1034500010BDC04680B5FFF735FE80BD80B500F0D9
:1034600059FEFFF73DFE80BD80B5FFF743FE80BDEE
:10347000B0B50C4C25780620284004280BD128072D
:103480000AD401200540FFF735FE854207D1207898
:10349000FB2101402170B0BDF72005402570FEF7EB
:1034A000D5F9B0BD34080020B0B58CB0054601ACEC
:1034B000204618301421FCF7B4FE2868094940184A
:1034C00006902879401E059068790490A8790390A9
:1034D000E8790290287A01902046FCF743FE0CB070
:1034E000B0BDC04694F8FFFF80B500F003F800F0CF
:1034F000A7F980BDB0B586B001A9802008804880BA
:10350000012460028880C88002200872487209483D
:10351000049009480590D34D281D02F0B5F9FF210C
:10352000064A204602F056F86877054800F0EEFE9D
:1035300006B0B0BD5D1A0000771A00006D190000DA
:10354000E518000080B50A460146C648006900F04B
:1035500057FF80BD002804D105E000220270401C06
:10356000491E0029F9D17047F8B516460C460546A4
:10357000A968EA680020914217D02868475C481C77
:103580006968FCF7C5FDA96037600BE0A868296889
:10359000085C20706968A868401CFCF7B9FDA96048
:1035A0007F1E641C0120002FF0D101B0F0BD00008F
:1035B000F8B50C4605460027032C3AD31E490322D2
:1035C0002846FCF747FE002833D1EE1C1B49082291
:1035D0003046FCF73FFE00280AD128460B30214632
:1035E000F531C9B200F00AF901460120012921D0C4
:1035F000134903223046FCF72DFE002809D1A81DEF
:103600002146FA31C9B200F0ABF801460120012988
:1036100010D00C4903223046FCF71CFE002808D1CC
:10362000A81DFA34E1B200F00FF80146012001298B
:1036300000D0384601B0F0BDBF690000AE6900009F
:10364000AA69000074690000BFB505460024062978
:1036500011D012291BD00A292ED0092949D13F495E
:103660002846FCF7E9FD002843D1FFF7C3FC0028FA
:1036700031D036A03AE02B492846FCF7DDFD002882
:1036800037D101AD2846FFF77BFC27A00DE01A4992
:1036900006222846FCF7DEFD00282AD1AD1D28466B
:1036A000FFF772FC002820D014A00C220124294628
:1036B000234600F099FA1CE01E492846FCF7BCFDA1
:1036C00000280AD01C492846FCF7B6FD002810D176
:1036D0000020FFF793FC19A008E001242046FFF723
:1036E0008DFC1AA000F058FA03E009A000F054FA8B
:1036F0000124204604B0B0BD7F6900000A616573F3
:103700006B6579736574206F6B2C206B65793D0058
:103710000A6165736B6579736574204572726F72A7
:1037200000000000786900000A6165736B65793AF2
:10373000000000009B690000906900000A61657349
:1037400020737769746368206F6666000A61657329
:1037500020737769746368206F6E000086690000CB
:1037600070B588B0002503292FD1194903242246BA
:10377000FCF770FD002828D1684616A11822FCF736
:1037800037FD06A800F0C2FE00281AD00020064629
:1037900005E006A9091A0978F2B28E18401E014602
:1037A0000831F6D16D462C4306A8214600F0B2FE42
:1037B000F0B22946133100F057F80020687528460A
:1037C00000E00AA000F0E8F90125284608B070BD25
:1037D000A66900007A6C40000000000000000000B4
:1037E0000000000000000000000000000D0A206D35
:1037F00061632072656164206572720010B50024F7
:10380000072908D0012916D10078302813D100F0FB
:10381000C1FC01240FE00949FCF70EFD00280AD184
:103820000720002100F084F80948017801240029CC
:1038300001D101240470204610BDC046B7690000C4
:103840000348002101707047014800787047C04666
:10385000E006002080B50A4601460248006900F0F3
:10386000CFFD80BD3000002080B5024602A308468F
:10387000194602F077FA80BD25303258000000006A
:10388000F8B51E4C1E4D65600021A1600521216028
:103890001C4E0BE00020A06030680849FCF738FCA3
:1038A000691C081AA1688142FCD83846471E0028C6
:1038B000F0D12068012188432060F8BDA086010076
:1038C000F8B50E4C0E4D65600026A66005212160FE
:1038D0000CE0A6607D20C1000A480068FCF718FCD7
:1038E000691C081AA1688142FCD83846471E002886
:1038F000EFD12068012188432060F8BD10E000E08E
:10390000FFFFFF000C00002080B500F0C9F800F0B8
:10391000DFF80520FF21044A01F05CFE0120034A84
:10392000014601F075FE80BD7D170000811A000080
:1039300010B50446792C0BD34AA0214600F02CF98F
:103940007B2C16D07A2C18D10120FEF7ABFE10BDCF
:10395000512C24D8482C12D333A0214600F01CF956
:10396000492C14D0482C17D152200121FEF780FE9B
:1039700010BD1020FEF796FE10BD3EA00DE0332CCA
:103980000DD8082C0CD0072C18D1042014E053209B
:103990001021FEF76DFE10BD29A000F0FDF810BD4E
:1039A000184800680121084203D1C00603D4022050
:1039B00002E0522000E05320FEF772F81148406800
:1039C0005028ECD803280CD878440079400087446C
:1039D000020A0D01E3E7012CE1D10120FEF760F8B6
:1039E00010BD09A0D9E7022CD9D107E0042C05D0DD
:1039F000052CD4D10320FEF753F810BD0220FEF7AA
:103A00004FF810BDE00000200D0A2A2A2A2A2A2A8F
:103A1000205F6465764F6E4576656E7420457272E0
:103A2000202A2A2A2A0000005F6F6E4572724869B8
:103A30006E744576656E745F653D25640000000018
:103A40000D0A2A2A2A2A2A2A205F6F6E4572724896
:103A5000696E744576656E7420457272202A2A2A32
:103A60002A0000005F6F6E457272546F4F6B5F6586
:103A70003D2564000D0A2A2A2A2A2A2A205F6F6E11
:103A8000457272546F4F6B4576656E742045727245
:103A9000202A2A2A2A0000000C4840687047C046A5
:103AA00080B50A4900200860FDF7FAFF0120FFF702
:103AB0003FFF0220FFF73CFF80BDC046034840683F
:103AC000011F0020401A48417047C046E000002016
:103AD00080B5044800F0B2F83220FF21024A01F01C
:103AE00079FD80BDD5170000F92A00000148406823
:103AF0007047C046EC00002070B51C46049D6B1D4D
:103B0000059E33707070B17090B2F11C01F0ACFE84
:103B1000002D04D0701D21462A46FCF769FB70BDBC
:103B2000B0B50446E17CA07CFFF76CFA054600F0D6
:103B300019F8411C05D080000549095820468847DE
:103B4000B0BD04A0294600F027F80020B0BDC04653
:103B5000E8670000657272207061726149643D25FA
:103B600064000000B0B5152300210A4A00E0491C9A
:103B7000CCB201E0FF310B460021C943DDB2AC42BB
:103B800006D8291949084D00555B8542F2D8EED375
:103B90000846B0BD1269000083B070B5A1B00446FC
:103BA00025A80EC001AD802628463146FCF739FB1A
:103BB00025AB009328463146224602F0E7F801463D
:103BC000002901D001A801E004A00B21FFF7BAFCF5
:103BD00021B070BC01BC03B00047C0466D79507283
:103BE000696E7466204E4700F8B51C4615460E46B1
:103BF000002801D0FFF7D0FF07A705E0317838464D
:103C0000FFF7CAFF761C6D1E002DF7D1002C02D0E5
:103C100003A0FFF7C1FFF8BD202530325800000097
:103C20000D0A000080B500200521FDF7B7F880BD22
:103C300080B500200521FDF719F980BD1F490860F6
:103C40007047C046F0B589B002AD1C262846314603
:103C5000FFF780FC0024039405940694FFF7E2FF2D
:103C6000052120462A46FDF7A3F8062101912046AA
:103C7000FDF7F2F802AF38463146FFF76BFCFCF770
:103C8000EFFE0294039403263003049005940694F7
:103C90000125A803079008943846FCF7ABFE01986D
:103CA000FCF766FEFCF778FE182031462A46FCF742
:103CB0006DFF0248046009B0F0BDC046500300200B
:103CC00080B5FCF7C3FE80BDF0B585B00025284661
:103CD000FDF79EFB2846FDF7ABFB1120FDF758FCD6
:103CE00002263046FDF748FC0124144F3046214699
:103CF000B8473046FDF75EFC04263046FDF72EFC43
:103D000028462146B84701950296032003900C20CF
:103D1000049001A8FDF7A2FB2046FCF7CBFF30463C
:103D20002146B8473046FDF745FCFDF7D9FA04496E
:103D300008602046FDF76EFD05B0F0BDE9110000FA
:103D4000700B002080B500200721FDF78FF880BDA3
:103D500080B500200721FDF721F880BD80B58020C7
:103D60000421FDF783F880BD80B580200421FDF794
:103D700015F880BD80B500F01BF800F007F880BD95
:103D800080B500F015F800F007F880BD80B5002080
:103D90000921FDF76BF880BD80B500200921FCF7F3
:103DA000FDFF80BD80B500200821FDF75FF880BDD4
:103DB00080B500200821FCF7F1FF80BD80B5FFF73A
:103DC000F1FFFFF7E9FF80BD80B50C200121FCF772
:103DD00029FF0028F9D180BD89004002401802E087
:103DE00002C802C25B1E002BFAD1012070470000FE
:103DF000FEB5029205468800114C201801906E0213
:103E000098000090042716E0FF2D13D8002003E04F
:103E1000810072586250401C8028F9D101980299A3
:103E2000009AFCF7E5F92846FDF7ACFE01460120B3
:103E3000002903D17F1E0020002FE5D103B0F0BD83
:103E40005001002010B5FFF73FFFFFF7BDFF00F066
:103E5000AFF90024204600F0FDF9204600F05CFA9E
:103E600000F08EF8FFF7EEFE00F007F800F026F8FD
:103E700000F070F800F05BF910BD10B588B001AC2F
:103E80001C212046FFF766FB0120029000200490D1
:103E900005904120800105212246FCF789FF08B0EA
:103EA00010BD80B5412080010521FCF7C5FF01460A
:103EB0000120002900D1084680BD0000F0B587B080
:103EC0006E461C255E4A304629469047FFF74CFF58
:103ED0000024019403940127049780200421594B66
:103EE00032469847FFF740FF6E4630462946544A0F
:103EF0009047FFF72DFF0194039404970721204674
:103F00003246504B9847FFF723FF6E46304629460E
:103F10004B4A9047FFF74CFF019403940497082104
:103F200020463246474B9847FFF742FF6E463046E1
:103F30002946434A9047FFF72FFF019403940497C3
:103F40000921204632463F4B9847FFF725FF07B02F
:103F5000F0BDC04610B588B001AC1C212046FFF76B
:103F6000F9FA00F075F80020029004900590042101
:103F70002246FCF71DFF00F06BF808B010BD0000F2
:103F8000F0B58BB004AF1C2102912D4A3846904702
:103F900000F02AFA002505950120079004460394B5
:103FA0000895402001900421264B3A46984700F09E
:103FB0001BFA04AF3846029E3146214A904700F072
:103FC0000DFA0595079408950B2128463A461D4B96
:103FD000984700F003FA04AF384631463446184A91
:103FE000904700F007FA059503980790089503217C
:103FF000019E30463A46134B984700F0FBF904AF58
:10400000384621460E4A904700F0E2F90595039C98
:1040100007940895052130463A460A4FB84700F004
:10402000D7F904AE30460299054A904705940795A2
:1040300008950F2128463246B8470BB0F0BDC04660
:1040400055350000B10D000080B500F001F880BDCD
:1040500080B500200421FCF709FF80BD80B5002059
:104060000421FCF79BFE80BD80B5FFF7F7FF80BD04
:1040700010B5084C2078C00705D1FFF7E9FF21787B
:104080000120084304E0FFF7E9FF2078012188437D
:10409000207010BD6C0B00207CB5044668460025DE
:1040A000857185800095EE43761C092E2FDC6846CD
:1040B000FCF7E8FF0028F7D169468B791D090A2033
:1040C00045430F2213407D2636011E43731923609A
:1040D0004B791D0913404543EB1823710B791D09DA
:1040E00013404543EB1863718B781D09134045431A
:1040F000EB18A3714B781D0913404543EB18E3718E
:1041000009780A4009094143881820720125284688
:1041100002B070BDF8B501A8FFF7BEFF0146002050
:10412000012902D101A8FFF7BFF904B080BDF0B5A5
:1041300089B06D4624212846FFF70CFA142001248B
:104140002146FDF7E9F9032630462146FDF74CF8F4
:104150000094002004900194132129725521A9761E
:10416000EC76102129771727AF7704216977E97753
:10417000202119226A54059428832846FCF75EFF03
:10418000384631462246FCF701FD2046FCF724FF65
:1041900009B0F0BDBFF34F8F034804490160BFF37E
:1041A0004F8F00BFFDE7C0460CED00E00400FA05AC
:1041B00070B58AB06E4628213046FFF7CBF900244F
:1041C00000940594042003900125069534743472FC
:1041D000019420463146FCF78FFC0E4E20463146B6
:1041E000FCF75EFC20463146FCF766FC2046214683
:1041F000FCF742FC2046FCF775FC0E2003212A4602
:10420000FCF7C4FC0F48047003490C6044600AB01A
:1042100070BDC04690E80000680B002010B5094C46
:104220002078012805D16068002800D08047002050
:10423000207010BD80B5034948600020FCF74AFC9F
:1042400080BDC0462000002080B50020FCF742FC65
:1042500080BD0000F0B58BB0029004AD1C2101912F
:104260002846FFF777F90026059640242046314678
:104270002A46FCF79DFD0322039220463146FCF7B7
:10428000E3FD0120009005900B27204639462A4681
:10429000FCF78EFD20463946039AFCF7D5FD04ADA8
:1042A00028460199FFF756F90220009F3946FDF78D
:1042B00033F9069605960796FDF7A0F80990B8021F
:1042C0000890E12040020A9004940F4C20462946B1
:1042D000FCF714FE20463146FCF7FBFD204639462C
:1042E000FCF7F7FD20463146FCF7FBFD204639463A
:1042F000FCF7F7FD082003993A46FCF747FC054810
:10430000029901600BB0F0BD000200400149086055
:104310007047C046580B0020F0B58BB0039004AD39
:104320001C212846FFF716F9002001900590402433
:1043300006260296204631462A46FCF739FD02221F
:10434000009220463146FCF77FFD0127059707269E
:10435000204631462A46FCF72BFD20463146009A7E
:10436000FCF772FD04AD18212846FFF7F3F804941A
:10437000019E06960596E1200002099078020790BA
:10438000FDF73CF80890BC0720462946FDF7B4F934
:1043900020463146FDF79CF920463946FDF798F94D
:1043A00020463146FDF79CF920463946FDF798F93D
:1043B000032102983A46FCF7E9FB0448039901609F
:1043C0000BB0F0BD014908607047C0465C0B00208F
:1043D00080B540200521FCF749FD80BD80B5002057
:1043E0000B21FCF743FD80BD80B540200421FCF784
:1043F0003DFD80BD80B540200321FCF737FD80BD29
:1044000070B514460D46064600F01FF80146621CC2
:104410000020914217D3F06831680C547168F0683D
:10442000401CFBF775FEF1600AE030682A784254C0
:104430007168F068401CFBF76BFEF160641E6D1C38
:104440000120002CF1D170BD704710B5041D1CCCAB
:104450009818011B881A9C4200DB084610BD70B5F5
:1044600005462E461336304601F0F0FC0446002C7B
:104470000BD020463146FBF7D4FE204610300021F9
:1044800021C421606160083C02E0FEF7D5FE0024F3
:10449000204670BD80B50448002101703220FF2104
:1044A000024A01F097F880BD54030020951C0000DB
:1044B00080B50822FBF7CEFE0021091A484180BDD5
:1044C0001CB5044600F011F80146012000290AD16C
:1044D000684601F01BFC01460020002903D0684615
:1044E0002146FFF7E5FF02B010BD002204E01B7873
:1044F0000021FF2B04D1521C83180121082AF6D178
:104500000846704780B5FFF7DBFF80BD80B501F03E
:10451000FDFB80BD70B50C460546002606E0A81BD5
:1045200000782146FFF7A0F9A41C761E304608301B
:10453000F5D1012070BD000010B5084C002060705E
:10454000FFF780FC00F026F8FFF7DEF904A0FFF784
:1045500023FB01206070FFF761FEFCE76C0B00207D
:104560000D0A7030335F7465726D696E616C5F63E4
:1045700074726C5F77617465722056302E315F32D1
:10458000303230303631332066656E676875690DBC
:104590000A00000080B501F019F8FEF787FEFEF76B
:1045A000A3FFFEF7ECFC01F033FBFEF7FFFEFFF785
:1045B00071FF00F07BFDFFF747FF80BD80B5074925
:1045C0000A68824208D00860012801D17B2000E0FF
:1045D00049200021FFF7ACF980BDC04658030020F8
:1045E00070B5484D6868002819D0474E30780024CF
:1045F000002800D084E046203070701CFEF732FEA8
:104600007078002878D16868072875D0FDF7A6FB78
:104610000220FFF7D3FF3DA0FFF7BEFA70E000F0E5
:1046200085F8002400286BD03B480188807802047C
:104630000A431002001201210A424CD102218207D2
:1046400049D40321420746D40421020743D405215B
:10465000C20640D4062182063DD4072142063AD440
:104660000821020637D40921C20534D40A21820563
:1046700031D40B2142052ED40C2102052BD40D215F
:10468000C20428D40E21820425D40F21420422D44E
:10469000102102041FD41121C2031CD41221820351
:1046A00019D41321420316D41421020313D4152163
:1046B000C20210D4162182020DD4172142020AD45C
:1046C000000200121821002805DB00246C6013A0F2
:1046D000FFF762FA14E069600020FDF731FB6868BB
:1046E000401E012801D8FDF739FB0748462101701B
:1046F00003214170012403E001242046FDF720FB43
:10470000204670BD00010020080000207265646F23
:1047100020636C6561720000740B00205F6E327361
:10472000476574496428292065727200E0B501A9C3
:10473000002088700880EF480322FBF78BFD0146BC
:104740000120002900D1084602B080BD10B502202A
:1047500000F0CAFF00F0B8FF002806D00124204670
:10476000FFF72CFFFDF7FAFA03E003A0FFF714FAB6
:104770000024204610BDC04673675478436D644FD3
:104780006E52784F6B5273702045525231000000C8
:1047900080B5FEF7F5FB012080BD80B5FEF72AFC51
:1047A00080BD10B500780024012806D0002808D16B
:1047B0000020FEF723FC012403E001242046FEF73D
:1047C0001DFC204610BD10B50446FFF78FF980B2DE
:1047D000214601F049F810BD10B50446FEF74EFC25
:1047E000214601F049F810BD80B5C3788278417840
:1047F0000078FEF70AFCFEF745FC80BD80B5FEF7A9
:10480000D0FD01460120002900D1084680BD80B5B9
:1048100001780020012904D0002905D1FEF7B8FD58
:1048200001E0FEF7BAFD012080BD80B5FEF7DBFD9B
:104830000021091A484180BD10B5007800240128E4
:1048400006D0002808D10020FEF7D4FD012403E0A3
:1048500001242046FEF7CEFD204610BD10B50446CB
:10486000FEF7D8FD214601F007F810BD80B5C378EA
:10487000827841780078FEF7C8FBFEF7EBFD80BD3B
:10488000B0B5044600F085F8201D00F082F8FEF770
:10489000EBFD00280FD001202072FFF73BFC0546FE
:1048A000FEF71AFC451BFEF709FC281821460931C2
:1048B00000F0E2FF05E00020207220460930FFF7FB
:1048C000CDFF002060730E20B0BD10B5044600F08F
:1048D00068F8201D00F051F8207A00280FD0FEF76C
:1048E0005CFD237BE27AA17A607AFEF78EFBFEF70D
:1048F000B1FD607B002801D0FEF7B0FD10BDFEF7D2
:1049000047FD10BD10B5FEF7B3FCC8200124034AD3
:10491000214600F05FFE204610BDC046791A000017
:10492000052070471CB5044601A86946FEF74EFCF9
:104930000198214600F0A0FF0098211D00F09CFF87
:104940001CBDB0B50446E378A27861782078FEF704
:104950005CFB0546E379A27961792079FEF755FB86
:1049600001462846FEF738FCB0BD10B50446FEF7F8
:1049700043FC214600F080FF10BD80B5C3788278EB
:1049800041780078FEF741FBFEF73AFC80BD11202C
:10499000704710B50446FEF73DFC214600F06CFF61
:1049A00010BD80B5C378827841780078FEF72DFB82
:1049B000FEF734FC80BD80B501F092F980BD80B572
:1049C00001F096F980BD1CB501AC204601F0B8F9A4
:1049D000207802B010BD000080B50146CA780020E2
:1049E000012A15D0022A1CD1DB480178827843784D
:1049F000437082701B020B431104194320220A43A7
:104A00000270E448017802220A430270012080BD4E
:104A100014310846FEF7B8FA01460120002900D1FA
:104A2000084680BD80B50146CA780020012A15D00D
:104A3000022A1CD1D648017882784378437082706C
:104A40001B020B431104194310220A430270E4486D
:104A5000017802220A430270012080BD1431084609
:104A6000FFF79FFE01460120002900D1084680BDC6
:104A7000C1780020022913D1E84948788A780B7858
:104A80000B708A70000218431204024301200303D2
:104A900013431A0A4A70E2490A78022313430B703F
:104AA0007047C04680B50146CA780020012A16D05A
:104AB000022A1DD1EB4948788A780B780B708A70EE
:104AC00000021843120402430120830313431A0A0D
:104AD0004A70E5490A78022313430B7080BD1431F4
:104AE0000846FFF794FE01460120002900D1084640
:104AF00080BDC046740B002080B50146CA780020F6
:104B0000012A14D0022A17D1E44801788278437828
:104B1000437082701B020B431104194304220A43A1
:104B20000270E648017802220A43027003E0143161
:104B30000846FFF759FE012080BDC04680B50146FA
:104B4000CA780020012A16D0022A1DD1D3494878FC
:104B50008A780B780B708A700002184312040243A3
:104B60000120430313431A0A4A70DC490A780223DE
:104B700013430B7080BD14310846FFF75DFE0146FC
:104B80000120002900D1084680BDC04680B5C1780B
:104B900002220A430021032A03D11430FFF795FEB5
:104BA0000121084680BD000080B5C17800200129A0
:104BB00014D1FFF7A7FEB948017882784378437093
:104BC00082701B020B431104194308220A4302702E
:104BD000C248017802220A430270012080BDC0460B
:104BE000C1780020022913D1AC4948788A780B7823
:104BF0000B708A70000218431204024301208302E2
:104C000013431A0A4A70B5490A78022313430B70FA
:104C10007047C046C1780020022913D19F494878C7
:104C20008A780B780B708A700002184312040243D2
:104C30000120C30213431A0A4A70A8490A780223C2
:104C400013430B707047C04680B50146CA780020F8
:104C5000012A16D0022A19D1904948788A780B780F
:104C60000B708A7000021843120402430120C30330
:104C700013431A0A4A7099490A78022313430B70A6
:104C800080BD14310846FFF7F1FD012080BDC0460C
:104C900080B50146CA780020012A10D0022A13D11B
:104CA0007E498A7808784B784B700870012002435F
:104CB0008A708A490A78022313430B7080BD14312D
:104CC0000846FFF73EFE012080BDC04610B5C07803
:104CD0000024012805D164200124034A214600F064
:104CE00079FC204610BDC0462127000080B5014652
:104CF000CA780020012A14D0022A17D16748017807
:104D000082784378437082701B020B43110419436D
:104D100080220A4302707148017802220A4302701D
:104D200003E014310846FFF728FE012080BDC0468D
:104D3000C178002002290ED1584881780278437842
:104D40004370027080220A43827064480178022214
:104D50000A43027001207047740B0020C1780020C4
:104D6000022913D1F34948788A780B780B708A703E
:104D700000021843120402430120430213431A0A9B
:104D80004A7056490A78022313430B707047C04695
:104D9000740B00206C0B002080B50146CA780020FF
:104DA000012A16D0022A19D1E24948788A780B786C
:104DB0000B708A70000218431204024301200302A0
:104DC00013431A0A4A7045490A78022313430B70A9
:104DD00080BD14310846FFF7E4FD012080BDC046C8
:104DE0006C0B002080B50146CA780020012A10D043
:104DF000022A12D1CF48817802784378437002703A
:104E000010220A4382703548017802220A43027058
:104E100002E0087D00F072FD012080BD740B0020CF
:104E20006C0B002080B50146CA780020012A12D000
:104E3000022A15D100F084FDBE48817802784378BB
:104E40004370027040220A43827024480178022293
:104E50000A43027003E01431084600F07BFD012094
:104E600080BDC046740B00206C0B002080B5C1785B
:104E70000020022910D100F0ABFEF74881780278BB
:104E800043784370027020220A43827013480178ED
:104E900002220A430270012080BDC046740B00202C
:104EA00080B5C1780020012907D100F03DFD0B48F5
:104EB0000178FD220A400270012080BD6C0B0020A9
:104EC00080B5C1780020012907D100F05BFD0348BF
:104ED0000178FD220A400270012080BD6C0B002089
:104EE00010B504460CCC0520083C9A420BD0002992
:104EF00003D0E068805C08702268501CA168FBF752
:104F00001DF92160012010BD70B50D46044666688C
:104F1000A168701CFBF712F922680420914208D0A6
:104F2000E0688555A1686068401CFBF707F961607F
:104F3000012070BDF8B50C46411E490A04D0002579
:104F4000002C24D0032021E0461C102000F07EFF1E
:104F50000546002D14D000272F606F60AE603046EC
:104F600000F074FFE860002811D1284600F03CFFF3
:104F7000FEF762F9002C01D0022020603D4606E0D9
:104F8000FEF75AF90025002C01D0022020602846A7
:104F900001B0F0BD01684068091A0020401A48417C
:104FA000704710B504467720C043223020700F2090
:104FB00060704020002900D10846A070882020752C
:104FC000204600F002F8E07010BD00210E2203E040
:104FD000835CC9B25918521E032AFCD0002AF7D1AB
:104FE00000784018C0B2704710B50446FFF7EDFFD7
:104FF000E178411A0020401A484110BD0F380021C5
:10500000091A4841704710B5044600F00CF8012811
:1050100008D1201DFFF776FA01460720012200295A
:1050200000D0104610BDB0B503230F2923D104785A
:105030007721C9432231CDB202218822AC421BD153
:1050400041780F29194617D183780421BF242342C0
:1050500012D1837B0E2193420ED1417B2039CAB2FB
:105060000D21022A08D8FFF7BFFF062101220028E0
:1050700002D0114600E019460846B0BDB0B5094D52
:105080000020286001242046FEF7D2F8FEF709FF31
:105090000221002803D1044800F072F8214629605B
:1050A000B0BDC04644010020955C000080B500F012
:1050B00003F800F007F880BD80B500F015F8FFF7A1
:1050C000DDFF80BD80B500F009FA00F0C1F900F005
:1050D00005F800F04BF800F073FA80BD014800219C
:1050E0000160704758030020B0B51148EE242146F6
:1050F000FBF797F818482146FBF793F8554D2846DB
:105100000C3018242146FBF78CF828462430214621
:10511000FBF787F850480021817001802970696091
:1051200011480322427046220270A960B0BDC046F9
:1051300038080020740B00204648416801200029EF
:1051400000D108467047C0460349497B091A002030
:10515000401A48417047C0462809002080B50248DF
:10516000FEF780F880BDC0460800002080B50348E7
:1051700000210160012000F0B7FA80BD4C01002041
:10518000344988607047C046F8B50E46044600F0C2
:10519000C7F90025002859D0022000F0A5FA00F038
:1051A00093FA002825D068460670A07800F053FBDB
:1051B000012805D16D4620462946FDF79BFD2E7836
:1051C0000025204631462A4600F0D9FA012812D19E
:1051D0000120FFF7F3F9032000F086FA00F06CFAE3
:1051E000002830D0684601782046FDF72BFC0546A4
:1051F0002CE024A028E068460178204600F0BDFAA3
:10520000002815D0677B134E222070633046103083
:1052100000F07CFD30203754243600213046FFF763
:10522000C0FE0D4801888278827001220A43028004
:10523000042000F059FA6846027808A021462B465F
:10524000FEF7D2FC02E00BA0FEF7A6FC284601B058
:10525000F0BDC04600010020740B00207478744635
:1052600072616D65457865455252325F756E6B6E41
:105270006F775F007478744672616D654578654537
:10528000525233007478744672616D654578654595
:105290005252310080B5FFF761FF80BDF0B587B095
:1052A0000E46014600200691002900D1B3E0002EF1
:1052B00000D1B0E0594800880121019149020291D2
:1052C0000A1A91B2B142314600D81146544C9CE0C2
:1052D0000493059285B26019CCB206992246FAF77A
:1052E00087FF28194D490880888805194C4C8D8006
:1052F0004C4E39E04A490D186878FFF77FFE0028C8
:10530000039E0ED0002228462146FFF77CFE01288E
:1053100007D1287BFFF718FF00281ED0FFF716FAE9
:1053200003E02846214600F0C1F83C480246508878
:105330000019508091880D1B95802A463240002A22
:10534000374C04D0304021182046FAF751FF33483B
:1053500001460D800020488006E0012339A029463F
:105360002246FEF741FCE0E728043CD02B48408869
:10537000C1B261180122034602E0521C491C5B1CA9
:105380000C78AA2C04D0ACB297B2A742F5D31DE09A
:105390000396DFB2391ACCB2214E002C0CD0311852
:1053A000012321A02246FEF71FFC1C4801464F8026
:1053B0008888051B8D803846F1194C78A9B28C423B
:1053C00001D8002C96D1164C039E00E0144C002806
:1053D00009D02118AAB22046FAF70AFF0F48014661
:1053E0000D8000204880059D2E40002E12D006988A
:1053F0000499401806900948008802990A1A91B247
:10540000ABB29942294600D811468BB2F21A002B52
:1054100000D05DE7019807B0F0BDC046D80000207D
:105420005C030020FFFF0000736E7278205F7061E4
:105430007365724672616D652068656164204E47D0
:105440003A200000736964204E473A2000000000B3
:1054500080B5054800210180418081800220FF2124
:10546000024A00F0B7F880BDD8000020E52900000E
:1054700080B50A46014607480068FEF775F8014600
:105480000120002900D080BD03A0FEF785FB00208D
:1054900080BDC046DC0500200D0A736E5278517540
:1054A00065756544652078310000000080B50A46C6
:1054B000014607480068FEF7A3FF014601200029C6
:1054C00000D080BD03A0FEF767FB002080BDC04672
:1054D000DC0500200D0A534E4958000080B501201C
:1054E0004002FEF7BCFF04490860002800D080BDE0
:1054F00002A0FEF751FB80BDDC0500200D0A736E93
:1055000052785175657565496E697420783100006F
:1055100080B502480068FBF7C3FC80BDDC050020B5
:10552000B0B50D460446FFF77EFD012807D1201DCA
:10553000FEF7C6FF002817D0184803210DE02046CB
:10554000294600F02CF90146012909D1601DFEF71A
:10555000B7FF00280FD01148022101600120B0BD23
:1055600009A0FEF719FB0CE00C480121016010A016
:10557000FEF712FB05E00AA0FEF70EFB074801212B
:1055800001600020B0BDC0460D0A736E5278556EA2
:105590007061636B5F785F3D25640000E807002061
:1055A0000D0A736E5278556E7061636B5F32000046
:1055B0000D0A736E5278556E7061636B5F783100BF
:1055C0000148002101607047E807002080B5FDF721
:1055D00085FA80BD70B513460A460146FF240029AE
:1055E00012D0002A10D00025084804E02E01865D64
:1055F000002E03D06D1C132DF8DD05E0E8B2A042AB
:1056000002D0FDF709FA2C46E0B270BD180A00205E
:1056100080B57D239B005843FFF7DCFF80BD10B5AC
:105620000446207800210A460B46FDF7F5F9FF20D5
:10563000207010BD4278002103E05A1E835CC9B27D
:10564000591813460422052BFBD0012BF5D1007805
:105650004018C0B2704710B50446FFF7EBFF217940
:10566000411A0020401A484110BD70B514460D463D
:105670007721C9432231217021460F31E27B8823F3
:105680008B54E17B103161700126A670E070601DC3
:10569000FEF73CFF6573A6732046FFF7CBFF207132
:1056A000304670BD01787F220A4002707047017851
:1056B00080220A430270704726480068C11E0020FD
:1056C000401A48417047C04622480068811E0020A9
:1056D000401A48417047C0461E480068011F00201C
:1056E000401A48417047C0461A490A68042A22D81D
:1056F0007A44127952009744160E021207000328CA
:105700001AD004280FD016E0012203461343092BB8
:1057100001D10A6009E002280DD1022004E0052829
:105720000CD0062807D1012008600B480178FD2223
:105730000A400270704770470320F5E70648027878
:1057400002231A4203D101230B60FD21F0E704205C
:10575000086070474C0100206C0B0020AA38002123
:10576000091A484170471538F8210140CA0801203C
:1057700000211D2A00D3084670470020704710B54D
:10578000044600F02EF8012808D1601DFEF7BAFE8D
:10579000014607200122002900D0104610BD10B597
:1057A0001539C9B25522D2433E32D4B20322AA23BC
:1057B000A14213D2047802219C4210D13E33D9B2C7
:1057C0004378153BDBB28B42114608D281783F20EB
:1057D00008400421012802D1014600E01146084694
:1057E00010BD70B50A46153AD2B27723DB43603359
:1057F000DDB203248823AA422AD205781A4622322F
:10580000D6B20222B54224D11A466032D2B24578CD
:10581000153DEDB2954222461BD282783F241440BA
:105820000422012C15D141180022D243895C0E229A
:1058300099420ED1817B491EC9B20822012908D89C
:10584000FFF709FF06220121002802D00A4600E0E6
:105850002246104670BDC00970473F210140491ED5
:105860000020401A484170474870000A087070478D
:105870000870000A48707047C870020A8A70020CEB
:105880004A70000E08707047B0B50D46044628886F
:105890000021FFF74FFB2060002824D068880021FA
:1058A000FFF748FB606000281DD0A888FEF7D7FDF1
:1058B000A060002817D0E888FEF7D1FDE06000283E
:1058C00011D0207EF8210140052008432076287A57
:1058D000A076687AE076002020776077E86820611B
:1058E00028696061B0BDFDF7A7FCB0BD02688A43BE
:1058F0000260704702680A4302607047F0B50146D3
:10590000C14A53780020102423420BD1177801207C
:105910003D460543FE263E40002900D13546157020
:1059200023435370F0BDC046F0494A780020042359
:105930001A4203D10C2002434A7001207047C0462E
:10594000F1494A78002002231A4202D11A434A70D0
:1059500001207047B0B5F94A137800215B060FD5D6
:10596000547801231C420BD101783B2551554178D5
:105970003C25515580783D2150541C4354701946A4
:105980000846B0BDF6494A78002008231A4202D1E1
:105990001A434A7001207047F8B50E4605460024A8
:1059A000042E6ED3384903222846FAF753FC002808
:1059B00013D0364903222846FAF74CFC002860D160
:1059C0000124072E5DD1E878DA285AD1A8798F49C9
:1059D0000870E3484178BF2251E0E8780127D128D8
:1059E00012D0D6281DD0E82825D0E52837D0DA28CF
:1059F00033D1092E45D1287A002842D1D8484178A0
:105A0000FB220A40427028E04A2E3AD1D44CA01C16
:105A1000291D4222FAF7ECFB6078FD2101406170FC
:105A20001BE0072E2DD1CE484178F6220A400821EE
:105A30001143417011E0062E23D1C9484178DF227D
:105A40000A40297903784270B9221A404900062396
:105A50000B4013434021194301703C4611E0072ECF
:105A60000FD1BF480378012419462143FE221A4072
:105A70002B79002B00D1114601704178EF220A40AA
:105A80004270204601B0F0BDC3690000C669000045
:105A9000F0B593B00124414F3957002000291BD0A5
:105AA000CA071BD18A073ED44A073FD40A074CD401
:105AB000CA065BD48A0667D44A0667D4002904461E
:105AC00040DA01A80124047140490191052100F048
:105AD000E1F878787F2146E0044633E001AE351DD9
