:020000040000FA
:1000000050100020D5000000EF000000E90A0000B9
:1000100000000000000000000000000000000000E0
:10002000000000000000000000000000F3000000DD
:100030000000000000000000F5000000570C000068
:10004000010C0000090C0000110C00001D0C000048
:1000500025080000D5100000251100003111000016
:100060002B0B0000330B0000310C0000390C00009A
:10007000F90A0000010B0000BD100000C5100000CF
:10008000CD1000001F0B0000DD100000E510000087
:10009000ED100000F10B000051110000290C0000D0
:1000A0000B070000F90B00003D1100004511000096
:1000B000D30B0000170B0000B90800001D0800005A
:1000C0000348854600F086FA00480047FD06000018
:1000D0005010002009480A4A002100A1814200D99D
:1000E0000244084802600848804708480047FEE785
:1000F000FEE7FEE7FEE7FEE7FEE700000000002067
:100100000000000008ED00E071100000C1000000D8
:1001100030B50B46014600202022012409E00D469F
:10012000D5409D4205D31D469540491B2546954027
:1001300040191546521E002DF1DC30BD70B500246B
:100140002546002801DA01244042002901DA012570
:100150004942FFF7DDFFAC4200D04042002C00D006
:10016000494270BD03460B439B0703D009E008C911
:10017000121F08C0042AFAD203E00B780370401C57
:10018000491C521EF9D27047D2B201E00270401CE5
:10019000491EFBD270470022F6E710B513460A4607
:1001A00004461946FFF7F0FF204610BD30B504465F
:1001B0000020034600E05B1C934203D2E05CCD5C70
:1001C000401BF8D030BDF0B51FB40646002082B009
:1001D00005464024019100901BE0019922460F46FC
:1001E000304600F020F8049A059B801A994110D3FC
:1001F00010461946224600F0FFF9361A8F41019742
:10020000224601200021009F00F0F6F938184D41E8
:1002100000902046641E0028DFDC019B00982946E0
:10022000324607B0F0BD10B5202A04DB0846203A5C
:10023000D040002110BD0B46D340D0402024A21A4C
:1002400091400843194610BDF0B50746084658408E
:1002500087B0C00F049048000E4659004008490876
:10026000BC1A884105D2384631461E4617460B4611
:1002700002465800400810434CD0300D0390400512
:100280005900400D490D0590401A0290402872DA3D
:1002900018030121000B09050843019004980092FE
:1002A000002805D001995242002088410092019017
:1002B000029840210A1A0199009800F09DF905461C
:1002C0000C466B4607CB00F0A7F9C0197141039AA1
:1002D0000E0D0023D71756401A467A40164344D0D5
:1002E000049A002A2DD0029A012A039A15DC1205DD
:1002F000C01A914101263605001C7141D20F059E9E
:10030000D2070093019202962A46234600F0A4F9F0
:1003100007B0F0BD38463146FAE71605224A0F46C7
:10032000B218C01AB74101210905001C4F4100183D
:100330007F41114618187941E20F10436D1964414D
:1003400013E0E2076D0815436408C2071443039ADB
:1003500001261205C01A91413605001C7141CE07D5
:10036000400830434908C01851412A46234600F04E
:1003700066F9CDE7FFE7049801224000C117121A81
:1003800000238B4104983146C417381AA141EEE787
:1003900030B40124E407634030BC55E730B4012495
:1003A000E407614030BC4FE70000E0FFF0B51FB448
:1003B00088B00B990998002448400999C00F49005A
:1003C00049080991C0070B990090490049080B9111
:1003D00009990898A64608431CD00B990A98084327
:1003E00018D0099801244000420D4800410D099899
:1003F00024050003000B204309900B980003000B19
:1004000020430B9050181C494018002201901446BC
:10041000104605E0002001460DB0F0BD032801DACA
:10042000034600E003239C46C11A0AAE0AE05F00BF
:1004300008ADED5B4F00F75B7D430027AA187C41B8
:10044000491C5B1E6145F2DD410004AB5A52210498
:10045000120C0A43240C401C0828DFDB0198029090
:100460000099704601910090059B049A079906989F
:1004700000F0F2F8D0E700000DFCFFFFF0B50C46ED
:100480005C4085B0E40FE40703944C000026640848
:1004900059009446490802460296224321D06246FA
:1004A0000A431ED06200570D4A000E032303550D68
:1004B000012402462C492405781B1B0B360B4018DF
:1004C00023432643614600901C46501AB44103D38F
:1004D0000098401C009002E0921800985B410028B0
:1004E00003DA0020014605B0F0BD00200121090516
:1004F0000746864611E064461D46141BB54106D3E7
:100500006546521BB341744607430C43A646CD07CC
:1005100040084908284392185B4105460D43EAD13B
:100520001046184313D060461946504071400843A6
:1005300006D06046101AB34106D20122002306E01D
:1005400000220123DB0702E00122D243531000986E
:1005500074460105381C6141029C039D00196941E4
:1005600000F06DF8BFE70000FD0300004A0009033A
:100570000123090B1B0519430A4B10B5520D9A4272
:1005800002DA0020014610BD064B34339A4203DCE8
:100590009A1AFFF748FE10BD034BD21800F02CF852
:1005A00010BD0000FF030000CDFBFFFF10B50029C8
:1005B00004DB0124E40740428C412146002B04DB8C
:1005C0001C460123DB075242A341994200D19042CD
:1005D00010BD0000064C0125064E05E0E36807CC7F
:1005E0002B430C3C98471034B442F7D3FFF76CFD13
:1005F000042600002426000010B5202A04DB014652
:10060000203A9140002010BD914020239C1A0346BF
:10061000E3401943904010BD10B5202A06DBCB17EC
:100620000846203A1041C1170B4306E00B46134120
:10063000D0402024A21A91400843194610BD10B59D
:10064000002B08DA0024401C614192185B411A43D8
:1006500001D14008400010BDF0B51FB482B005467E
:100660000C0003D0084601F0ADFA02E001F0AAFA4E
:1006700020300246009021462846FFF7BDFF049B2C
:10068000059A04460F4618431143084314D01846F0
:1006900010431BD0009840210A1A18460599FFF70D
:1006A000C2FD05460E46009A05990498FFF7A4FF7F
:1006B000084305D0012004E02046394607B0F0BDCC
:1006C0000020C11705430E432C43374300990E9871
:1006D0006305401A7905E40A00220C43FD0A0A303A
:1006E00002D500200146E9E70105101969410C9C7B
:1006F0000D9D00196941FFF7A2FFDFE780B500F00B
:10070000B7FC01F04DF9002080BD80B5C046C04661
:10071000C046C04680BD000001228A40D14300028D
:10072000014A815000207047140C00400002034A27
:100730008258CA40012010407047C046100C00404B
:1007400010B50002034A8358094C1C400C438450E6
:10075000002010BD000C004010B50002034A835871
:10076000034C1C400C438450002010BD040C00407E
:100770000000FFFF00022849425801231343435061
:100780000020704700022449425801239B02134372
:10079000435000207047C04670B5032213030A6817
:1007A00014031C4000021C4A85589D432543855074
:1007B00001235C024D686D0225408658A6432E43F6
:1007C00086500C7A85581E02B5431C4023022B43E9
:1007D0008350CB681B01702423408558A5431D43DB
:1007E00085500B7CDB00082423408558A5431D431E
:1007F00085504B699B00042423408558A5431D4325
:100800008550896949000223194084589C430C4350
:100810008450002070BDC0460C0C004080B5C0461E
:10082000C04680BD80B5C046C04680BD70B50028BA
:1008300005DB1F23034001249C401B4B1C60C300AD
:1008400018241C408901CBB2A340FF21A140CC4316
:100850001649002805DB03250646AE43154D7519DC
:1008600006E00F250540083D0326B543104EAD199F
:100870002E6826401E432E60012A07D1002811DB76
:100880001F221040012282400A6070BD002809DB4F
:100890001F2210400122824080200A50BFF34F8F58
:1008A000BFF36F8F70BDC04680E200E000E100E062
:1008B0001CED00E000E400E080B5C046C046C04644
:1008C000C04680BDF0B589B00D460446FF260896A7
:1008D00068462021FFF75FFC04200C2C32D801224F
:1008E0001146A140184B19422CD0500217490B6AEF
:1008F000834315406802184308620020144A05E04B
:100900008300D55865436F46FD50401C0828F7D139
:100910000022134613E008969C00684605590AE039
:10092000089F781E08900720002F0BD03C48C86213
:100930003C48C8620D510859A842F1D15B1C072BF5
:10094000E9D9104609B0F0BD561100000000024080
:10095000D42500003149324ACA60324ACA60800058
:100960000C2210400B68934303430B600020704738
:10097000FFB50091FF210191039144020420610C15
:100980004AD101980390254A10681026304206D0BB
:100990000399481E039009200029F4D13CE0EC495A
:1009A000D160EC4FD7600023D84310610291D16031
:1009B000D7605061019803900DE00399481E0390A1
:1009C0000920002928D00298D060D7601068A84379
:1009D0000121014311601068032528400128ECD152
:1009E000009D03E09800295821505B1C802BF9D111
:1009F000019803901068304206D00399481E039076
:100A000009200029F6D107E00299D160D7600020C3
:100A10001061D160D760506104B0F0BD2000024089
:100A20005A5A0000A5A500000246012003468B404B
:100A300011681940002900D10846704780B5034A63
:100A40008018012200F0FCF8002080BD140D024047
:100A5000FEB515460E4601901C49471838460C3025
:100A60000024314622460294194B9847B000019960
:100A700008181C494450384608302A783146144C2E
:100A8000A0472A7938463146A04738461C302A7A92
:100A90003146A047384620302A7B3146A0473846A9
:100AA00024302A7C3146A0472C372A7D38463146EF
:100AB000A047A8690121C903064A13688B43C003F4
:100AC00080B218431060029803B0F0BD000D0240E0
:100AD000410C0000080F02408900401801494250B3
:100AE00000207047000C024081B000200090009868
:100AF0000028FCD001B0704780B5C046C04680BD1C
:100B000080B5C046C04680BD8168C068091A002013
:100B1000401A4841704780B5C046C04680BD80B588
:100B2000C046C046C046C04680BD80B500F056F8FD
:100B300080BD80B5C046C04680BD10B514300024CD
:100B4000224600F07DF8204610BD80B5001D012230
:100B500000F076F8002080BD80B51030FFF764FF0C
:100B600080BD0000F8B50546042400291FD00024EC
:100B70006C60CCC908681E4306433E4316436E6052
:100B8000802313432E1D1039C02B10D1C009094AF0
:100B9000024009A0805A8A69824048691146FFF7DD
:100BA000B7FAA86104210122304600F049F8204636
:100BB00001B0F0BDFCFFFF010400000003000000D5
:100BC000020000000268FF239A430A4302600020EB
:100BD000704780B5C046C04680BD000080B5034860
:100BE0000068002800D0804780BDC0463C0400203B
:100BF00080B5C046C04680BD80B5C046C04680BDF9
:100C000080B5C046C04680BD80B5C046C04680BDE8
:100C100080B5C046C046C046C04680BD80B5C0460F
:100C2000C046C046C04680BD80B5C046C04680BDF7
:100C300080B5C046C04680BD80B5C046C04680BDB8
:100C400001238B40012A02D10168194301E00168A8
:100C500099430160704780B5C046C04680BD000022
:100C600010B502469A4B9B4898609B4898600420B8
:100C7000042A6CD87A4412795200974402142B3E0D
:100C8000560001200029024600D10A461C68844310
:100C900014431C600020002959D0D9680122D202D7
:100CA0001142FAD053E02D48026803241443046033
:100CB0001868022290430122002900D10A465200FE
:100CC000104318600020002941D0196940221142C8
:100CD000FBD03CE01868042290430122002900D197
:100CE0000A46920010431860002000292FD059694D
:100CF000012212031142FAD029E003208003164A90
:100D000014680443146018680822904301220029E3
:100D100000D10A46D200104318600020002916D0E6
:100D2000996940221142FBD011E0186810229043CB
:100D30000122002900D10A46120110431860002048
:100D4000002904D0D96B012292041142FAD010BDBF
:100D50005A5A0000A5A500008C0D02404C1D02400F
:100D6000F0B58AB0B1480188079141880691818821
:100D70000491C1880291058C0B20C143CA4A505886
:100D8000440907231C400120C603C948089036487F
:100D90000090364801903648039036480590364F0B
:100DA0007B48042C099124D87C4424796400A7440E
:100DB000025422292B00106808990840079988429C
:100DC00038464AD010680899084006998842059824
:100DD00043D01068089908400499884203983CD091
:100DE00010680899084002998842019835D0009807
:100DF00033E0002031E09068AA4901404B204002D6
:100E0000A9422AD0304628E0116B03240C40032C61
:100E100005461DD1106808990840079988423D464B
:100E200016D010680899084006998842059D0FD091
:100E300010680899084004998842039D08D01068FA
:100E40000899084002998842019800D00098054608
:100E5000106B41090F200840684309995158090A4D
:100E60001940C8400AB0F0BD00093D0000127A00E8
:100E70000024F4004086510100366E0180B5FFF772
:100E80006FFF75490968C90A03220A40D04080BD36
:100E90007149724A8A60724A8A600722120200020D
:100EA00010400B68934303430B6000207047C0461B
:100EB00069496A4A8A606A4A8A600322D202C00289
:100EC00010400B68934303430B6000207047C046FB
:100ED000002000405A5A0000A5A50000F0B5534A72
:100EE000118856889588D38884686F4A032C23D14B
:100EF00017686F4C27408F4203D1C7680621022F25
:100F000044D811682140B14203D1C6680621022E9F
:100F10003CD811682140A94203D1C5680621032DA0
:100F200034D81168214004460C3499420DD123680D
:100F30000621062B09D929E0C168154B4B4304460D
:100F40000C340621134DAB4220D803214B03056816
:100F50006D031D40166B9E432E43166343689B0032
:100F60001C252B40166BAE431E4316630F235B01FB
:100F7000246864011C40156B9D43254315638068FC
:100F80000840136B8B430343136300210846F0BDF5
:100F90000048E801006CDC0270B50C460546A80666
:100FA0000C4802D4294622460FE020218D43061D1D
:100FB000304629462246FFF743FE0748032D01D15C
:100FC000047004E0027803213046FFF739FE002068
:100FD00070BDC0462020004040040020400013495E
:100FE000405A3349014030480268324B13400B43AA
:100FF000036000207047C046032189028002084038
:101000000B4A13688B430343136000207047C046AC
:1010100040000649405A2349014005480268234BD5
:1010200013400B43036000207047C046000C1000C3
:101030001420004080B50849084A8A60084A8A603E
:101040000A68E0239A434001C0B21043086000F0F0
:1010500009F8002080BDC046002000405A5A000018
:10106000A5A5000080B5FFF77BFE1349086080BD91
:1010700010B50B49488B0B4A02400B4883680B4C58
:101080001C40144384600988094A0A400168094BDE
:101090000B4013430360FFF763FE0749086010BD70
:1010A000080C1000FF0300000C20004000FCFFFFB4
:1010B000FF07000000F8FFFF0800002080B500F0E7
:1010C00019F880BD80B5C046C04680BD80B5C04619
:1010D000C04680BD80B5C046C04680BD80B5C04614
:1010E000C04680BD80B5C046C04680BD80B5C04604
:1010F000C04680BD80B500200146FFF717FB0128E0
:101100000AD106480168491C0160054801210170A7
:1011100000200146FFF700FB80BDC04644040020CC
:101120001000002080B5C046C046C046C04680BD05
:1011300080B5C046C046C046C04680BD80B5C046EA
:10114000C04680BD80B5C046C046C046C04680BDD2
:1011500080B5C046C04680BDB0B504461C200B4DCE
:101160002146A84708202146A84700202146A84735
:1011700001202146A8471F202146A8470F202146CD
:10118000A84710202146A847B0BDC046990F0000CF
:10119000BCB55C4C01212046FFF7DEFC002821D0C5
:1011A00001212046FFF7C9FC544DA86800F098FCC7
:1011B000297F012806D1032001432977E87F2121D7
:1011C0006854BCBDFE2001402977A86801A900F041
:1011D0002DFC012806D101A800782168FF22914347
:1011E0000143216000212046FFF7B6FC002812D001
:1011F00000212046FFF7A1FC216801A80170E54C01
:101200006068C9B200F026FCA07F20216054207FD6
:10121000FB2101402177BCBD7CB5DE4C207FC0079F
:101220002FD02120215C002904D0491E2154FF2009
:10123000014226D12069FFF767FC002821D12069EF
:101240002F4D2946224600F0B1F9012819D1002678
:1012500004E00178A06800F0FDFB761CA819216865
:101260008E42F6D3A06801A900F0E0FB012808D166
:1012700001A801782348FFF7A5FC207FFE2101404B
:101280002177207F0221084207D0FD2108402077E6
:10129000A169002901D08847207F40071DD4202064
:1012A000215C002904D0491E2154FF20014214D1A1
:1012B0000025134E05E0606800F0B8FB052803D058
:1012C0006D1C71197F2DF6DDE0680D492A4600F08E
:1012D0001DFB207F042101432177E068FFF714FC08
:1012E00000280AD1E0680649224600F05FF96269E9
:1012F000002A02D02168024890477CBD20000020CF
:101300005002002000020040B0B50446CDB229468C
:1013100000F070F9012803D02046294600F032F988
:10132000B0BD704780B50349FFF722FB0021091AC1
:10133000484180BD50000020FEB52A490868401C85
:1013400008600022284D17461FE0337835461035D7
:101350000027002B17D0B06822490968081A012716
:10136000002810D0019302927168FEF7D1FE002987
:1013700008D10198FF2801D0401E3070F068002885
:1013800000D08047029A2743521C3C462E46D0B2DA
:101390001328DAD9200600D0FEBD00F04FFA00F085
:1013A00017F8FEBD70B514280FD804010E4D2E1984
:1013B00071600C480068B0602A55F360002A04D0C0
:1013C000002802D1014800F02FFA70BD3913000047
:1013D00080B504480021016005208201024800F028
:1013E00058F880BD4C000020FC02002080B5074862
:1013F0004078012802D106A000F024F91E480021FF
:101400000160FE2000F022F880BDC04648040020A4
:101410000D0A63666750616765496444656600004C
:10142000154800687047C04680B500F007F81248BC
:101430000068000A01D0FFF7D9FF80BD80B5FF200A
:1014400000210D4A012300F06BF980BD80B50146F3
:10145000094A136800208B420DD01160074840787C
:10146000012802D106A000F0EDF8FF200021024A79
:10147000012300F061F980BD4800002048040020ED
:101480006366675061676549645365743D25640010
:10149000FEE710B55242002302E0C41A21705B1E21
:1014A0009A42FAD110BD00001E480168491C01D1C2
:1014B000002101600021416081603C22C260026124
:1014C0004B22D2004261074A0262C2618261242239
:1014D000815425228154262281540C480121017017
:1014E0007047C0465858585810B5FFF79DFF00F098
:1014F0000FF8064C0020207025200A49085C0028BF
:1015000003D0FFF7D1FF0120207010BD4400002060
:1015100080B5FFF785FF0021024A0C2300F000F997
:1015200080BDC046D002002080B500F003F800F076
:1015300087F880BDB0B586B001A9802008804880BA
:10154000012420028880C88002200872487209485D
:101550000490094805900F4D281D00F0EBFAFF217B
:10156000064A204600F0C8FA6877054800F0C8F936
:1015700006B0B0BD091300002313000019120000CB
:101580009111000080B50A4601460248006900F04A
:10159000BDF980BD20000020002804D105E0002214
:1015A0000270401C491E0029F9D17047F8B5164653
:1015B0000C460546A968EA680020914217D02868C1
:1015C000475C481C6968FEF7A3FDA96037600BE023
:1015D000A8682968085C20706968A868401CFEF744
:1015E00097FDA9607F1E641C0120002FF0D101B07F
:1015F000F0BD000070B50D4604460026032D17D33C
:101600000C4903222046FEF7D1FD002810D1E01C32
:1016100009490822FEF7CAFD002809D10B34F53527
:10162000E9B2204600F00AF801460120012900D065
:10163000304670BDFD250000F425000000207047F5
:101640007047000083B070B5A1B0044625A80EC055
:1016500001AD802628463146FEF79DFD25AB00935F
:1016600028463146224600F097FA0146002901D06B
:1016700001A801E004A00B21FFF784FF21B070BC9A
:1016800001BC03B00047C0466D795072696E746644
:10169000204E4700F0B585B000252846FFF7F8FB3F
:1016A0002846FFF705FC1120FFF7B2FC0226304662
:1016B000FFF7A2FC0124144F30462146B8473046BC
:1016C000FFF7B8FC04263046FFF788FC2846214681
:1016D000B84701950296032003900C20049001A8BE
:1016E000FFF7FCFB2046FFF735F930462146B847A7
:1016F0003046FFF79FFCFFF733FB044908602046A4
:10170000FFF72AFD05B0F0BD610C00004C0400207D
:1017100080B50C200121FFF7D5F80028F9D180BD54
:1017200089004002401802E002C802C25B1E002B82
:10173000FAD1012070470000FEB5029205468800EC
:10174000114C201801906E0298000090042716E0BA
:10175000FF2D13D8002003E0810072586250401C16
:101760008028F9D101980299009AFEF7FBFC2846DF
:10177000FFF7D8FD01460120002903D17F1E00207C
:10178000002FE5D103B0F0BD5000002080B5FFF779
:1017900081FFFFF7BDFF00F005F8002000F054F8CE
:1017A00080BD000070B58AB06E4628213046FFF734
:1017B000F3FE00240094059404200390012506956F
:1017C00034743472019420463146FEF7E5FF0E4E24
:1017D00020463146FEF7B4FF20463146FEF7BCFFF7
:1017E00020462146FEF798FF2046FEF7CBFF0E204D
:1017F00003212A46FFF71AF80F48047003490C60CA
:1018000044600AB070BDC04690E800004404002067
:1018100010B5094C2078012805D16068002800D057
:1018200080470020207010BD80B50349486000202B
:10183000FEF7A0FF80BDC0461000002080B500204C
:10184000FEF798FF80BD0000F0B58BB0029004ADAC
:101850001C2101912846FFF79FFE00260596402493
:10186000204631462A46FFF7F3F80322039220462A
:101870003146FFF731F90120009005900B272046F3
:1018800039462A46FFF7E4F820463946039AFFF71F
:1018900023F904AD28460199FFF77EFE0220009F40
:1018A0003946FFF779FB069605960796FFF7E6FAA5
:1018B0000990B8020890E12040020A9004940F4C6D
:1018C00020462946FFF74EF920463146FFF735F905
:1018D00020463946FFF731F920463146FFF735F902
:1018E00020463946FFF731F9082003993A46FEF7BA
:1018F0009DFF0548029901600BB0F0BD0002004059
:10190000014908607047C0463C04002070B5144689
:101910000D46064600F01EF80146621C002091426A
:1019200017D3F06831680C547168F068401CFEF7FA
:10193000EFFBF1600AE030682A7842547168F06881
:10194000401CFEF7E5FBF160641E6D1C0120002CBD
:10195000F1D170BD10B5041D1CCC9818011B881A5C
:101960009C4200DB084610BD70B505462E46133676
:10197000304600F071F90446002C0BD02046314669
:10198000FEF709FC20461030002121C4216061606F
:10199000083C02E0FFF77CFD0024204670BD0000FB
:1019A000F0B587B0104800244470FFF7EFFE6D4695
:1019B0001C212846FFF7F0FD0194039401270497AA
:1019C000022620463146FFF739F8204631462A469E
:1019D000FFF73EF800F022F804A0FFF733FE0248BC
:1019E0004770FFF715FFFCE7480400207030335FB5
:1019F0007465726D696E616C5F6374726C5F776140
:101A00007465722056302E315F32303230303631CC
:101A1000332066656E676875690D0A0080B500F051
:101A200066F8FFF761FDFFF77FFD80BD10B5044646
:101A30000CCC0520083C9A420BD0002903D0E0686A
:101A4000805C08702268501CA168FEF777FB21605B
:101A5000012010BD70B50D4604466668A168701C73
:101A6000FEF76CFB22680420914208D0E06885559F
:101A7000A1686068401CFEF761FB6160012070BDD9
:101A8000F8B50C46411E490A04D00025002C24D08C
:101A9000032021E0461C102000F0DEF80546002D52
:101AA00014D000272F606F60AE60304600F0D4F88D
:101AB000E860002811D1284600F09CF8FFF7E8FC08
:101AC000002C01D0022020603D4606E0FFF7E0FC3C
:101AD0000025002C01D002202060284601B0F0BD76
:101AE00001684068091A0020401A4841704780B5D3
:101AF000FFF76EFC80BD000070B513460A46014634
:101B0000FF24002912D0002A10D00025084804E044
:101B10002E01865D002E03D06D1C132DF8DD05E02F
:101B2000E8B2A04202D0FFF73DFC2C46E0B270BD07
:101B3000FC020020B0B50D46044628880021FFF7BE
:101B40009FFF2060002824D068880021FFF798FFBD
:101B5000606000281DD0A888FFF706FFA06000285D
:101B600017D0E888FFF700FFE060002811D0207E42
:101B7000F8210140052008432076287AA076687A6B
:101B8000E076002020776077E8682061286960614E
:101B9000B0BDFFF77DFCB0BD7CB515460246002008
:101BA0001C4600290BD0491E00920191044B6A4645
:101BB0002146284600F03EF9009A002111707CBDB4
:101BC0006D2500002021020C01D010211046020AD0
:101BD00001D010460839020901D01046091F8208B9
:101BE00001D01046891E420801D0881E7047081A8D
:101BF0007047000030B5002805D0164C021F206841
:101C00000023014605E0084630BD904203D8034654
:101C100040680028F9D1002B00D05968002B0AD069
:101C20001C68D51AA54204D11268A4181A461C6073
:101C300002E05A6000E02260002807D01468851A8C
:101C4000A54203D1056864191460406850601846C5
:101C500030BD000000000020F1B50E4C0F480C4EC6
:101C6000001B0D4FC508ED0000221146009800F042
:101C700089FC002803D13068002801D00020F8BD7D
:101C80003C6000202560606001203060ECE70000CF
:101C9000040000205404002000000020500C00200C
:101CA00002E008C8121F08C1002AFAD17047704725
:101CB000002001E001C1121F002AFBD17047000083
:101CC000F0B51FB486B00998089A030D00210243AD
:101CD00014D05148514A181850430514119801283E
:101CE00010981AD0281A401C00264D4F4D490096D6
:101CF00001910490002812DA444211E01198012465
:101D000049A3012801D11098C1430698119A846013
:101D10000360C26041600BB0F0BD4042E4E704469E
:101D2000210500203F4A001C51410391029012E01E
:101D3000E00707D032463B4601990098FEF736FB94
:101D40000191009032463B4610461946FEF72EFBA5
:101D500006460F466410002CEAD10498039B002825
:101D6000029A0999089806DAFEF720FB019B009A6F
:101D7000FEF71CFB05E0FEF781FB019B009AFEF7D6
:101D80007DFB04460E460022284BFEF70FFC03D8CD
:101D90000020C043014607E00022254B2046314683
:101DA000FEF752FAFEF7E2FB102409E0002C0ADBF2
:101DB0000A220023FEF707FA079B30321A55641EE9
:101DC00002460A43F2D11122641C079B121B1C1904
:101DD000119B012B03D0012308430ED10AE00843D5
:101DE00004D0112010900020119077E71098151A58
:101DF0006D1E0BE01098824202DD00236D1C03E093
:101E0000824201DA00236D1E002BEED00698119954
:101E10008260C16030C07EE701FCFFFF104D000012
:101E2000000014400000F03F300000000000F043CC
:101E30000000E03FFFB597B00646002518E22528D0
:101E400077D100242746FD49049400E00443761C22
:101E500032780120203A90400842F7D130782A2881
:101E60000ED00222307801463039092916D804995B
:101E70000A235943303940181443761C0490F1E783
:101E8000189802C804911890002904DA0120400330
:101E900004434842049002200443761C30782E28E4
:101EA00014D1042004437078761C2A2809D118988C
:101EB000761C80C8189009E00A214F43303FC719AB
:101EC000761C3078014630390929F5D930786C28EC
:101ED00010D006DC4C281AD068280ED06A2817D1FA
:101EE00004E0742813D07A2812D110E001204005B4
:101EF00004430CE00121090501E0032109050C431D
:101F00007178814203D1012000052418761C761CCB
:101F10003078119066280BD013DC58287DD009DC6E
:101F200000287BD04528F6D04628F4D047281AD17F
:101F3000A5E118E0632835D0642870D0652812D157
:101F40009DE170286CD008DC6728F1D069287BD02F
:101F50006E280DD06F2806D1BAE073282ED07528D0
:101F600071D0782859D01A9A199990476D1C7EE142
:101F70006002400F022809D003280DD004281898C9
:101F800001680DD00D60001D189070E11898EA17D7
:101F900001680D604A60F6E7189801680D80F2E765
:101FA0000D70F0E718986A4601781172001D1890BC
:101FB0000020507202A80090012005E0189802C885
:101FC000189000200091C04361070DD5002101E069
:101FD0000199491C0191B94212DA8142F8DB009A59
:101FE000515C0029F4D10BE0002101E00199491C6A
:101FF00001918142FADB019A0099895C0029F5D1AF
:10200000019904981A9B471A21463846199A00F0FC
:1020100097FA0199401945180BE04FE02CE113E0C5
:102020004EE0009800990078491C00911A9A19997D
:1020300090470198401E0190401CF2D1214638463D
:102040001A9B199A10E137E00A20002100900191B3
:102050006002410F022907D0189A01CA1892C217CC
:102060009446032908D00AE01898C01DC108C90089
:1020700005C91891944607E000B2C2179446042996
:1020800002D140B2C1178C4600226146944506DA5F
:102090000A460021404291418C462D2102E0210553
:1020A00004D52B216A461173012103E0E10701D019
:1020B0002021F7E7029155E00A200AE0102008E00D
:1020C000102000900021042004430191082703E020
:1020D00008200021019100906002410F022907D0E1
:1020E000189A01CA189200229446032908D008E0E1
:1020F0001898C01DC108C90005C91891944603E08D
:1021000080B2042900D1C0B200210291210729D553
:102110001199702906D0009A1021019B4A401A4358
:1021200005D00EE040216A461173012108E06146A6
:10213000014306D030216A4611731199517302216F
:102140000291009A0821019B4A401A430AD1614634
:10215000014301D1610705D530216A461173012180
:102160007F1E02911199582904D035A10E910DA915
:102170000D910DE037A1F9E76146019B009AFEF74A
:1021800022F80E9B8C469B5C0D9A521E0D9213708A
:1021900061460143F0D10D9805A9081A203001903D
:1021A000600703D501200004844300E00127019863
:1021B000874201DD381A00E00020019900904118A3
:1021C000029809180498401A0490E00306D42146A6
:1021D0001A9B199A049800F0B3F94519002706E0F4
:1021E00003A81A9AC05D199990476D1C7F1C02982C
:1021F0008742F5DBE0030CD521461A9B199A049817
:1022000000F09EF9451904E01A9A30201999904778
:102210006D1C0099481E00900029F5DC08E00D981F
:102220000D990078491C0D911A9A199990476D1CC7
:102230000199481E01900029F1DC63E109280100A1
:10224000303132333435363738396162636465662C
:1022500000000000303132333435363738394142EE
:10226000434445460000000000F05AF94519761C29
:102270003078002800D0E2E528461BB0F0BD6007AA
:1022800000D406271898C01DC108C90048680A680C
:102290000831C30FDB071891190001D09CA108E099
:1022A000210501D59BA104E0E10701D09AA100E03E
:1022B0009AA1430011985B08109165280CD006DCA8
:1022C000452809D046281DD0472841D141E066283D
:1022D00018D067283CD13CE00021112F01DB1120F0
:1022E00000E0781C0191009008A911A8FFF7E8FC14
:1022F000139905910021119A15927F1C129801974C
:10230000009150E00120C00703900120019008A92E
:10231000009711A8FFF7D4FC139A14990592002294
:10232000119B009212981593059A0192002901D0F1
:10233000104602E0791C40180190381A01D5019826
:1023400004E04042401E0090781C0190C01B0290A7
:1023500043E0012F00DA01270021112F01DD1120B8
:1023600000E038460191009008A911A8FFF7A8FCE9
:1023700013990591119A00211298159200910197D5
:1023800021070CD40599B94201DB019900E00191C4
:10239000012904DD159A491E515C302906D0B84246
:1023A00001DA011D05DA0121029115E00199491EAA
:1023B000EDE7002805DC0099411800910199091A00
:1023C00003E0019A411C914200DD01910099401AFD
:1023D000401C02900120C0070390200706D40299F8
:1023E0000198814202DB0020C04302900020694630
:1023F000C87707AF012103980337C907884224D063
:10240000022011902B201290039800280CDA4042F1
:1024100003902D20129007E00A210398FDF778FE23
:1024200030317F1E039039701199481E1190002998
:10243000F2DC03980028EFD1791E129808703078EA
:10244000202108404530BF1E387006A8C01BC01DA3
:10245000039010980078002800D0012001994118BD
:102460000298C0170918039809180498401A401ECA
:102470000490E00306D421461A9B199A049800F0B0
:102480005FF8451910980078002803D01A9A199916
:1024900090476D1CE00324D521461A9B199A049895
:1024A00000F04EF845191CE00098002807DB009961
:1024B0000598884203DD1598405C199901E0199947
:1024C00030201A9A904700986D1C401C009002988A
:1024D000401E0290002804D11A9A2E201999904784
:1024E0006D1C0199481E01900029DDDC05E038785B
:1024F0001A9A7F1C199990476D1C0399481E0390E6
:102500000029F4DC21461A9B199A0498ACE60000D5
:102510002D0000002B000000200000000000000043
:10252000F8B5044600251E461746880404D405E085
:1025300039462020B0476D1C641EF9D52846F8BDE9
:10254000FFB50446002581B01E46C80301D53027DB
:1025500000E02027880404D505E038460399B047F9
:102560006D1C641EF9D5284605B0F0BD4A68002AE6
:1025700006D00A68531C0B6010704868401E486003
:1025800070470000F8B50B30C608F600104D19E092
:102590002068B04215D3B0420BD96368871B201D59
:1025A0000093FDF7DFFDA019009B076043602860E2
:1025B00004E060682860201DFDF7D4FD201D266022
:1025C000F8BD251D2C68002CE2D10020F8BD0000CC
:1025D0000000002020000000170000001B00000089
:1025E00050460000E022020018000000F000000049
:1025F000E80300007561727470617373006668406F
:102600000000000030260000000000201000000044
:10261000A01C000040260000100000204010000018
:10262000B01C0000000000000000000000000000DE
:10263000000000000000000000093D000000000054
:04000005000000C136
:00000001FF
